:020000040800F2
:1000000000000220A9270008A9290008B12900083A
:10001000B3290008B5290008B7290008000000002E
:10002000000000000000000000000000B9290008E6
:10003000BB29000800000000BD290008BF290008F6
:100040001D2800081D2800081D2800081D2800087C
:100050001D2800081D2800081D2800081D2800086C
:100060001D2800081D2800081D280008C9290008AF
:10007000D9290008E9290008F9290008092A0008F7
:100080001D2800081D2800081D2800081D2800083C
:10009000192A00081D2800081D2800081D2800082E
:1000A0001D280008292A00081D2800081D2800080E
:1000B0001D2800081D2800081D2800081D2800080C
:1000C0001D2800081D2800081D2800081D280008FC
:1000D0001D2800081D2800081D2800081D280008EC
:1000E0001D2800081D2800081D2800081D280008DC
:1000F0001D2800081D2800081D2800081D280008CC
:100100001D2800081D2800081D2800081D280008BB
:100110001D2800081D280008392A0008492A00085F
:100120001D2800081D2800081D2800081D2800089B
:100130001D2800081D2800081D2800081D2800088B
:100140001D2800081D2800081D2800081D2800087B
:10015000592A00081D2800081D2800081D2800082D
:100160001D2800081D2800081D2800081D2800085B
:100170001D2800081D2800081D2800081D2800084B
:100180001D2800081D2800081D2800081D2800083B
:100190001D280008000000001D2800081D28000878
:1001A0001D2800081D2800081D2800081D2800081B
:1001B0001D2800081D2800081D2800081D2800080B
:1001C0001D2800081D2800081D2800081D280008FB
:0801D0001D2800081D2800088D
:1001D80010B5054C237833B9044B13B10448AFF379
:1001E80000800123237010BDA80A00200000000031
:1001F80058CA000808B5034B1BB103490348AFF3BD
:10020800008008BD00000000AC0A002058CA0008A1
:1002180081F0004102E000BF83F0004330B54FEAAF
:1002280041044FEA430594EA050F08BF90EA020F1C
:100238001FBF54EA000C55EA020C7FEA645C7FEAAF
:10024800655C00F0E2804FEA5454D4EB5555B8BFD2
:100258006D420CDD2C4480EA020281EA030382EA43
:10026800000083EA010180EA020281EA0303362DD5
:1002780088BF30BD11F0004F4FEA01314FF4801CA8
:100288004CEA113102D0404261EB410113F0004FBA
:100298004FEA03334CEA133302D0524263EB430371
:1002A80094EA050F00F0A780A4F10104D5F1200E0F
:1002B8000DDB02FA0EFC22FA05F2801841F100016A
:1002C80003FA0EF2801843FA05F359410EE0A5F13E
:1002D80020050EF1200E012A03FA0EFC28BF4CF06F
:1002E800020C43FA05F3C01851EBE37101F0004525
:1002F80007D54FF0000EDCF1000C7EEB00006EEB32
:100308000101B1F5801F1BD3B1F5001F0CD34908BB
:100318005FEA30004FEA3C0C04F101044FEA445212
:1003280012F5800F80F09A80BCF1004F08BF5FEA99
:10033800500C50F1000041EB045141EA050130BD79
:100348005FEA4C0C404141EB0101013C28BFB1F58B
:10035800801FE9D291F0000F04BF01460020B1FAD6
:1003680081F308BF2033A3F10B03B3F120020CDAA9
:100378000C3208DD02F1140CC2F10C0201FA0CF087
:1003880021FA02F10CE002F11402D8BFC2F1200CEC
:1003980001FA02F120FA0CFCDCBF41EA0C019040A2
:1003A800E41AA2BF01EB0451294330BD6FEA0404EB
:1003B8001F3C1CDA0C340EDC04F11404C4F12002D6
:1003C80020FA04F001FA02F340EA030021FA04F3E8
:1003D80045EA030130BDC4F10C04C4F1200220FA3F
:1003E80002F001FA04F340EA0300294630BD21FA7D
:1003F80004F0294630BD94F0000F83F4801306BF43
:1004080081F480110134013D4EE77FEA645C18BF36
:100418007FEA655C29D094EA050F08BF90EA020FCD
:1004280005D054EA000C04BF1946104630BD91EAC5
:10043800030F1EBF0021002030BD5FEA545C05D1C8
:100448004000494128BF41F0004130BD14F5800407
:100458003CBF01F5801130BD01F0004545F0FE417B
:1004680041F470014FF0000030BD7FEA645C1ABFB0
:10047800194610467FEA655C1CBF0B46024650EAE7
:10048800013406BF52EA033591EA030F41F4002113
:1004980030BD00BF90F0000F04BF0021704730B599
:1004A8004FF4806404F132044FF000054FF000016E
:1004B80050E700BF90F0000F04BF0021704730B52F
:1004C8004FF4806404F1320410F0004548BF404204
:1004D8004FF000013EE700BF42004FEAE2014FEA59
:1004E80031014FEA02701FBF12F07F4393F07F4F34
:1004F80081F06051704732F07F4208BF704793F037
:100508007F4F04BF41F40021704730B54FF4607449
:1005180001F0004521F000411CE700BF50EA01024C
:1005280008BF704730B54FF000050AE050EA0102F5
:1005380008BF704730B511F0004502D5404261EB65
:1005480041014FF4806404F132045FEA915C3FF4A6
:10055800D8AE4FF003025FEADC0C18BF03325FEA43
:10056800DC0C18BF033202EBDC02C2F1200300FAF4
:1005780003FC20FA02F001FA03FE40EA0E0021FA19
:1005880002F11444BDE600BF70B54FF0FF0C4CF407
:10059800E06C1CEA11541DBF1CEA135594EA0C0FB9
:1005A80095EA0C0F00F0DEF82C4481EA030621EAF4
:1005B8004C5123EA4C5350EA013518BF52EA03352F
:1005C80041F4801143F4801338D0A0FB02CE4FF0E1
:1005D8000005E1FB02E506F00042E0FB03E54FF011
:1005E8000006E1FB03569CF0000F18BF4EF0010E09
:1005F800A4F1FF04B6F5007F64F5407404D25FEA05
:100608004E0E6D4146EB060642EAC62141EA5551B7
:100618004FEAC52040EA5E504FEACE2EB4F1FD0CF9
:1006280088BFBCF5E06F1ED8BEF1004F08BF5FEA77
:10063800500E50F1000041EB045170BD06F0004629
:1006480046EA010140EA020081EA0301B4EB5C04D6
:10065800C2BFD4EB0C0541EA045170BD41F48011CE
:100668004FF0000E013C00F3AB8014F1360FDEBFF3
:10067800002001F0004170BDC4F10004203C35DACF
:100688000C341BDC04F11404C4F1200500FA05F352
:1006980020FA04F001FA05F240EA020001F00042F3
:1006A80021F0004110EBD37021FA04F642EB060169
:1006B8005EEA430E08BF20EAD37070BDC4F10C0493
:1006C800C4F1200500FA04F320FA05F001FA04F257
:1006D80040EA020001F0004110EBD37041F1000143
:1006E8005EEA430E08BF20EAD37070BDC4F120054E
:1006F80000FA05F24EEA020E20FA04F301FA05F2B6
:1007080043EA020321FA04F001F0004121FA04F25D
:1007180020EA020000EBD3705EEA430E08BF20EA2D
:10072800D37070BD94F0000F0FD101F00046400067
:1007380041EB010111F4801F08BF013CF7D041EAE9
:10074800060195F0000F18BF704703F000465200ED
:1007580043EB030313F4801F08BF013DF7D043EABE
:100768000603704794EA0C0F0CEA135518BF95EA74
:100778000C0F0CD050EA410618BF52EA4306D1D1FB
:1007880081EA030101F000414FF0000070BD50EA1A
:10079800410606BF1046194652EA430619D094EAA4
:1007A8000C0F02D150EA013613D195EA0C0F05D18E
:1007B80052EA03361CBF104619460AD181EA0301E2
:1007C80001F0004141F0FE4141F470014FF000009A
:1007D80070BD41F0FE4141F4780170BD70B54FF035
:1007E800FF0C4CF4E06C1CEA11541DBF1CEA1355B5
:1007F80094EA0C0F95EA0C0F00F0A7F8A4EB050497
:1008080081EA030E52EA03354FEA013100F088808D
:100818004FEA03334FF0805545EA131343EA126356
:100828004FEA022245EA111545EA10654FEA00260B
:100838000EF000419D4208BF964244F1FD0404F5C4
:10084800407402D25B084FEA3202B61A65EB030520
:100858005B084FEA32024FF480104FF4002CB6EBDD
:10086800020E75EB030E22BFB61A754640EA0C005D
:100878005B084FEA3202B6EB020E75EB030E22BF9D
:10088800B61A754640EA5C005B084FEA3202B6EBDE
:10089800020E75EB030E22BFB61A754640EA9C009D
:1008A8005B084FEA3202B6EB020E75EB030E22BF6D
:1008B800B61A754640EADC0055EA060E18D04FEA2B
:1008C800051545EA16754FEA06164FEAC30343EACB
:1008D80052734FEAC2025FEA1C1CC0D111F4801F98
:1008E8000BD141EA00014FF000004FF0004CB6E791
:1008F80011F4801F04BF01430020B4F1FD0C88BF30
:10090800BCF5E06F3FF6AFAEB5EB030C04BFB6EB3A
:10091800020C5FEA500C50F1000041EB045170BD2D
:100928000EF0004E4EEA113114EB5C04C2BFD4EB5A
:100938000C0541EA045170BD41F480114FF0000EDE
:10094800013C90E645EA060E8DE60CEA135594EA5A
:100958000C0F08BF95EA0C0F3FF43BAF94EA0C0F5D
:100968000AD150EA01347FF434AF95EA0C0F7FF4D2
:1009780025AF104619462CE795EA0C0F06D152EA26
:1009880003353FF4FDAE1046194622E750EA41060A
:1009980018BF52EA43067FF4C5AE50EA41047FF41B
:1009A8000DAF52EA43057FF4EBAE12E74FEA41027E
:1009B800B2F1E04324BFB3F5001CDCF1FE5C0DD9B5
:1009C80001F0004C4FEAC0024CEA5070B2F1004FFF
:1009D80040EB830008BF20F00100704711F0804F02
:1009E80021D113F13872BCBF01F00040704741F4C7
:1009F80080114FEA5252C2F11802C2F1200C10FACB
:100A08000CF320FA02F018BF40F001004FEAC123AE
:100A18004FEAD32303FA0CFC40EA0C0023FA02F352
:100A28004FEA4303CCE77FEA625307D150EA013328
:100A38001EBF4FF0FE4040F44000704701F00040F8
:100A480040F0FE4040F40000704700BF53B94AB977
:100A5800002908BF00281CBF4FF0FF314FF0FF30BE
:100A680000F06AB9ADF1080C6DE904CE00F006F8A3
:100A7800DDF804E0DDE9022304B070472DE9F04712
:100A8800089D0C46002B4ED194468C458646B2FAFA
:100A980082F262D94AB1C2F12003914020FA03F3ED
:100AA8000CFA02FC194300FA02FE4FEA1C471FFA2F
:100AB8008CF6B1FBF7F44FEA1E4307FB141143EA27
:100AC800014304FB06F199420AD91CEB030304F124
:100AD800FF3080F01281994240F20F81023C63445A
:100AE800591A1FFA8EF3B1FBF7F007FB101143EA0E
:100AF800014300FB06F69E420AD91CEB030300F1F2
:100B0800FF3180F0FC809E4240F2F9806344023855
:100B18009B1B40EA044000211DB1D3400022C5E9D7
:100B28000032BDE8F0878B4205D90DB1C5E9000157
:100B380000210846F5E7B3FA83F1002946D1A3421C
:100B480002D39042C0F0F080861A64EB03030120C0
:100B5800002DE6D0C5E90063E3E7002A40F0908065
:100B6800A1EB0C044FEA1C481FFA8CF70121B4FBD7
:100B7800F8F64FEA1E4308FB164443EA044307FB12
:100B880006F0984208D91CEB030306F1FF3402D2A1
:100B9800984200F2CD8026461C1A1FFA8EF3B4FB49
:100BA800F8F008FB104443EA044300FB07F79F42B0
:100BB80008D91CEB030300F1FF3402D29F4200F274
:100BC800B0802046DB1B40EA0640A5E7C1F12006BD
:100BD8008B4022FA06F71F4320FA06FC04FA01F3B9
:100BE80043EA0C03F44000FA01F8380C4FEA1349C1
:100BF800B4FBF0FE1FFA87FC00FB1E4449EA0444DC
:100C08000EFB0CF9A14502FA01F20AD93C190EF1C2
:100C1800FF3A80F08480A14540F28180AEF1020E57
:100C28003C44A4EB09041FFA83F9B4FBF0F300FB7E
:100C3800134449EA044403FB0CFCA44507D93C19B6
:100C480003F1FF3067D2A44565D9023B3C4443EA2F
:100C58000E40A0FB0293A4EB0C049C42CE469C469B
:100C680051D34ED055B1B8EB0E0364EB0C0404FA23
:100C780006F6CB401E43CC40C5E90064002150E78E
:100C8800C2F1200320FA03F10CFA02FC24FA03F360
:100C980094400C434FEA1C4800FA02FE1FFA8CF7F6
:100CA800B3FBF8F008FB1031230C43EA014300FBC7
:100CB80007F1994208D91CEB030300F1FF362CD247
:100CC80099422AD9023863445B1AA4B2B3FBF8F1FB
:100CD80008FB113344EA034401FB07F3A34208D994
:100CE8001CEB040401F1FF3613D2A34211D90239D7
:100CF8006444E41A41EA004139E70446F0E608464C
:100D080006E7C845AED2B9EB020E63EB070C013813
:100D1800A8E73146EDE7034699E73046D4E7D646DB
:100D28007FE7634402384DE70646234608460FE747
:100D3800023E634430E700BF704700BF08B5002299
:100D48000121024804F0F2FA08BD00BF000400487F
:100D580008B501221146024804F0E8FA08BD00BFB0
:100D68000004004800B587B08DF80F0000238DF807
:100D780017304FF0FF33009301230DF117020DF1E7
:100D88000F01044807F041FC9DF8170007B05DF813
:100D980004FB00BF940E002008B5FFF7CFFF062024
:100DA800FFF7E0FFFFF7D4FF08BD000010B5FFF71D
:100DB800C5FF0520FFF7D6FF054CFF20FFF7D2FF40
:100DC80010F0010F01D0013CF7D1FFF7C1FF10BDB2
:100DD800A086010070B504460E461546FFF7E6FFEB
:100DE800FFF7DAFFFFF7AAFF0220FFF7BBFFC4F304
:100DF8000740FFF7B7FFC4F30720FFF7B3FFE0B2E0
:100E0800FFF7B0FF002404E0305DFFF7ABFF0134CB
:100E1800A4B2AC42F8D3FFF79BFF70BD10B50446EF
:100E2800FFF7C4FFFFF7B8FFFFF788FF2020FFF7A1
:100E380099FFC4F30740FFF795FFC4F30720FFF7B6
:100E480091FFE0B2FFF78EFFFFF782FF10BD70B58C
:100E580004460E461546FFF7A9FFFFF76FFF03206C
:100E6800FFF780FFC4F30740FFF77CFFC4F30720B8
:100E7800FFF778FFE0B2FFF775FF002404E0FF20DA
:100E8800FFF770FF30550134AC42F8D3FFF760FF2D
:100E980070BD000010B58CB0002409940A940B941E
:100EA8002022214601A80BF007FC36484FF0A0434A
:100EB80003604FF4403343608460C46004610123DD
:100EC80043610422826104774477026280F82440F7
:100ED8004FF4D462C2624FF48062026380F8383003
:100EE8004FF48053C36380F8404002F0F3FF0028BA
:100EF80035D10023099309A9224803F043FE0028AD
:100F080030D1214B019306230293002303937F22C0
:100F180004920422059206930DEB0201194803F08E
:100F280083F910BB194B01930C23029301A91548AF
:100F380003F07AF9E0B9164B01931223029301A941
:100F4800104803F071F9B0B9124B019318230293BA
:100F580001A90C4803F068F980B90CB010BD01F084
:100F68009DFAC6E701F09AFACBE701F097FAD9E7BC
:100F780001F094FADFE701F091FAE5E701F08EFA63
:100F8800EBE700BF700C002002003004040060088A
:100F98000800900C1000C01000B589B02022002174
:100FA80068460BF089FB1B481B4B03604FF440332A
:100FB800436000238360C36003614361042282614C
:100FC800037743770122026280F82430C362036307
:100FD80080F83830C36380F8403002F07BFF98B95E
:100FE8000E4B009306230193052302937F2303935B
:100FF80004230493002305936946064803F014F973
:1010080028B909B05DF804FB01F048FAE8E701F0F7
:1010180045FAF6E7040C0020000100500010603289
:1010280010B58CB0002409940A940B942022214610
:1010380001A80BF041FB1F481F4B03604FF44033DE
:1010480043608460C460046144610423836104775D
:1010580044770123036280F82440C462046380F863
:101068003840C46380F8404002F034FFC8B9002318
:10107800099309A90F4803F085FDA8B90F4B0193FF
:1010880006230293052303937F23049304230593E4
:101098000023069301A9074803F0C6F838B90CB035
:1010A80010BD01F0FBF9E2E701F0F8F9E6E701F01D
:1010B800F5F9F4E7980B0020000400500200300412
:1010C80000B589B02022002168460BF0F5FA1B48CC
:1010D8001B4B03604FF44033436000238360C360BD
:1010E800036143610422826103774377012202622C
:1010F80080F82430C362036380F83830C36380F813
:10110800403002F0E7FE98B90E4B00930623019396
:10111800072302937F230393042304930023059357
:101128006946064803F080F828B909B05DF804FB61
:1011380001F0B4F9E8E701F0B1F9F6E72C0B00206B
:10114800000600501000C09030B5A3B0044600213E
:101158001D911E911F9120912191542208A80BF0F6
:10116800ABFA2368B3F1A04F0CD0724A93425BD01C
:10117800714A934200F08B80704A934200F0BA8023
:1011880023B030BD4FF4004308934FF00053199338
:1011980008A806F0FDFE002835D1694A1368013316
:1011A8001360012B32D0674BDA6C42F00102DA642B
:1011B800DB6C03F001030293029B0F231D930323AF
:1011C8001E9300251F951DA94FF0904003F0BEFF08
:1011D8005D485E4B0360052343608560C5608023DE
:1011E80003614FF4807343614FF48063836120236C
:1011F800C3614FF40053036203F08EFE88B9524B6B
:1012080063659C62BCE701F049F9C6E74D4BDA6CAF
:1012180042F40052DA64DB6C03F400530193019B3F
:10122800C1E701F03BF9EAE74FF4004308934FF0B8
:101238000053199308A806F0ABFED0B9404A1368CA
:1012480001331360012B17D03E4BDA6C42F00202D7
:10125800DA64DB6C03F002030493049B04231D93FC
:1012680003231E9300231F931DA9394803F06EFF23
:1012780086E701F013F9E1E7324BDA6C42F40052E9
:10128800DA64DB6C03F400530393039BDCE74FF44D
:10129800803308934FF000431A9308A806F078FEAD
:1012A800D0B92C4A136801331360012B17D0254B92
:1012B800DA6C42F00202DA64DB6C03F00203069394
:1012C800069B02231D9303231E9300231F931DA92E
:1012D8001F4803F03BFF53E701F0E0F8E1E7194B43
:1012E800DA6C42F48042DA64DB6C03F480430593E1
:1012F800059BDCE74FF4803308934FF000431A93C3
:1013080008A806F045FE88B9124A1368013313602D
:10131800012B7FF435AF0B4BDA6C42F48042DA6470
:10132800DB6C03F480430793079B29E701F0B6F8C9
:10133800EAE700BF0001005000040050000600501A
:10134800C80A002000100240CC0A00200800024011
:1013580000040048C40A002000B583B01E4B9A6CF4
:1013680042F004029A649A6C02F004020092009A15
:101378009A6C42F001029A649B6C03F0010301939A
:10138800019B002205210B2003F03AFD0B2003F0FE
:1013980047FD002211460C2003F032FD0C2003F01B
:1013A8003FFD002205210D2003F02AFD0D2003F04A
:1013B80037FD002205210E2003F022FD0E2003F048
:1013C8002FFD002205210F2003F01AFD0F2003F046
:1013D80027FD03B05DF804FB0010024008B5344B4C
:1013E800D3ED077AF8EE677A9FED326A67EE867A70
:1013F800DFED316A87EEA67AF2EE0E4A67EE247ABE
:101408002E4AC2ED007AD3ED057AF8EE677A67EED8
:10141800867AC7EEA65A9FED2A7A77EE657A9FED0F
:10142800295AC7EE855A284AC2ED005AD3ED037AE5
:10143800F8EE677A67EE867AC7EEA65A65EEA47A62
:101448002249C1ED007AD3ED017AF8EE677A67EEAA
:10145800867A87EEA66A37EE467AC7EE057A1C4B7F
:10146800C3ED007AD2ED007AF5EEC07AF1EE10FA0B
:1014780017D4174BD3ED007AF5EEC07AF1EE10FAD7
:1014880013D401F0A3FB134B83ED000A01F0ACFB6E
:10149800114B83ED000A01F0B7FB104B83ED000AF6
:1014A80008BD134600221A60E3E700221A60E8E745
:1014B800400D00205AF5514000F07F452C0D0020CA
:1014C8003333D33F295C0F3E240D0020280D002024
:1014D800200D00201C0D0020180D0020140D0020E8
:1014E80070B5174D0024EC71164E0321304604F0F8
:1014F80000FEC021304604F0FCFDAC71AC80124BFC
:101508001C6088221A839A825A83DA820F4B1C60E5
:101518000F4B1C600F4B1C600F4B1C600F4B1C606B
:101528000F4B104A5A604FF07E529A600E4B0F4A8A
:101538001A600F4B0F4A1A600F4B104A1A6070BDA1
:10154800600D0020800D0020000000202800001001
:1015580024000010200000101400001010000010DB
:10156800340D00200000A040740D00200000A042AF
:10157800700D0020000034426C0D00200000204156
:1015880008B5FFF7ADFF024B01221A8008BD00BF66
:10159800600D002070B5094C0025E571084E032147
:1015A800304604F0A6FDC021304604F0A2FDA57126
:1015B800A3889BB20BB90122228070BD600D002068
:1015C800800D0020114B0022DA71114A1388013373
:1015D8009BB21380C82B0BD91346C8221A800B4B19
:1015E8009B889BB223B9094B5B7ADBB2012B00D0F5
:1015F80070470023064A1380064A1360064A1360A0
:10160800024A02211180054A1370F1E7600D00209B
:10161800000D0020FC0C0020F80C0020300D0020EC
:1016280038B5674B1B78012B46D0022B65D003B128
:1016380038BD0024634BDC71634D0321284604F058
:1016480058FDC021284604F054FD604B88229A8238
:10165800DA825F4A14605F4A14605F4A14605F4A26
:1016680014605F4A14605F4AD2ED016AF2EE0E7AA6
:1016780086EEA77A9FED5C6AC7EE067ADFED5B6AB5
:1016880067EEA67AFDEEE77AC3ED027A92ED027A6A
:10169800DFED577A27EE277ADFED567A37EE277A8D
:1016A800C7EE067A67EEA67AFDEEE77AC3ED037A0F
:1016B800434B01221A70BBE74F4A138801339BB290
:1016C8001380052BB4D900224B4B1A803F4B88213D
:1016D800198399825983D9823D490A603D490A6034
:1016E8003D490A603D490A603D490A609A685210BE
:1016F8005A60334B02221A709AE7324BDB79002B7F
:1017080042D0304B0122DA713C4B1A88013292B236
:101718001A803B490B8801339BB20B802B49888A7E
:10172800C2EB021212FA80F212B28A82CA8AC3EBA0
:10173800031313FA82F31BB2CB828B8A9BB246F255
:10174800E032934200D98A82204BDB8A9BB244F272
:101758001052934201D91D4BDA821C4B9B8A1BB253
:1017680046F2E03293427FF463AF184BDB8A1BB238
:1017780044F2105293427FF45BAF124B03221A805B
:101788000F4B00221A7053E7114A1360114A136075
:10179800114A1360114A1360114A13600A4C2368F6
:1017A80046F64022C3F89C20C3F81C22C0212046DC
:1017B80004F083FC0321204604F07FFCA1E700BF6E
:1017C800300D0020600D0020800D0020000000205A
:1017D8002800001024000010200000101400001041
:1017E80010000010340D00205AF5514000F07F45DC
:1017F800295C0F3E3333D33FF40C0020F20C002059
:10180800F00C002038B5384BD3ED027AF8EE677A41
:10181800DFED365A67EEA57A9FED356A87EE867A50
:10182800F2EE0E7A67EE276AD3ED007AF8EE677A61
:1018380067EEA57A87EE867ADFED2E7A77EE677AFD
:101848009FED2D6A87EE867AF2EE047AB4EEE77A97
:10185800F1EE10FA06DDF6EE007AF4EEE76AF1EE44
:1018680010FA1DD4254B9B8813F0200F17D0244A5B
:10187800136801331360B3F5C87F10DD13460022E7
:101888001A60204B1B780A2B1ED801331D4A13708F
:101898001A4A93889BB223F020039BB2938038BDE9
:1018A800164C0023E371184D0321284604F005FC6B
:1018B800C021284604F001FCA3889BB243F0200312
:1018C800A38004232380CDE70E4B0B221A700B4B09
:1018D8000022DA710C4C0321204604F0EEFBC021F3
:1018E800204604F0EAFBDAE7400D00205AF55140A3
:1018F80000F07F453333D33F295C0F3E600D002055
:10190800EC0C0020EA0C0020800D002038B51C4BA0
:10191800D3ED027AF8EE677A9FED1A7A67EE877A46
:10192800DFED196A87EEA67AF2EE0E7A67EE277A6D
:10193800164B93ED007AB4EEE77AF1EE10FA1BD865
:10194800134A138801339BB21380022B17D9002343
:101958001380104CE371104D0321284604F0C9FB95
:10196800C021284604F0C5FBA3889BB243F00803B6
:10197800A3800423238002E0054B00221A8038BD8F
:10198800400D00205AF5514000F07F45700D0020B1
:10199800E80C0020600D0020800D002038B5384B81
:1019A800D3ED007AF8EE677A9FED367A67EE877A9C
:1019B800DFED356A87EEA67ADFED347A77EE677A5F
:1019C800DFED336A87EEA67A324BD3ED007AF4EE78
:1019D800C77AF1EE10FA04D82F4B1B889BB2032B61
:1019E80021D02E4B00221A802B4B9B8813F0100F0E
:1019F80018D02B4A138801339BB21380B3F5C87FE4
:101A080010D9134600221A80264A138801339BB244
:101A180013800A2B23D8204A93889BB223F0100303
:101A28009BB2938038BD1D4A138801339BB2138043
:101A38000A2BD9D900231380174CE3711A4D0321BF
:101A4800284604F056FBC021284604F052FBA38820
:101A58009BB243F01003A38004232380C4E71346FA
:101A68000B221A800C4B0022DA710F4C03212046FE
:101A780004F03FFBC021204604F03BFBD2E700BF47
:101A8800400D00205AF5514000F07F453333D33FD5
:101A9800295C0F3E6C0D0020600D0020E60C002034
:101AA800E40C0020E20C0020800D002038B52DED5C
:101AB800028B01F08BF8B0EE408A01F095F8134BD9
:101AC800D3ED007AF4EEC87AF1EE10FA06D9D3ED28
:101AD800007AF4EEC07AF1EE10FA14D80C4C012317
:101AE80023800023E3710B4D0321284604F001FBFA
:101AF800C021284604F0FDFAA3889BB243F04003B6
:101B0800A38004232380BDEC028B38BD740D002014
:101B1800600D0020800D0020642800D96420034B4C
:101B28001B6800EB80004000D8637047480F002016
:101B380010EE103A0360704730B58DB001220BA942
:101B48000020FFF784F99DF82C300BB90DB030BD9B
:101B58000020FFF763F900248DF81440264D95ED19
:101B6800010A6846FFF7E4FF95ED020A01A8FFF7AE
:101B7800DFFF224B93ED000A02A8FFF7D9FF204BA5
:101B880093ED000A03A8FFF7D3FF1E4B93ED000A5D
:101B980004A8FFF7CDFF234626E0581C03F13002C6
:101BA8006A4412F8304C03F13101694401F81C4CC5
:101BB80012F82C4C03F13501694401F81C4C12F859
:101BC800284C03F13901694401F81C4C12F8244CE3
:101BD80003F13D01694401F81C4C12F8202C4133F3
:101BE8006B4403F81C2CC3B2032BD6D9152205A9C4
:101BF8000020FFF7EFF8A9E7340D0020740D00204E
:101C08006C0D0020700D0020324B93ED007AF7EE3A
:101C1800007AB4EE677AF1EE10FA00D0704730B56A
:101C28008DB00020FFF7FAF800248DF81840294DF0
:101C380095ED010A01A8FFF77BFF95ED020A02A8BE
:101C4800FFF776FF244B93ED000A03A8FFF770FF18
:101C5800224B93ED000A04A8FFF76AFF204B93ED8F
:101C6800000A05A8FFF764FF234626E0581C03F185
:101C780030026A4412F82C4C03F13101694401F82E
:101C8800184C12F8284C03F13501694401F8184C36
:101C980012F8244C03F13901694401F8184C12F880
:101CA800204C03F13D01694401F8184C12F81C2C32
:101CB80041336B4403F8182CC3B2032BD6D9152231
:101CC80006A90020FFF786F8024B00221A600DB023
:101CD80030BD00BF340D0020740D00206C0D0020B5
:101CE800700D0020036800EE103A704700B52DED26
:101CF800048B8BB014220DEB02010120FFF7A7F82B
:101D0800002325E003F128020DEB020111F8142C41
:101D180001F8182C03F12C026A4412F8142C01F86B
:101D28001C2C03F130026A4412F8142C01F8202C00
:101D380003F134026A4412F8142C01F8242C03F13C
:101D480038026A4412F8142C01F8282C0133DBB24B
:101D5800032BD7D904A8FFF7C5FFF0EE408A03A8E4
:101D6800FFF7C0FFB0EE408A02A8FFF7BBFFF0EE16
:101D7800409A01A8FFF7B6FFB0EE409A6846FFF711
:101D8800B1FFF0EE407AF4EE688AF1EE10FA0ED167
:101D9800F5EEC08AF1EE10FA09DD9FED327AF4EE25
:101DA800C78AF1EE10FA02D82F4BC3ED018AB4EEC0
:101DB800488AF1EE10FA0ED1B5EEC08AF1EE10FAAB
:101DC80009DB9FED2A7AB4EEC78AF1EE10FA02D841
:101DD800254B83ED028AF4EE699AF1EE10FA10D1E0
:101DE800B2EE047AF4EEC79AF1EE10FA09DB9FED31
:101DF800207AF4EEC79AF1EE10FA02D81D4BC3ED23
:101E0800009AB4EE499AF1EE10FA10D19FED1A7AC1
:101E1800B4EEC79AF1EE10FA09DB9FED147AB4EE2E
:101E2800C79AF1EE10FA02D8144B83ED009AF4EE3B
:101E3800677AF1EE10FA10D1B7EE007AF4EEC77AAD
:101E4800F1EE10FA09DB9FED077AF4EEC77AF1EEAE
:101E580010FA02D80A4BC3ED007A0BB0BDEC048B24
:101E68005DF804FB0000C842340D00200000484221
:101E780000001643740D0020CDCCCC3D6C0D002025
:101E8800700D00200000000070B500F09FFE10EEFD
:101E9800104A00F0A9FE10EE106A2046FEF71CFB5F
:101EA80040A3D3E90023FEF76FFB04460D463046F6
:101EB800FEF712FB3DA3D3E90023FEF765FB0246BC
:101EC8000B4620462946FEF7A9F9FEF76FFD07EEF7
:101ED800900A9FED2D7AF4EEC77AF1EE10FA34D419
:101EE8009FED2A7AF4EEC77AF1EE10FA31DA9FED17
:101EF800287AF4EEC77AF1EE10FA2EDA9FED257AF9
:101F0800F4EEC77AF1EE10FA2BDA9FED237AF4EEAD
:101F1800C77AF1EE10FA28DA9FED207AF4EEC77A44
:101F2800F1EE10FA25DA9FED1E7AF4EEC77AF1EE9B
:101F380010FA22DA9FED147AF4EEC77AF1EE10FA6D
:101F480006DB2320FFF7E8FD02E00020FFF7E4FDB1
:101F580070BD6420FFF7E0FDFAE75A20FFF7DCFDCB
:101F6800F6E75020FFF7D8FDF2E74620FFF7D4FD4B
:101F7800EEE73C20FFF7D0FDEAE72D20FFF7CCFD88
:101F8800E6E700BFAFF3008000000C420000824289
:101F98000000704200005C420000484200003442E9
:101FA80000002042333333333333E33F9A9999990E
:101FB8009999D93F30B589B00024039404940594C5
:101FC80006940794174BDA6C42F02002DA64DA6C54
:101FD80002F020020092009ADA6C42F00102DA6400
:101FE800DA6C02F001020192019ADA6C42F0020204
:101FF800DA64DB6C03F002030293029B0A4D22466B
:1020080043F62101284603F091F943F6210303938F
:10201800012304930594069403A9284603F096F82F
:1020280009B030BD001002400004004802680E4BA1
:102038009A4200D0704700B583B003F528431A6E62
:1020480042F080621A661B6E03F080630193019B65
:1020580000220121442002F0D3FE442002F0E0FED9
:1020680003B05DF804FB00BF0068014070B588B09C
:1020780000230393049305930693079302681A4B6E
:102088009A4201D008B070BD03F52843DA6C42F0DB
:102098000202DA64DA6C02F002020192019ADA6C46
:1020A80042F00102DA64DB6C03F001030293029B45
:1020B8004FF44043039302260496032506950D2406
:1020C800079403A9094803F041F84FF440730393B8
:1020D8000496002305930695079403A94FF09040B2
:1020E80003F034F8CEE700BF006801400004004860
:1020F80010B5BAB000243894399434943594369491
:1021080037942D942E942F943094319432943394A0
:102118006022214615A80AF0CFFA12941394149459
:10212800242221460DEB02000AF0C6FA202221469D
:1021380001A80AF0C1FAA548A54B03604460846071
:1021480003F02CFB002840F002810C219F4803F08B
:1021580091FB002840F0FE800A219C4803F0C3FB55
:10216800002840F0FA804FF4803338934FF400632E
:10217800399338AA0121954803F0F0FB002840F074
:10218800EF8000220121914803F021FD002840F052
:10219800EA8046F64023349300213591369108238E
:1021A800379334AA894803F0C0FB002840F0DE804A
:1021B80000212D912F91309133912DAA834803F05E
:1021C80011FE002840F0D5801023159300211691A8
:1021D80017911891012319931A911B911C911D9124
:1021E8001E914FF000631F93209121914FF00053EF
:1021F8002293239124914FF0004325934FF4807349
:102208002693279129912A912B912C9115AA6F48F1
:1022180003F0A2FD002840F0AF8000231593279318
:1022280015AA0321694803F097FD002840F0A7800C
:1022380043F22053129312AB01220021634803F0AA
:102248003FFE002840F09E8012AB042200215F4828
:1022580003F036FE002840F0988045F2E4731293AC
:102268004FF4805313930021149112AB082257485E
:1022780003F026FE002840F08B800021099164239A
:102288000A930B914FF400420C924FF480420D9246
:102298000E930F914FF0004310934FF0804311932A
:1022A80009AA4A4803F0BAFD002874D109AA0321F3
:1022B800464803F0B3FD002870D1002101910423A2
:1022C80002930823039304910591069107910891BD
:1022D80001AB01223D4803F0D4FE002861D101ABD7
:1022E80040220321394803F0CCFE00285CD10021AC
:1022F8000291039101AB0222344803F0C2FE002888
:1023080055D101AB80220321304803F0BAFE0028E2
:1023180050D134AA03212D4803F007FB00284CD1E3
:102328002DAA0321294803F05DFD002848D14FF468
:102338008873129312AB01220321244803F0C0FDD5
:10234800002840D12148FFF791FE3AB010BD00F0B7
:10235800A5F8FAE600F0A2F8FEE600F09FF802E71A
:1023680000F09CF80DE700F099F812E700F096F8F5
:102378001EE700F093F827E700F090F84DE700F02B
:102388008DF855E700F08AF85EE700F087F864E713
:1023980000F084F871E700F081F887E700F07EF834
:1023A8008BE700F07BF89AE700F078F89FE700F0F9
:1023B80075F8A6E700F072F8ABE700F06FF8AFE742
:1023C80000F06CF8B3E700F069F8BBE7800D002077
:1023D8000068014008B50848084B036003234360C0
:1023E8004FF47A73C360836004F0D8F800B908BD6D
:1023F80000F054F8FBE700BF7C0E002000300040DE
:1024080010B5044603681E4A934207D01D4A9342FA
:1024180017D022681C4B9A422ED010BD1B490A883F
:1024280092B2013292B20A8019490A8892B20132F4
:1024380092B20A8017490A8892B2013292B20A808F
:10244800E4E70AF019FBFFF7DDF9FFF72FFBFFF7C9
:102458005DFAFFF7A3FA0AF013FB0AF005FB0E4A30
:1024680013780133DBB21370032BD2D91346002241
:102478001A7001F093FACCE7FEF7B0FFCDE700BF82
:10248800001000400014004000440140920E00205B
:10249800900E00208E0E00208C0E002072B6FEE7F3
:1024A80000B595B03822002106A80AF005F90020E9
:1024B8000190029003900490059005F0B9F8292343
:1024C80006934FF48033079301230B930C93022355
:1024D8000D9303220E9205220F924422109211931B
:1024E80008221292139306A805F05CF990B90F23FD
:1024F8000193032302930023039304930593042178
:102508000DEB010005F004FC30B905F027FD15B00E
:102518005DF804FBFFF7C2FFFFF7C0FF80B501F0CD
:1025280075FCFFF7BDFFFFF745FDFEF715FFFEF74A
:10253800B1FCFEF7C5FDFFF7DBFD00F0D7F800F0B2
:10254800B9FC01F0D1FA01F003FBFEF725FDFEF717
:1025580067FD09F025FB00F0ADFB00F0D5FB00F0AE
:10256800FDFBFFF737FF00253C4B1D8008213C4849
:1025780006F048FE6420FFF7CFFA3A4806F02EFB33
:10258800394806F02BFB394806F028FB00F084F8A0
:10259800FFF7D2FAFFF7AAFB01F074F90122202114
:1025A800334802F0C3FE642001F052FC314F7F2112
:1025B800384602F099FA304E7F21304602F094FAFC
:1025C8002E4C7F21204602F08FFA04222C493846EF
:1025D80002F0A0F9304602F003F92A4802F000F9A7
:1025E800204602F0FDF8284C4FF40031204603F055
:1025F8009CFD4FF48011204603F097FD2268D2F825
:102608008C3043F01003C2F88C302846FFF784FA68
:1026180000F024F907E01D4B00221A80FFF734FC74
:1026280010E001F077F91A4B1B889BB2312BF8D9CF
:10263800174B00221A8000F021F9144B1B889BB21B
:10264800632BE8D8134B1B889BB2B3F5FA7FE8D30A
:10265800104B00221A80FFF7D7FAE2E7600D00203E
:10266800480F0020E00F0020940F0020FC0E0020EF
:1026780000040048700C0020040C00202C0B0020E3
:10268800780D0020980B0020800D0020900E00206F
:102698008E0E0020920E002000230A4A13600A4A78
:1026A80013600A4A13600A4A13600A4A13600A4A06
:1026B80013600A4A13600A4A13600A4A13600A4AF6
:1026C800137070472800001024000010200000102C
:1026D80014000010100000100C000010080000107A
:1026E8001C000010180000100400001008B5104865
:1026F800104B03604FF482734360002383604FF4F0
:10270800E062C260036143614FF400728261182283
:10271800C2610362436283620722C26203630823C1
:10272800436305F0FEFE00B908BDFFF7B7FEFBE7FF
:10273800940E00200030014000B589B000230393B7
:1027480004930593069307930268144B9A4202D0A8
:1027580009B05DF804FB03F560431A6E42F4805239
:102768001A661A6E02F480520192019ADA6C42F0EB
:102778000102DA64DB6C03F001030293029BE0239D
:10278800039302230493032306930523079303A9C2
:102798004FF0904002F0DAFCDAE700BF0030014069
:1027A8001348854600F05EF912481349134A00237E
:1027B80002E0D458C4500433C4188C42F9D3104AE8
:1027C800104C002301E013600432A242FBD30E48F0
:1027D8000E490F4A002302E0D458C4500433C418E9
:1027E8008C42F9D309F070FFFFF798FEFEE700006E
:1027F80000000220000000204C04002028CB000824
:10280800A80A00207C39002050040020A80A0020D3
:1028180074CF0008FEE7B0FBF1F000F0010070474C
:1028280010B582B001900C4C9DF804204FF4006163
:10283800204602F07BFD9DF805204FF4805120468C
:1028480002F074FD9DF806204FF40051204602F076
:102858006DFD02B010BD00BF0004004800B583B094
:1028680000238DF8043001228DF805208DF80630FC
:102878000198FFF7D5FF03B05DF804FB30B589B0C8
:1028880001F0E0FA04464FF4FA71FFF7C4FF054679
:1028980064212046FFF7BFFF324B9B889BB26BB980
:1028A800304B1B889BB2042B08D02E4B1B889BB245
:1028B800032B4BD8DFE803F00E1A333E8DF80400E3
:1028C80000238DF805308DF806300198FFF7A8FF32
:1028D80009B030BD00238DF8083001228DF8092099
:1028E8008DF80A300298FFF79BFFF1E71D4B5B7AE2
:1028F80053B100238DF818308DF819008DF81A306F
:102908000698FFF78DFFE3E700238DF81C308DF85C
:102918001D508DF81E300798FFF782FFD8E7002377
:102928008DF80C308DF80D008DF80E000398FFF728
:1029380077FFCDE700238DF810308DF81130012393
:102948008DF812300498FFF76BFFC1E78DF814007B
:1029580000238DF815308DF816300598FFF760FFC5
:10296800B6E700BF600D002000B583B00B4B1A6EB0
:1029780042F001021A661A6E02F001020092009AF1
:102988009A6D42F080529A659B6D03F080530193D3
:10299800019B04F0D3FE03B05DF804FB0010024075
:1029A80008B505F0E5FAFEE7FEE7FEE7FEE7FEE715
:1029B80070477047704708B501F038FA08BD000045
:1029C80008B5024802F060FB08BD00BFCC0A002031
:1029D80008B5024802F058FB08BD00BF28190020BE
:1029E80008B5024802F050FB08BD00BFC818002017
:1029F80008B5024802F048FB08BD00BFE8190020EE
:102A080008B5024802F040FB08BD00BF8819002045
:102A180008B5024804F0C4FB08BD00BF68320020B6
:102A280008B5024806F028F908BD00BFFC0E0020D2
:102A380008B5024806F020F908BD00BFE00F0020E5
:102A480008B5024806F018F908BD00BF940F002029
:102A580008B50AF00DF80021014803F091FD08BD02
:102A6800800D0020034AD2F8883043F47003C2F87E
:102A78008830704700ED00E020EE800AF7EE007A1B
:102A880077EEE00A044BD3ED007A60EEA70A30EE49
:102A9800200A83ED000A7047F80E002000000000AD
:102AA800F8B540F6FE73984202D99FED450AF8BD85
:102AB800C0F57F600F3007EE900AF8EE677A17EEE0
:102AC800900AFDF709FD32A3D3E90023FDF75CFD69
:102AD80031A3D3E90023FDF781FEFDF767FFFDF77A
:102AE800FBFC06460F462EA3D3E90023FDF74CFD59
:102AF80004460D4632463B4625A1D1E90001FDF7C3
:102B08008BFB02460B4620462946FDF767FEFDF77C
:102B18004DFF00EE100AF2EE047A80EE270A09F063
:102B280071FE10EE100AFDF7D7FC1FA3D3E90023AE
:102B3800FDF754FE1EA3D3E90023FDF76FFB024601
:102B48000B4600201F49FDF749FEFDF72FFFFDF753
:102B5800C3FC19A3D3E90023FDF75EFBFDF726FFAD
:102B680000EE100ADFED167AB4EEE70AF1EE10FA7D
:102B780009D4DFED157AB4EEE70AF1EE10FA96DD26
:102B88009FED110A93E79FED0E0A90E7AFF30080DF
:102B98006666666666660A400000000000FEAF4092
:102BA8003333333333331B40000000000068AA403E
:102BB800000000E0E1796B3F666666666612714068
:102BC800000020C20000F03F0000F04210B5054CA4
:102BD800204601F005FE204601F0CAFAFFF760FF23
:102BE80010BD00BF040C002010B5054C204601F0B4
:102BF800F7FD204601F0BCFAFFF752FF10BD00BFF9
:102C0800980B0020000000002DE9F041244E3046CA
:102C180001F0E6FDDFF89880B8F8CA309BB2B8F842
:102C2800A82092B29B1A07EE903AF8EEE77A9FED49
:102C38001D7AC7EE277A17EE900AFDF74DFC044679
:102C48000D46304601F094FAFDF724FC12A3D3E9AF
:102C58000023FDF799FC06460F46B8F8A80080B295
:102C6800FDF728FC02460B4630463946FDF7D4FAF4
:102C780002460B4620462946FDF786FC00220A4BF1
:102C8800FDF7CCFAFDF792FEDFED080A00EE100A18
:102C9800FFF7F2FEBDE8F081999999999999F13F6A
:102CA8002C0B00200000C84200003E40CDCCCC3D9B
:102CB8000075FF1F00B585B00023019302930393AD
:102CC8000F48104A0260A9224260836040F2E7334D
:102CD800C3608023836106F039F950B9002301935A
:102CE800039301A9064806F04BFB28B905B05DF827
:102CF80004FBFFF7D3FBF1E7FFF7D0FBF6E700BFD4
:102D0800E00F00200010004000B585B000230193BB
:102D1800029303930F48104A0260A922426083601D
:102D280041F28733C3608023836106F00FF950B9FD
:102D380000230193039301A9064806F021FB28B953
:102D480005B05DF804FBFFF7A9FBF1E7FFF7A6FB69
:102D5800F6E700BF940F00200014004008B50A48A9
:102D68000A4B0360A92343600023836042F20F7279
:102D7800C260036143618023836106F0E7F800B90C
:102D880008BDFFF78BFBFBE7FC0E00200044014069
:102D980000B585B00368224A934208D0214A93427D
:102DA80018D0214A934228D005B05DF804FB1F4B88
:102DB8009A6D42F010029A659B6D03F0100301931F
:102DC800019B00220321362002F01AF8362002F077
:102DD80027F8E9E7154B9A6D42F020029A659B6D3A
:102DE80003F020030293029B00220221372002F005
:102DF80007F8372002F014F8D6E70C4B1A6E42F4A5
:102E080000321A661B6E03F400330393039B0022FF
:102E18000321192001F0F4FF192002F001F8C3E79B
:102E2800001000400014004000440140001002401F
:102E38000268094B9A4200D0704782B003F55C43A0
:102E48001A6E42F400521A661B6E03F40053019383
:102E5800019B02B0704700BF0034014000B587B045
:102E680000230193029303930493059302680F4B85
:102E78009A4202D007B05DF804FB03F55C43DA6CB4
:102E880042F00202DA64DB6C03F002030093009B59
:102E98004FF40073019302230293032304930A233C
:102EA800059301A9024802F051F9E3E70034014013
:102EB8000004004810B598B000241594169417948F
:102EC8000E940F9410941194129413941494342221
:102ED800214601A809F0F0FB29482A4B0360052385
:102EE8004360846040F2E733C36004614461802337
:102EF800836106F05BF8002836D1002315931693FA
:102F0800179315A91E4806F03BFA00282FD1602315
:102F18000E934FF4FA730F930023109311931293A7
:102F28001393149308220EA9154806F0BFF808BB9E
:102F38000023019302930393049305934FF40052E3
:102F480006920793089309934FF000720A920B9325
:102F58000C930D9301A90A4806F068FA68B9084865
:102F6800FFF77CFF18B010BDFFF798FAC5E7FFF729
:102F780095FACCE7FFF792FADAE7FFF78FFAEEE770
:102F8800480F0020003401400220704710B5044665
:102F9800FFF7FAFFA04214BF0020012010BD000077
:102FA80010B50446FFF7F2FF58B1022C0BD84FF4C6
:102FB800067303FB04F000F50470044B1844043056
:102FC80010BD0020FCE70020FAE700BF6C100020CD
:102FD800B0F5803F01D280B270474FF6FF7070475E
:102FE800B5EEC00AF1EE10FA0FD908B5DFED087A90
:102FF80020EE270AF6EE007A30EE270AFCEEC07AB9
:1030080017EE900AFFF7E4FF08BD0020704700BFE5
:1030180000007A44B5EEC00AF1EE10FA11DBDFEDDC
:10302800107A20EE270AF6EE007A30EE270AFDEE37
:10303800C07A17EE900A002810DB08B5FFF7C8FF22
:1030480008BDDFED077A20EE270AF6EE007A30EEAB
:10305800670AFDEEC07A17EE900AECE70020704789
:103068000000C842094B1B889BB2032B09D8DFE834
:1030780003F0020A04060120704704207047082064
:1030880070470F2070470220704700BF600D002076
:10309800084B9B79DBB2022B07D0032B07D0012BFF
:1030A80001D000207047012070470220704703209C
:1030B800704700BF600D0020034B1878C0B201387C
:1030C80018BF0120704700BF04000010064B9B7911
:1030D800DBB2012B03D0054B588B80B27047034BF2
:1030E800188B80B2704700BF600D002000000020E0
:1030F80008B50D4B1B68002B13DD0B4BD3ED007A85
:10310800F8EEE77A9FED097A67EE877AB2EE0E7AE3
:1031180067EE877A9FED060A87EE800AFFF760FF61
:1031280008BD0020FCE700BF000000205AF5514010
:1031380000F07F4508B5034B93ED020AFFF750FFF7
:1031480008BD00BF340D002008B50E4BD3ED007A42
:10315800F5EEC07AF1EE10FA09DC0B4BD3ED007AEC
:10316800F5EEC07AF1EE10FA06DC002003E093EDEC
:10317800000AFFF735FF08BD93ED000AFFF730FF9F
:10318800F9E700BF200D0020240D0020044B1B6828
:10319800D86BB0F57A7F01D94FF47A7080B2704756
:1031A800480F002008B5054B93F806321BB1034BB6
:1031B800B3F8080208BDFFF7E9FFFBE76C10002031
:1031C800134AD2ED016AF2EE0E7A86EEA77A9FEDE7
:1031D800116AC7EE067ADFED106A67EEA67AFDEE91
:1031E800E77A0E4BC3ED027A92ED027ADFED0C7AA4
:1031F80027EE277ADFED0B7A37EE277AC7EE067AC5
:1032080067EEA67AFDEEE77AC3ED037A704700BF52
:10321800340D00205AF5514000F07F450000002091
:10322800295C0F3E3333D33F10B52DED028B654B30
:1032380093ED008A644BD3ED007AF4EEC87AF1EE90
:1032480010FA01DD93ED008A604B93ED000AFFF759
:10325800C7FE5F4B18805F4B93ED000AFFF7C0FE77
:103268005D4B18805D4B93ED000AFFF7B9FE5C4B90
:1032780018805C4B93ED000AFFF7B2FE5A4B18809A
:103288005A4B93ED000AFFF7C5FE594B18804D4B7A
:1032980093ED000AFFF7BEFE564B18804A4B93ED9C
:1032A800000AFFF7B7FE544B1880544C94ED010AFE
:1032B800FFF796FE524B188094ED020AFFF790FE36
:1032C800504B1880FFF7F8FE4F4B18804F4B5B7A36
:1032D800002B75D001224E4B1A804C4B9A884D4BCF
:1032E8001A80FFF7BFFE4C4B1880FFF7D1FE4B4BFF
:1032F80018804B4CA069FFF76BFE4A4B1880206979
:10330800FFF766FE484B1880A068FFF761FE474B41
:1033180018802068FFF75CFE454B1880B0EE480A1D
:10332800FFF778FE434B1880434B93ED000AFFF7F5
:1033380071FE424B1880294B93ED000AFFF750FEAF
:103348003F4B18803F4B93ED000AFFF749FE3E4B79
:103358001880244B93ED000AFFF742FE3B4B188080
:103368003B4B93ED000AFFF73BFE3A4B1880FFF703
:10337800ADFE394B1880394B1C68D4F89C00FFF718
:1033880027FE374B1880D4F81C02FFF721FE354B77
:103398001880FFF7FBFE344B1880FFF703FF334B11
:1033A8001880FFF7D1FE324B1880FFF7C3FE314B70
:1033B8001880FFF79DFE304B1880BDEC028B10BDC6
:1033C800002288E71C0D0020180D00202C0D00207D
:1033D8006A100020240D002068100020280D00200D
:1033E80066100020200D002064100020140D00201D
:1033F80062100020601000205E100020340D0020B4
:103408005C1000205A10002058100020600D002089
:103418005610002054100020521000205010002098
:10342800400D00204E1000204C1000204A100020B3
:103438004810002046100020740D00204410002081
:1034480042100020700D0020401000203E10002087
:103458006C0D00203C1000203A100020800D002048
:1034680038100020361000203410002032100020C0
:10347800301000202E1000202C100020054BD3F80F
:10348800BC322BB1D3F81402B0FA80F0400970476F
:1034980001207047781B002020B310B5044690F82F
:1034A800163253B1037823B90F4AD2F88820202A5C
:1034B80004D0012B05D0022B0CD010BD80F8163299
:1034C800FBE70A4AD2F88820202AF4D1002384F89E
:1034D8001632F2E7FFF7D2FF0028EED0002384F877
:1034E8001632EAE7704700BFDC1A0020481A0020AD
:1034F80038B54C4B1B8807EE103AB8EE477ADFED2B
:103508004A7AC7EE274A494B1B8807EE103AB8EEAD
:10351800477A87EE275A464B1B8807EE103AB8EED3
:10352800477ADFED446AC7EE265A434B1B8807EEFD
:10353800103AB8EE477AC7EE276A404B1B8807EE69
:10354800103AB8EE477A87EE276A3D4B1C88B4F5E7
:103558007A7F01D94FF47A743A4BC3ED014A83ED6F
:10356800025AF2EE047AF4EEE75AF1EE10FA09DBA9
:10357800DFED357AF4EEE75AF1EE10FA02D8334B64
:10358800C3ED005AF7EE007AF4EEE76AF1EE10FAAE
:1035980009DBDFED287AF4EEE76AF1EE10FA02D8DB
:1035A8002B4BC3ED006ADFED2B7AB4EEE76AF1EE40
:1035B80010FA09DBDFED287AB4EEE76AF1EE10FACB
:1035C80002D8264B83ED006A1E4B4FF07E521A60DC
:1035D800FFF7F6FD224B1B880BB30122214B5A72D1
:1035E8005B7A4BB91F4B0022DA711B889BB2042B04
:1035F80002D01C4B01221A801B4D012385F806328C
:10360800A5F8084203F1CC33A3FB0430C0F3CF0084
:10361800FEF782FA00F016FCC5F80C0238BD00224D
:10362800DCE700BF5C10002000007A445A1000203C
:10363800441000200000C842401000203C10002028
:1036480032100020340D002000001643740D0020B5
:10365800700D0020CDCCCC3D000048426C0D002000
:1036680056100020600D00206C10002008B5FFF7F0
:103678003FFFFFF7D9FD08BD10B504464FF480722F
:1036880006F0F8FB38B9D4F8803023B11A6813680B
:1036980023F00403136010BD70B50E4615461C4692
:1036A800B3F5807F01D94FF480742888A04209D3EC
:1036B800A0420DD8B4F5807F17D0FF2C00D9002484
:1036C8002C8070BD211A89B2304408F08BFDF4E7D4
:1036D800C0F5807189B2304408F084FD002CEFD029
:1036E8002146304608F07EFDE7E7C0F5807189B2D3
:1036F800304408F077FDE0E708B50020FFF746FC06
:1037080078B1124BD3F880305BB11B685B689BB211
:10371800C3F580730E4A9BB2A2F201210020FFF785
:10372800BBFF0120FFF732FC78B10A4BD3F8803099
:103738005BB11B685B689BB2C3F58073064A9BB29A
:10374800A2F203110120FFF7A7FF08BDDC1A002031
:103758006E120020481A00207012002000284AD05B
:1037680070B514460546002947D0002A47D0B2F55F
:10377800857F46D290F8163243B1037823B9264A9A
:10378800D2F88820202A16D0012B17D095F81632A7
:10379800CBBB6E1C2246304608F0BCFF2B78B3B179
:1037A800012B1ED02146304608F05AFA88BB012367
:1037B80085F8163224E080F81632E7E7174BD3F87D
:1037C8008830202BE2D1002385F81632DEE7224626
:1037D8003146114805F0CAFEB8B9012385F81632FA
:1037E8000EE0224631460D4805F0C0FE78B90123A7
:1037F80085F8163204E001207047012000E001201E
:1038080070BD0120FCE70220FAE70220F8E7022059
:10381800F6E70220F4E700BFDC1A0020481A00206F
:1038280078B110B50446B0F8142202B910BD00F5FD
:103838008571FFF793FF0028F8D10023A4F814320C
:10384800F4E77047B8B170B50D4614460646A1B105
:10385800AAB1B2F5857F01D3012011E0FFF77EFF01
:1038680070B12246294606F5857008F053FFA6F880
:103878001442002004E001207047012000E00120EC
:1038880070BD000010B51B4C40F65C0200212046BC
:1038980008F012FFFFF778FB2070002307E0154AB5
:1038A8004FF4067101FB032282F814320133022B14
:1038B800F5D9FFF7B9FC20210F4808F0B9FE00211F
:1038C8000E4808F0FDFB00210D4808F009FC002017
:1038D800FFF75CFB20B90120FFF758FB28B910BDA2
:1038E80008490948FFF7C8FEF5E708490848FFF7FF
:1038F800C3FEF4E76C10002024000020113A0008F1
:10390800753600086D100020DC1A00206D110020AB
:10391800481A002038B500F095FA0446FFF784FCF1
:10392800FFF7EAFE1B4B93F806322BB1194BD3F87D
:103938000C32E31A312B01D800240CE0154DB5F8F0
:103948000802154BA3FB0030C008FEF7E5F8C5F8E0
:103958000C42F1E70134022C1AD80E4B4FF40672D0
:1039680002FB043393F81402FFF710FB0028F1D090
:103978004FF4067504FB05F505F50475054B1D4464
:1039880004352846FFF788FD2846FFF749FFE1E799
:1039980038BD00BF6C100020CDCCCCCC38B5FFF7BB
:1039A80043FC002400E00134022C1AD80E4B4FF4DB
:1039B800067202FB043393F81402FFF7E7FA0028B3
:1039C800F1D04FF4067504FB05F505F50475064BB3
:1039D8001D4404352846FFF75FFD2846FFF720FF02
:1039E800E1E708F093FB38BD6C10002038B50446B9
:1039F8000D46044B1878FFF7D3FA2A462146FFF7FD
:103A080021FF38BD6C10002008B5FFF7EFFF08BD97
:103A1800A0B138B50C46054619B10220FFF7B6FA31
:103A280000B938BD064B02221A70FFF7FDFB21468C
:103A3800284608F0D7FBFFF7F7FBF2E7704700BF0F
:103A48006C10002008B5FFF7ABFA10B1002280F81F
:103A5800162208BD7047000008B5144B984203D0E1
:103A6800134B984210D008BD0020FFF7EBFF002051
:103A7800104BA3F80202FFF789FA0028F3D00E4989
:103A88000A48FFF7F9FDEEE70120FFF7DBFF094BD6
:103A98000022A3F804220120FFF778FA0028E2D0D8
:103AA80006490348FFF7E8FDDDE700BFDC1A002000
:103AB800481A00206C1000206D1000206D110020A5
:103AC80008B5074B984203D0064B984204D008BD6E
:103AD8000020FFF7B7FFFAE70120FFF7B3FFF6E78B
:103AE800DC1A0020481A002008B51748174B036055
:103AF8004FF46123436000238360C36003610C2299
:103B080042618361C36103624362836206F027F9FD
:103B180070B900210C4806F018FA60B900210A486B
:103B280006F038FA50B9084806F0F0F948B908BD67
:103B3800FEF7B4FCEDE7FEF7B1FCEFE7FEF7AEFCED
:103B4800F1E7FEF7ABFCF2E7DC1A00200038014091
:103B580008B51748174B03604FF4612343600023EF
:103B68008360C36003610C2242618361C3610362A5
:103B78004362836206F0F3F870B900210C4806F03E
:103B8800E4F960B900210A4806F004FA50B9084877
:103B980006F0BCF948B908BDFEF780FCEDE7FEF772
:103BA8007DFCEFE7FEF77AFCF1E7FEF777FCF2E73A
:103BB800481A002000440040F0B5A1B00446002196
:103BC8001B911C911D911E911F91542206A808F06B
:103BD80073FD23686D4A934204D06D4A934260D0C6
:103BE80021B0F0BD0123069306A804F0D1F90028FE
:103BF8004ED1684B1A6E42F480421A661A6E02F46D
:103C080080420192019ADA6C42F00202DA64DB6CBB
:103C180003F002030293029BC0231B9302231C930D
:103C280000251D951E9507231F931BA95A4801F0CF
:103C38008DFA5A485A4B0360182343608560C56063
:103C480080230361456185612023C3614FF40053DC
:103C5800036201F061F9F0B9504BC4F880309C62FE
:103C68005048514B0360192343601023836000239D
:103C7800C3608022026143618361C3614FF40053D2
:103C8800036201F049F948B9464BE3679C62A7E72C
:103C9800FEF704FCADE7FEF701FCDDE7FEF7FEFBEF
:103CA800F2E70223069306A804F072F9002863D10C
:103CB800384B9A6D42F400329A659A6D02F40032DC
:103CC8000392039ADA6C42F00102DA64DA6C02F0C9
:103CD80001020492049ADA6C42F00202DA64DB6CA4
:103CE80003F002030593059B4FF400431B9302273F
:103CF8001C9700251D951E9507261F961BA94FF09A
:103D0800904001F023FA08231B931C971D951E95DC
:103D18001F961BA9204801F019FA2448244B036078
:103D28001A2343608560C56080230361456185610E
:103D38002023C3614FF40053036201F0EDF8F0B99A
:103D48001A4BC4F880309C621A481B4B03601B2333
:103D58004360102383600023C360802202614361B3
:103D68008361C3614FF40053036201F0D5F848B989
:103D7800104BE3679C6233E7FEF790FB98E7FEF78A
:103D88008DFBDDE7FEF78AFBF2E700BF0038014054
:103D9800004400400010024000040048E8190020D8
:103DA80044000240881900205800024028190020C9
:103DB8001C000240C818002030000240104B1B684D
:103DC8000BB90120704710B504464FF47A70B0FB68
:103DD800F3F30C4A1068B0FBF3F001F025F868B96A
:103DE8000F2C01D901200AE0002221464FF0FF30B4
:103DF80001F006F8044B1C60002000E0012010BD13
:103E0800A401002020000020A801002010B50320F4
:103E180000F0E4FF0F20FFF7D1FF10B10124204686
:103E280010BD0446FEF7A0FDF9E70000034A136839
:103E3800034909680B441360704700BF701B0020DA
:103E4800A4010020014B1868704700BF701B0020B8
:103E580038B50446FFF7F6FF0546B4F1FF3F02D038
:103E6800044B1B681C44FFF7EDFF401BA042FAD32C
:103E780038BD00BFA401002010B430300B0A9B00ED
:103E880003F00C03C45801F01F014FF01F0C0CFA8B
:103E980001FC24EA0C0CC2F384628A404CEA020258
:103EA800C2505DF8044B704710B414304B0E9B00A1
:103EB80003F00403C458C1F304514FF0070C0CFA83
:103EC80001FC24EA0C0C8A404CEA0202C2505DF85C
:103ED800044B704730B583B000230193002800F0ED
:103EE80032810446C36D13B323689A6812F0005FE9
:103EF80005D09A6822F0204222F03F029A60226898
:103F0800936813F0805F1FD1936823F0104323F068
:103F18003F0343F0805393608C4B1B689B098C4A8A
:103F2800A2FB03239B0901335B00019309E0FDF722
:103F38000BF90023236684F85830D5E7019B013B31
:103F48000193019B002BF9D12268936813F0805FDD
:103F58003DD1E36D43F01003E365236E43F00103A5
:103F680023660120936813F0040300D00123E16D58
:103F780011F0100F40F0E080002B40F0DD80E36D81
:103F880023F4817343F00203E365936813F0010F90
:103F98003ED1B2F1A04F1CD06E4B9A4219D06E4B55
:103FA800996811F0010100D001216C4B9B6813F056
:103FB800010300D001230B436949896811F001010D
:103FC80000D001210B430CBF0123002312E0002085
:103FD800C8E74FF0A043996811F0010100D0012112
:103FE8005C4B9B6813F0010300D001230B430CBF0B
:103FF8000123002363B1B2F1A04F6CD0554B9A4214
:1040080067D0584963688A6822F47C1213438B602E
:10401800627FE36B43EA4233E2681343A2681343C7
:1040280094F8242043EA0243012A56D0E26A22B1D6
:1040380002F47872216B0A4313432168CD684A4A17
:104048002A401A43CA602268136923F04063616BEF
:104058000B4313612268936813F0080300D001230F
:1040680043BB237F94F83810490041EA8331D36871
:1040780023F4804323F002030B43D3602369002B0E
:1040880030D02268136943F4803313612268D2F870
:10409800C03023F47F5323F03F0321690B43C2F858
:1040A800C03094F84030012B2BD02268136923F0DC
:1040B800010313616369012B35D02268136B23F068
:1040C8000F031363E36D23F0030343F00103E36578
:1040D80037E0264996E7254994E7A26A013A43EA78
:1040E8004243A3E72268136923F4803313612268EB
:1040F800D2F8C03023F47F5323F03F03C2F8C03016
:10410800CFE721680B6923F4FF6323F00403626C93
:10411800A56C2A43E56C2A43256D2A43134343F0D3
:1041280001030B61C6E721680B6B23F00F03226ABA
:10413800013A13430B63C5E7E36D43F01003E365EE
:10414800012003B030BD0120FBE700BF20000020A4
:10415800632D3E050001005000040050000500508A
:1041680000060050000700500740F0FF0003005011
:104178000368186C70477047704708B5806AFFF786
:10418800FBFF08BD704708B50346806AC26D12F090
:10419800500F30D1C36D43F40073C36503681A68C8
:1041A80012F0080F14D0DA6812F4406F20D1DB68DF
:1041B80013F4005F1CD1C36D23F48073C365C36D12
:1041C80013F4805F14D1C36D43F00103C3650FE09E
:1041D800DB6813F0020F0BD1C36D23F48073C36542
:1041E800C36D13F4805F03D1C36D43F00103C3654E
:1041F800FFF7C1FF08BDC26D12F0100F04D1426D68
:10420800526B18469047F5E7FFF7BCFFF2E708B591
:10421800806AC36D43F04003C365036E43F0040333
:104228000366FFF7AFFF08BDF0B583B00023019325
:1042380090F85830012B00F0488204460D460123BF
:1042480080F858300068836813F0040F09D0E36DD4
:1042580043F02003E3650120002384F8583003B0BD
:10426800F0BD0A684968FFF707FE2068836813F005
:10427800040300D00123866816F0080600D0012642
:10428800002B3ED1002E3CD1AA68B2F1004F78D065
:104298002968FFF709FE2268536923F00043536138
:1042A80069692268D368C3F3C1035B009940286930
:1042B800042873D0603252F82070AB4B3B402F6813
:1042C80007F0F84C41EA0C010B4343F0004342F875
:1042D800203023682869AA69603353F8201021F038
:1042E80080710A4343F82020236829692A7F012A1C
:1042F80051D0603353F8212022F00072324343F842
:1043080021202268936813F0010F16D12B68E86802
:10431800D2F8B010C3F3120621EA060100F018061D
:104328009248F0400340C3F312030B43C2F8B03085
:10433800EA688F4B9A4200F099802B688D4A1342A5
:1043480000F0B9812268B2F1A04F00F050818A498B
:104358008A4200F049818949896801F0E070884DF6
:10436800AB4200F04681874DAB4200F04281864D5A
:10437800AB4200F07181854DAB4200F0878100208F
:104388006AE700222968FFF78FFD2268536943F026
:104398000043536184E74FF00076AAE7136E116E6D
:1043A800C1F384612B68C3F3120080BBC3F3846339
:1043B800994234D021684B6E4A6EC2F384622B68EE
:1043C800C3F3120080BBC3F384639A4234D02168DC
:1043D8008B6E8A6EC2F384622B68C3F3120080BBB3
:1043E800C3F384639A4234D02168CB6ECA6EC2F399
:1043F80084622B68C3F3120080BBC3F384639A42C0
:104408007FF47FAFCB6E23F00043CB6679E793FA56
:10441800A3F313B1B3FA83F3CAE72023C8E7136EF3
:1044280023F000431366C5E793FAA3F313B1B3FA75
:1044380083F3CAE72023C8E74B6E23F000434B669B
:10444800C5E793FAA3F313B1B3FA83F3CAE72023BA
:10445800C8E78B6E23F000438B66C5E793FAA3F396
:1044680013B1B3FA83F3CAE72023C8E720682B689F
:10447800C3F3120626BB9A0E013202F01F02092A64
:104488008CBF00220122002A52D046BB990E01316E
:10449800890601F0F84176BB9F0E013707F01F0728
:1044A8000122BA401143AEBB9B0E013303F01F0338
:1044B80003EB43031B051943AA68FFF7F5FC3CE728
:1044C80093FAA3F24AB1B2FA82F2013202F01F0261
:1044D800092A8CBF00220122D5E72022F5E793FAAA
:1044E800A3F131B1B1FA81F10131890601F0F84146
:1044F800D1E72021F8E793FAA3F24AB1B2FA82F29F
:10450800013202F01F024FF0010C0CFA02F2C9E767
:104518002022F5E793FAA3F343B1B3FA83F3013307
:1045280003F01F0303EB43031B05C4E72023F6E74F
:1045380076BB990E0131890601F0F841A6BB9F0EA2
:10454800013707F01F070122BA401143DEBB9B0E5B
:10455800013303F01F0303EB43031E3B1B0543F02A
:1045680000731943A8E700BF00F0FF03FFFF07002F
:1045780000007F4000000880000100500007005044
:10458800000021C31000C090000052C7000084CB77
:1045980093FAA3F131B1B1FA81F10131890601F041
:1045A800F841CBE72021F8E793FAA3F24AB1B2FA2F
:1045B80082F2013202F01F024FF0010C0CFA02F2F3
:1045C800C3E72022F5E793FAA3F35BB1B3FA83F3C9
:1045D800013303F01F0303EB43031E3B1B0543F0AA
:1045E8000073BEE72023F3E701F50071B4E638490C
:1045F800B2E611F4000F7FF4BAAEB2F1A04F04D0C6
:10460800344B9A4201D0002026E6B2F1A04F19D0CF
:10461800314B9A4214D0314A40F40000936823F099
:10462800E073184390602E4B1B689B092D4AA2FB30
:1046380003239B09013303EB43039B00019306E02B
:10464800234AE9E7224AE7E7019B013B0193019BE3
:10465800002BF9D10020FFE511F0807F7FF48BAEAD
:104668001D4B9A4229D003F580639A4227D0B2F1B4
:10467800A04F09D0194940F080738A6822F0E0728F
:1046880013438B600020E7E51149F4E711F4800F2C
:1046980017D1114B9A4216D0B2F1A04F09D00F4949
:1046A80040F480038A6822F0E07213438B60002094
:1046B800D2E50749F4E70020CEE50020CCE500204C
:1046C800CAE50020C8E50020C6E50220C7E500BF0E
:1046D8000003005000060050000100500007005081
:1046E80020000020632D3E0530B583B000230193E0
:1046F80003689A6812F0010F63D104469968324A38
:10470800114220D19A6822F0004222F03F0242F082
:1047180001029A600368B3F1A04F20D02B4A93425C
:104728001BD02B4B9B6813F4000F20D0294B1B6820
:104738009B09294AA2FB03239B09013303EB43038B
:104748009B00019310E0C36D43F01003C365036E33
:1047580043F001030366012034E0204BE2E71F4BDE
:10476800E0E7019B013B0193019B002BF9D1FFF787
:1047780069FB054623681A6812F0010F1FD19A6871
:1047880012F0010F07D19A6822F0004222F03F028E
:1047980042F001029A60FFF755FB431B022BE9D94F
:1047A80023681B6813F0010FE4D1E36D43F0100395
:1047B800E365236E43F001032366012002E0002035
:1047C80000E0002003B030BD3F0000800001005031
:1047D8000007005020000020632D3E050003005014
:1047E80038B504460368B3F1A04F60D0464A9342F7
:1047F8005AD0464A956805F01F059B6813F0040FC8
:104808007DD194F85830012B7BD0012384F858309F
:104818002046FFF769FF00286DD1E36D23F470632C
:1048280023F0010343F48073E3652368364A934217
:1048380042D002F5806293423BD01A46934200D0A0
:104848001DB9E26D22F48012E265E26D12F4805F18
:1048580035D0226E22F0060222661C221A6000233E
:1048680084F858302368284A93422ED002F5806293
:10487800934227D01A4693422AD0092D05D840F2F0
:104888002121E94011F0010F22D1E36D43F4801397
:10489800E365D36813F0007F32D0E36D23F440530F
:1048A80043F48053E3652BE002F50072A2E7184A4F
:1048B800A0E7A2F58072C1E74FF0A042BEE7002250
:1048C8002266CAE7A2F58072D5E74FF0A042D2E788
:1048D800DA6812F0007F05D0E26D22F4405242F40B
:1048E8008052E2659A6822F0004222F03F0242F0CC
:1048F80004029A6004E0002384F8583000E00220A3
:1049080038BD0220FCE700BF00010050000700503E
:10491800000300502DE9F04104460F469046006818
:10492800B0F1A04F24D0444B98421ED0434B9E6810
:1049380006F01F06856815F0040F77D194F85830F3
:10494800012B76D0012384F858303D4B984211D082
:10495800092E05D840F22123F34013F0010F09D1A5
:10496800002384F85830012061E003F50073DEE786
:10497800344BDCE72046FFF7B7FE002852D1E36D41
:1049880023F4706323F0010343F48073E365236821
:10499800294A934240D002F58062934239D01A46A0
:1049A800934200D01EB9E36D23F48013E365E36DF1
:1049B80013F4805F33D0236E23F006032366636D00
:1049C800214ADA62636D214A1A63636D204A5A6389
:1049D80023681C221A60002384F858302268536820
:1049E80043F0100353602268D36843F00103D36097
:1049F800216843463A464031606D00F0FBFA226870
:104A0800936823F0004323F03F0343F004039360CB
:104A18000DE0A2F58072C3E74FF0A042C0E7002383
:104A28002366CCE7002384F8583000E00220BDE874
:104A3800F0810220FBE700BF000100500007005092
:104A480000060050000300508F4100088341000811
:104A58001742000838B504460268936813F0020349
:104A680000D00123916811F0010F39D0002B39D102
:104A7800936803F00D03012B09D0E36D43F0100395
:104A8800E365236E43F001032366012029E0936860
:104A980023F0004323F03F0343F0020393602368AD
:104AA80003221A60FFF7CEF9054623689B6813F0C6
:104AB800010F13D0FFF7C6F9401B0228F5D9236868
:104AC8009B6813F0010FF0D0E36D43F01003E3652A
:104AD800236E43F001032366012002E0002000E07A
:104AE800002038BD0020FCE730B583B000230193D7
:104AF80090F85830012B41D004460D46012380F828
:104B08005830FFF7A7FF80BBE36D23F4885323F0E9
:104B1800020343F00203E3652268936823F04043ED
:104B280023F03F0305F080452B4343F00043936097
:104B380023689B68002B06DBE36D23F0030343F037
:104B48000103E36515E0019B01330193019A0C4BC6
:104B58009A42EDD9E36D23F0120343F01003E365A5
:104B6800002384F85830012006E0E36D43F0100379
:104B7800E365002384F8583003B030BD0220FBE71A
:104B880001DE040090F85820012A00F0D68010B405
:104B98009DB00346012280F85820002218921992ED
:104BA8000068B0F1A04F47D0654A904247D0002234
:104BB8000192019A002A46D0926812F0040200D0AD
:104BC8000122846814F0040F40F0A780002A40F006
:104BD800A480B0F1A04F42D05A4A90423CD05A4AE1
:104BE800086800285CD0906820F460404C6893F80E
:104BF80038C044EA4C34204390601868B0F1A04FA4
:104C08002FD0504CA0422CD04D48846814F0010499
:104C180000D001244D48806810F0010000D0012028
:104C280020434B4CA46814F0010400D00124204315
:104C38000CBF0120002025E0424A0192B9E702F5A5
:104C480080720192B5E7DA6D42F02002DA6500223F
:104C580083F85820012068E002F50072C0E73D4A59
:104C6800BEE74FF0A040846814F0010400D001248E
:104C78003448806810F0010000D0012020430CBFA8
:104C880001200020002854D0906820F4716020F0A2
:104C98000F000C688968214308439060002041E0B8
:104CA800916821F4604191601968B1F1A04F1AD060
:104CB8002448814217D02249886810F0010000D0AA
:104CC80001202249896811F0010100D00121014326
:104CD8001F48806810F0010000D0012001430CBF7C
:104CE8000121002110E04FF0A041886810F0010078
:104CF80000D001201349896811F0010100D0012179
:104D080001430CBF01210021A9B1916821F471610F
:104D180021F00F019160002004E0DA6D42F02002DA
:104D2800DA650120002283F858201DB05DF8044B95
:104D380070470020F6E70020F4E70220704700BF24
:104D4800000400500001005000070050000500500A
:104D58000006005000030050002807DB00F01F0287
:104D6800400901239340024A42F82030704700BFAF
:104D780000E100E0002808DB0901C9B200F1604049
:104D880000F5614080F80013704700F00F0009013A
:104D9800C9B2014B1954704714ED00E000B500F09A
:104DA8000700C0F1070CBCF1040F28BF4FF0040C3A
:104DB800031D062B0FD9C31E4FF0FF3E0EFA0CF051
:104DC80021EA000199400EFA03FE22EA0E0241EAA6
:104DD80002005DF804FB0023EEE70000074AD368F1
:104DE80023F4E0631B041B0C000200F4E06003439F
:104DF80043F0BF6343F40033D360704700ED00E035
:104E080010B50446054BD868C0F30220FFF7C6FF6B
:104E180001462046FFF7AEFF10BD00BF00ED00E0E1
:104E280008B5FFF799FF08BD0138B0F1807F0BD2B4
:104E38004FF0E0235861054AF02182F82310002042
:104E4800986107221A6170470120704700ED00E061
:104E580030B4C46C056D6560446D14B1846DC56D66
:104E68006560446C04F01F0C012404FA0CF4056C12
:104E78006C60046863608368102B05D003689960D0
:104E88000368DA6030BC704703689A600368D960C9
:104E9800F8E700000368104A934214D8DBB2083BD5
:104EA8000E4AA2FB03231B090D49426C22F00302A0
:104EB8000A4482640B4AC26403F01F03012202FA07
:104EC80003F303657047DBB2083B044AA2FB0323E4
:104ED8001B0908330449E8E707040240CDCCCCCCD1
:104EE800000802408008024020080240436803F09E
:104EF8007F03074A1A4492004265064A8265013BCD
:104F080003F01F03012202FA03F3C365704700BFD1
:104F18003F8200104009024000285DD010B50446C9
:104F280001682E4B99423FD82D4B0B442D4AA2FBCA
:104F380003231B099B0043642B4B0364022384F85F
:104F480025300A6822F4FF4222F07002A368E06864
:104F580003432069034360690343A0690343E0698D
:104F68000343206A034313430B602046FFF792FF75
:104F7800A368B3F5804F22D06368A26C03F07F0367
:104F88001360E36C226D5A606368013B032B19D9E7
:104F980000236365A365E3650020E063012384F8CB
:104FA800253084F8240010BD104B0B440D4AA2FB99
:104FB80003231B099B0043640D4B0364BEE70023D6
:104FC8006360D9E72046FFF791FF636D00221A60FE
:104FD800A36DE26D5A60DFE70120704707040240C5
:104FE800F8FFFDBFCDCCCCCC00000240F8FBFDBFE4
:104FF8000004024038B5044690F82400012841D046
:10500800012084F8240094F82500C0B2012804D0B7
:10501800002384F82430022038BD022084F82500BB
:105028000020E0632568286820F0010028602046F9
:10503800FFF70EFF236BD3B12268136843F00E030A
:105048001360A36C1A6812F4803F03D01A6842F404
:1050580080721A60636D1BB11A6842F480721A601C
:105068002268136843F0010313600020D4E7226824
:10507800136823F0040313602268136843F00A03DB
:105088001360DEE70220C7E738B5036C19680468C7
:105098002568436C03F01F0304229A400A4215D086
:1050A80015F0040F12D0236813F0200F03D12368E2
:1050B80023F004032360436C03F01F02016C0423F4
:1050C80093404B60036B03B1984738BD02229A4066
:1050D8000A421CD015F0020F19D0236813F0200FD4
:1050E80006D1236823F00A032360012380F82530C2
:1050F800436C03F01F02016C022393404B600023B2
:1051080080F82430C36A002BDFD09847DDE70822F7
:1051180002FA03F30B42D8D015F0080FD5D0236854
:1051280023F00E032360436C03F01F03016C01227C
:1051380002FA03F34B60C26380F82520002380F84D
:105148002430436B002BC0D09847BEE7F0B583B03E
:10515800002366E085685E000324B44025EA040560
:10516800CC68B4402C438460456825EA0C054C683B
:10517800C4F300149C402C43446063E08C68012C09
:1051880065D173E0DD08083550F8254003F0070CB9
:105198004FEA8C0C4FF00F0E0EFA0CFE24EA0E0E9E
:1051A8000C6904FA0CF444EA0E0440F8254062E065
:1051B800052400E0002404FA0EF42C430CF1020C40
:1051C800564D45F82C40564CA568D44325EA0206AE
:1051D8004F6817F4801F01D042EA0506504DAE60B3
:1051E800ED6804EA05064F6817F4001F01D042EA8B
:1051F80005064B4DEE606D6804EA05064F6817F426
:10520800003F01D042EA0506454D6E602D682C40EE
:105218004E6816F4803F01D042EA0504404A146003
:1052280001330A6832FA03F476D04FF0010C0CFA15
:1052380003FC1CEA0202F3D04C6804F00304013CAE
:10524800012C87D94C6804F00304032C96D0C46859
:105258004FEA430E4FF0030C0CFA0EFC24EA0C0C38
:105268008C6804FA0EF444EA0C04C4604C6804F038
:105278000304022C86D004684FEA430E4FF0030C57
:105288000CFA0EFC24EA0C0C4C6804F0030404FA33
:105298000EF444EA0C0404604C6814F4403FBFD098
:1052A800204C256E45F001052566246E04F00104A6
:1052B8000194019C4FEA930C0CF10205174C54F829
:1052C800255003F0030E4FEA8E0E0F2404FA0EF455
:1052D80025EA0405B0F1904F3FF46CAF124CA042A0
:1052E80012D004F58064A04210D004F58064A04276
:1052F8000ED004F58064A0420CD004F58064A0426E
:105308003FF456AF062456E7012454E7022452E737
:10531800032450E704244EE703B0F0BD0000014029
:105328000004014000100240000400480AB18161F5
:1053380070478162704710B40468226822F007023F
:105348008B68134323F01803CA681A432260036862
:105358000A685A6103684A689A615DF8044B7047A5
:1053680030B5046801F1010C4FEACC1C54F80C303C
:1053780023F0070E936843EA0E0323F01803D56859
:105388002B4344F80C300368146803EBC113C3F8CB
:1053980094400368526803EBC113C3F8982030BDEA
:1053A80070B404682368D4F8A05323F020034E692E
:1053B800334323F0C002202E09D08E69022E06D076
:1053C800032E29D0042E2AD023F0E00201E042F077
:1053D800200222F40062CB69134323F480620B6A33
:1053E800134323F0C0624B6A134323F000628B6AB5
:1053F800134323F04043CA6A43EA820323F000536D
:105408004A6B1A4325F480350B6B1D4322600368F1
:10541800C3F8A05370BC704742F04002D9E742F08D
:105428008002D6E72DE9F04105684B1CDB01EC58FA
:1054380024F07044EC500668F35806EBC114D4F815
:10544800E880D4F8E440D6F8A05323F0200C536940
:1054580043EA0C0C202B09D09369022B06D0032BAE
:1054680060D0042B63D02CF4D07C03E02CF4C07CF7
:105478004CF0200C2CF4006CD36943EA0C0323F4A1
:105488008063176A47EA030C2CF0C06C536A43EA3E
:105498000C0323F0006C936A43EA0C0323F0704C6E
:1054A800D36A43EA0C0323F40033576BB7F1005F68
:1054B80042D023F04003D2F838C04CEA030323F467
:1054C8008023976D47EA030E2EF0FC7E2EF4803E73
:1054D800136D43EA0E0E28F03F07D36B03F03F032A
:1054E8003B4323F00043176C3B43BCF1000F03D14F
:1054F80024F48074576C3C43976CB7F5606F1ED0EA
:10550800B7F5F05F1BD024F4F0543C4324F48044F6
:10551800D76C3C43576D05291AD8DFE801F01431E0
:10552800373D43492CF4807C4CF0800CA2E72CF0EA
:10553800800C4CF4807C9DE743F40033B9E7BCF160
:10554800400FE3D1DFE725F40035126B45EA420549
:105558004A1CD20146F802E0026802EBC112C2F806
:10556800E830036803EBC113C3F8E440036803EBB6
:10557800C113C3F8D4700368C3F8A053BDE8F08121
:1055880025F48025126B45EA8205E1E725F400251C
:10559800126B45EAC205DBE725F48015126B45EA74
:1055A8000215D5E725F40015126B45EA4215CFE739
:1055B80025F48005126B45EA8215C9E730B4006806
:1055C80000EBC113D3F8EC3023F01003146843EA5E
:1055D800041323F48013546844EA030C2CF4803C2D
:1055E800D36843EA0C0323F4003C936843EA0C03B2
:1055F8009469012C05D000EBC110C0F8EC3030BC28
:10560800704723F00403156945EA030C2CF0020CDB
:10561800536943EA0C0323F001032343EBE700003B
:10562800F0B4076807EBC114D4F8E460D4F8B850B4
:10563800402A52D035D8012A4FD0002A5ED0202ADD
:105648005ED8022A5ED3023A012404FA02F2324CEE
:10565800224230D144F2040422423ED10022FE24E8
:10566800944026EA04061C68944044EA060CDC6868
:10567800944044EA0C041E6906FA02FC4CEA040C45
:105688005C69944044EA0C0C9C69944044EA0C041C
:10569800082E39D0036803EBC113C3F8E440F0BC0B
:1056A8007047B2F5007F06D012D9B2F5806F14D0DA
:1056B800B2F5006F20D15A6807EBC117C7F8C420AC
:1056C80002689C6802EBC112C2F8C8401022C6E703
:1056D800802AF0D0B2F5807F0CD15A6807EBC11749
:1056E800C7F8BC2002689C6802EBC112C2F8C0402F
:1056F8000022B4E70022B2E70022B0E70022AEE7BA
:105708000022ACE70022AAE715F0022FC2D1DB691C
:1057180093401C43BEE700BF4100004006293CD827
:10572800DFE801F00C141C242C3404000268D2F8C1
:10573800843343F00103C2F8843370470268D2F817
:10574800843343F00203C2F8843370470268D2F806
:10575800843343F00403C2F8843370470268D2F8F4
:10576800843343F00803C2F8843370470268D2F8E0
:10577800843343F01003C2F8843370470268D2F8C8
:10578800843343F02003C2F8843370470268D2F8A8
:10579800843343F04003C2F884337047002864D050
:1057A80010B582B00446022380F8DD300023C0F82B
:1057B800E030C0F8E430C0F8E830C0F8EC30C0F8A9
:1057C800F030C0F8F430C0F8F830836813F0010FF7
:1057D80012D00268264B9A4225D021680A6822F422
:1057E8004042236903F44043134323F4405362695E
:1057F80002F440521A430A602046FCF717FCA368DB
:1058080013F0020F08D021680A6822F44072E36896
:1058180003F4407313430B60012384F8DD30002345
:1058280084F8DC301CE003F528431A6E42F08062ED
:105838001A661B6E03F080630193019BCDE7C3EBEF
:10584800C30204EB820200219161D16111625162AD
:105858009162C3EBC30204EB820211630133DBB232
:10586800062BECD9002002B010BD0120704700BF04
:105878000068014090F8DC30012B32D0012380F819
:10588800DC30022380F8DD30B1F1FF3F1AD0026826
:10589800D2F8CC3343F00203C2F8CC330268D2F812
:1058A800CC3323F00C030B43C2F8CC330268D2F894
:1058B800CC3343F00103C2F8CC33012380F8DD3048
:1058C800002070470268D2F8CC3323F00203C2F8F4
:1058D800CC330268D2F8CC3343F00103C2F8CC339E
:1058E800EBE70220704770B504460D46FEF7AAFAAA
:1058F80006462368D3F8883313F4803F0ED1B5F1F8
:10590800FF3FF6D0FEF79EFA801BA84201D8002D73
:10591800EFD1072384F8DD30032005E0012384F864
:10592800DD30002084F8DC0070BD10B5044690F826
:10593800DD00C0B202280BD0022384F8DD3006292E
:1059480007D02046FFF70CFD012384F8DD30002046
:1059580010BD11462046FFF7EEFCF5E7034690F828
:10596800DD00C0B2022800F0318193F8DC00012884
:1059780000F0288170B5012083F8DC00022083F84C
:10598800DD001868D0F88053D0F8FC4320292AD8C5
:10599800002900F00C8101F1FF3CBCF11F0F00F25F
:1059A8000681DFE81CF063007F0004018C0004011D
:1059B8000401040199000401040104010401040123
:1059C80004010401A6000401040104010401040106
:1059D8000401040104010401040104010401040197
:1059E80004010401B900B1F5807F00F0C9801DD918
:1059F800B1F5007F40F0DB8024F4E00416684FEA3C
:105A0800061C0CF4E00C4CEA0404D0F8F86326F009
:105A1800F846C0F8F8631E68D6F8F803526892068C
:105A280002F0F8420243C6F8F82328E0402900F0C3
:105A38008D80802940F0BB8024F4E04416684FEA4A
:105A4800161C0CF4E04C4CEA0404D0F8F86326F475
:105A5800F816C0F8F8631E68D6F8F80352681204FE
:105A680002F4F8120243C6F8F82308E025F4E0250A
:105A7800166806F4E02635435268C0F8BC2393F84C
:105A8800DD20D2B2072A00F09F800F2900F296800D
:105A98001A68C2F88053012283F8DD20002083F8B9
:105AA800DC0070BD25F4601516684FEAC60C0CF4CE
:105AB800601C4CEA05055268C0F8C023DFE725F0F2
:105AC800E07516684FEA861C0CF0E07C4CEA050588
