:020000040800F2
:1000000000000220FD1A00086117000863170008AD
:10001000651700086717000869170008000000004E
:100020000000000000000000000000006B17000846
:100030006D170008000000006F1700087117000816
:100040004D1B00084D1B00084D1B00084D1B0008F0
:100050004D1B00084D1B00084D1B00084D1B0008E0
:100060004D1B00084D1B00084D1B000879170008A8
:100070004D1B00084D1B00084D1B00084D1B0008C0
:100080004D1B00084D1B0008891700084D1B000878
:10009000A11700084D1B00084D1B00084D1B000850
:1000A0004D1B00084D1B00084D1B00084D1B000890
:1000B0004D1B00084D1B00084D1B00084D1B000880
:1000C0004D1B00084D1B00084D1B00084D1B000870
:1000D0004D1B00084D1B00084D1B00084D1B000860
:1000E0004D1B00084D1B00084D1B00084D1B000850
:1000F0004D1B00084D1B00084D1B00084D1B000840
:100100004D1B00084D1B00084D1B00084D1B00082F
:100110004D1B00084D1B00084D1B00084D1B00081F
:100120004D1B00084D1B00084D1B00084D1B00080F
:100130004D1B00084D1B00084D1B00084D1B0008FF
:100140004D1B00084D1B00084D1B00084D1B0008EF
:10015000B11700084D1B00084D1B00084D1B00087F
:100160004D1B00084D1B00084D1B00084D1B0008CF
:100170004D1B00084D1B00084D1B00084D1B0008BF
:100180004D1B00084D1B00084D1B00084D1B0008AF
:100190004D1B0008000000004D1B00084D1B00080F
:1001A0004D1B00084D1B00084D1B00084D1B00088F
:1001B0004D1B00084D1B00084D1B00084D1B00087F
:1001C0004D1B00084D1B00084D1B00084D1B00086F
:0801D0004D1B00084D1B000847
:1001D80010B5054C237833B9044B13B10448AFF379
:1001E80000800123237010BDA4010020000000003E
:1001F80060BC000808B5034B1BB103490348AFF3C3
:10020800008008BD00000000A801002060BC0008B4
:1002180080F0004002E000BF81F0004142001FBFB3
:100228005FEA410392EA030F7FEA226C7FEA236CBC
:100238006AD04FEA1262D2EB1363C1BFD2184140B1
:1002480048404140B8BF5B42192B88BF704710F047
:10025800004F40F4000020F07F4018BF404211F0EA
:10026800004F41F4000121F07F4118BF494292EA52
:10027800030F3FD0A2F1010241FA03FC10EB0C007E
:10028800C3F1200301FA03F100F0004302D549420B
:1002980060EB4000B0F5000F13D3B0F1807F06D3B8
:1002A80040084FEA310102F10102FE2A51D2B1F1B0
:1002B800004F40EBC25008BF20F0010040EA0300A5
:1002C8007047490040EB0000013A28BFB0F5000F25
:1002D800EDD2B0FA80FCACF1080CB2EB0C0200FADB
:1002E8000CF0AABF00EBC25052421843BCBFD0402A
:1002F8001843704792F0000F81F4000106BF80F4A4
:1003080000000132013BB5E74FEA41037FEA226C66
:1003180018BF7FEA236C21D092EA030F04D092F031
:10032800000F08BF0846704790EA010F1CBF002065
:10033800704712F07F4F04D1400028BF40F00040C2
:10034800704712F100723CBF00F50000704700F0E2
:10035800004343F0FE4040F4000070477FEA226209
:1003680016BF08467FEA23630146420206BF5FEADA
:10037800412390EA010F40F4800070474FF00003DA
:1003880004E000BF10F0004348BF40425FEA000CA1
:1003980008BF704743F0964301464FF000001CE049
:1003A80050EA010208BF70474FF000030AE000BF9F
:1003B80050EA010208BF704711F0004302D54042DD
:1003C80061EB41015FEA010C02BF8446014600204F
:1003D80043F0B64308BFA3F18053A3F50003BCFA6A
:1003E8008CF2083AA3EBC25310DB01FA02FC634417
:1003F80000FA02FCC2F12002BCF1004F20FA02F21E
:1004080043EB020008BF20F00100704702F1200210
:1004180001FA02FCC2F1200250EA4C0021FA02F271
:1004280043EB020008BF20EADC7070474FF0FF0C76
:100438001CEAD0521EBF1CEAD15392EA0C0F93EA71
:100448000C0F6FD01A4480EA010C400218BF5FEA13
:1004580041211ED04FF0006343EA501043EA511186
:10046800A0FB01310CF00040B1F5000F3EBF490080
:1004780041EAD3715B0040EA010062F17F02FD2A84
:100488001DD8B3F1004F40EBC25008BF20F0010067
:10049800704790F0000F0CF0004C08BF49024CEA7E
:1004A800502040EA51207F3AC2BFD2F1FF0340EA10
:1004B800C250704740F400004FF00003013A5DDC81
:1004C80012F1190FDCBF00F000407047C2F10002C2
:1004D800410021FA02F1C2F1200200FA02FC5FEAAF
:1004E800310040F1000053EA4C0308BF20EADC70F9
:1004F800704792F0000F00F0004C02BF400010F46B
:10050800000F013AF9D040EA0C0093F0000F01F017
:10051800004C02BF490011F4000F013BF9D041EA39
:100528000C018FE70CEAD15392EA0C0F18BF93EA3B
:100538000C0F0AD030F0004C18BF31F0004CD8D165
:1005480080EA010000F00040704790F0000F17BFEC
:1005580090F0004F084691F0000F91F0004F14D032
:1005680092EA0C0F01D142020FD193EA0C0F03D18A
:100578004B0218BF084608D180EA010000F000408D
:1005880040F0FE4040F40000704740F0FE4040F468
:10059800400070474FF0FF0C1CEAD0521EBF1CEA07
:1005A800D15392EA0C0F93EA0C0F69D0A2EB030225
:1005B80080EA010C49024FEA402037D04FF08053BF
:1005C80043EA111143EA10130CF000408B4238BF84
:1005D8005B0042F17D024FF4000C8B4224BF5B1A92
:1005E80040EA0C00B3EB510F24BFA3EB510340EAE0
:1005F8005C00B3EB910F24BFA3EB910340EA9C008E
:10060800B3EBD10F24BFA3EBD10340EADC001B01FD
:1006180018BF5FEA1C1CE0D1FD2A3FF650AF8B42A1
:1006280040EBC25008BF20F0010070470CF0004CAE
:100638004CEA50207F32C2BFD2F1FF0340EAC250D9
:10064800704740F400004FF00003013A37E792F09A
:10065800000F00F0004C02BF400010F4000F013AF8
:10066800F9D040EA0C0093F0000F01F0004C02BFF3
:10067800490011F4000F013BF9D041EA0C0195E75C
:100688000CEAD15392EA0C0F08D142027FF47DAFF5
:1006980093EA0C0F7FF470AF084676E793EA0C0FE5
:1006A80004D14B023FF44CAF08466EE730F0004CE3
:1006B80018BF31F0004CCAD130F000427FF45CAF73
:1006C80031F000437FF43CAF5FE700BF4FF0FF3CE1
:1006D80006E000BF4FF0010C02E000BF4FF0010C34
:1006E8004DF804CD4FEA40024FEA41037FEA226CFD
:1006F80018BF7FEA236C11D001B052EA530C18BF1F
:1007080090EA010F58BFB2EB030088BFC81738BF83
:100718006FEAE17018BF40F0010070477FEA226C71
:1007280002D15FEA402C05D17FEA236CE4D15FEA6D
:10073800412CE1D05DF8040B704700BF84460846A1
:100748006146FFE70FB5FFF7C9FF002848BF10F162
:10075800000F0FBD4DF808EDFFF7F4FF0CBF0120A7
:1007680000205DF808FB00BF4DF808EDFFF7EAFF31
:1007780034BF012000205DF808FB00BF4DF808EDEC
:10078800FFF7E0FF94BF012000205DF808FB00BFE1
:100798004DF808EDFFF7D2FF94BF012000205DF867
:1007A80008FB00BF4DF808EDFFF7C8FF34BF012074
:1007B80000205DF808FB00BF4FEA4002B2F1FE4F8F
:1007C8000FD34FF09E03B3EB12620DD94FEA00230B
:1007D80043F0004310F0004F23FA02F018BF4042E4
:1007E80070474FF00000704712F1610F01D14202CB
:1007F80005D110F0004008BF6FF0004070474FF07F
:100808000000704742000ED2B2F1FE4F0BD34FF0FA
:100818009E03B3EB126209D44FEA002343F000436E
:1008280023FA02F070474FF00000704712F1610F91
:1008380001D1420202D14FF0FF3070474FF0000063
:10084800704700BF53B94AB9002908BF00281CBF28
:100858004FF0FF314FF0FF3000F06AB9ADF1080CEE
:100868006DE904CE00F006F8DDF804E0DDE90223C6
:1008780004B070472DE9F047089D0C46002B4ED177
:1008880094468C458646B2FA82F262D94AB1C2F1E0
:100898002003914020FA03F30CFA02FC194300FAF2
:1008A80002FE4FEA1C471FFA8CF6B1FBF7F44FEA39
:1008B8001E4307FB141143EA014304FB06F1994266
:1008C8000AD91CEB030304F1FF3080F0128199422E
:1008D80040F20F81023C6344591A1FFA8EF3B1FBB0
:1008E800F7F007FB101143EA014300FB06F69E42AE
:1008F8000AD91CEB030300F1FF3180F0FC809E4213
:1009080040F2F980634402389B1B40EA044000210E
:100918001DB1D3400022C5E90032BDE8F0878B4203
:1009280005D90DB1C5E9000100210846F5E7B3FA7C
:1009380083F1002946D1A34202D39042C0F0F0804F
:10094800861A64EB03030120002DE6D0C5E9006395
:10095800E3E7002A40F09080A1EB0C044FEA1C4822
:100968001FFA8CF70121B4FBF8F64FEA1E4308FB87
:10097800164443EA044307FB06F0984208D91CEBE7
:10098800030306F1FF3402D2984200F2CD802646D6
:100998001C1A1FFA8EF3B4FBF8F008FB104443EA64
:1009A800044300FB07F79F4208D91CEB030300F13F
:1009B800FF3402D29F4200F2B0802046DB1B40EA9F
:1009C8000640A5E7C1F120068B4022FA06F71F432F
:1009D80020FA06FC04FA01F343EA0C03F44000FA97
:1009E80001F8380C4FEA1349B4FBF0FE1FFA87FCF4
:1009F80000FB1E4449EA04440EFB0CF9A14502FA27
:100A080001F20AD93C190EF1FF3A80F08480A14521
:100A180040F28180AEF1020E3C44A4EB09041FFAB7
:100A280083F9B4FBF0F300FB134449EA044403FBE5
:100A38000CFCA44507D93C1903F1FF3067D2A44543
:100A480065D9023B3C4443EA0E40A0FB0293A4EB69
:100A58000C049C42CE469C4651D34ED055B1B8EBBF
:100A68000E0364EB0C0404FA06F6CB401E43CC409C
:100A7800C5E90064002150E7C2F1200320FA03F120
:100A88000CFA02FC24FA03F394400C434FEA1C4886
:100A980000FA02FE1FFA8CF7B3FBF8F008FB1031DE
:100AA800230C43EA014300FB07F1994208D91CEBE8
:100AB800030300F1FF362CD299422AD90238634445
:100AC8005B1AA4B2B3FBF8F108FB113344EA034400
:100AD80001FB07F3A34208D91CEB040401F1FF361C
:100AE80013D2A34211D902396444E41A41EA0041FD
:100AF80039E70446F0E6084606E7C845AED2B9EB42
:100B0800020E63EB070C0138A8E73146EDE7034610
:100B180099E73046D4E7D6467FE7634402384DE785
:100B28000646234608460FE7023E634430E700BF07
:100B3800704700BF10B59AB0002417941894199400
:100B4800202221460FA80AF0E7FF3C2221466846EA
:100B58000AF0E2FF42484FF0A04303604FF44033ED
:100B680043608460C460046101234361042282619C
:100B7800047744770222026280F824404FF4D4625A
:100B8800C2624FF48062026380F838304FF48053B9
:100B9800C36380F8404001F04DF800284DD1002390
:100BA800179317A92E4802F073FB002848D12D4B44
:100BB8000F9306231093002311937F22129204228D
:100BC800139214930FA9264801F052FB00283AD13A
:100BD800254B0F930C2310930FA9214801F048FBD4
:100BE800002833D1214B0093092301930123029359
:100BF8007F2303930423049300230593022208927E
:100C08008DF824308DF825308DF82630CC220A92C4
:100C180080220B928DF830306946114802F02AF88C
:100C2800B8B9134B009340F20F13019369460C486F
:100C380002F020F880B91AB010BD00F085FCAEE7CC
:100C480000F082FCB3E700F07FFCC1E700F07CFC19
:100C5800C8E700F079FCE4E700F076FCEBE700BFBA
:100C68006C030020040060081000C010020030046B
:100C78000800900C00B589B02022002168460AF0CF
:100C88004BFF1E481E4B03604FF440334360002364
:100C98008360C36003614361042282610377437701
:100CA8000122026280F82430C362036380F838307E
:100CB800C36380F840201C21416480218164C3649F
:100CC800026500F0B7FF98B90E4B00930623019315
:100CD800052302937F23039304230493002305939E
:100CE8006946064801F0C4FA28B909B05DF804FB62
:100CF80000F02AFCE8E700F027FCF6E700030020F4
:100D0800000100500010603210B58CB00024099426
:100D18000A940B942022214601A80AF0FDFE2248DD
:100D2800224B03604FF4403343608460C460046125
:100D3800446104238361047744770123036280F8C4
:100D48002440C462046380F83840C46380F84030AB
:100D58001C22426480228264C464036500F06AFF36
:100D6800C8B90023099309A90F4802F091FAA8B954
:100D78000F4B019306230293052303937F230493C8
:100D8800042305930023069301A9074801F070FA8C
:100D980038B90CB010BD00F0D7FBE2E700F0D4FB87
:100DA800E6E700F0D1FBF4E79402002000040050CD
:100DB8000200300400B589B02022002168460AF0FC
:100DC800ABFE1E481E4B03604FF4403343600023C4
:100DD8008360C360036143610422826103774377C0
:100DE8000122026280F82430C362036380F838303D
:100DF800C36380F840201421416460218164C36486
:100E0800026500F017FF98B90E4B00930623019373
:100E1800072302937F23039304230493002305935A
:100E28006946064801F024FA28B909B05DF804FBC0
:100E380000F08AFBE8E700F087FBF6E728020020CD
:100E4800000600501000C09030B5A3B00446002141
:100E58001D911E911F9120912191542208A80AF0FA
:100E68005BFE2368B3F1A04F0CD07A4A934263D05B
:100E7800794A934200F09B80784A934200F0CA80F6
:100E880023B030BD4FF4004308934FF0005319933B
:100E980008A805F0B9FB00283DD1714A1368013351
:100EA8001360012B3AD06F4BDA6C42F00102DA641E
:100EB800DB6C03F001030293029B0F231D930323B2
:100EC8001E9300251F951DA94FF0904002F0C8FC05
:100ED8006548664B0360052343608560C5608023D1
:100EE80003614FF4807343614FF48063836120236F
:100EF800C3614FF40053036202F098FBC8B95A4B20
:100F080063659C6200221146122002F0FDFA12204D
:100F180002F00AFBB4E700F017FBBEE7514BDA6CAE
:100F280042F40052DA64DB6C03F400530193019B32
:100F3800B9E700F009FBE2E74FF4004308934FF0EC
:100F48000053199308A805F05FFB10BB444A1368C7
:100F580001331360012B1FD0424BDA6C42F00202BE
:100F6800DA64DB6C03F002030493049B04231D93EF
:100F780003231E9300241F941DA93D4802F070FC12
:100F880022462146122002F0BFFA122002F0CCFAC3
:100F980076E700F0D9FAD9E7324BDA6C42F400521E
:100FA800DA64DB6C03F400530393039BD4E74FF438
:100FB800803308934FF000431A9308A805F024FBE8
:100FC800D0B92C4A136801331360012B17D0254B75
:100FD800DA6C42F00202DA64DB6C03F00203069377
:100FE800069B02231D9303231E9300231F931DA911
:100FF8001F4802F035FC43E700F0A6FAE1E7194B79
:10100800DA6C42F48042DA64DB6C03F480430593C3
:10101800059BDCE74FF4803308934FF000431A93A5
:1010280008A805F0F1FA88B9124A13680133136069
:10103800012B7FF425AF0B4BDA6C42F48042DA6463
:10104800DB6C03F480430793079B19E700F07CFAF5
:10105800EAE700BF000100500004005000060050FD
:10106800C401002000100240C8010020080002400E
:1010780000040048C0010020A0B138B50446036848
:10108800B3F1A04F00D038BD092101F0D3FD0546CA
:1010980040F20F11204601F0CDFDA9B280B209F04F
:1010A800D5FDF0E77047000000B583B00E4B9A6C91
:1010B80042F004029A649A6C02F004020092009AC8
:1010C8009A6C42F001029A649B6C03F0010301934D
:1010D800019B002211460B2002F016FA0B2002F0A9
:1010E80023FA03B05DF804FB0010024030B589B064
:1010F800002403940494059406940794174BDA6C1F
:1011080042F02002DA64DA6C02F020020092009ABF
:10111800DA6C42F00102DA64DA6C02F00102019240
:10112800019ADA6C42F00202DA64DB6C03F0020323
:101138000293029B0A4D224643F60101284602F01B
:1011480083FC43F601030393012304930594069457
:1011580003A9284602F084FB09B030BD0010024004
:101168000004004802680E4B9A4200D0704700B550
:1011780083B003F528431A6E42F080621A661B6E2C
:1011880003F080630193019B00221146442002F082
:10119800BBF9442002F0C8F903B05DF804FB00BFB6
:1011A8000068014070B588B0002303930493059349
:1011B8000693079302681A4B9A4201D008B070BD93
:1011C80003F52843DA6C42F00202DA64DA6C02F0C2
:1011D80002020192019ADA6C42F00102DA64DB6CD5
:1011E80003F001030293029B4FF44043039302264A
:1011F8000496032506950D24079403A9094802F0CF
:101208002FFB4FF440730393049600230593069530
:10121800079403A94FF0904002F022FBCEE700BFED
:10122800006801400004004810B5BAB000243894A2
:10123800399434943594369437942D942E942F946D
:1012480030943194329433946022214615A80AF0E0
:1012580063FC129413941494242221460DEB02008B
:101268000AF05AFC2022214601A80AF055FCAE4893
:10127800AE4B03604460846002F01EFE002840F01C
:101288001A810C21A84802F083FE002840F016813C
:101298000A21A54802F0B5FE002840F012814FF45B
:1012A800803338934FF40063399338AA01219E485C
:1012B80002F0E2FE002840F00781002201219A484E
:1012C80003F013F8002840F002814FF4805339935B
:1012D80038AA0221944802F0CFFE002840F0FA8094
:1012E80014220221904803F000F8002840F0F5800D
:1012F80046F64023349300213591369108233793DD
:1013080034AA894802F09FFE002840F0E9800021B5
:101318002D912F91309133912DAA834803F0F0F845
:10132800002840F0E08010231593002116911791B2
:101338001891012319931A911B911C911D911E91CB
:101348004FF000631F93209121914FF00053229397
:10135800239124914FF0004325934FF480732693F3
:10136800279129912A912B912C9115AA6E4803F067
:1013780081F8002840F0BA8000231593279315AA16
:101388000321694803F076F8002840F0B28043F260
:101398002053129312AB01220021634803F01EF977
:1013A800002840F0A98041F69023129312AB042242
:1013B80000215D4803F012F9002840F0A08045F2B2
:1013C800E47312934FF4805313930021149112ABDA
:1013D8000822554803F002F9002840F093800021C4
:1013E800099164230A930B914FF400420C924FF435
:1013F80080420D920E930F914FF0004310934FF0DF
:101408008043119309AA484803F096F800287CD134
:1014180009AA0321444803F08FF8002878D1002155
:1014280001910423029308230393049105910691E3
:101438000791089101AB01223B4803F0B0F900285D
:1014480069D101AB40220321374803F0A8F90028ED
:1014580064D108230293042303936B4402220021DE
:10146800314803F09CF900285BD101AB80220321AD
:101478002D4803F094F900285AD134AA03212A48A8
:1014880002F0E1FD002856D12DAA0321264803F0D9
:1014980037F8002852D14FF48873129312AB012207
:1014A8000321214803F09AF800284AD11E48FFF783
:1014B80079FE3AB010BD00F047F8E2E600F044F8D3
:1014C800E6E600F041F8EAE600F03EF8F5E600F05E
:1014D8003BF8FAE600F038F802E700F035F807E7DD
:1014E80000F032F813E700F02FF81CE700F02CF8B2
:1014F80042E700F029F84AE700F026F853E700F041
:1015080023F85CE700F020F869E700F01DF87FE7B2
:1015180000F01AF883E700F017F892E700F014F8E3
:1015280097E700F011F8A0E7D80300200068014011
:1015380000F00AF8A1E700F007F8A5E700F004F8C2
:10154800A9E700F001F8B1E772B6FEE700B595B07B
:101558003822002106A80AF0DFFA00200190029044
:1015680003900490059004F0B9FB212306934FF4EF
:101578008033079301230C9302230D9303220E92C9
:1015880005220F924422109211930822129213936B
:1015980006A804F05DFC80B90F230193032302938E
:1015A800002303930493059304210DEB010004F039
:1015B80005FF20B915B05DF804FBFFF7C5FFFFF77D
:1015C800C3FF000008B500F0E7FAFFF7BFFFFFF719
:1015D8008DFDFFF769FDFFF7ADFAFFF7EBFBFFF7AE
:1015E80023FE00F043F800F02BF900F093F900F027
:1015F800C5F9FFF73FFBFFF787FB08F083FA09F00F
:1016080003FB0AF087F908F0B9FD09F0AFFA7F216A
:10161800134801F009FA08B1FFF796FF02221149B1
:101628000F4801F001F968B90D4B5B6D23B11A68D9
:10163800136823F006031360094801F043FA18B150
:10164800FFF782FFFFF780FF4FF49011064803F081
:10165800F8F810B908F0C2FDFCE7FFF775FF00BF06
:101668006C03002050250020D803002008B510483E
:10167800104B03604FF482734360002383604FF480
:10168800E062C260036143614FF400728261182214
:10169800C2610362436283620722C2620363082352
:1016A800436305F07AFA00B908BDFFF74DFFFBE781
:1016B800D40400200030014000B589B00023039312
:1016C80004930593069307930268144B9A4202D039
:1016D80009B05DF804FB03F560431A6E42F48052CA
:1016E8001A661A6E02F480520192019ADA6C42F07C
:1016F8000102DA64DB6C03F001030293029BE0232E
:10170800039302230493032306930523079303A952
:101718004FF0904002F0A4F8DAE700BF0030014033
:1017280000B583B00B4B1A6E42F001021A661A6EAE
:1017380002F001020092009A9A6D42F080529A6576
:101748009B6D03F080530193019B04F04DFB03B0A4
:101758005DF804FB00100240FEE7FEE7FEE7FEE747
:10176800FEE770477047704708B500F025FA08BDD6
:1017780008B5024802F012F808BD00BFC8010020F1
:1017880008B5034800F0AEFB024800F0ABFB08BD0B
:101798006C0300200003002008B5024804F055F847
:1017A80008BD00BFA41D002008B50021024803F0B1
:1017B80072FA0AF097F908BDD803002070470000B4
:1017C8000268094B9A4200D0704782B003F55C4327
:1017D8001A6E42F400521A661B6E03F4005301930A
:1017E800019B02B0704700BF0034014000B587B0CC
:1017F80000230193029303930493059302680E4B0D
:101808009A4202D007B05DF804FB03F55C43DA6C3A
:1018180042F00202DA64DB6C03F002030093009BDF
:101828004FF400730193022302930A23059301A93D
:10183800024802F015F8E5E70034014000040048CA
:1018480010B598B000241594169417940E940F941C
:10185800109411941294139414943422214601A8DC
:101868000AF05AF929482A4B03600523436084602B
:1018780040F2E733C360046144618023836105F06B
:101888005DFD002836D1002315931693179315A9EB
:101898001E4805F071FE00282FD160230E934FF4E7
:1018A800FA730F93002310931193129313931493C5
:1018B80008220EA9154805F0C1FD08BB00230193B5
:1018C80002930393049305934FF4005206920793EF
:1018D800089309934FF000720A920B930C930D939F
:1018E80001A90A4805F09EFE68B90848FFF77EFF7F
:1018F80018B010BDFFF728FEC5E7FFF725FECCE7B7
:10190800FFF722FEDAE7FFF71FFEEEE738050020B3
:101918000034014008B51748174B03604FF46123A2
:10192800436000238360C36003610C2242618361CA
:10193800C36103624362836206F040FA70B9002112
:101948000C4806F0B4FA60B900210A4806F0D4FA47
:1019580050B9084806F08CFA48B908BDFFF7F4FDFD
:10196800EDE7FFF7F1FDEFE7FFF7EEFDF1E7FFF732
:10197800EBFDF2E7180600200038014008B51748CB
:10198800174B03604FF46123436000238360C360F7
:1019980003610C2242618361C36103624362836213
:1019A80006F00CFA70B900210C4806F080FA60B90C
:1019B80000210A4806F0A0FA50B9084806F058FA7B
:1019C80048B908BDFFF7C0FDEDE7FFF7BDFDEFE73C
:1019D800FFF7BAFDF1E7FFF7B7FDF2E7840500204E
:1019E8000044004070B5A0B0044600211B911C9132
:1019F8001D911E911F91542206A80AF08DF82368A4
:101A0800384A934204D0384A93422BD020B070BD54
:101A18000123069306A804F0F7FD00BB334B1A6EAA
:101A280042F480421A661A6E02F480420192019AC8
:101A3800DA6C42F00202DA64DB6C03F00203029310
:101A4800029BC0231B9302231C9300231D931E9308
:101A580007231F931BA9264801F002FFD6E7FFF7CB
:101A680073FDDBE70223069306A804F0CDFD0028EA
:101A780035D11E4B9A6D42F400329A659A6D02F484
:101A880000320392039ADA6C42F00102DA64DA6CEB
:101A980002F001020492049ADA6C42F00202DA645B
:101AA800DB6C03F002030593059B4FF400431B9383
:101AB80002261C9600241D941E9407251F951BA919
:101AC8004FF0904001F0CCFE08231B931C961D9408
:101AD8001E941F951BA9064801F0C2FE96E7FFF762
:101AE80033FDC6E7003801400044004000100240C2
:101AF800000400480D488546FFF760FE0C480D4974
:101B08000D4A002302E0D458C4500433C4188C4250
:101B1800F9D30A4A0A4C002301E013600432A242B6
:101B2800FBD30AF001F8FFF74DFDFEE700000220A5
:101B380000000020A401002098BD0008A401002096
:101B480088270020FEE70000104B1B680BB9012016
:101B5800704710B504464FF47A70B0FBF3F30C4AA3
:101B68001068B0FBF3F001F0E3FC68B90F2C01D961
:101B780001200AE0002221464FF0FF3001F0C4FCAA
:101B8800044B1C60002000E0012010BD0400002070
:101B9800000000200800002010B5032001F0A2FC7E
:101BA8000F20FFF7D1FF10B10124204610BD0446D5
:101BB800FFF7B6FDF9E70000034A1368034909680F
:101BC8000B441360704700BFAC06002004000020DF
:101BD800014B1868704700BFAC06002010B43030C5
:101BE8000B0A9B0003F00C03C45801F01F014FF0CF
:101BF8001F0C0CFA01FC24EA0C0CC2F384628A4024
:101C08004CEA0202C25010BC704710B414304B0E9C
:101C18009B0003F00403C458C1F304514FF0070CB0
:101C28000CFA01FC24EA0C0C8A404CEA0202C2506D
:101C380010BC704730B583B000230193002800F032
:101C480032810446C36D13B323689A6812F0005FAB
:101C580005D09A6822F0204222F03F029A6022685A
:101C6800936813F0805F1FD1936823F0104323F02B
:101C78003F0343F0805393608C4B1B689B098C4A4D
:101C8800A2FB03239B0901335B00019309E0FFF7E3
:101C9800DBF80023236684F85830D5E7019B013B25
:101CA8000193019B002BF9D12268936813F0805FA0
:101CB8003DD1E36D43F01003E365236E43F0010368
:101CC80023660120936813F0040300D00123E16D1B
:101CD80011F0100F40F0E080002B40F0DD80E36D44
:101CE80023F4817343F00203E365936813F0010F53
:101CF8003ED1B2F1A04F1CD06E4B9A4219D06E4B18
:101D0800996811F0010100D001216C4B9B6813F018
:101D1800010300D001230B436949896811F00101CF
:101D280000D001210B430CBF0123002312E0002047
:101D3800C8E74FF0A043996811F0010100D00121D4
:101D48005C4B9B6813F0010300D001230B430CBFCD
:101D58000123002363B1B2F1A04F6CD0554B9A42D6
:101D680067D0584963688A6822F47C1213438B60F1
:101D7800627FE36B43EA4233E2681343A26813438A
:101D880094F8242043EA0243012A56D0E26A22B199
:101D980002F47872216B0A4313432168CD684A4ADA
:101DA8002A401A43CA602268136923F04063616BB2
:101DB8000B4313612268936813F0080300D00123D2
:101DC80043BB237F94F83810490041EA8331D36834
:101DD80023F4804323F002030B43D3602369002BD1
:101DE80030D02268136943F4803313612268D2F833
:101DF800C03023F47F5323F03F0321690B43C2F81B
:101E0800C03094F84030012B2BD02268136923F09E
:101E1800010313616369012B35D02268136B23F02A
:101E28000F031363E36D23F0030343F00103E3653A
:101E380037E0264996E7254994E7A26A013A43EA3A
:101E48004243A3E72268136923F4803313612268AD
:101E5800D2F8C03023F47F5323F03F03C2F8C030D8
:101E6800CFE721680B6923F4FF6323F00403626C56
:101E7800A56C2A43E56C2A43256D2A43134343F096
:101E880001030B61C6E721680B6B23F00F03226A7D
:101E9800013A13430B63C5E7E36D43F01003E365B1
:101EA800012003B030BD0120FBE700BF0000002087
:101EB800632D3E050001005000040050000500504D
:101EC80000060050000700500740F0FF00030050D4
:101ED8007047704708B5806AFFF7FBFF08BD704779
:101EE80070470000F8B5044603681E685F68B3F1E0
:101EF800A04F49D0984A934244D0984B9D6805F02A
:101F08001F0516F0020F10D017F0020F0DD0E36D69
:101F180013F0100F03D1E36D43F40063E36520462B
:101F280000F0A7FE236802221A6016F0040F02D000
:101F380017F0040F05D116F0080F58D017F0080F46
:101F480055D0E36D13F0100F03D1E36D43F4007324
:101F5800E3652368DA6812F4406F42D17E4A9342FF
:101F680017D002F58062934210D01A46934213D0DC
:101F7800092D05D840F22121E94011F0010F0BD1BC
:101F8800D2680AE0764BB9E7754BB7E7A2F58072DD
:101F9800ECE74FF0A042E9E7DA6812F4005F20D1DD
:101FA8001A6812F0080F1CD09A6812F0040F10D1AA
:101FB8005A6822F00C025A60E36D23F48073E365DB
:101FC800E36D13F4805F0CD1E36D43F00103E36527
:101FD80007E0E36D43F01003E365236E43F001036C
:101FE80023662046FFF774FF23680C221A6016F058
:101FF800200F02D017F0200F05D116F0400F63D044
:1020080017F0400F60D0E36D13F0100F03D1E36DAC
:1020180043F40053E3652368DA6C12F4C07F16D1E9
:102028000121DA6812F4406F13D101204A4A934221
:1020380014D002F5806293420DD01A46934210D014
:102048007DB1062D0DD0072D0BD0D2680AE00021F6
:10205800E7E70020EAE7A2F58072EFE74FF0A04239
:10206800ECE7DA6851B312F0007F03D030B312F412
:10207800005F23D1196811F0400F1FD012F4001F20
:102088001CD19A6812F0080F10D15A6822F0600229
:102098005A60E36D23F48053E365E36D13F4807FA6
:1020A8000CD1E36D43F00103E36507E0E36D43F012
:1020B8001003E365236E43F0010323662046FEF711
:1020C800DBFF236860221A6016F0800F02D017F039
:1020D800800F36D116F4807F02D017F4807F41D16B
:1020E80016F4007F02D017F4007F47D116F0100FC6
:1020F80020D017F0100F1DD0E36B6BB1002D4DD021
:102108002368B3F1A04F47D0134A934242D0134BF0
:102118009B6813F4604F0AD0E36D43F48063E36572
:10212800236E43F0020323662046FFF7D9FE236897
:1021380010221A6016F4806F02D017F4806F33D122
:10214800F8BDE36D43F48033E3652046FFF7C7FE2F
:10215800236880221A60BDE7000100500007005084
:1021680000030050E36D43F40033E365204600F0BC
:102178007EFD23684FF480721A60B1E7E36D43F483
:102188008023E365204600F073FD23684FF4007256
:102198001A60ABE70C4BBBE70B4BB9E72368DB686E
:1021A80013F0010FC3D0B7E7E36D43F48043E36551
:1021B800236E43F00803236623684FF480621A6095
:1021C800204600F053FDBBE70003005008B5034666
:1021D800806AC26D12F0500F30D1C36D43F40073A2
:1021E800C36503681A6812F0080F14D0DA6812F48D
:1021F800406F20D1DB6813F4005F1CD1C36D23F45A
:102208008073C365C36D13F4805F14D1C36D43F04D
:102218000103C3650FE0DB6813F0020F0BD1C36D38
:1022280023F48073C365C36D13F4805F03D1C36D5A
:1022380043F00103C365FFF74BFE08BDC26D12F002
:10224800100F04D1426D526B18469047F5E7FFF71F
:1022580047FEF2E708B5806AC36D43F04003C365E3
:10226800036E43F004030366FFF73AFE08BD00005F
:10227800F0B583B00023019390F85830012B00F09B
:10228800488204460D46012380F858300068836868
:1022980013F0040F09D0E36D43F02003E365012038
:1022A800002384F8583003B0F0BD0A684968FFF786
:1022B80095FC2068836813F0040300D00123866826
:1022C80016F0080600D00126002B3ED1002E3CD186
:1022D800AA68B2F1004F78D02968FFF796FC226807
:1022E800536923F00043536169692268D368C3F3D3
:1022F800C1035B0099402869042873D0603252F802
:102308002070AB4B3B402F6807F0F84C41EA0C01BA
:102318000B4343F0004342F8203023682869AA6938
:10232800603353F8201021F080710A4343F82020CD
:10233800236829692A7F012A51D0603353F8212064
:1023480022F00072324343F821202268936813F088
:10235800010F16D12B68E868D2F8B010C3F3120643
:1023680021EA060100F018069248F0400340C3F342
:1023780012030B43C2F8B030EA688F4B9A4200F060
:1023880099802B688D4A134200F0B9812268B2F116
:10239800A04F00F050818A498A4200F0498189495A
:1023A800896801F0E070884DAB4200F04681874DA6
:1023B800AB4200F04281864DAB4200F07181854D01
:1023C800AB4200F0878100206AE700222968FFF706
:1023D8001CFC2268536943F00043536184E74FF0C3
:1023E8000076AAE7136E116EC1F384612B68C3F3FC
:1023F800120080BBC3F38463994234D021684B6ECA
:102408004A6EC2F384622B68C3F3120080BBC3F325
:1024180084639A4234D021688B6E8A6EC2F38462D8
:102428002B68C3F3120080BBC3F384639A4234D091
:102438002168CB6ECA6EC2F384622B68C3F31200A4
:1024480080BBC3F384639A427FF47FAFCB6E23F0E3
:102458000043CB6679E793FAA3F313B1B3FA83F396
:10246800CAE72023C8E7136E23F000431366C5E7C5
:1024780093FAA3F313B1B3FA83F3CAE72023C8E7A7
:102488004B6E23F000434B66C5E793FAA3F313B1F1
:10249800B3FA83F3CAE72023C8E78B6E23F000431F
:1024A8008B66C5E793FAA3F313B1B3FA83F3CAE7CC
:1024B8002023C8E720682B68C3F3120626BB9A0EB0
:1024C800013202F01F02092A8CBF00220122002AD1
:1024D80052D046BB990E0131890601F0F84176BB0E
:1024E8009F0E013707F01F070122BA401143AEBB08
:1024F8009B0E013303F01F0303EB43031B05194332
:10250800AA68FFF782FB3CE793FAA3F24AB1B2FA52
:1025180082F2013202F01F02092A8CBF0022012236
:10252800D5E72022F5E793FAA3F131B1B1FA81F1A9
:102538000131890601F0F841D1E72021F8E793FA43
:10254800A3F24AB1B2FA82F2013202F01F024FF04E
:10255800010C0CFA02F2C9E72022F5E793FAA3F37B
:1025680043B1B3FA83F3013303F01F0303EB4303CF
:102578001B05C4E72023F6E776BB990E01318906CF
:1025880001F0F841A6BB9F0E013707F01F07012293
:10259800BA401143DEBB9B0E013303F01F0303EB6C
:1025A80043031E3B1B0543F000731943A8E700BF14
:1025B80000F0FF03FFFF070000007F4000000880D5
:1025C8000001005000070050000021C31000C09017
:1025D800000052C7000084CB93FAA3F131B1B1FADD
:1025E80081F10131890601F0F841CBE72021F8E7B4
:1025F80093FAA3F24AB1B2FA82F2013202F01F0250
:102608004FF0010C0CFA02F2C3E72022F5E793FA27
:10261800A3F35BB1B3FA83F3013303F01F0303EBB6
:1026280043031E3B1B0543F00073BEE72023F3E77B
:1026380001F50071B4E63849B2E611F4000F7FF4F1
:10264800BAAEB2F1A04F04D0344B9A4201D0002068
:1026580026E6B2F1A04F19D0314B9A4214D0314A34
:1026680040F40000936823F0E073184390602E4B09
:102678001B689B092D4AA2FB03239B09013303EB2B
:1026880043039B00019306E0234AE9E7224AE7E770
:10269800019B013B0193019B002BF9D10020FFE531
:1026A80011F0807F7FF48BAE1D4B9A4229D003F541
:1026B80080639A4227D0B2F1A04F09D0194940F05F
:1026C80080738A6822F0E07213438B600020E7E58C
:1026D8001149F4E711F4800F17D1114B9A4216D023
:1026E800B2F1A04F09D00F4940F480038A6822F064
:1026F800E07213438B600020D2E50749F4E700201D
:10270800CEE50020CCE50020CAE50020C8E5002081
:10271800C6E50220C7E500BF0003005000060050D0
:10272800000100500007005000000020632D3E0506
:1027380030B583B00023019303689A6812F0010F43
:1027480063D104469968324A114220D19A6822F02E
:10275800004222F03F0242F001029A600368B3F19E
:10276800A04F20D02B4A93421BD02B4B9B6813F4CD
:10277800000F20D0294B1B689B09294AA2FB032381
:102788009B09013303EB43039B00019310E0C36DE6
:1027980043F01003C365036E43F001030366012091
:1027A80034E0204BE2E71F4BE0E7019B013B01933C
:1027B800019B002BF9D1FFF70BFA054623681A682D
:1027C80012F0010F1FD19A6812F0010F07D19A6811
:1027D80022F0004222F03F0242F001029A60FFF725
:1027E800F7F9431B022BE9D923681B6813F0010F83
:1027F800E4D1E36D43F01003E365236E43F0010376
:102808002366012002E0002000E0002003B030BD74
:102818003F00008000010050000700500000002029
:10282800632D3E05000300502DE9F04104460F4694
:1028380090460068B0F1A04F24D0444B98421ED077
:10284800434B9E6806F01F06856815F0040F77D184
:1028580094F85830012B76D0012384F858303D4B3A
:10286800984211D0092E05D840F22123F34013F0E5
:10287800010F09D1002384F85830012061E003F5E5
:102888000073DEE7344BDCE72046FFF751FF0028F2
:1028980052D1E36D23F4706323F0010343F4807392
:1028A800E3652368294A934240D002F58062934247
:1028B80039D01A46934200D01EB9E36D23F4801331
:1028C800E365E36D13F4805F33D0236E23F00603D2
:1028D8002366636D214ADA62636D214A1A63636D68
:1028E800204A5A6323681C221A60002384F858304F
:1028F8002268536843F0100353602268D36843F09A
:102908000103D360216843463A464031606D00F0C8
:10291800FBFE2268936823F0004323F03F0343F053
:10292800040393600DE0A2F58072C3E74FF0A04264
:10293800C0E700232366CCE7002384F8583000E082
:102948000220BDE8F0810220FBE700BF0001005033
:10295800000700500006005000030050D521000871
:10296800DD1E00085D22000838B504460268936839
:1029780013F0020300D00123916811F0010F39D040
:10298800002B39D1936803F00D03012B09D0E36DB7
:1029980043F01003E365236E43F00103236601202F
:1029A80029E0936823F0004323F03F0343F0020338
:1029B8009360236803221A60FFF70AF90546236823
:1029C8009B6813F0010F13D0FFF702F9401B022890
:1029D800F5D923689B6813F0010FF0D0E36D43F03D
:1029E8001003E365236E43F001032366012002E030
:1029F800002000E0002038BD0020FCE710B41430AF
:102A08004B0E9B0003F00403C458C1F304514FF06C
:102A1800070C0CFA01FC24EA0C0C8A404CEA02026E
:102A2800C25010BC7047000030B583B0002301933A
:102A380090F85830012B41D004460D46012380F808
:102A48005830FFF791FF80BBE36D23F4885323F0E0
:102A5800020343F00203E3652268936823F04043CE
:102A680023F03F0305F080452B4343F00043936078
:102A780023689B68002B06DBE36D23F0030343F018
:102A88000103E36515E0019B01330193019A0C4BA7
:102A98009A42EDD9E36D23F0120343F01003E36586
:102AA800002384F85830012006E0E36D43F010035A
:102AB800E365002384F8583003B030BD0220FBE7FB
:102AC80001DE040038B504460368B3F1A04F73D0A3
:102AD800554A93426DD0554A956805F01F059A6886
:102AE80012F0080F40F09B80DA68DB6C13F4C07FAB
:102AF80001D1002A62DA94F85830012B00F0918055
:102B0800012384F858302046FFF712FE002840F0D1
:102B18008280E36D13F4807F56D0236E23F0080380
:102B28002366E36D23F4405323F0010343F48053F9
:102B3800E36523683C4A93424CD002F58062934295
:102B480045D01A46934200D01DB9E26D22F4801296
:102B5800E26560221A60002384F858302368DA6836
:102B680012F4001F03D05A6842F480625A60A369C5
:102B7800082B32D02268536823F040035360226840
:102B8800536843F0200353602368274A934232D0A6
:102B980002F5806293422BD01A4693422ED06DB331
:102BA800062D2BD0072D29D0E36D43F48013E36560
:102BB80036E002F500728FE71D4A8DE7E36D43F0BA
:102BC8002003E36501202BE000232366A9E7A2F593
:102BD8008072B7E74FF0A042B4E72268536823F049
:102BE800200353602268536843F040035360CBE7E7
:102BF800A2F58072D1E74FF0A042CEE7DA6812F072
:102C0800007F0DD19A6822F0004222F03F0242F084
:102C180008029A6004E0002384F8583000E002209B
:102C280038BD0220FCE700BF00010050000700503B
:102C38000003005040F2152399420FD040F21B3395
:102C4800994207D040F20F1399420BD00368D3F88A
:102C5800800070470368D3F88C0070470368D3F886
:102C6800880070470368D3F884007047704770473E
:102C780070477047F0B583B000230193426990F81C
:102C88005830012B00F0F68204460D46012380F8E7
:102C98005830AAB10B6A012B12D0826E002A40F07C
:102CA800B9808366002343668B6A002B00F0AF80EF
:102CB8000A6A013A03F07C031A43CB6A1A43AAE072
:102CC8006B68092B00F0838023689A6812F0080F5C
:102CD80010D195F82520002A40F0BB80DA6822F44C
:102CE800401295F8260095F82410090541EA40514C
:102CF8000A43DA602268936813F0040300D00123C2
:102D0800976817F0080700D00127002B40F0408192
:102D1800002F40F08081AB6A1BB1EB6A002B40F0BA
:102D2800A78095F82530012B00F09C80D36823F00C
:102D38000073D360002695F83030012B00F0A7808F
:102D48002268136923F002031361AA68B2F1004FE5
:102D580000F0A98029682068FFF750FE22685369AF
:102D680023F0004353616A692168CB68C3F3C10348
:102D78005B009A40D5F810C0BCF1040F00F0A180A8
:102D8800603151F82C00A54B0340286800F0F8404A
:102D98000243134343F0004341F82C302368286969
:102DA800AA69603353F8201021F080710A4343F870
:102DB8002020236828692A7F012A7FD0603353F8AE
:102DC800202022F000723A4343F82020E1E0AA6A6A
:102DD800BAB12B689B0E5B0203F4785302F07C02B5
:102DE8001343EA6A13432168CA6C22F07B4222F437
:102DF8006F0222F43F4222F0FF021A43CA6463665C
:102E080062E72B689B0E5B0203F47853EBE70A6AD0
:102E1800013A00E000222B68C3F38463696801F07B
:102E28001F018B401343A16E0139A166626E1343E3
:102E3800636600297FF448AF2168CA6C22F07B42A0
:102E480022F46F0222F43F4222F0FF021343CB64C4
:102E58003AE7DA6822F4401295F8261042EA41521D
:102E6800DA6047E7D36843F00073D360002662E76F
:102E780095F82560012E05D0D36823F00073D36040
:102E8800002658E7E36D43F02003E36553E7216824
:102E98000B6923F4FF736A6BA86B0243134343F077
:102EA80002030B6151E7002229682068FFF7A6FD9D
:102EB8002268536943F00043536154E74FF00077A9
:102EC8007CE70B6E0A6EC2F384622B68C3F31200B0
:102ED80078BBC3F384639A4233D021684B6E4A6E41
:102EE800C2F384622B68C3F3120078BBC3F3846314
:102EF8009A4233D021688B6E8A6EC2F384622B6843
:102F0800C3F3120078BBC3F384639A4233D02168B9
:102F1800CB6ECA6EC2F384622B68C3F3120078BB0F
:102F2800C3F384639A4234D1CB6E23F00043CB665B
:102F38002FE093FAA3F313B1B3FA83F3CBE720237B
:102F4800C9E70B6E23F000430B66C6E793FAA3F3B9
:102F580013B1B3FA83F3CBE72023C9E74B6E23F011
:102F680000434B66C6E793FAA3F313B1B3FA83F3AE
:102F7800CBE72023C9E78B6E23F000438B66C6E7B7
:102F880093FAA3F313B1B3FA83F3CBE72023C9E78A
:102F9800002621688B6813F0010F15D12B68E868AB
:102FA800D1F8B020C3F3120722EA070200F018078D
:102FB8001B48F8400340C3F312031343C1F8B03071
:102FC800EA68184B9A423DD02B68174A13421CD026
:102FD8002268B2F1A04F00F0E78014498A4200F05D
:102FE800E0801349896801F0E070124DAB4200F0AF
:102FF800DD80114DAB4200F0D980104DAB4200F09E
:1030080006810F4DAB4200F01E81002384F8583032
:10301800304603B0F0BD0026BBE700BF00F0FF0359
:10302800FFFF070000007F400000088000010050FB
:1030380000070050000021C31000C090000052C7D4
:10304800000084CB20682B68C3F312073FBB9A0E9D
:10305800013202F01F02092A8CBF00220122002A35
:1030680055D05FBB990E0131890601F0F8418FBB3D
:103078004FEA936C0CF1010C0CF01F0C012202FAC0
:103088000CF21143AFBB9B0E013303F01F0303EB9C
:1030980043031B051943AA68FFF7B0FC94E793FAAA
:1030A800A3F24AB1B2FA82F2013202F01F02092AEF
:1030B8008CBF00220122D2E72022F5E793FAA3F180
:1030C80031B1B1FA81F10131890601F0F841CEE759
:1030D8002021F8E793FAA3F24AB1B2FA82F2013258
:1030E80002F01F024FF0010C0CFA02F2C9E720228D
:1030F800F5E793FAA3F343B1B3FA83F3013303F08B
:103108001F0303EB43031B05C4E72023F6E7E7B9D6
:10311800990E0131890601F0F84117BB4FEA936C0B
:103128000CF1010C0CF01F0C012202FA0CF21143F5
:1031380037BB9B0E013303F01F0303EB43031E3B16
:103148001B0543F000731943A5E793FAA3F131B1C6
:10315800B1FA81F10131890601F0F841DDE720215A
:10316800F8E793FAA3F24AB1B2FA82F2013202F016
:103178001F024FF0010C0CFA02F2D8E72022F5E703
:1031880093FAA3F35BB1B3FA83F3013303F01F039C
:1031980003EB43031E3B1B0543F00073D3E72023D7
:1031A800F3E701F500711DE733491BE711F4000F40
:1031B8007FF423AFB2F1A04F03D0304B9A427FF493
:1031C80024AFB2F1A04F20D02D4B9A421BD02D4AEC
:1031D80040F40000936823F0E073184390602A4B92
:1031E8001B689B09294AA2FB03239B0903EB4303A2
:1031F8009B0018330193019B002B3FF406AF019B02
:10320800013B0193F7E71C4AE2E71B4AE0E711F0AC
:10321800807F7FF4F6AE1A4B9A423FF4F6AE03F580
:1032280080639A423FF4F1AEB2F1A04F08D0154A3C
:1032380040F08070936823F0E07318439060E4E6F0
:1032480002F54072F4E711F4800F7FF4DEAE0C4B08
:103258009A423FF4DAAEB2F1A04F08D0094A40F4DE
:103268008000936823F0E07318439060CDE602F580
:103278004072F4E70226CBE6000300500006005037
:10328800000100500007005000000020632D3E059B
:1032980090F85820012A00F0D58010B49DB003465C
:1032A800012280F858200022189219920068B0F183
:1032B800A04F47D0644A904247D000220192019A19
:1032C800002A46D0926812F0040200D001228468D5
:1032D80014F0040F40F0A780002A40F0A480B0F159
:1032E800A04F42D0594A90423CD0594A0868002819
:1032F8005CD0906820F460404C6893F838C044EA89
:103308004C34204390601868B0F1A04F2FD04F4C38
:10331800A0422CD04C48846814F0010400D0012449
:103328004C48806810F0010000D0012020434A4C2E
:10333800A46814F0010400D0012420430CBF01202C
:10334800002025E0414A0192B9E702F58072019216
:10335800B5E7DA6D42F02002DA65002283F85820DA
:10336800012068E002F50072C0E73C4ABEE74FF072
:10337800A040846814F0010400D001243348806818
:1033880010F0010000D0012020430CBF01200020D4
:10339800002853D0906820F4716020F00F000C686A
:1033A8008968214308439060002041E0916821F436
:1033B800604191601968B1F1A04F1AD02348814249
:1033C80017D02149886810F0010000D00120214958
:1033D800896811F0010100D0012101431E4880686D
:1033E80010F0010000D0012001430CBF0121002191
:1033F80010E04FF0A041886810F0010000D00120D3
:103408001249896811F0010100D0012101430CBF64
:1034180001210021A1B1916821F4716121F00F010E
:103428009160002004E0DA6D42F02002DA650120A4
:10343800002283F858201DB010BC70470020F7E721
:103448000020F5E7022070470004005000010050FA
:10345800000700500005005000060050000300500F
:10346800002807DB00F01F02400901239340024AAD
:1034780042F82030704700BF00E100E0002808DB78
:103488000901C9B200F1604000F5614080F80013FD
:10349800704700F00F000901C9B2014B1954704779
:1034A80014ED00E000B500F00700C0F1070CBCF116
:1034B800040F28BF4FF0040C031D062B0FD9C31EA1
:1034C8004FF0FF3E0EFA0CF021EA000199400EFA87
:1034D80003FE22EA0E0241EA02005DF804FB002323
:1034E800EEE70000074AD36823F4E0631B041B0CD3
:1034F800000200F4E060034343F0BF6343F4003389
:10350800D360704700ED00E010B50446054BD8685D
:10351800C0F30220FFF7C6FF01462046FFF7AEFFC3
:1035280010BD00BF00ED00E008B5FFF799FF08BD2A
:103538000138B0F1807F0BD24FF0E0235861054A83
:10354800F02182F823100020986107221A61704741
:103558000120704700ED00E010B4C46CD0F850C0F2
:10356800C4F804C0446D24B1846DD0F85CC0C4F8BC
:1035780004C0446C04F01F0C012404FA0CF4D0F8C5
:1035880040C0CCF80440046863608368102B05D001
:10359800036899600368DA6010BC704703689A6032
:1035A8000368D960F8E700000368104A934214D80A
:1035B800DBB2083B0E4AA2FB03231B090D49426CF0
:1035C80022F003020A4482640B4AC26403F01F0318
:1035D800012202FA03F303657047DBB2083B044A91
:1035E800A2FB03231B0908330449E8E70704024048
:1035F800CDCCCCCC00080240800802402008024014
:10360800436803F07F03074A1A4492004265064A5A
:103618008265013B03F01F03012202FA03F3C3652D
:10362800704700BF3F8200104009024000285DD06B
:1036380010B5044601682E4B99423FD82D4B0B44D8
:103648002D4AA2FB03231B099B0043642B4B0364F5
:10365800022384F825300A6822F4FF4222F070021F
:10366800A368E06803432069034360690343A069D2
:103678000343E0690343206A034313430B60204676
:10368800FFF792FFA368B3F5804F22D06368A26C5E
:1036980003F07F031360E36C226D5A606368013B9B
:1036A800032B19D900236365A365E3650020E06354
:1036B800012384F8253084F8240010BD104B0B44F6
:1036C8000D4AA2FB03231B099B0043640D4B0364B3
:1036D800BEE700236360D9E72046FFF791FF636DDB
:1036E80000221A60A36DE26D5A60DFE7012070477F
:1036F80007040240F8FFFDBFCDCCCCCC000002404F
:10370800F8FBFDBF0004024038B5044690F82400D9
:10371800012841D0012084F8240094F82500C0B283
:10372800012804D0002384F82430022038BD022068
:1037380084F825000020E0632568286820F001004F
:1037480028602046FFF708FF236BD3B1226813686F
:1037580043F00E031360A36C1A6812F4803F03D081
:103768001A6842F480721A60636D1BB11A6842F4D9
:1037780080721A602268136843F001031360002006
:10378800D4E72268136823F00403136022681368DF
:1037980043F00A031360DEE70220C7E738B5036C7D
:1037A800196804682568436C03F01F0304229A40D3
:1037B8000A4215D015F0040F12D0236813F0200F19
:1037C80003D1236823F004032360436C03F01F0232
:1037D800016C042393404B60036B03B1984738BDD9
:1037E80002229A400A421CD015F0020F19D0236811
:1037F80013F0200F06D1236823F00A032360012366
:1038080080F82530436C03F01F02016C02239340BB
:103818004B60002380F82430C36A002BDFD0984720
:10382800DDE7082202FA03F30B42D8D015F0080F9F
:10383800D5D0236823F00E032360436C03F01F03E5
:10384800016C012202FA03F34B60C26380F8252061
:10385800002380F82430436B002BC0D09847BEE784
:1038680070B582B0002369E085685E000324B44027
:1038780025EA0405CC68B4402C438460456825EAF1
:103888000C054C68C4F300149C402C43446066E06B
:103898008C68012C68D176E0DD08083550F82540A1
:1038A80003F0070C4FEA8C0C4FF00F0E0EFA0CFECB
:1038B80024EA0E0E0C6904FA0CF444EA0E0440F8EB
:1038C800254065E0052400E0002404FA0EF42C43AA
:1038D8000CF1020C584D45F82C40584CA568D443BF
:1038E80025EA0206D1F804C01CF4801F01D042EA80
:1038F8000506524DAE60ED6804EA0506D1F804C02D
:103908001CF4001F01D042EA05064C4DEE606D68BC
:1039180004EA0506D1F804C01CF4003F01D042EACD
:103928000506464D6E602D682C404E6816F4803FA3
:1039380001D042EA0504414A146001330A6832FAA8
:1039480003F476D04FF0010C0CFA03FC1CEA0202D7
:10395800F3D04C6804F00304013C012C84D94C6872
:1039680004F00304032C93D0C4684FEA430E4FF0CD
:10397800030C0CFA0EFC24EA0C0C8C6804FA0EF406
:1039880044EA0C04C4604C6804F00304022C83D09D
:1039980004684FEA430E4FF0030C0CFA0EFC24EABD
:1039A8000C0C4C6804F0030404FA0EF444EA0C040A
:1039B80004604C6814F4403FBFD0214C256E45F09C
:1039C80001052566246E04F001040194019C4FEA68
:1039D800930C0CF10205184C54F8255003F0030E13
:1039E8004FEA8E0E0F2404FA0EF425EA0405B0F10E
:1039F800904F3FF469AF134CA04212D004F5806495
:103A0800A04210D004F58064A0420ED004F5806472
:103A1800A0420CD004F58064A0423FF453AF0624C2
:103A280053E7012451E702244FE703244DE7042418
:103A38004BE702B070BD00BF000001400004014028
:103A480000100240000400480AB181617047816299
:103A5800704710B40468226822F007028B68134389
:103A680023F01803CA681A43226003680A685A6177
:103A780003684A689A6110BC704730B5046801F160
:103A8800010C4FEACC1C54F80C3023F0070E936855
:103A980043EA0E0323F01803D5682B4344F80C308F
:103AA8000368146803EBC113C3F8944003685268B1
:103AB80003EBC113C3F8982030BD70B404682368C1
:103AC800D4F8A05323F020034E69334323F0C002F7
:103AD800202E09D08E69022E06D0032E29D0042E5E
:103AE8002AD023F0E00201E042F0200222F4006232
:103AF800CB69134323F480620B6A134323F0C0623B
:103B08004B6A134323F000628B6A134323F040434C
:103B1800CA6A43EA820323F000534A6B1A4325F426
:103B280080350B6B1D4322600368C3F8A05370BC3B
:103B3800704742F04002D9E742F08002D6E7F0B57C
:103B480005684B1CDB01EC5824F07044EC50066807
:103B5800F35806EBC114D4F8E870D4F8E440D6F86A
:103B6800A05323F0200C536943EA0C0C202B09D0F6
:103B78009369022B06D0032B63D0042B66D02CF458
:103B8800D07C03E02CF4C07C4CF0200C2CF4006CAE
:103B9800D36943EA0C0323F48063D2F820C04CEACB
:103BA800030C2CF0C06C536A43EA0C0323F0006C3E
:103BB800936A43EA0C0323F0704CD36A43EA0C037C
:103BC80023F40033D2F834C0BCF1005F43D023F0B3
:103BD8004003D2F838C04CEA030323F48023D2F818
:103BE80058E04EEA030E2EF0FC7E2EF4803E136D54
:103BF80043EA0E0E27F03F07D36B03F03F033B4326
:103C080023F00043176C3B43BCF1000F03D124F4AD
:103C18008074576C3C43976CB7F5606F1ED0B7F54E
:103C2800F05F1BD024F4F0543C4324F48044D76C58
:103C38003C43576D05291AD8DFE801F01430363CAB
:103C480042482CF4807C4CF0800C9FE72CF0800CD0
:103C58004CF4807C9AE743F40033B8E7BCF1400F9A
:103C6800E3D1DFE725F40035126B45EA42054A1C2B
:103C7800D20146F802E0026802EBC112C2F8E8304D
:103C8800036803EBC113C3F8E440036803EBC113F3
:103C9800C3F8D4700368C3F8A053F0BD25F4802599
:103CA800126B45EA8205E2E725F40025126B45EA26
:103CB800C205DCE725F48015126B45EA0215D6E744
:103CC80025F40015126B45EA4215D0E725F4800566
:103CD800126B45EA8215CAE710B4006800EBC113FD
:103CE800D3F8EC3023F01003146843EA041323F4E8
:103CF8008013546844EA030C2CF4803CD36843EAEC
:103D08000C0323F4003C936843EA0C039469012CE8
:103D180005D000EBC110C0F8EC3010BC704723F0A0
:103D28000403D2F810C04CEA030C2CF0020C5369BF
:103D380043EA0C0323F001032343EAE7F0B40768DE
:103D480007EBC114D4F8E460D4F8B850402A52D034
:103D580035D8012A4FD0002A5ED0202A5ED8022A00
:103D68005ED3023A012404FA02F2324C224230D1E4
:103D780044F2040422423ED10022FE24944026EA62
:103D880004061C68944044EA060CDC68944044EA43
:103D98000C041E6906FA02FC4CEA040C5C699440A7
:103DA80044EA0C0C9C69944044EA0C04082E39D06F
:103DB800036803EBC113C3F8E440F0BC7047B2F5E5
:103DC800007F06D012D9B2F5806F14D0B2F5006F1B
:103DD80020D15A6807EBC117C7F8C42002689C684D
:103DE80002EBC112C2F8C8401022C6E7802AF0D000
:103DF800B2F5807F0CD15A6807EBC117C7F8BC2011
:103E080002689C6802EBC112C2F8C0400022B4E705
:103E18000022B2E70022B0E70022AEE70022ACE7BA
:103E28000022AAE715F0022FC2D1DB6993401C4398
:103E3800BEE700BF4100004006293CD8DFE801F09A
:103E48000C141C242C3404000268D2F8843343F088
:103E58000103C2F8843370470268D2F8843343F010
:103E68000203C2F8843370470268D2F8843343F0FF
:103E78000403C2F8843370470268D2F8843343F0ED
:103E88000803C2F8843370470268D2F8843343F0D9
:103E98001003C2F8843370470268D2F8843343F0C1
:103EA8002003C2F8843370470268D2F8843343F0A1
:103EB8004003C2F884337047002864D010B582B03C
:103EC8000446022380F8DD300023C0F8E030C0F853
:103ED800E430C0F8E830C0F8EC30C0F8F030C0F892
:103EE800F430C0F8F830836813F0010F12D002687C
:103EF800264B9A4225D021680A6822F44042236959
:103F080003F44043134323F44053626902F44052DC
:103F18001A430A602046FDF725F9A36813F0020F3B
:103F280008D021680A6822F44072E36803F44073F9
:103F380013430B60012384F8DD30002384F8DC3060
:103F48001CE003F528431A6E42F080621A661B6E65
:103F580003F080630193019BCDE7C3EBC30204EB3D
:103F6800820200219161D161116251629162C3EBB9
:103F7800C30204EB820211630133DBB2062BECD9D6
:103F8800002002B010BD0120704700BF006801404A
:103F980090F8DC30012B32D0012380F8DC3002238A
:103FA80080F8DD30B1F1FF3F1AD00268D2F8CC3387
:103FB80043F00203C2F8CC330268D2F8CC3323F0C2
:103FC8000C030B43C2F8CC330268D2F8CC3343F06D
:103FD8000103C2F8CC33012380F8DD30002070479C
:103FE8000268D2F8CC3323F00203C2F8CC3302685B
:103FF800D2F8CC3343F00103C2F8CC33EBE702200C
:10400800704770B504460D46FDF7E2FD0646236885
:10401800D3F8883313F4803F0ED1B5F1FF3FF6D0C3
:10402800FDF7D6FD801BA84201D8002DEFD107234C
:1040380084F8DD30032005E0012384F8DD3000201A
:1040480084F8DC0070BD10B5044690F8DD00C0B2FD
:1040580002280BD0022384F8DD30062907D0204639
:10406800FFF70BFD012384F8DD30002010BD114659
:104078002046FFF7EEFCF5E7034690F8DD00C0B2F6
:10408800022800F0318193F8DC00012800F0288133
:1040980070B5012083F8DC00022083F8DD00186881
:1040A800D0F88053D0F8FC4320292AD8002900F002
:1040B8000C8101F1FF3CBCF11F0F00F20681DFE823
:1040C8001CF063007F0004018C000401040104015A
:1040D800990004010401040104010401040104011C
:1040E800A6000401040104010401040104010401FF
:1040F8000401040104010401040104010401040190
:10410800B900B1F5807F00F0C9801DD9B1F5007FF5
:1041180040F0DB8024F4E00416684FEA061C0CF437
:10412800E00C4CEA0404D0F8F86326F0F846C0F82E
:10413800F8631E68D6F8F8035268920602F0F8424F
:104148000243C6F8F82328E0402900F08D80802932
:1041580040F0BB8024F4E04416684FEA161C0CF4C7
:10416800E04C4CEA0404D0F8F86326F4F816C0F8DA
:10417800F8631E68D6F8F8035268120402F4F812BD
:104188000243C6F8F82308E025F4E025166806F48B
:10419800E02635435268C0F8BC2393F8DD20D2B23C
:1041A800072A00F09F800F2900F296801A68C2F84B
:1041B8008053012283F8DD20002083F8DC0070BDE5
:1041C80025F4601516684FEAC60C0CF4601C4CEA1E
:1041D80005055268C0F8C023DFE725F0E0751668CA
:1041E8004FEA861C0CF0E07C4CEA05055268C0F8E2
:1041F800C423D2E725F0606516684FEA462C0CF018
:10420800606C4CEA05055268C0F8C823C5E75688B3
:1042180066F30204D0F8F86326F01F06C0F8F863C6
:104228001E68D6F8F803526802F01F020243C6F867
:10423800F823B2E724F0700416684FEA163C0CF035
:10424800700C4CEA0404D0F8F86326F47876C0F8C9
:10425800F8631E68D6F8F8035268520102F47872BF
:104268000243C6F8F82398E724F4E06416684FEA96
:10427800162C0CF4E06C4CEA0404D0F8F86326F42D
:10428800F846C0F8F8631E68D6F8F8035268920238
:1042980002F4F8420243C6F8F8237EE724F4E02447
:1042A800166806F4E0263443D0F8F86326F07876EA
:1042B800C0F8F8631E68D6F8F8035268520502F091
:1042C80078720243C6F8F82367E7072283F8DD20EF
:1042D800002283F8DC2060E71A68C2F8FC4368E72C
:1042E8000220704701206AE77047034690F8DD0016
:1042F800C0B2022800F0BD8093F8DC00012800F06D
:10430800B580012083F8DC00022083F8DD00202935
:1043180018D8002900F0A38001391F2900F29F80D6
:10432800DFE801F0344A9D569D9D9D629D9D9D9DAF
:104338009D9D9D6E9D9D9D9D9D9D9D9D9D9D9D9DD4
:104348009D9D9D7AB1F5807F7DD00FD9B1F5007F15
:1043580040F085801868D0F8041421F0F85112064E
:1043680002F0F8520A43C0F8042419E040295ED04C
:10437800802974D11868D0F8041421F4F831120394
:1043880002F4F8320A43C0F8042409E01868D0F8A7
:10439800001421F01F0102F01F020A43C0F8002494
:1043A80093F8DD20D2B2072A62D0012283F8DD20FB
:1043B800002083F8DC0070471868D0F8001421F456
:1043C800F861920102F4F8620A43C0F80024E7E7B2
:1043D8001868D0F8001421F4F831120302F4F83206
:1043E8000A43C0F80024DBE71868D0F8001421F469
:1043F800F801920402F4F8020A43C0F80024CFE757
:104408001868D0F8001421F0F851120602F0F8529A
:104418000A43C0F80024C3E71868D0F8041421F050
:104428001F0102F01F020A43C0F80424B8E7186805
:10443800D0F8041421F4F861920102F4F8620A43F6
:10444800C0F80424ACE71868D0F8041421F4F80183
:10445800920402F4F8020A43C0F80424A0E70722F1
:1044680083F8DD20002283F8DC2099E702207047DA
:104478000120704770B5044690F8DD00C0B20228EC
:1044880036D00D46164694F8DC30012B36D0012381
:1044980084F8DC30022384F8DD30062929D0204650
:1044A800FFF74DFB3268C5EBC50304EB83031A62C3
:1044B80072685A62B2689A62F268DA6232691A639A
:1044C80029462046FFF7B8FC062D0BD0F36A4BB9F6
:1044D80022680135ED01535923F40073F16D43EA65
:1044E80041235351012384F8DD30002084F8DC0097
:1044F80070BD11462046FFF7E0FAD3E70220F7E740
:1045080038B5044690F8DD00C0B2022811D094F8FE
:10451800DC30012B0ED0012584F8DC50022384F80E
:10452800DD302046FFF7D8FB84F8DD50002084F802
:10453800DC0038BD0220FCE7034690F8DD00C0B27D
:10454800022846D093F8DC00012840D010B54FF07F
:10455800010E83F8DCE0022083F8DD00106800F427
:10456800E0545068C0F308000443906800F40070F9
:104578000443106900F480400443D06800F400400C
:1045880004431448D2F814C000EA0C4C4CEA040C5A
:10459800906900F0007040EA0C0C106A00F080404E
:1045A80040EA0C0CD06900F0004040EA0C001A68A0
:1045B80002EBC111D1F8B840074A22400243C1F8C2
:1045C800B82083F8DDE0002083F8DC0010BD02206D
:1045D800704770470000FF010020003C844690F8B7
:1045E800DD00C0B2022800F0D9809CF8DC00012868
:1045F80000F0D08030B401208CF8DC0002208CF868
:10460800DD00062909D0013A072A00F2BC80DFE85C
:1046180002F02E43BA7ABABABA82013A072A1FD8E8
:10462800DFE802F0040F1E141E1E1E19DCF800201D
:104638001B68D3619CF8DD30DBB2072B24D1012045
:1046480028E0DCF800201B685362F3E7DCF8002060
:104658001B689362EEE7DCF800201B68D362E9E789
:1046680007238CF8DD3000238CF8DC30E2E7DCF837
:1046780000201B6802EBC112C2F89C309CF8DD30A8
:10468800DBB2072B00F0888001238CF8DD30002096
:104698008CF8DC0030BC7047DCF80020186802EBAE
:1046A800C112C2F8A4005A6822B3DCF800404A1CC0
:1046B800D201A05820F44050A050DCF80040A05887
:1046C8005D682843A0505A68B2F5005F0AD0B2F579
:1046D800405FD3D1DCF800209B6802EBC112C2F81E
:1046E800A830CBE7DCF800209B6802EBC112C2F8C7
:1046F8009C30C3E7DCF800200131C901535823F48A
:1047080040535350BAE7DCF800201B6802EBC11293
:10471800C2F8A830B2E7DCF80020186802EBC11232
:10472800C2F8AC005A682AB3DCF800404A1CD2012F
:10473800A05820F44040A050DCF80040A0585D6824
:1047480040EA8500A0505A68B2F5005F0AD0B2F579
:10475800405F93D1DCF800209B6802EBC112C2F8DD
:10476800A8308BE7DCF800209B6802EBC112C2F886
:104778009C3083E7DCF800200131C901535823F449
:10478800404353507AE707238CF8DD3000238CF838
:10479800DC3073E70220704701207BE7704738B5AB
:1047A800044690F8DD00C0B2022811D094F8DC006D
:1047B80001280ED0012584F8DC50022084F8DD00A1
:1047C8002046FFF7BBFA84F8DD50002084F8DC00AF
:1047D80038BD0220FCE790F8DC30012B14D010B46F
:1047E800012280F8DC20022380F8DD300468D4F848
:1047F80094330B43C4F8943380F8DD20002380F809
:10480800DC30184610BC70470220704790F8DC3046
:10481800012B14D010B4012280F8DC20022380F888
:10482800DD300468D4F898330B43C4F8983380F823
:10483800DD20002380F8DC30184610BC70470220C9
:10484800704790F8DC30012B12D010B4012280F8A8
:10485800DC20022380F8DD30046823680B432360E2
:1048680080F8DD20002380F8DC30184610BC704743
:10487800022070477047704770477047704770470D
:10488800704770B505460368D3F88843D3F890633A
:1048980014F0010F02D016F0010F24D114F0020F0A
:1048A80002D016F0020F24D114F0040F02D016F033
:1048B800040F26D114F0080F02D016F0080F28D1E3
:1048C80014F0100F02D016F0100F2AD114F0400F78
:1048D80002D016F0400F2CD114F0200F02D016F0A1
:1048E800200F2ED170BD0122C3F88C23FFF7C2FF21
:1048F800D4E72B680222C3F88C232846FFF7BBFFB6
:10490800D2E72B680422C3F88C232846FFF7B4FFAC
:10491800D0E72B680822C3F88C232846FFF7ADFFA1
:10492800CEE72B681022C3F88C232846FFF7A6FF92
:10493800CCE72B684022C3F88C232846FFF79FFF5B
:10494800CAE72B682022C3F88C232846FFF798FF74
:10495800C8E770477047704770477047704770479F
:10496800704770472DE9F04105460368D3F888730E
:10497800D3F890835C68DE6817F4803F02D018F49F
:10498800803F31D117F4003F02D018F4003F38D1EE
:1049980014F0010F02D016F0010F3BD114F0020FF2
:1049A80002D016F0020F3DD114F0040F02D016F019
:1049B800040F3FD114F0080F02D016F0080F41D1B0
:1049C80014F0100F02D016F0100F43D114F0200F7E
:1049D80002D016F0200F45D114F0400F02D016F087
:1049E800400F46D1BDE8F0814FF48032C3F88C23E4
:1049F800012380F8DD30002380F8DC30FFF7A9FFC1
:104A0800C0E72B684FF40032C3F88C232846FFF721
:104A1800A1FFBDE72B6801229A6006212846FFF70F
:104A28009DFFBBE72B6802229A6006212846FFF704
:104A380096FFB9E72B6804229A6006212846FFF7FB
:104A48008FFFB7E72B6808229A6006212846FFF7F0
:104A580088FFB5E72B6810229A6006212846FFF7E1
:104A68007CFFB3E72B6820229A602846FFF773FF84
:104A7800B2E72B6840229A6006212846FFF76CFFB0
:104A8800B0E7704770477047704770477047704786
:104A98007047F8B506460D4602684B1C02EBC31377
:104AA8005C6802EBC113D3F88C7014F0010F02D0CC
:104AB80017F0010F52D114F0020F02D017F0020FB5
:104AC80053D114F0040F02D017F0040F58D114F08A
:104AD800080F02D017F0080F5DD114F0100F02D0A4
:104AE80017F0100F62D114F0400F02D017F0400FEA
:104AF80067D114F0800F02D017F0800F6CD114F436
:104B0800807F02D017F4807F71D114F4007F02D027
:104B180017F4007F77D114F4806F02D017F4806FF8
:104B28007DD114F4006F03D017F4006F40F0838038
:104B380014F4805F03D017F4805F40F0888014F489
:104B4800005F03D017F4005F40F08D8014F4804FAD
:104B580003D017F4804F40F09280F8BD1A46012325
:104B6800C2F88830FFF7FAFEA5E7336803EBC513F0
:104B78000222C3F8882029463046FFF7F0FEA0E756
:104B8800336803EBC5130422C3F88820294630464E
:104B9800FFF7E6FE9BE7336803EBC5130822C3F86B
:104BA800882029463046FFF7DCFE96E7336803EB9A
:104BB800C5131022C3F8882029463046FFF7CDFEDA
:104BC80091E7336803EBC5134022C3F888202946D0
:104BD8003046FFF7C1FE8CE7336803EBC51380222C
:104BE800C3F8882029463046FFF74BFF87E733682C
:104BF80003EBC5134FF48072C3F88820294630466A
:104C0800FFF740FF81E7336803EBC5134FF40072E9
:104C1800C3F8882029463046FFF737FF7BE733681B
:104C280003EBC5134FF48062C3F888202946304649
:104C3800FFF72CFF75E7336803EBC5134FF40062E9
:104C4800C3F8882029463046FFF721FF70E733680C
:104C580003EBC5134FF48052C3F888202946304629
:104C6800FFF716FF6BE7336803EBC5134FF40052E9
:104C7800C3F8882029463046FFF706FF66E7336801
:104C880003EBC5134FF48042C3F888202946304609
:104C9800FFF7F9FE61E708B5FF2904D0062905D01A
:104CA800FFF7F7FE08BDFFF7ECFDFBE7FFF75AFE3D
:104CB800F8E738B512F4804F43D00468B4F85030A0
:104CC80091F800C04FEACC0E1EFA83F32344B3F8E0
:104CD8000244C4F309048B69A34228D31B1B8B61CC
:104CE8008B697BB9056835F82C309BB223F4804377
:104CF80023F0700383F4005343F4004343F080032C
:104D080025F82C3012F0400F0ED002680D7832F8DA
:104D180025309BB223F4E04323F0700343F40043AF
:104D280043F0C00322F8253024B9204638BD0023BB
:104D38008B61D5E723460A894969006803F0F9FFC2
:104D4800F3E70468B4F8503091F800C04FEACC0E8D
:104D58001EFA83F32344B3F80644C4F309048B69A9
:104D6800A3422FD31B1B8B618B697BB9056835F870
:104D78002C309BB223F4804323F0700383F4005358
:104D880043F4004343F0800325F82C3012F0400F21
:104D98000FD1026891F800C032F82C309BB223F48E
:104DA800E04323F0700343F4004343F0C00322F8C8
:104DB8002C30002CB9D023464A894969006803F091
:104DC800B8FFB2E700238B61CEE7002856D010B5B4
:104DD800044690F891323BB1032384F8913220685D
:104DE80003F0B8F8002315E080F8903204F0A4FF2F
:104DF800F2E703EB830204EBC2020121517413743E
:104E08000021D17411625162013303EB8302D20095
:104E1800A150DBB220799842EBD8002316E003EBCF
:104E2800830204EBC202002182F8511182F850314A
:104E380082F85311C2F86011C2F8641103EB8302BF
:104E480004EBC202C2F868110133DBB29842E6D81B
:104E5800234653F8040B93E8060003F085F8002373
:104E68002373012384F89132A37A012B01D0002007
:104E780010BD204600F01BFF0020F9E70120704715
:104E880090F89032012B0ED010B50446012380F81B
:104E98009032006803F055F8206803F067FC0020A2
:104EA80084F8900210BD0220704770B505460C4684
:104EB800164612F0400F00F020810268B2F8503018
:104EC80009784FEAC10C1CFA83F31344B3F802249F
:104ED800C2F30902A36993422CD99B1AA361A06962
:104EE80058B316F4804F0DD0286830F821309BB2A3
:104EF80023F4E04323F0700343F4404343F080037A
:104F080020F8213094F82430012B00F08D802A6895
:104F1800217832F821309BB223F4E04323F0400398
:104F280083F0300343F4004343F0800322F8213038
:104F3800002070BD0023A361D1E76378002B48D11E
:104F48002A68B2F8503012FA83F36344B3F80224A3
:104F5800C2F30902A3F80224B3F802246FEA42421A
:104F68006FEA524292B2A3F802242A686378002BAF
:104F78003BD1B2F8503012FA83F3227803EBC20324
:104F8800B3F80624C2F30902A3F80624B3F80624EA
:104F98006FEA42426FEA524292B2A3F80624E378DB
:104FA800022B2FD02178284604F00AFF16F4804FF0
:104FB800BED02A68217832F821309BB223F4E0432E
:104FC80023F0700343F4404343F0800322F8213078
:104FD800AEE7012BC9D12A68B2F8503012FA83F330
:104FE80063440022A3F80224BFE7012BD7D1B2F80B
:104FF800503012FA83F3227803EBC2030022A3F89D
:105008000624CCE72A68217832F821309BB223F4B1
:10501800E04323F0400383F0200343F4004343F0CC
:10502800800322F82130BDE7636913446361E369B3
:105038001344E361216A236999421DD3C91A216285
:105048006278002A44D12968B1F8502011FA82F216
:10505800217802EBC102B2F80214C1F30901A2F8E7
:105068000214ABB9B2F802146FEA41416FEA514138
:1050780089B2A2F802142DE021B9002384F8243063
:105088001346DDE7002384F8243023620B46D7E774
:105098003E2B0DD8590813F0010F00D00131B2F89A
:1050A800020480B2890289B20143A2F8021411E015
:1050B800580913F01F0F00D10138B2F8021489B251
:1050C800800280B2014341F40041A2F8021401E0D9
:1050D800012A06D09BB222896169286803F055FB32
:1050E80015E72968B1F8502011FA82F2217802EB0D
:1050F800C10299B2A2F80214ECE70268B2F8503083
:105108000978C80010FA83F31344B3F80624C2F3ED
:105118000902A369934246D39B1AA361A369002B92
:1051280044D016F4804F0DD1286830F821309BB256
:1051380023F4E04323F0700343F4404343F0800337
:1051480020F8213094F82430012B7FF4E0AE636915
:1051580013446361E3691344E361216A2369994253
:10516800C0F09C80C91A216229686278002A40F040
:10517800C180B1F8502011FA82F2217802EBC10205
:10518800B2F80614C1F30901A2F80614002B40F086
:105198009180B2F806146FEA41416FEA514189B231
:1051A800A2F80614A8E00023A361B7E76378002BF0
:1051B80049D12A68B2F8503012FA83F30344B3F89D
:1051C8000224C2F30902A3F80224B3F802246FEA06
:1051D80042426FEA524292B2A3F802242A686378E4
:1051E800002B3CD1B2F8503012FA83F3227803EB4B
:1051F800C203B3F80624C2F30902A3F80624B3F8DD
:1052080006246FEA42426FEA524292B2A3F8062499
:10521800E378022B30D02178284604F0D1FD16F42B
:10522800804F7FF485AE2A68217832F821309BB20E
:1052380023F4E04323F0700343F4404343F0800336
:1052480022F8213074E6012BC8D12A68B2F8503010
:1052580012FA83F303440022A3F80224BEE7012BC9
:10526800D6D1B2F8503012FA83F3227803EBC20396
:105278000022A3F80624CBE72A68217832F82130E7
:105288009BB223F4E04323F0400383F0200343F46C
:10529800004343F0800322F82130BCE721B9002302
:1052A80084F8243013465FE70023236284F824300F
:1052B8000B4659E73E2B0DD8590813F0010F00D0C3
:1052C8000131B2F8060480B2890289B20143A2F81A
:1052D800061411E0580913F01F0F00D10138B2F875
:1052E800061489B2800280B2014341F40041A2F859
:1052F800061401E0012A06D09BB262896169286818
:1053080003F043FA03E6B1F8502011FA82F221784B
:1053180002EBC10299B2A2F80614EDE72DE9F047B5
:1053280004463EE003889BB223F4E14323F0700374
:105338006FEA43436FEA53439BB203802168B1F895
:105348005030227CD20012FA83F30B44B3F80234B3
:10535800C3F30903E362626A1A44626200212046C9
:1053680004F02EFD237BE3B1A36AD3B9237B226823
:1053780043F08003A2F84C300023237311E0B4F803
:10538800562104F5267103F0D4FC2268138823F013
:1053980070031B051B0D43F080031380204604F0A7
:1053A800FBFC2068B0F8443013F4004F00F034825E
:1053B800B0F844309AB203F00F0513F0080F40F02C
:1053C8002F82002D75D112F0100FABD003889AB23E
:1053D80013F4006F30D0B0F8503094F85021D20058
:1053E80012FA83F30344B3F80634C3F30903C4F889
:1053F8006C31082BC3D003889BB223F4804323F07D
:10540800700383F4805348F280010B4303802268C1
:1054180013889BB223F4E04323F0400383F0100386
:105428000B4313802268138823F070031B051B0DA0
:1054380043F080031380F0E112F4004FB1D00388E9
:1054480023F070031B051B0D43F0800303802068C5
:10545800B0F8503094F85021D20012FA83F3034484
:10546800B3F80634C3F30903C4F86C316BB9038885
:105478009BB223F4804323F0700383F4405343F436
:10548800004343F0800303808BE7D4F864110029BC
:1054980087D0B4F8562103F04CFCD4F86431D4F822
:1054A8006C211344C4F864310021204604F07CFCCC
:1054B80077E7AF0030F825309EB213F4004F4DD196
:1054C80016F0800F3FF46DAF2A4605EB8501C90041
:1054D800103121442068C35B9BB223F4E14323F0DD
:1054E80070036FEA43436FEA53439BB2C35305EB20
:1054F800850304EBC303DB7C012B00F0F58016F475
:10550800807F40F084812068B0F8503005EB850535
:1055180004EBC5052E7CF50015FA83F30344B3F8B4
:105528000234C3F30903551C05EB850554F83550BF
:105538009D4240F24F81571C07EB8707ED1A44F84C
:105548003750551C05EB850554F83550002D40F0B3
:1055580048813146204604F033FC22E730F82530F4
:1055680023F070031B051B0D43F0800320F8253042
:10557800A84605EB85094FEAC90909F5A879A144A8
:1055880005EB850304EBC30393F85C31EBBB2068A0
:10559800B0F8503005EB850204EBC20292F85021B6
:1055A800D20012FA83F30344B3F806A4CAF3090A33
:1055B800BAF1000F1DD108EB880304EBC303D3F83D
:1055C8006C215244C3F86C21D3F868313BB108EB25
:1055D800880304EBC303D3F860319A4572D208EB11
:1055E800880804EBC80898F85011204604F0DCFB42
:1055F80066E705EB850104EBC1015346B1F8562176
:10560800D1F8641103F095FBD5E705EB850304EBAE
:10561800C30393F85331022B34D0216805EB85027C
:1056280004EBC20292F8500131F820309BB223F407
:10563800E04323F0700343F4004343F0C00321F830
:105648002030206892F8503130F8232012F4804F2F
:105658001FD0B0F85020DB0013FA82F30344B3F8EC
:1056680002A4CAF3090ABAF1000FA4D005EB850118
:1056780004EBC1015346B1F85821D1F8641103F085
:1056880058FB98E7324649462046FFF712FB824608
:1056980091E7B0F85020DB0013FA82F30344B3F823
:1056A80006A4CAF3090ABAF1000F84D005EB8501F4
:1056B80004EBC1015346B1F85A21D1F8641103F043
:1056C80038FB78E708EB880304EBC303D3F86431AD
:1056D80008EB880804EBC8085344C8F86431494605
:1056E800206803F064F8EBE66B1C03EB8303DB0034
:1056F8000021E15005EB850504EBC5052B7FDBB1E7
:1057080016F0400F33D06B7CFBB92168B1F85030EC
:1057180011FA83F3297C03EBC103B3F80214C1F334
:105728000901A3F80214B3F802146FEA41416FEAC1
:10573800514189B2A3F8021402EB820204EBC202BF
:10574800117C204604F03CFB2BE6012BF4D12168A8
:10575800B1F8503011FA83F302EB820104EBC10176
:10576800097C03EBC1030021A3F80214E4E72168D4
:1057780002EB820304EBC3035B7CD3B9B1F850306E
:1057880011FA83F302EB820104EBC101097C03EBFC
:10579800C103B3F80614C1F30901A3F80614B3F85A
:1057A80006146FEA41416FEA514189B2A3F8061421
:1057B800C2E7012BC0D1B1F8503011FA83F302EBE4
:1057C800820104EBC101097C03EBC1030021A3F8AA
:1057D8000614B1E7551C05EB8505ED000027675158
:1057E800AFE602EB820504EBC5056E6A1E446E62E5
:1057F800013202EB820504EBC5056D6802EB8202FB
:1058080004EBC2022B44536002F0D1FFC9E53246D3
:105818002046FFF74AFBC4E500252846BDE8F08787
:105828000125FAE790F89032012B0CD010B5044608
:10583800012380F890320173006802F091FF002084
:1058480084F8900210BD0220704710B50446006825
:1058580002F097FF10F4004F23D110F4806F24D189
:1058680010F4804F32D110F4005F39D110F4805F0A
:1058780040D110F4006F67D110F0800F40F08180A4
:1058880010F4007F40F0AD8010F4807F27D02268AC
:10589800B2F844309BB223F480739BB2A2F8443030
:1058A8001DE02046FFF73AFD19E02268B2F84430BF
:1058B8009BB223F480639BB2A2F84430204604F0E4
:1058C80090FA00212046FFF7ADFF08E02268B2F801
:1058D80044309BB223F480439BB2A2F8443010BDFD
:1058E8002268B2F844309BB223F400539BB2A2F86A
:1058F8004430F4E72268B2F840309BB223F0040346
:105908009BB2A2F840302268B2F840309BB223F034
:1059180008039BB2A2F8403094F8C832012B0CD08F
:10592800204604F081FA2268B2F844309BB223F48E
:1059380080539BB2A2F84430D1E7002184F8C81202
:10594800204604F029FBEBE72268B2F840309BB20E
:1059580043F00803A2F840302268B2F844309BB202
:1059680023F400639BB2A2F844302268B2F84030B6
:105978009BB243F00403A2F84030204604F044FAF6
:10598800ADE72268B2F844309BB223F080039BB2A3
:10599800A2F8443094F8C832FBB92268B2F8403013
:1059A8009BB243F00403A2F840302268B2F84030BA
:1059B8009BB243F00803A2F84030012184F8C812D2
:1059C8002368B3F85430C3F38D0303F03C03C4F8E1
:1059D800CC32204604F0E0FA81E7204604F014FABD
:1059E8007DE72268B2F844309BB223F400739BB27F
:1059F800A2F84430204604F0EEF970E710B50446EA
:105A0800084611F0800F27D101F0070C0CEB8C0130
:105A1800C90001F5A87E04EB0E010CEB8C0C04EB1D
:105A2800CC0C4FF0000E8CF851E100F00700087024
:105A3800C2F30A020A61CB70022B1DD094F890328F
:105A4800012B1CD0012384F89032206802F09DFAC3
:105A5800002084F8900210BD01F0070C0CEB8C01BB
:105A6800C900103121440CEB8C0C04EBCC0C4FF02A
:105A7800010E8CF811E0D8E700230B71DEE7022055
:105A8800E9E710B504460A4611F0800F1FD101F06E
:105A9800070000EB8003DB0003F5A873E11800EBB7
:105AA800800004EBC000002380F8513102F00702A7
:105AB8000A7094F89032012B17D0012384F89032A1
:105AC800206802F0EFFC002084F8900210BD01F07D
