:020000040800F2
:1000000000000220110F0008450B0008470B0008F4
:10001000490B00084B0B00084D0B000800000000C6
:100020000000000000000000000000004F0B00086E
:10003000510B000800000000530B0008550B00088E
:10004000610F0008610F0008610F0008610F0008D0
:10005000610F0008610F0008610F0008610F0008C0
:10006000610F0008610F0008610F0008610F0008B0
:10007000610F0008610F0008610F0008610F0008A0
:10008000610F0008610F0008610F0008610F000890
:10009000610F0008610F0008610F0008610F000880
:1000A000610F0008610F0008610F0008610F000870
:1000B000610F0008610F0008610F0008610F000860
:1000C000610F0008610F0008610F0008610F000850
:1000D000610F0008610F0008610F0008610F000840
:1000E000610F0008610F0008610F0008610F000830
:1000F000610F0008610F0008610F0008610F000820
:10010000610F0008610F0008610F0008610F00080F
:10011000610F0008610F0008610F0008610F0008FF
:10012000610F0008610F0008610F0008610F0008EF
:10013000610F0008610F0008610F0008610F0008DF
:10014000610F0008610F0008610F0008610F0008CF
:10015000610F0008610F0008610F0008610F0008BF
:10016000610F0008610F0008610F0008610F0008AF
:10017000610F0008610F0008610F0008610F00089F
:10018000610F0008610F0008610F0008610F00088F
:10019000610F000800000000610F0008610F0008F7
:1001A000610F0008610F0008610F0008610F00086F
:1001B000610F0008610F0008610F0008610F00085F
:1001C000610F0008610F0008610F0008610F00084F
:0801D000610F0008610F000837
:1001D80010B5054C237833B9044B13B10448AFF379
:1001E80000800123237010BD1000002000000000D3
:1001F8004C41000808B5034B1BB103490348AFF352
:10020800008008BD00000000140000204C410008D8
:1002180053B94AB9002908BF00281CBF4FF0FF3165
:100228004FF0FF3000F06AB9ADF1080C6DE904CE6B
:1002380000F006F8DDF804E0DDE9022304B07047B9
:100248002DE9F047089D0C46002B4ED194468C456D
:100258008646B2FA82F262D94AB1C2F120039140CD
:1002680020FA03F30CFA02FC194300FA02FE4FEAE3
:100278001C471FFA8CF6B1FBF7F44FEA1E4307FB45
:10028800141143EA014304FB06F199420AD91CEB15
:10029800030304F1FF3080F01281994240F20F818C
:1002A800023C6344591A1FFA8EF3B1FBF7F007FBBF
:1002B800101143EA014300FB06F69E420AD91CEBE3
:1002C800030300F1FF3180F0FC809E4240F2F98088
:1002D800634402389B1B40EA044000211DB1D3400F
:1002E8000022C5E90032BDE8F0878B4205D90DB17F
:1002F800C5E9000100210846F5E7B3FA83F10029B2
:1003080046D1A34202D39042C0F0F080861A64EB33
:1003180003030120002DE6D0C5E90063E3E7002AC6
:1003280040F09080A1EB0C044FEA1C481FFA8CF7B0
:100338000121B4FBF8F64FEA1E4308FB164443EAD2
:10034800044307FB06F0984208D91CEB030306F1A7
:10035800FF3402D2984200F2CD8026461C1A1FFABA
:100368008EF3B4FBF8F008FB104443EA044300FBA7
:1003780007F79F4208D91CEB030300F1FF3402D2B0
:100388009F4200F2B0802046DB1B40EA0640A5E70A
:10039800C1F120068B4022FA06F71F4320FA06FC1B
:1003A80004FA01F343EA0C03F44000FA01F8380CAC
:1003B8004FEA1349B4FBF0FE1FFA87FC00FB1E440A
:1003C80049EA04440EFB0CF9A14502FA01F20AD9E4
:1003D8003C190EF1FF3A80F08480A14540F28180FB
:1003E800AEF1020E3C44A4EB09041FFA83F9B4FBF6
:1003F800F0F300FB134449EA044403FB0CFCA44556
:1004080007D93C1903F1FF3067D2A44565D9023BEF
:100418003C4443EA0E40A0FB0293A4EB0C049C422C
:10042800CE469C4651D34ED055B1B8EB0E0364EB83
:100438000C0404FA06F6CB401E43CC40C5E9006420
:10044800002150E7C2F1200320FA03F10CFA02FC64
:1004580024FA03F394400C434FEA1C4800FA02FEC6
:100468001FFA8CF7B3FBF8F008FB1031230C43EAB2
:10047800014300FB07F1994208D91CEB030300F183
:10048800FF362CD299422AD9023863445B1AA4B2A7
:10049800B3FBF8F108FB113344EA034401FB07F30B
:1004A800A34208D91CEB040401F1FF3613D2A3427E
:1004B80011D902396444E41A41EA004139E7044693
:1004C800F0E6084606E7C845AED2B9EB020E63EB84
:1004D800070C0138A8E73146EDE7034699E73046AF
:1004E800D4E7D6467FE7634402384DE706462346FD
:1004F80008460FE7023E634430E700BF704700BF7D
:1005080010B58CB0002409940A940B94202221463B
:1005180001A803F085FD20484FF0A04303604FF485
:10052800403343608460C460046144610423836190
:10053800047744770123036280F82440C46204638B
:1005480080F83840C46380F8404000F07DFDC8B9A9
:100558000023099309A9104801F024F9A8B90F4B01
:10056800019306230293002303937F22049204221B
:10057800059206930DEB0201074800F0B3FE38B967
:100588000CB010BD00F010FAE2E700F00DFAE6E753
:1005980000F00AFAF4E700BF9800002002003004D7
:1005A80000B589B020220021684603F039FD1B48B8
:1005B8001B4B03604FF44033436000238360C360E8
:1005C8000361436104228261037743770122026257
:1005D80080F82430C362036380F83830C36380F83E
:1005E800403000F031FD90B90E4B00930623019383
:1005F800002302937F220392042204920593694602
:10060800064800F06FFE28B909B05DF804FB00F059
:10061800CBF9E9E700F0C8F9F6E700BF2C000020A5
:10062800000600501000C09010B59EB0044600218E
:1006380019911A911B911C911D91542204A803F041
:10064800EFFC2368B3F1A04F04D0244A93422DD085
:100658001EB010BD4FF4004304934FF000531593A0
:1006680004A802F083FBF0B91D4BDA6C42F4005287
:10067800DA64DA6C02F400520192019ADA6C42F000
:100688000102DA64DB6C03F001030293029B0F237F
:10069800199303231A9300231B9319A94FF0904031
:1006A80001F0D2F9D4E700F07FF9DDE74FF48033A9
:1006B80004934FF00043169304A802F057FB50B977
:1006C800074BDA6C42F48042DA64DB6C03F4804353
:1006D8000393039BBCE700F067F9F1E700060050BD
:1006E8000010024030B589B00024039404940594A6
:1006F80006940794164BDA6C42F02002DA64DA6C3E
:1007080002F020020092009ADA6C42F00102DA64E8
:10071800DA6C02F001020192019ADA6C42F00202EC
:10072800DA64DB6C03F002030293029B094D224654
:100738000121284601F07CFA0123039304930594D0
:10074800069403A9284601F07FF909B030BD00BF1F
:1007580000100240000400480268094B9A4200D089
:10076800704782B003F528431A6E42F080621A6619
:100778001B6E03F080630193019B02B0704700BFBA
:100788000068014070B588B0002303930493059373
:100798000693079302681A4B9A4201D008B070BDBD
:1007A80003F52843DA6C42F00202DA64DA6C02F0EC
:1007B80002020192019ADA6C42F00102DA64DB6CFF
:1007C80003F001030293029B4FF440430393022674
:1007D8000496032506950D24079403A9094801F0FA
:1007E80033F94FF440730393049600230593069559
:1007F800079403A94FF0904001F026F9CEE700BF17
:10080800006801400004004810B5ACB000242894EA
:1008180029942A942B942194229423942494259403
:10082800269427946022214609A803F0F9FB202288
:10083800214601A803F0F4FB59485A4B0360446071
:10084800846001F02DFC002840F082800C2154487F
:1008580001F092FC00287ED10A21514801F0C5FC24
:1008680000287BD14FF6DF732893002129912A9124
:1008780008232B9328AA4A4801F0D9FC002870D1F4
:1008880000212191279121AA454801F02FFD002838
:100898006AD1002109910A910B910C9101230D93C2
:1008A8000E910F911091119112911391149115912C
:1008B80016911791189119911A911B911D911E91DA
:1008C8001F91209109AA364801F0CAFC00284ED190
:1008D80000231B9309AA0321314801F0C1FC002819
:1008E80048D100210191029103910491059106914B
:1008F8000791089101AB0122294801F013FD002856
:100908003BD101AB40220321254801F00BFD002813
:1009180036D101AB02220021214801F003FD90BB32
:1009280001AB802203211E4801F0FCFC70BB28AA01
:1009380003211B4801F07BFC58BB21AA032118485E
:1009480001F0D4FC40BB1648FFF71CFF2CB010BDCB
:1009580000F02AF87AE700F027F87DE700F024F89D
:1009680080E700F021F88BE700F01EF891E700F02F
:100978001BF8ADE700F018F8B3E700F015F8C0E78A
:1009880000F012F8C5E700F00FF8C9E700F00CF81E
:10099800CDE700F009F8D0E700F006F8D3E700BF8C
:1009A800040100200068014072B6FEE700B595B06A
:1009B8003822002106A803F033FB002001900290A2
:1009C80003900490059001F03BFD212306934FF41A
:1009D8008033079301230C9302230D9303220E9275
:1009E80005220F9244221092119308221292139317
:1009F80006A801F0DFFD80B90F23019303230293BA
:100A0800002303930493059304210DEB010002F0E6
:100A180087F820B915B05DF804FBFFF7C5FFFFF7AD
:100A2800C3FF08B500F0C2FAFFF7C0FFFFF75AFE90
:100A3800FFF766FDFFF7B4FDFFF7E6FE00F00AF8E2
:100A480000F0CAF800F02EF900F060F900F01AFA88
:100A5800FEE7000008B51048104B03604FF482739E
:100A68004360002383604FF4E062C2600361436126
:100A78004FF4007282611022C26103624362836292
:100A88000722C26203630823436302F02BFB00B909
:100A980008BDFFF789FFFBE7000200200030014096
:100AA80000B589B000230393049305930693079335
:100AB8000268134B9A4202D009B05DF804FB03F5B3
:100AC80060431A6E42F480521A661A6E02F480521B
:100AD8000192019ADA6C42F00102DA64DB6C03F0ED
:100AE80001030293029BE02303930223049305234B
:100AF800079303A94FF0904000F0A6FFDCE700BF82
:100B08000030014000B583B00B4B1A6E42F0010271
:100B18001A661A6E02F001020092009A9A6D42F06B
:100B280080529A659B6D03F080530193019B01F0FD
:100B38000DFD03B05DF804FB00100240FEE7FEE780
:100B4800FEE7FEE7FEE770477047704708B500F01C
:100B58003DFA08BD704700000268094B9A4200D070
:100B6800704782B003F55C431A6E42F400521A666D
:100B78001B6E03F400530193019B02B0704700BF42
:100B88000034014000B587B000230193029303931A
:100B98000493059302680E4B9A4202D007B05DF8A1
:100BA80004FB03F55C43DA6C42F00202DA64DB6CA6
:100BB80003F002030093009B4FF400730193022398
:100BC80002930A23059301A9024800F03DFFE5E7D7
:100BD800003401400004004810B598B00024159472
:100BE800169417940E940F941094119412941394CD
:100BF80014943422214601A803F012FA2748284BFE
:100C08000360446084604FF6FF73C360046144610D
:100C1800846102F0B9FC002833D1002315931693A0
:100C2800179315A91D4802F06DFD00282CD100234B
:100C38000E930F9310931193129313931493082206
:100C48000EA9164802F020FD08BB00230193029369
:100C58000393049305934FF4005206920793089365
:100C680009934FF000720A920B930C930D9301A90C
:100C78000A4802F09DFD68B90848FFF783FF18B0DD
:100C880010BDFFF791FEC8E7FFF78EFECFE7FFF72D
:100C98008BFEDAE7FFF788FEEEE700BF640200206C
:100CA8000034014008B51748174B03604FF4E1338F
:100CB800436000238360C36003610C224261836147
:100CC800C36103624362836203F0CDF870B9002107
:100CD8000C4803F040F960B900210A4803F060F9B4
:100CE80050B9084803F018F948B908BDFFF75CFE89
:100CF800EDE7FFF759FEEFE7FFF756FEF1E7FFF7DD
:100D080053FEF2E7440300200038014008B51748B5
:100D1800174B03604FF4E133436000238360C360E3
:100D280003610C2242618361C3610362436283628F
:100D380003F099F870B900210C4803F00CF960B978
:100D480000210A4803F02CF950B9084803F0E4F8E8
:100D580048B908BDFFF728FEEDE7FFF725FEEFE7E6
:100D6800FFF722FEF1E7FFF71FFEF2E7B0020020CF
:100D78000044004070B5A0B0044600211B911C91AE
:100D88001D911E911F91542206A803F049F923686A
:100D9800384A934204D0384A93422BD020B070BDD1
:100DA8000123069306A801F0E1FF00BB334B1A6E3E
:100DB80042F480421A661A6E02F480420192019A45
:100DC800DA6C42F00202DA64DB6C03F0020302938D
:100DD800029BC0231B9302231C9300231D931E9385
:100DE80007231F931BA9264800F02EFED6E7FFF71E
:100DF800DBFDDBE70223069306A801F0B7FF002816
:100E080035D11E4B9A6D42F400329A659A6D02F400
:100E180000320392039ADA6C42F00102DA64DA6C67
:100E280002F001020492049ADA6C42F00202DA64D7
:100E3800DB6C03F002030593059B4FF400431B93FF
:100E480002261C9600241D941E9407251F951BA995
:100E58004FF0904000F0F8FD08231B931C961D945A
:100E68001E941F951BA9064800F0EEFD96E7FFF7B4
:100E78009BFDC6E7003801400044004000100240D6
:100E88000004004808B50A480A4B036008230371A8
:100E980002234371C3710023037243728372C372C6
:100EA80001F05CFA00B908BDFFF77EFDFBE700BF63
:100EB800D8030020005C004010B596B004465422C8
:100EC800002101A803F0ACF822680D4B9A4201D02A
:100ED80016B010BD4FF40053019301A801F046FF6E
:100EE80050B9084B9A6D42F400029A659B6D03F461
:100EF80000030093009BEBE7FFF756FDF1E700BF07
:100F0800005C0040001002400D488546FFF722FEB5
:100F18000C480D490D4A002302E0D458C45004334C
:100F2800C4188C42F9D30A4A0A4C002301E0136022
:100F38000432A242FBD303F07BF8FFF772FDFEE711
:100F4800000002200000002010000020B841000826
:100F58001000002050080020FEE70000104B1B681E
:100F68000BB90120704710B504464FF47A70B0FBF6
:100F7800F3F30C4A1068B0FBF3F000F051FD68B9C8
:100F88000F2C01D901200AE0002221464FF0FF3042
:100F980000F036FD044B1C60002000E0012010BD6D
:100FA80004000020000000200800002010B50320E5
:100FB80000F014FD0F20FFF7D1FF10B101242046E7
:100FC80010BD0446FFF79EFDF9E70000034A1368C9
:100FD800034909680B441360704700BFB40600203A
:100FE80004000020014B1868704700BFB4060020B9
:100FF80010B430300B0A9B0003F00C03C45801F006
:101008001F014FF01F0C0CFA01FC24EA0C0CC2F370
:1010180084628A404CEA0202C25010BC704710B485
:1010280014304B0E9B0003F00403C458C1F3045161
:101038004FF0070C0CFA01FC24EA0C0C8A404CEA2D
:101048000202C25010BC704730B583B00023019330
:10105800002800F032810446C36D13B323689A68F0
:1010680012F0005F05D09A6822F0204222F03F0279
:101078009A602268936813F0805F1FD1936823F009
:10108800104323F03F0343F0805393608C4B1B685D
:101098009B098C4AA2FB03239B0901335B00019344
:1010A80009E0FFF7C1FA0023236684F85830D5E732
:1010B800019B013B0193019B002BF9D122689368A6
:1010C80013F0805F3DD1E36D43F01003E365236EB9
:1010D80043F0010323660120936813F0040300D052
:1010E8000123E16D11F0100F40F0E080002B40F07B
:1010F800DD80E36D23F4817343F00203E3659368B5
:1011080013F0010F3ED1B2F1A04F1CD06E4B9A42A2
:1011180019D06E4B996811F0010100D001216C4B78
:101128009B6813F0010300D001230B4369498968C8
:1011380011F0010100D001210B430CBF0123002352
:1011480012E00020C8E74FF0A043996811F00101B0
:1011580000D001215C4B9B6813F0010300D00123F0
:101168000B430CBF0123002363B1B2F1A04F6CD035
:10117800554B9A4267D0584963688A6822F47C12B2
:1011880013438B60627FE36B43EA4233E2681343A5
:10119800A268134394F8242043EA0243012A56D054
:1011A800E26A22B102F47872216B0A431343216880
:1011B800CD684A4A2A401A43CA602268136923F054
:1011C8004063616B0B4313612268936813F0080353
:1011D80000D0012343BB237F94F83810490041EA2B
:1011E8008331D36823F4804323F002030B43D36095
:1011F8002369002B30D02268136943F480331361CC
:101208002268D2F8C03023F47F5323F03F032169CA
:101218000B43C2F8C03094F84030012B2BD0226821
:10122800136923F0010313616369012B35D0226828
:10123800136B23F00F031363E36D23F0030343F0F1
:101248000103E36537E0264996E7254994E7A26A52
:10125800013A43EA4243A3E72268136923F480333F
:1012680013612268D2F8C03023F47F5323F03F0380
:10127800C2F8C030CFE721680B6923F4FF6323F07D
:101288000403626CA56C2A43E56C2A43256D2A4346
:10129800134343F001030B61C6E721680B6B23F08E
:1012A8000F03226A013A13430B63C5E7E36D43F06A
:1012B8001003E365012003B030BD0120FBE700BF48
:1012C80000000020632D3E0500010050000400507E
:1012D8000005005000060050000700500740F0FFCE
:1012E80000030050F0B583B00023019390F8583004
:1012F800012B00F0488204460D46012380F858303F
:101308000068836813F0040F09D0E36D43F02003ED
:10131800E3650120002384F8583003B0F0BD0A6863
:101328004968FFF765FE2068836813F0040300D05E
:101338000123866816F0080600D00126002B3ED14E
:10134800002E3CD1AA68B2F1004F78D02968FFF787
:1013580066FE2268536923F0004353616969226875
:10136800D368C3F3C1035B0099402869042873D08C
:10137800603252F82070AB4B3B402F6807F0F84CB6
:1013880041EA0C010B4343F0004342F82030236844
:101398002869AA69603353F8201021F080710A4344
:1013A80043F82020236829692A7F012A51D0603315
:1013B80053F8212022F00072324343F8212022689A
:1013C800936813F0010F16D12B68E868D2F8B010B3
:1013D800C3F3120621EA060100F018069248F0400D
:1013E8000340C3F312030B43C2F8B030EA688F4BD3
:1013F8009A4200F099802B688D4A134200F0B98117
:101408002268B2F1A04F00F050818A498A4200F068
:1014180049818949896801F0E070884DAB4200F044
:101428004681874DAB4200F04281864DAB4200F0C9
:101438007181854DAB4200F0878100206AE7002268
:101448002968FFF7ECFD2268536943F000435361B4
:1014580084E74FF00076AAE7136E116EC1F384613A
:101468002B68C3F3120080BBC3F38463994234D062
:1014780021684B6E4A6EC2F384622B68C3F3120074
:1014880080BBC3F384639A4234D021688B6E8A6E22
:10149800C2F384622B68C3F3120080BBC3F3846376
:1014A8009A4234D02168CB6ECA6EC2F384622B682C
:1014B800C3F3120080BBC3F384639A427FF47FAF07
:1014C800CB6E23F00043CB6679E793FAA3F313B10D
:1014D800B3FA83F3CAE72023C8E7136E23F0004367
:1014E8001366C5E793FAA3F313B1B3FA83F3CAE714
:1014F8002023C8E74B6E23F000434B66C5E793FAF9
:10150800A3F313B1B3FA83F3CAE72023C8E78B6EBA
:1015180023F000438B66C5E793FAA3F313B1B3FA3C
:1015280083F3CAE72023C8E720682B68C3F31206B1
:1015380026BB9A0E013202F01F02092A8CBF002234
:101548000122002A52D046BB990E0131890601F0CA
:10155800F84176BB9F0E013707F01F070122BA40FA
:101568001143AEBB9B0E013303F01F0303EB430390
:101578001B051943AA68FFF752FD3CE793FAA3F24B
:101588004AB1B2FA82F2013202F01F02092A8CBF74
:1015980000220122D5E72022F5E793FAA3F131B121
:1015A800B1FA81F10131890601F0F841D1E7202132
:1015B800F8E793FAA3F24AB1B2FA82F2013202F0E2
:1015C8001F024FF0010C0CFA02F2C9E72022F5E7DE
:1015D80093FAA3F343B1B3FA83F3013303F01F0380
:1015E80003EB43031B05C4E72023F6E776BB990EFC
:1015F8000131890601F0F841A6BB9F0E013707F0BB
:101608001F070122BA401143DEBB9B0E013303F0D2
:101618001F0303EB43031E3B1B0543F000731943F1
:10162800A8E700BF00F0FF03FFFF070000007F40AE
:10163800000008800001005000070050000021C38E
:101648001000C090000052C7000084CB93FAA3F1A9
:1016580031B1B1FA81F10131890601F0F841CBE7E6
:101668002021F8E793FAA3F24AB1B2FA82F20132E2
:1016780002F01F024FF0010C0CFA02F2C3E720221D
:10168800F5E793FAA3F35BB1B3FA83F3013303F0FD
:101698001F0303EB43031E3B1B0543F00073BEE728
:1016A8002023F3E701F50071B4E63849B2E611F4F6
:1016B800000F7FF4BAAEB2F1A04F04D0344B9A4277
:1016C80001D0002026E6B2F1A04F19D0314B9A4242
:1016D80014D0314A40F40000936823F0E0731843B3
:1016E80090602E4B1B689B092D4AA2FB03239B0984
:1016F800013303EB43039B00019306E0234AE9E728
:10170800224AE7E7019B013B0193019B002BF9D19A
:101718000020FFE511F0807F7FF48BAE1D4B9A42CD
:1017280029D003F580639A4227D0B2F1A04F09D09F
:10173800194940F080738A6822F0E07213438B6085
:101748000020E7E51149F4E711F4800F17D1114B98
:101758009A4216D0B2F1A04F09D00F4940F4800345
:101768008A6822F0E07213438B600020D2E50749B3
:10177800F4E70020CEE50020CCE50020CAE50020F3
:10178800C8E50020C6E50220C7E500BF00030050F9
:101798000006005000010050000700500000002023
:1017A800632D3E0590F85820012A00F0D58010B42A
:1017B8009DB00346012280F8582000221892199201
:1017C8000068B0F1A04F47D0644A904247D0002249
:1017D8000192019A002A46D0926812F0040200D0C1
:1017E8000122846814F0040F40F0A780002A40F01A
:1017F800A480B0F1A04F42D0594A90423CD0594AF7
:10180800086800285CD0906820F460404C6893F821
:1018180038C044EA4C34204390601868B0F1A04FB7
:101828002FD04F4CA0422CD04C48846814F00104AF
:1018380000D001244C48806810F0010000D001203D
:1018480020434A4CA46814F0010400D0012420432A
:101858000CBF0120002025E0414A0192B9E702F5BA
:1018680080720192B5E7DA6D42F02002DA65002253
:1018780083F85820012068E002F50072C0E73C4A6E
:10188800BEE74FF0A040846814F0010400D00124A2
:101898003348806810F0010000D0012020430CBFBD
:1018A80001200020002853D0906820F4716020F0B7
:1018B8000F000C688968214308439060002041E0CC
:1018C800916821F4604191601968B1F1A04F1AD074
:1018D8002348814217D02149886810F0010000D0C0
:1018E80001202149896811F0010100D0012101433B
:1018F8001E48806810F0010000D0012001430CBF91
:101908000121002110E04FF0A041886810F001008B
:1019180000D001201249896811F0010100D001218D
:1019280001430CBF01210021A1B1916821F471612B
:1019380021F00F019160002004E0DA6D42F02002EE
:10194800DA650120002283F858201DB010BC7047CA
:101958000020F7E70020F5E7022070470004005058
:10196800000100500007005000050050000600501C
:1019780000030050002808DB0901C9B200F16040EB
:1019880000F5614080F80013704700F00F0009016E
:10199800C9B2014B1954704714ED00E000B500F0CE
:1019A8000700C0F1070CBCF1040F28BF4FF0040C6E
:1019B800031D062B0FD9C31E4FF0FF3E0EFA0CF085
:1019C80021EA000199400EFA03FE22EA0E0241EADA
:1019D80002005DF804FB0023EEE70000074AD36825
:1019E80023F4E0631B041B0C000200F4E0600343D3
:1019F80043F0BF6343F40033D360704700ED00E069
:101A080010B50446054BD868C0F30220FFF7C6FF9F
:101A180001462046FFF7AEFF10BD00BF00ED00E015
:101A28000138B0F1807F0BD24FF0E0235861054AAE
:101A3800F02182F823100020986107221A6170476C
:101A48000120704700ED00E070B582B0002369E026
:101A580085685E000324B44025EA0405CC68B440D8
:101A68002C438460456825EA0C054C68C4F30014CF
:101A78009C402C43446066E08C68012C68D176E079
:101A8800DD08083550F8254003F0070C4FEA8C0CA8
:101A98004FF00F0E0EFA0CFE24EA0E0E0C6904FA33
:101AA8000CF444EA0E0440F8254065E0052400E003
:101AB800002404FA0EF42C430CF1020C584D45F89E
:101AC8002C40584CA568D44325EA0206D1F804C036
:101AD8001CF4801F01D042EA0506524DAE60ED6845
:101AE80004EA0506D1F804C01CF4001F01D042EA3C
:101AF80005064C4DEE606D6804EA0506D1F804C091
:101B08001CF4003F01D042EA0506464D6E602D6880
:101B18002C404E6816F4803F01D042EA0504414A41
:101B2800146001330A6832FA03F476D04FF0010CDE
:101B38000CFA03FC1CEA0202F3D04C6804F003041C
:101B4800013C012C84D94C6804F00304032C93D085
:101B5800C4684FEA430E4FF0030C0CFA0EFC24EA5B
:101B68000C0C8C6804FA0EF444EA0C04C4604C684B
:101B780004F00304022C83D004684FEA430E4FF0AC
:101B8800030C0CFA0EFC24EA0C0C4C6804F0030459
:101B980004FA0EF444EA0C0404604C6814F4403F60
:101BA800BFD0214C256E45F001052566246E04F052
:101BB80001040194019C4FEA930C0CF10205184CA6
:101BC80054F8255003F0030E4FEA8E0E0F2404FA42
:101BD8000EF425EA0405B0F1904F3FF469AF134CB9
:101BE800A04212D004F58064A04210D004F58064AD
:101BF800A0420ED004F58064A0420CD004F58064A5
:101C0800A0423FF453AF062453E7012451E70224CE
:101C18004FE703244DE704244BE702B070BD00BF33
:101C28000000014000040140001002400004004888
:101C38000AB1816170478162704710B404682268F4
:101C480022F007028B68134323F01803CA681A436B
:101C5800226003680A685A6103684A689A6110BC7E
:101C6800704730B5046801F1010C4FEACC1C54F8F8
:101C78000C3023F0070E936843EA0E0323F0180391
:101C8800D5682B4344F80C300368146803EBC11380
:101C9800C3F894400368526803EBC113C3F8982053
:101CA80030BD70B404682368D4F8A05323F020032F
:101CB8004E69334323F0C002202E09D08E69022ECC
:101CC80006D0032E29D0042E2AD023F0E00201E00A
:101CD80042F0200222F40062CB69134323F48062AD
:101CE8000B6A134323F0C0624B6A134323F000626C
:101CF8008B6A134323F04043CA6A43EA820323F002
:101D080000534A6B1A4325F480350B6B1D43226040
:101D18000368C3F8A05370BC704742F04002D9E78B
:101D280042F08002D6E7F0B505684B1CDB01EC58A1
:101D380024F07044EC500668F35806EBC114D4F84C
:101D4800E870D4F8E440D6F8A05323F0200C536987
:101D580043EA0C0C202B09D09369022B06D0032BE5
:101D680063D0042B66D02CF4D07C03E02CF4C07C28
:101D78004CF0200C2CF4006CD36943EA0C0323F4D8
:101D88008063D2F820C04CEA030C2CF0C06C536A74
:101D980043EA0C0323F0006C936A43EA0C0323F034
:101DA800704CD36A43EA0C0323F40033D2F834C0EE
:101DB800BCF1005F43D023F04003D2F838C04CEAAE
:101DC800030323F48023D2F858E04EEA030E2EF0E2
:101DD800FC7E2EF4803E136D43EA0E0E27F03F077B
:101DE800D36B03F03F033B4323F00043176C3B43A3
:101DF800BCF1000F03D124F48074576C3C43976CFA
:101E0800B7F5606F1ED0B7F5F05F1BD024F4F0541F
:101E18003C4324F48044D76C3C43576D05291AD8B9
:101E2800DFE801F01430363C42482CF4807C4CF05A
:101E3800800C9FE72CF0800C4CF4807C9AE743F4EC
:101E48000033B8E7BCF1400FE3D1DFE725F40035F4
:101E5800126B45EA42054A1CD20146F802E00268C4
:101E680002EBC112C2F8E830036803EBC113C3F8F0
:101E7800E440036803EBC113C3F8D4700368C3F8E4
:101E8800A053F0BD25F48025126B45EA8205E2E7F0
:101E980025F40025126B45EAC205DCE725F4801518
:101EA800126B45EA0215D6E725F40015126B45EAD0
:101EB8004215D0E725F48005126B45EA8215CAE77A
:101EC80010B4006800EBC113D3F8EC3023F0100312
:101ED800146843EA041323F48013546844EA030C97
:101EE8002CF4803CD36843EA0C0323F4003C936849
:101EF80043EA0C039469012C05D000EBC110C0F82B
:101F0800EC3010BC704723F00403D2F810C04CEA40
:101F1800030C2CF0020C536943EA0C0323F0010371
:101F28002343EAE7F0B4076807EBC114D4F8E46088
:101F3800D4F8B850402A52D035D8012A4FD0002AB8
:101F48005ED0202A5ED8022A5ED3023A012404FA1F
:101F580002F2324C224230D144F2040422423ED1F1
:101F68000022FE24944026EA04061C68944044EAB1
:101F7800060CDC68944044EA0C041E6906FA02FC6C
:101F88004CEA040C5C69944044EA0C0C9C6994404B
:101F980044EA0C04082E39D0036803EBC113C3F8D4
:101FA800E440F0BC7047B2F5007F06D012D9B2F514
:101FB800806F14D0B2F5006F20D15A6807EBC117B3
:101FC800C7F8C42002689C6802EBC112C2F8C84076
:101FD8001022C6E7802AF0D0B2F5807F0CD15A686B
:101FE80007EBC117C7F8BC2002689C6802EBC11256
:101FF800C2F8C0400022B4E70022B2E70022B0E7EE
:102008000022AEE70022ACE70022AAE715F0022F73
:10201800C2D1DB6993401C43BEE700BF41000040CA
:1020280006293CD8DFE801F00C141C242C340400E9
:102038000268D2F8843343F00103C2F8843370474E
:102048000268D2F8843343F00203C2F8843370473D
:102058000268D2F8843343F00403C2F8843370472B
:102068000268D2F8843343F00803C2F88433704717
:102078000268D2F8843343F01003C2F884337047FF
:102088000268D2F8843343F02003C2F884337047DF
:102098000268D2F8843343F04003C2F884337047AF
:1020A800002864D010B582B00446022380F8DD30E1
:1020B8000023C0F8E030C0F8E430C0F8E830C0F8D9
:1020C800EC30C0F8F030C0F8F430C0F8F83083686D
:1020D80013F0010F12D00268264B9A4225D02168CE
:1020E8000A6822F44042236903F44043134323F46B
:1020F8004053626902F440521A430A602046FEF7D0
:102108002BFBA36813F0020F08D021680A6822F499
:102118004072E36803F4407313430B60012384F8AF
:10212800DD30002384F8DC301CE003F528431A6E08
:1021380042F080621A661B6E03F080630193019B74
:10214800CDE7C3EBC30204EB820200219161D161A8
:10215800116251629162C3EBC30204EB8202116304
:102168000133DBB2062BECD9002002B010BD0120F0
:10217800704700BF0068014090F8DC30012B32D076
:10218800012380F8DC30022380F8DD30B1F1FF3F15
:102198001AD00268D2F8CC3343F00203C2F8CC3329
:1021A8000268D2F8CC3323F00C030B43C2F8CC33CB
:1021B8000268D2F8CC3343F00103C2F8CC330123D0
:1021C80080F8DD30002070470268D2F8CC3323F065
:1021D8000203C2F8CC330268D2F8CC3343F00103CF
:1021E800C2F8CC33EBE70220704770B504460D46C1
:1021F800FEF7F8FE06462368D3F8883313F4803FC9
:102208000ED1B5F1FF3FF6D0FEF7ECFE801BA842D9
:1022180001D8002DEFD1072384F8DD30032005E035
:10222800012384F8DD30002084F8DC0070BD10B58F
:10223800044690F8DD00C0B202280BD0022384F8CF
:10224800DD30062907D02046FFF70BFD012384F86F
:10225800DD30002010BD11462046FFF7EEFCF5E703
:1022680070B5044690F8DD00C0B2022836D00D469D
:10227800164694F8DC30012B36D0012384F8DC3084
:10228800022384F8DD30062929D02046FFF74BFDCC
:102298003268C5EBC50304EB83031A6272685A629D
:1022A800B2689A62F268DA6232691A63294620468D
:1022B800FFF7B6FE062D0BD0F36A4BB9226801353D
:1022C800ED01535923F40073F16D43EA412353514F
:1022D800012384F8DD30002084F8DC0070BD11464D
:1022E8002046FFF7DEFCD3E70220F7E738B50446BF
:1022F80090F8DD00C0B2022811D094F8DC30012B30
:102308000ED0012584F8DC50022384F8DD30204605
:10231800FFF7D6FD84F8DD50002084F8DC0038BDD6
:102328000220FCE738B5044690F8DD00C0B2022868
:1023380011D094F8DC0001280ED0012584F8DC5077
:10234800022084F8DD002046FFF7ECFD84F8DD501C
:10235800002084F8DC0038BD0220FCE7002856D0B5
:1023680010B5044690F891323BB1032384F89132BA
:10237800206801F03AFE002315E080F89032FEF75D
:102388009BFDF2E703EB830204EBC20201215174C7
:1023980013740021D17411625162013303EB83027B
:1023A800D200A150DBB220799842EBD8002316E086
:1023B80003EB830204EBC202002182F8511182F878
:1023C800503182F85311C2F86011C2F8641103EB5E
:1023D800830204EBC202C2F868110133DBB29842EF
:1023E800E6D8234653F8040B93E8060001F007FEED
:1023F80000232373012384F89132A37A012B01D09F
:10240800002010BD204600F004F80020F9E7012064
:102418007047034602680121C0F8D012002083F8F3
:10242800C802B2F854309BB20B43A2F85430B2F849
:1024380054309BB243F00203A2F8543070470000B6
:10244800002836D13E4B1B6803F4C063B3F5806F98
:1024580008D03B4AD2F8803023F48073C2F8803029
:1024680000207047364AD2F8803023F48073C2F8CF
:102478008030136823F4C06343F400731360314B56
:102488001B68322202FB03F32F4AA2FB03239B0C97
:10249800013300E0013B2A4A526912F4806F01D0EF
:1024A800002BF7D1264B5B6913F4806F44D10020D1
:1024B8007047B0F5007F08D0214A136823F4C06341
:1024C80043F480631360002070471D4B1B6803F4BE
:1024D800C063B3F5806F08D0194AD2F8803043F44E
:1024E8008073C2F8803000207047154AD2F88030D7
:1024F80043F48073C2F88030136823F4C06343F454
:10250800007313600F4B1B68322202FB03F30E4A61
:10251800A2FB03239B0C013300E0013B084A5269EC
:1025280012F4806F01D0002BF7D1054B5B6913F4CF
:10253800806F03D100207047032070470320704745
:10254800007000400000002083DE1B43024A9368AD
:1025580043F480439360704700700040124BDA6880
:1025680002F00302DB68C3F303130133032A11D01B
:102578000E48B0FBF3F00C4BDB68C3F3062303FBF8
:1025880000F0094BDB68C3F3416301335B00B0FB28
:10259800F3F070470648B0FBF3F0034BDB68C3F376
:1025A800062303FB00F0ECE7001002400024F400CF
:1025B80040787D01002800F04F8270B582B0044653
:1025C800036813F0010F37D0A44A936803F00C0393
:1025D800D26802F003020C2B23D0082B23D06368A7
:1025E800B3F5803F4ED0B3F5A02F51D09B4B1A685E
:1025F80022F480321A601A6822F480221A60636812
:10260800002B52D0FEF7EEFC0546944B1B6813F4E2
:10261800003F11D1FEF7E6FC401B6428F5D90320E2
:1026280023E2032AD9D18D4B1B6813F4003F03D052
:102638006368002B00F01282236813F0020F5DD04C
:10264800864A936803F00C03D26802F003020C2B4D
:102658003AD0042B3AD0E368002B75D07F4A136830
:1026680043F480731360FEF7BDFC05467B4B1B6883
:1026780013F4806F5FD1FEF7B5FC401B0228F5D933
:102688000320F2E1754A136843F480331360B6E718
:1026980003F18043A3F53C331A6842F480221A60A0
:1026A8001A6842F480321A60A9E7FEF79BFC0546D7
:1026B8006A4B1B6813F4003FBED0FEF793FC401B27
:1026C8006428F5D90320D0E1022AC2D1634B1B68E4
:1026D80013F4806F03D0E368002B00F0C1815F4AD8
:1026E800536823F0FE43216943EA016353605C4B5E
:1026F8001868FEF733FC002840F0B481236813F013
:10270800080F4CD063699BB3544AD2F8943043F015
:102718000103C2F89430FEF765FC05464F4BD3F829
:10272800943013F0020F3AD1FEF75CFC401B0228EC
:10273800F4D9032099E1494A536823F0FE432169FB
:1027480043EA01635360D9E7444A136823F480736A
:102758001360FEF747FC0546404B1B6813F4806F77
:10276800CCD0FEF73FFC401B0228F5D903207CE1C2
:102778003A4AD2F8943023F00103C2F89430FEF7B5
:1027880031FC0546354BD3F8943013F0020F06D0D0
:10279800FEF728FC401B0228F4D9032065E12368D2
:1027A80013F0040F00F081802C4B9B6D13F0805FB9
:1027B80036D12A4B9A6D42F080529A659B6D03F090
:1027C80080530193019B0125264B1B6813F4807FDE
:1027D80028D0A368012B39D0052B45D01F4BD3F83F
:1027E800902022F00102C3F89020D3F8902022F024
:1027F8000402C3F89020A368002B43D0FEF7F2FB35
:102808000646164BD3F8903013F0020F4CD1FEF762
:10281800E9FB801B41F288339842F2D9032024E176
:102828000025D1E70F4A136843F480731360FEF75D
:10283800D9FB06460B4B1B6813F4807FC9D1FEF702
:10284800D1FB801B0228F5D903200EE1034AD2F8F8
:10285800903043F00103C2F89030CCE700100240FA
:102868000800002000700040884BD3F8902042F008
:102878000402C3F89020D3F8902042F00102C3F874
:102888009020B8E7FEF7AEFB0646804BD3F89030B1
:1028980013F0020F08D0FEF7A5FB801B41F2883326
:1028A8009842F2D90320E0E0E5B9236813F0200F3D
:1028B80035D0A369E3B1754AD2F8983043F00103E3
:1028C800C2F89830FEF78EFB0546704BD3F8983067
:1028D80013F0020F23D1FEF785FB401B0228F4D921
:1028E8000320C2E0694A936D23F080539365DCE7C7
:1028F800664AD2F8983023F00103C2F89830FEF700
:1029080071FB0546614BD3F8983013F0020F06D0DF
:10291800FEF768FB401B0228F4D90320A5E0E36911
:10292800002B00F0A180594A926802F00C020C2A90
:1029380064D0022B13D0554A136823F080731360B8
:10294800FEF750FB0446514B1B6813F0007F4ED036
:10295800FEF748FB001B0228F5D9032085E04B4A07
:10296800136823F080731360FEF73CFB0546474B62
:102978001B6813F0007F06D0FEF734FB401B0228CB
:10298800F5D9032071E0414AD36841491940236AC7
:10299800606A013843EA0013A06A43EA0023206B07
:1029A8004008013843EA4053606B4008013843EA65
:1029B8004063E06A43EAC0631943D160136843F097
:1029C80080731360D36843F08073D360FEF70AFB0B
:1029D80004462E4B1B6813F0007F06D1FEF702FB5E
:1029E800001B0228F5D903203FE000203DE0274ADC
:1029F800D168284B0B40D360002036E0012B36D03D
:102A0800224BDB6803F00301226A914231D103F0C3
:102A1800F002616A0139B2EB011F2CD103F4FE42C6
:102A2800A16AB2EB012F28D103F07842E16AB2EB38
:102A3800C16F24D103F4C001226B5208013AB1EBF3
:102A4800425F1ED103F0C063626B5208013AB3EBD8
:102A5800426F18D1002008E001207047012004E0EF
:102A6800012002E0012000E0002002B070BD01203A
:102A7800FBE70120F9E70120F7E70120F5E701204E
:102A8800F3E70120F1E70120EFE700BF0010024063
:102A98000C809F01FCFFEEFE1E4B9B6803F00C03AD
:102AA800042B33D01B4B9B6803F00C03082B2FD04F
:102AB800184B9B6803F00C030C2B01D000207047C7
:102AC800144BDA6802F00302DB68C3F30313013323
:102AD800032A11D01048B0FBF3F00E4BDB68C3F3A8
:102AE800062303FB00F00B4BDB68C3F341630133A0
:102AF8005B00B0FBF3F070470848B0FBF3F0054B00
:102B0800DB68C3F3062303FB00F0ECE702487047D9
:102B180002487047001002400024F40040787D010C
:102B2800002800F0E680F8B50C460546744B1B6893
:102B380003F00F038B420BD2714A136823F00F0383
:102B48000B431360136803F00F038B4240F0D380EC
:102B58002E6816F001065FD06B68032B2FD0022B6E
:102B68004DD0684B1B6813F4806F00F0C680FFF7E8
:102B780093FF654B98424DD9624A936823F0F0035E
:102B880043F08003936080265E4A936823F0030332
:102B980069680B439360FEF725FA0746594B9B6813
:102BA80003F00C036A68B3EB820F35D0FEF71AFA0C
:102BB800C01B41F288339842F0D9032078E0514B8A
:102BC8001B6813F0007F01D1012071E0FFF7C6FCFC
:102BD8004D4B98421AD94B4B9B6813F0F00F05D018
:102BE8002E6816F00206CFD0AB688BB9454A9368B9
:102BF80023F0F00343F0800393608026C4E7414B41
:102C08001B6813F4003FB2D1012051E00026BBE756
:102C18000026B9E70026B7E72B6813F0020F48D063
:102C280013F0040F04D0374A936843F4E0639360C9
:102C38002B6813F0080F06D0324A936823F47C53AC
:102C480043F4E06393602F4A936823F0F003A96884
:102C58000B4393602A4B1B6803F00F03A34230D841
:102C68002B6813F0040F06D0264A936823F4E06318
:102C7800E9680B4393602B6813F0080F07D0214ACB
:102C8800936823F46053296943EAC1039360FFF70B
:102C980003FF1C4B9B68C3F303131C4AD35C03F06C
:102CA8001F03D8401A4B18601A4B1868FEF756F9DC
:102CB800F8BD802ECED1134A936823F0F0039360B9
:102CC800C8E70F4A136823F00F0323431360FEF786
:102CD80089F906460A4B1B6803F00F03A342BFD0CD
:102CE800FEF780F9801B41F288339842F2D903201D
:102CF800DEE7012070470120DAE70120D8E700BFAE
:102D0800002002400010024000B4C4046C410008D6
:102D18000000002008000020014B1868704700BF21
:102D28000000002008B5FFF7F7FF054B9B68C3F3C9
:102D38000223044AD35C03F01F03D84008BD00BF38
:102D4800001002406441000808B5FFF7E5FF054B95
:102D58009B68C3F3C223044AD35C03F01F03D84023
:102D680008BD00BF0010024064410008F0B583B000
:102D78000446036813F4002F6ED0354B9B6D13F097
:102D8800805F1ED1324B9A6D42F080529A659B6DDE
:102D980003F080530193019B01262E4A136843F4E4
:102DA80080731360FEF71EF905462A4B1B6813F45F
:102DB800807F08D1FEF716F9401B0228F5D90325B4
:102DC80002E00026E9E7002545BB214BD3F8903007
:102DD80013F4407315D0226D9A4212D01C4AD2F8CF
:102DE800903023F44073D2F8901041F48031C2F847
:102DF8009010D2F8901021F48031C2F89010C2F8E7
:102E0800903013F0010F10D145B9114AD2F8903023
:102E180023F44073216D0B43C2F89030EEB10C4A95
:102E2800936D23F08053936517E0FEF7DBF80746B0
:102E3800074BD3F8903013F0020FE5D1FEF7D2F824
:102E4800C01B41F288339842F2D90325DCE700BF62
:102E580000100240007000400025236813F0010FA5
:102E680008D09F4AD2F8883023F0030361680B43E7
:102E7800C2F88830236813F0020F08D0984AD2F8B5
:102E8800883023F00C03A1680B43C2F8883023680C
:102E980013F0040F08D0924AD2F8883023F0300398
:102EA800E1680B43C2F88830236813F0080F08D094
:102EB8008B4AD2F8883023F0C00321690B43C2F84B
:102EC8008830236813F0100F08D0854AD2F888306C
:102ED80023F4407361690B43C2F88830236813F008
:102EE800200F08D07E4AD2F8883023F44063A169C5
:102EF8000B43C2F88830236813F0400F08D0784A93
:102F0800D2F8883023F44053E1690B43C2F8883083
:102F1800236813F0800F08D0714AD2F8883023F460
:102F28004043216A0B43C2F88830236813F4807F3A
:102F380008D06B4AD2F8883023F44033616A0B43D7
:102F4800C2F88830236813F4003F08D0644AD2F8E6
:102F58009C3023F00303A16A0B43C2F89C3023681A
:102F680013F4007F08D05E4AD2F8883023F4402357
:102F7800E16A0B43C2F88830236813F4806F0CD0E1
:102F8800574AD2F8883023F44013216B0B43C2F818
:102F98008830236BB3F5801F79D0236813F4006F52
:102FA8000CD04F4AD2F8883023F44003616B0B43AE
:102FB800C2F88830636BB3F5800F6DD0236813F4C3
:102FC800805F0CD0464AD2F8883023F04073A16B5A
:102FD8000B43C2F88830A36BB3F1807F61D02368BC
:102FE80013F4005F0CD03E4AD2F8883023F04063D7
:102FF800E16B0B43C2F88830E36BB3F1006F55D037
:10300800236813F4804F0CD0354AD2F8883023F067
:103018004063216C0B43C2F88830236CB3F1006F16
:1030280049D0236813F4004F0CD02D4AD2F88830C9
:1030380023F04053616C0B43C2F88830636CB3F1E2
:10304800805F3DD0236813F4803F0CD0244AD2F827
:10305800883023F04043A16C0B43C2F88830A36C3E
:10306800B3F1804F31D0236813F4802F0CD01C4A61
:10307800D2F89C3023F44013E16C0B43C2F89C3027
:10308800E36CB3F5001F25D0284603B0F0BDD36824
:1030980043F48013D36080E7D36843F48013D3608C
:1030A8008CE7D36843F48013D36098E7D36843F47C
:1030B8008013D360A4E7D36843F48013D360B0E7E8
:1030C800D36843F48033D360BCE7D36843F48033D8
:1030D800D360C8E7D36843F48013D360D4E700BF54
:1030E8000010024000286FD010B50446436A33B977
:1030F8004368B3F5827F05D00023C36102E0002353
:10310800036143610023A36294F85D30002B52D021
:10311800022384F85D302268136823F040031360AB
:10312800E368B3F5E06F4CD90022B3F5706F04D0B3
:10313800B3F5E06F01D00023A362636803F48273E0
:10314800A16801F404410B43216901F002010B431A
:10315800616901F001010B43A16901F400710B439E
:10316800E16901F038010B43216A01F080010B434A
:10317800A16A01F4005120680B430360638B03F0DC
:103188000403616A01F010010B43616B01F008014F
:103198000B43E16801F470610B4321681A434A60EC
:1031A8002268D36923F40063D361002020660123D9
:1031B80084F85D3010BD84F85C302046FDF770FC63
:1031C800A6E74FF48052B0E70120704730B4026A96
:1031D800036A23F0010303624468836923F480339C
:1031E80023F073030D681D4322F002028B6813431A
:1031F800214A904213D002F5006290420FD002F5A6
:10320800406290420BD002F58062904207D002F5EE
:103218008062904203D002F50062904207D1026AB0
:1032280022F00402026223F00803CA681343124A18
:10323800904213D002F5006290420FD002F540622E
:1032480090420BD002F58062904207D002F580626E
:10325800904203D002F50062904205D124F44074F4
:103268004A6922438C691443446085614A68426311
:10327800036230BC704700BF002C014030B4036AC1
:10328800026A22F4807202624468C26922F48032BF
:1032980022F073020D68154323F400738A6843EA29
:1032A80002231D4A904207D002F50062904203D0E3
:1032B80002F5E052904208D1026A22F4806202626A
:1032C80023F40063CA6843EA0223134A904213D0E6
:1032D80002F5006290420FD002F5406290420BD096
:1032E80002F58062904207D002F58062904203D0D6
:1032F80002F50062904207D124F440544A6944EA36
:1033080002148A6944EA02144460C5614A68C263C7
:10331800036230BC704700BF002C014030B4036A20
:10332800026A22F4805202624468C26922F0807202
:1033380022F4E6420D6842EA052223F400538D6820
:1033480043EA05331C4DA84207D005F50065A8429D
:1033580003D005F5E055A84208D1056A25F4804553
:10336800056223F40043CD6843EA0533124DA842B1
:1033780013D005F50065A8420FD005F54065A842B1
:103388000BD005F58065A84207D005F58065A842F1
:1033980003D005F50065A84207D124F440444D69DF
:1033A80044EA85148D6944EA85144460C2614A6818
:1033B8000264036230BC7047002C014030B4036AD9
:1033C800026A22F4803202624468026D22F480327A
:1033D80022F070020D68154323F400338A6843EA2B
:1033E8000243114A904213D002F5006290420FD076
:1033F80002F5406290420BD002F58062904207D0FD
:1034080002F58062904203D002F50062904204D136
:1034180024F480344A6944EA0224446005654A6811
:103428008264036230BC7047002C014030B4036AE8
:10343800026A22F4801202624468026D22F08072ED
:1034480022F4E0420D6842EA052223F400138D6855
:1034580043EA0553114DA84213D005F50065A8426B
:103468000FD005F54065A8420BD005F58065A84248
:1034780007D005F58065A84203D005F50065A84288
:1034880004D124F480244D6944EA8524446002650B
:103498004A68C264036230BC704700BF002C014018
:1034A8000368384A904216D0B0F1804F13D0A2F585
:1034B800943290420FD002F5806290420BD002F510
:1034C8008062904207D002F59432904203D002F510
:1034D800E052904203D123F070034A681343294A0B
:1034E800904222D0B0F1804F1FD0A2F59432904282
:1034F8001BD002F58062904217D002F5806290429C
:1035080013D002F5943290420FD002F540629042F7
:103518000BD002F58062904207D002F5806290429B
:1035280003D002F50062904203D123F44073CA68C5
:10353800134323F080034A6913438A68C2620A6806
:103548008262104A904213D002F5006290420FD076
:1035580002F5406290420BD002F58062904207D09B
:1035680002F58062904203D002F50062904201D1D8
:103578000A690263026842F00402026001224261A1
:1035880003607047002C014060B310B5044690F802
:103598003D3013B3022384F83D30214651F8040B23
:1035A800FFF77EFF012384F8483084F83E3084F822
:1035B8003F3084F8403084F8413084F8423084F851
:1035C800433084F8443084F8453084F8463084F831
:1035D800473084F83D30002010BD80F83C30FDF7BE
:1035E800BBFAD7E70120704730B4036A026A22F0B9
:1035F800100202624468826922F0807222F4E64274
:103608000D6842EA052223F020038D6843EA05137A
:103618001C4DA84207D005F50065A84203D005F562
:10362800E055A84208D1056A25F04005056223F057
:103638008003CD6843EA0513124DA84213D005F55F
:103648000065A8420FD005F54065A8420BD005F5E6
:103658008065A84207D005F58065A84203D005F526
:103668000065A84207D124F440644D6944EA850402
:103678008D6944EA8504446082614A688263036212
:1036880030BC7047002C014090F83C30012B36D0FC
:1036980010B50446012380F83C30142A2AD8DFE804
:1036A80002F00B29292910292929152929291A293C
:1036B80029291F29292924000068FFF787FD0020F0
:1036C80019E00068FFF790FF002014E00068FFF79A
:1036D800D5FD00200FE00068FFF720FE00200AE07B
:1036E8000068FFF76BFE002005E00068FFF79EFE0C
:1036F800002000E00120002384F83C3010BD0220A7
:103708007047000090F83C20012A4CD030B40346A2
:10371800012280F83C20022280F83D20006842689F
:103728008468224DA84207D005F50065A84203D059
:1037380005F5E055A84203D122F470024D682A43EA
:1037480022F0007222F070020D682A4342601A6863
:10375800164882421AD0B2F1804F17D0A0F59430A3
:10376800824213D000F5806082420FD000F580605D
:1037780082420BD000F59430824207D000F54060B9
:10378800824203D000F58050824204D124F08004A4
:10379800896821439160012283F83D20002083F845
:1037A8003C0030BC70470220704700BF002C01402D
:1037B80090F83C30012B49D010B40246012380F820
:1037C8003C30CB6823F440738868034323F4806358
:1037D8004868034323F400630868034323F48053D1
:1037E8000869034323F400534869034323F48043DF
:1037F800086B034323F47023886943EA004323F0EA
:103808008053C86903431068114CA04207D004F5DF
:103818000064A04203D004F5E054A04210D123F480
:1038280070038C6A43EA045323F080730C6A2343C1
:1038380023F000734C6A234323F00053C96A0B43F7
:103848004364002082F83C0010BC70470220704797
:10385800002C0140026852E8003F23F4907342E8CC
:1038680000310029F6D1026802F1080353E8003F4D
:1038780023F0805323F00103083242E80031002985
:10388800F1D1C36E012B06D02023C0F88C30002361
:10389800C36643677047026852E8003F23F010038D
:1038A80042E800310029F6D1EEE7000070B5044681
:1038B800016883680269134342691343C269134369
:1038C8000868964A02401A430A602268536823F43B
:1038D8004053E1680B435360A1692268904B9A42B8
:1038E80001D0236A1943936823F06E4323F43063AD
:1038F8000B4393602268D36A23F00F03616A0B437A
:10390800D3622368874A934210D0874A934221D0D2
:10391800864A934237D0864A93425CD0854A93427E
:103928006BD07F4A93427DD010223AE002F558428C
:10393800D2F8882002F00302032A09D8DFE802F04F
:103948000204870601222CE004222AE0082228E04B
:10395800102226E002F5E632D2F8882002F00C02A6
:103968000C2A0ED8DFE802F0070D0D0D090D0D0D1C
:10397800750D0D0D0B00002213E0042211E0082242
:103988000FE010220DE002F5E432D2F8882002F0B0
:103998003002202A5FD01AD8002A5ED0102A5ED1C1
:1039A80004225F498B4276D0E069B0F5004F00F001
:1039B800C980082A00F23481DFE812F0F700190103
:1039C800F50032011C013201320132011F01302A97
:1039D80047D10822E5E702F5E232D2F8882002F062
:1039E800C002802A3FD004D8FAB3402A3FD104222B
:1039F800D7E7C02A3DD10822D3E702F5E032D2F852
:103A0800882002F44072B2F5007F34D005D8A2B302
:103A1800B2F5807F33D10422C3E7B2F5407F30D1BD
:103A28000822BEE702F5C832D2F8882002F44062C4
:103A3800B2F5006F27D005D83AB3B2F5806F26D11A
:103A48000422AEE7B2F5406F23D10822A9E702228B
:103A5800A7E70222A5E70222A3E70022A1E7102296
:103A68009FE710229DE702229BE7002299E7102298
:103A780097E7102295E7022293E7002291E71022A8
:103A88008FE710228DE702228BE7002289E71022B8
:103A980087E7102285E7082A00F2B280DFE802F003
:103AA80008B03BB038B0B0B005004FF4004004E0B7
:103AB800FFF738F9002800F0A580626A1E4B33F83A
:103AC8001220B0FBF2F3656805EB4501994200F25C
:103AD8009B80B3EB053F00F29980002633463146C0
:103AE800FCF796FB090241EA106100026B08C01856
:103AF8002A46334641F10001FCF78AFBA0F54072E3
:103B08000E4B9A4200F284802368D860304665E004
:103B1800FEF7C2FFCEE70A48CFE700BFF369FFCF41
:103B28000080004000380140004400400048004048
:103B3800004C0040005000407C410008FFFC0F0092
:103B48000024F400082A65D8DFE802F00727056496
:103B58002A6464640B00354803E0FFF7E3F80028A3
:103B68005AD0626A324B33F81230B0FBF3F0626815
:103B7800530803EB4003B3FBF2F3A3F110014FF634
:103B8800EF7291424AD89AB222F00F02C3F342036D
:103B980013432268D360002020E0FFF7D5F8DEE762
:103BA800FEF77AFFDBE7214803E0FFF7BBF80028C0
:103BB80038D0626A1E4B33F81230B0FBF3F06368FA
:103BC80000EB5300B0FBF3F0A0F110024FF6EF73D7
:103BD8009A4229D8236880B2D86000200123A4F82B
:103BE8006A30A4F8683000236367A36770BDFFF7E5
:103BF800ABF8DCE7FEF750FFD9E74FF40040D8E711
:103C08000120EBE70020E9E70120E7E70120E5E7ED
:103C18000120E3E70120E1E70020DFE70120DDE7FD
:103C28000120DBE70020D9E70120D7E70024F400D2
:103C38007C410008836A13F0080F06D002685368B5
:103C480023F40043816B0B435360836A13F0010F25
:103C580006D00268536823F40033C16A0B435360EB
:103C6800836A13F0020F06D00268536823F4803386
:103C7800016B0B435360836A13F0040F06D002688C
:103C8800536823F48023416B0B435360836A13F01A
:103C9800100F06D00268936823F48053C16B0B435E
:103CA8009360836A13F0200F06D00268936823F4A8
:103CB8000053016C0B439360836A13F0400F0AD0E2
:103CC8000268536823F48013416C0B435360436CC0
:103CD800B3F5801F0BD0836A13F0800F06D00268FB
:103CE800536823F40023C16C0B4353607047026888
:103CF800536823F4C003816C0B435360EBE72DE951
:103D0800F84305460E4617469946DDF820802B688D
:103D1800DC6936EA04040CBF01240024BC4236D115
:103D2800B8F1FF3FF3D0FDF75DF9A0EB090040457E
:103D380030D8B8F1000F2FD02B681A6812F0040F92
:103D4800E5D0802EE3D0402EE1D0DA6912F0080FDA
:103D580011D1DA6912F4006FD9D04FF400621A62F7
:103D68002846FFF777FD2023C5F89030002385F813
:103D7800843003200CE008241C622846FFF76AFD03
:103D8800C5F89040002385F88430012000E0002029
:103D9800BDE8F8830320FBE70320F9E730B583B0DB
:103DA80004460023C0F89030FDF71CF90546226848
:103DB800126812F0080F10D123681B6813F0040F63
:103DC80028D12023C4F88830C4F88C300020E0665D
:103DD800206784F8840003B030BD6FF07E43009301
:103DE800034600224FF400112046FFF788FF002801
:103DF800E2D0226852E8003F23F0800342E8003115
:103E08000029F6D12023C4F88830002384F88430B0
:103E18000320E0E76FF07E4300932B4600224FF427
:103E280080012046FFF76BFF0028CAD0226852E8BD
:103E3800003F23F4907342E800310029F6D122684C
:103E480002F1080353E8003F23F00103083242E877
:103E580000310029F3D12023C4F88C30002384F8E2
:103E680084300320B7E778B310B50446D0F888301B
:103E78000BB32423C4F888302268136823F00103A5
:103E88001360A36AE3B92046FFF710FD012811D09B
:103E98002268536823F4904353602268936823F0A0
:103EA8002A0393602268136843F0010313602046D5
:103EB800FFF774FF10BD80F88430FCF75BFFD8E78C
:103EC8002046FFF7B7FEDEE701207047436E2BB9A7
:103ED8000123A0F86A30A0F86830704730B403684E
:103EE8009A68C2F342629968490F094D6B5CDB001E
:103EF800084C615C93FBF1F3A0F86A30AB5CDB0023
:103F0800A25C93FBF2F3A0F8683030BC704700BFA6
:103F18009C4100089441000890F88430012B18D087
:103F2800012380F884302423C0F8883003681A6895
:103F3800196821F00101196022F00052002343663C
:103F480001680A602022C0F8882080F8843018466A
:103F580070470220704738B590F88430012B1DD087
:103F68000446012380F884302423C0F8883003688D
:103F78001D681A6822F001021A600268936823F02B
:103F8800604319439160FFF7A1FF23681D60202358
:103F9800C4F88830002084F8840038BD0220FCE78B
:103FA80038B590F88430012B1DD00446012380F8E1
:103FB80084302423C0F8883003681D681A6822F00A
:103FC80001021A600268936823F0606319439160E4
:103FD800FFF77CFF23681D602023C4F88830002089
:103FE80084F8840038BD0220FCE7B0F8403023F4A0
:103FF8007E535B045B0CA0F840300020704782B011
:10400800034602A800E906000122A3F84020002088
:10401800A3F84000A3F84400A3F8500002B070478A
:1040280002440346934200D1704703F8011BF9E7A5
:1040380070B50D4D0D4C641BA4100026A64209D185
:104048000B4D0C4C00F07EF8641BA4100026A64211
:1040580005D170BD55F8043B98470136EEE755F891
:10406800043B98470136F2E7AC410008AC41000830
:10407800AC410008B441000870477047024B13B1C7
:10408800024800F005B8704700000000A54000088D
:10409800002301461A46184600F014B838B5074DF3
:1040A800074C641BA4101CB9BDE8384000F050B898
:1040B800013C55F824309847F5E700BFB4410008A3
:1040C800B84100082DE9F047DFF86CA00646DAF899
:1040D800000098460F469146FFF7CEFF174B1C6825
:1040E8000CB9174C1C606568DAF800001F2D05DD57
:1040F800FFF7C3FF4FF0FF30BDE8F0879EB104EB38
:1041080085010122C1F88890D4F88831AA40134368
:10411800C4F88831022EC1F8088102BFD4F88C3166
:104128001343C4F88C316B1C0235636044F8257066
:10413800FFF7A3FF0020DFE70C000020BC060020EB
:10414800C0060020F8B500BFF8BC08BC9E46704702
:0C415800F8B500BFF8BC08BC9E467047DC
:104164000000000001020304000000000000000041
:104174000102030406070809010002000400060006
:1041840008000A000C00100020004000800000011C
:1041940008040204080101010101010307010000F0
:0841A400A4C0FF7F0100000030
:0841AC0085400008FD01000838
:0441B400D901000825
:1041B8000024F4000100000010000000B8060020F0
:0400000508000F11CF
:00000001FF
