:020000040800F2
:1000000000000220B92D0008B92F0008C12F0008F8
:10001000C32F0008C52F0008C72F000800000000EC
:10002000000000000000000000000000C92F0008D0
:10003000CB2F000800000000CD2F0008CF2F0008B4
:100040002D2E00082D2E00082D2E00082D2E000824
:100050002D2E00082D2E00082D2E00082D2E000814
:100060002D2E00082D2E00082D2E0008D92F000857
:10007000E92F0008F92F000809300008193000089E
:100080002D2E00082D2E00082D2E00082D2E0008E4
:10009000493000082D2E00082D2E00082D2E0008B6
:1000A0002D2E0008593000082D2E00082D2E000896
:1000B0002D2E00082D2E00082D2E00082D2E0008B4
:1000C0002D2E00082D2E00082D2E00082D2E0008A4
:1000D0002D2E000829300008393000082D2E000888
:1000E0002D2E00082D2E00082D2E00082D2E000884
:1000F0002D2E00082D2E00082D2E00082D2E000874
:100100002D2E00082D2E00082D2E00082D2E000863
:100110002D2E00082D2E00086930000879300008C7
:100120002D2E00082D2E00082D2E00082D2E000843
:100130002D2E00082D2E00082D2E00082D2E000833
:100140002D2E00082D2E00082D2E00082D2E000823
:10015000BD0F00202D2E00082D2E00082D2E00088A
:100160002D2E00082D2E00082D2E00082D2E000803
:100170002D2E00082D2E00082D2E00082D2E0008F3
:100180002D2E00082D2E00082D2E00082D2E0008E3
:100190002D2E0008000000002D2E00082D2E000836
:1001A0002D2E00082D2E00082D2E00082D2E0008C3
:1001B0002D2E00082D2E00082D2E00082D2E0008B3
:1001C0002D2E00082D2E00082D2E00082D2E0008A3
:0801D0002D2E00082D2E000861
:1001D80010B5054C237833B9044B13B10448AFF379
:1001E80000800123237010BD0810002000000000CB
:1001F800D8D6000808B5034B1BB103490348AFF331
:10020800008008BD000000000C100020D8D60008AF
:1002180081F0004102E000BF83F0004330B54FEAAF
:1002280041044FEA430594EA050F08BF90EA020F1C
:100238001FBF54EA000C55EA020C7FEA645C7FEAAF
:10024800655C00F0E2804FEA5454D4EB5555B8BFD2
:100258006D420CDD2C4480EA020281EA030382EA43
:10026800000083EA010180EA020281EA0303362DD5
:1002780088BF30BD11F0004F4FEA01314FF4801CA8
:100288004CEA113102D0404261EB410113F0004FBA
:100298004FEA03334CEA133302D0524263EB430371
:1002A80094EA050F00F0A780A4F10104D5F1200E0F
:1002B8000DDB02FA0EFC22FA05F2801841F100016A
:1002C80003FA0EF2801843FA05F359410EE0A5F13E
:1002D80020050EF1200E012A03FA0EFC28BF4CF06F
:1002E800020C43FA05F3C01851EBE37101F0004525
:1002F80007D54FF0000EDCF1000C7EEB00006EEB32
:100308000101B1F5801F1BD3B1F5001F0CD34908BB
:100318005FEA30004FEA3C0C04F101044FEA445212
:1003280012F5800F80F09A80BCF1004F08BF5FEA99
:10033800500C50F1000041EB045141EA050130BD79
:100348005FEA4C0C404141EB0101013C28BFB1F58B
:10035800801FE9D291F0000F04BF01460020B1FAD6
:1003680081F308BF2033A3F10B03B3F120020CDAA9
:100378000C3208DD02F1140CC2F10C0201FA0CF087
:1003880021FA02F10CE002F11402D8BFC2F1200CEC
:1003980001FA02F120FA0CFCDCBF41EA0C019040A2
:1003A800E41AA2BF01EB0451294330BD6FEA0404EB
:1003B8001F3C1CDA0C340EDC04F11404C4F12002D6
:1003C80020FA04F001FA02F340EA030021FA04F3E8
:1003D80045EA030130BDC4F10C04C4F1200220FA3F
:1003E80002F001FA04F340EA0300294630BD21FA7D
:1003F80004F0294630BD94F0000F83F4801306BF43
:1004080081F480110134013D4EE77FEA645C18BF36
:100418007FEA655C29D094EA050F08BF90EA020FCD
:1004280005D054EA000C04BF1946104630BD91EAC5
:10043800030F1EBF0021002030BD5FEA545C05D1C8
:100448004000494128BF41F0004130BD14F5800407
:100458003CBF01F5801130BD01F0004545F0FE417B
:1004680041F470014FF0000030BD7FEA645C1ABFB0
:10047800194610467FEA655C1CBF0B46024650EAE7
:10048800013406BF52EA033591EA030F41F4002113
:1004980030BD00BF90F0000F04BF0021704730B599
:1004A8004FF4806404F132044FF000054FF000016E
:1004B80050E700BF90F0000F04BF0021704730B52F
:1004C8004FF4806404F1320410F0004548BF404204
:1004D8004FF000013EE700BF42004FEAE2014FEA59
:1004E80031014FEA02701FBF12F07F4393F07F4F34
:1004F80081F06051704732F07F4208BF704793F037
:100508007F4F04BF41F40021704730B54FF4607449
:1005180001F0004521F000411CE700BF50EA01024C
:1005280008BF704730B54FF000050AE050EA0102F5
:1005380008BF704730B511F0004502D5404261EB65
:1005480041014FF4806404F132045FEA915C3FF4A6
:10055800D8AE4FF003025FEADC0C18BF03325FEA43
:10056800DC0C18BF033202EBDC02C2F1200300FAF4
:1005780003FC20FA02F001FA03FE40EA0E0021FA19
:1005880002F11444BDE600BF70B54FF0FF0C4CF407
:10059800E06C1CEA11541DBF1CEA135594EA0C0FB9
:1005A80095EA0C0F00F0DEF82C4481EA030621EAF4
:1005B8004C5123EA4C5350EA013518BF52EA03352F
:1005C80041F4801143F4801338D0A0FB02CE4FF0E1
:1005D8000005E1FB02E506F00042E0FB03E54FF011
:1005E8000006E1FB03569CF0000F18BF4EF0010E09
:1005F800A4F1FF04B6F5007F64F5407404D25FEA05
:100608004E0E6D4146EB060642EAC62141EA5551B7
:100618004FEAC52040EA5E504FEACE2EB4F1FD0CF9
:1006280088BFBCF5E06F1ED8BEF1004F08BF5FEA77
:10063800500E50F1000041EB045170BD06F0004629
:1006480046EA010140EA020081EA0301B4EB5C04D6
:10065800C2BFD4EB0C0541EA045170BD41F48011CE
:100668004FF0000E013C00F3AB8014F1360FDEBFF3
:10067800002001F0004170BDC4F10004203C35DACF
:100688000C341BDC04F11404C4F1200500FA05F352
:1006980020FA04F001FA05F240EA020001F00042F3
:1006A80021F0004110EBD37021FA04F642EB060169
:1006B8005EEA430E08BF20EAD37070BDC4F10C0493
:1006C800C4F1200500FA04F320FA05F001FA04F257
:1006D80040EA020001F0004110EBD37041F1000143
:1006E8005EEA430E08BF20EAD37070BDC4F120054E
:1006F80000FA05F24EEA020E20FA04F301FA05F2B6
:1007080043EA020321FA04F001F0004121FA04F25D
:1007180020EA020000EBD3705EEA430E08BF20EA2D
:10072800D37070BD94F0000F0FD101F00046400067
:1007380041EB010111F4801F08BF013CF7D041EAE9
:10074800060195F0000F18BF704703F000465200ED
:1007580043EB030313F4801F08BF013DF7D043EABE
:100768000603704794EA0C0F0CEA135518BF95EA74
:100778000C0F0CD050EA410618BF52EA4306D1D1FB
:1007880081EA030101F000414FF0000070BD50EA1A
:10079800410606BF1046194652EA430619D094EAA4
:1007A8000C0F02D150EA013613D195EA0C0F05D18E
:1007B80052EA03361CBF104619460AD181EA0301E2
:1007C80001F0004141F0FE4141F470014FF000009A
:1007D80070BD41F0FE4141F4780170BD70B54FF035
:1007E800FF0C4CF4E06C1CEA11541DBF1CEA1355B5
:1007F80094EA0C0F95EA0C0F00F0A7F8A4EB050497
:1008080081EA030E52EA03354FEA013100F088808D
:100818004FEA03334FF0805545EA131343EA126356
:100828004FEA022245EA111545EA10654FEA00260B
:100838000EF000419D4208BF964244F1FD0404F5C4
:10084800407402D25B084FEA3202B61A65EB030520
:100858005B084FEA32024FF480104FF4002CB6EBDD
:10086800020E75EB030E22BFB61A754640EA0C005D
:100878005B084FEA3202B6EB020E75EB030E22BF9D
:10088800B61A754640EA5C005B084FEA3202B6EBDE
:10089800020E75EB030E22BFB61A754640EA9C009D
:1008A8005B084FEA3202B6EB020E75EB030E22BF6D
:1008B800B61A754640EADC0055EA060E18D04FEA2B
:1008C800051545EA16754FEA06164FEAC30343EACB
:1008D80052734FEAC2025FEA1C1CC0D111F4801F98
:1008E8000BD141EA00014FF000004FF0004CB6E791
:1008F80011F4801F04BF01430020B4F1FD0C88BF30
:10090800BCF5E06F3FF6AFAEB5EB030C04BFB6EB3A
:10091800020C5FEA500C50F1000041EB045170BD2D
:100928000EF0004E4EEA113114EB5C04C2BFD4EB5A
:100938000C0541EA045170BD41F480114FF0000EDE
:10094800013C90E645EA060E8DE60CEA135594EA5A
:100958000C0F08BF95EA0C0F3FF43BAF94EA0C0F5D
:100968000AD150EA01347FF434AF95EA0C0F7FF4D2
:1009780025AF104619462CE795EA0C0F06D152EA26
:1009880003353FF4FDAE1046194622E750EA41060A
:1009980018BF52EA43067FF4C5AE50EA41047FF41B
:1009A8000DAF52EA43057FF4EBAE12E74FEA41027E
:1009B800B2F1E04324BFB3F5001CDCF1FE5C0DD9B5
:1009C80001F0004C4FEAC0024CEA5070B2F1004FFF
:1009D80040EB830008BF20F00100704711F0804F02
:1009E80021D113F13872BCBF01F00040704741F4C7
:1009F80080114FEA5252C2F11802C2F1200C10FACB
:100A08000CF320FA02F018BF40F001004FEAC123AE
:100A18004FEAD32303FA0CFC40EA0C0023FA02F352
:100A28004FEA4303CCE77FEA625307D150EA013328
:100A38001EBF4FF0FE4040F44000704701F00040F8
:100A480040F0FE4040F40000704700BF53B94AB977
:100A5800002908BF00281CBF4FF0FF314FF0FF30BE
:100A680000F06AB9ADF1080C6DE904CE00F006F8A3
:100A7800DDF804E0DDE9022304B070472DE9F04712
:100A8800089D0C46002B4ED194468C458646B2FAFA
:100A980082F262D94AB1C2F12003914020FA03F3ED
:100AA8000CFA02FC194300FA02FE4FEA1C471FFA2F
:100AB8008CF6B1FBF7F44FEA1E4307FB141143EA27
:100AC800014304FB06F199420AD91CEB030304F124
:100AD800FF3080F01281994240F20F81023C63445A
:100AE800591A1FFA8EF3B1FBF7F007FB101143EA0E
:100AF800014300FB06F69E420AD91CEB030300F1F2
:100B0800FF3180F0FC809E4240F2F9806344023855
:100B18009B1B40EA044000211DB1D3400022C5E9D7
:100B28000032BDE8F0878B4205D90DB1C5E9000157
:100B380000210846F5E7B3FA83F1002946D1A3421C
:100B480002D39042C0F0F080861A64EB03030120C0
:100B5800002DE6D0C5E90063E3E7002A40F0908065
:100B6800A1EB0C044FEA1C481FFA8CF70121B4FBD7
:100B7800F8F64FEA1E4308FB164443EA044307FB12
:100B880006F0984208D91CEB030306F1FF3402D2A1
:100B9800984200F2CD8026461C1A1FFA8EF3B4FB49
:100BA800F8F008FB104443EA044300FB07F79F42B0
:100BB80008D91CEB030300F1FF3402D29F4200F274
:100BC800B0802046DB1B40EA0640A5E7C1F12006BD
:100BD8008B4022FA06F71F4320FA06FC04FA01F3B9
:100BE80043EA0C03F44000FA01F8380C4FEA1349C1
:100BF800B4FBF0FE1FFA87FC00FB1E4449EA0444DC
:100C08000EFB0CF9A14502FA01F20AD93C190EF1C2
:100C1800FF3A80F08480A14540F28180AEF1020E57
:100C28003C44A4EB09041FFA83F9B4FBF0F300FB7E
:100C3800134449EA044403FB0CFCA44507D93C19B6
:100C480003F1FF3067D2A44565D9023B3C4443EA2F
:100C58000E40A0FB0293A4EB0C049C42CE469C469B
:100C680051D34ED055B1B8EB0E0364EB0C0404FA23
:100C780006F6CB401E43CC40C5E90064002150E78E
:100C8800C2F1200320FA03F10CFA02FC24FA03F360
:100C980094400C434FEA1C4800FA02FE1FFA8CF7F6
:100CA800B3FBF8F008FB1031230C43EA014300FBC7
:100CB80007F1994208D91CEB030300F1FF362CD247
:100CC80099422AD9023863445B1AA4B2B3FBF8F1FB
:100CD80008FB113344EA034401FB07F3A34208D994
:100CE8001CEB040401F1FF3613D2A34211D90239D7
:100CF8006444E41A41EA004139E70446F0E608464C
:100D080006E7C845AED2B9EB020E63EB070C013813
:100D1800A8E73146EDE7034699E73046D4E7D646DB
:100D28007FE7634402384DE70646234608460FE747
:100D3800023E634430E700BF704700BF08B5002299
:100D48000121024805F0A0F908BD00BF00040048D1
:100D580008B501221146024805F096F908BD00BF02
:100D68000004004800B587B08DF80F0000238DF807
:100D780017304FF0FF33009301230DF117020DF1E7
:100D88000F01044808F09FF89DF8170007B05DF8B8
:100D980004FB00BF0C14002008B5FFF7CFFF0620A6
:100DA800FFF7E0FFFFF7D4FF08BD000010B5FFF71D
:100DB800C5FF0520FFF7D6FF054CFF20FFF7D2FF40
:100DC80010F0010F01D0013CF7D1FFF7C1FF10BDB2
:100DD800A086010070B504460E461546FFF7E6FFEB
:100DE800FFF7DAFFFFF7AAFF0220FFF7BBFFC4F304
:100DF8000740FFF7B7FFC4F30720FFF7B3FFE0B2E0
:100E0800FFF7B0FF002404E0305DFFF7ABFF0134CB
:100E1800A4B2AC42F8D3FFF79BFF70BD10B50446EF
:100E2800FFF7C4FFFFF7B8FFFFF788FF2020FFF7A1
:100E380099FFC4F30740FFF795FFC4F30720FFF7B6
:100E480091FFE0B2FFF78EFFFFF782FF10BD70B58C
:100E580004460E461546FFF7A9FFFFF76FFF03206C
:100E6800FFF780FFC4F30740FFF77CFFC4F30720B8
:100E7800FFF778FFE0B2FFF775FF002404E0FF20DA
:100E8800FFF770FF30550134AC42F8D3FFF760FF2D
:100E980070BD000010B58CB0002409940A940B941E
:100EA8002022214601A80CF047FA36484FF0A0430B
:100EB80003604FF4403343608460C46004610123DD
:100EC80043610422826104774477026280F82440F7
:100ED8004FF4D462C2624FF48062026380F8383003
:100EE8004FF48053C36380F8404003F0D7FC0028D8
:100EF80035D10023099309A9224804F077FC00287A
:100F080030D1214B019306230293012303937F23BE
:100F18000493042305930023069301A9194803F0B9
:100F280013FF10BB194B01930C23029301A9154819
:100F380003F00AFFE0B9164B01931223029301A9AB
:100F4800104803F001FFB0B9124B01931823029324
:100F580001A90C4803F0F8FE80B90CB010BD01F0EF
:100F6800B1FDC6E701F0AEFDCBE701F0ABFDD9E777
:100F780001F0A8FDDFE701F0A5FDE5E701F0A2FD1E
:100F8800EBE700BFD01100200800900C1000C01043
:100F9800020030040400600800B589B02022002156
:100FA80068460CF0C9F91B481B4B03604FF44033EB
:100FB800436000238360C36003614361042282614C
:100FC800037743770122026280F82430C362036307
:100FD80080F83830C36380F8403003F05FFC98B97C
:100FE8000E4B009306230193052302937F2303935B
:100FF80004230493002305936946064803F0A4FEDE
:1010080028B909B05DF804FB01F05CFDE8E701F0E0
:1010180059FDF6E76411002000010050001060320D
:1010280010B58CB0002409940A940B942022214610
:1010380001A80CF081F91F481F4B03604FF440339F
:1010480043608460C460046144610423836104775D
:1010580044770123036280F82440C462046380F863
:101068003840C46380F8404003F018FCC8B9002336
:10107800099309A90F4804F0B9FBA8B90F4B0193CC
:1010880006230293052303937F23049304230593E4
:101098000023069301A9074803F056FE38B90CB09F
:1010A80010BD01F00FFDE2E701F00CFDE6E701F0ED
:1010B80009FDF4E7F8100020000400500200300495
:1010C80000B589B02022002168460CF035F91B488C
:1010D8001B4B03604FF44033436000238360C360BD
:1010E800036143610422826103774377012202622C
:1010F80080F82430C362036380F83830C36380F813
:10110800403003F0CBFB98B90E4B009306230193B4
:10111800072302937F230393042304930023059357
:101128006946064803F010FE28B909B05DF804FBCB
:1011380001F0C8FCE8E701F0C5FCF6E78C100020D8
:10114800000600501000C09030B5A3B0044600213E
:101158001D911E911F9120912191542208A80CF0F5
:10116800EBF82368B3F1A04F0CD0724A93425BD0DE
:10117800714A934200F08B80704A934200F0BA8023
:1011880023B030BD4FF4004308934FF00053199338
:1011980008A807F05BFB002835D1694A13680133BA
:1011A8001360012B32D0674BDA6C42F00102DA642B
:1011B800DB6C03F001030293029B0F231D930323AF
:1011C8001E9300251F951DA94FF0904004F06CFE5A
:1011D8005D485E4B0360052343608560C5608023DE
:1011E80003614FF4807343614FF48063836120236C
:1011F800C3614FF40053036204F0C2FC88B9524B38
:1012080063659C62BCE701F05DFCC6E74D4BDA6C98
:1012180042F40052DA64DB6C03F400530193019B3F
:10122800C1E701F04FFCEAE74FF4004308934FF0A1
:101238000053199308A807F009FBD0B9404A13686E
:1012480001331360012B17D03E4BDA6C42F00202D7
:10125800DA64DB6C03F002030493049B04231D93FC
:1012680003231E9300231F931DA9394804F01CFE75
:1012780086E701F027FCE1E7324BDA6C42F40052D2
:10128800DA64DB6C03F400530393039BDCE74FF44D
:10129800803308934FF000431A9308A807F0D6FA52
:1012A800D0B92C4A136801331360012B17D0254B92
:1012B800DA6C42F00202DA64DB6C03F00203069394
:1012C800069B02231D9303231E9300231F931DA92E
:1012D8001F4804F0E9FD53E701F0F4FBE1E7194B7F
:1012E800DA6C42F48042DA64DB6C03F480430593E1
:1012F800059BDCE74FF4803308934FF000431A93C3
:1013080008A807F0A3FA88B9124A136801331360D2
:10131800012B7FF435AF0B4BDA6C42F48042DA6470
:10132800DB6C03F480430793079B29E701F0CAFBB2
:10133800EAE700BF0001005000040050000600501A
:1013480028100020001002402C1000200800024045
:10135800000400482410002000B583B01E4B9A6C8E
:1013680042F004029A649A6C02F004020092009A15
:101378009A6C42F001029A649B6C03F0010301939A
:10138800019B002205210B2004F06EFB0B2004F0CA
:101398007BFB002211460C2004F066FB0C2004F0B5
:1013A80073FB002205210D2004F05EFB0D2004F0E4
:1013B8006BFB002205210E2004F056FB0E2004F0E2
:1013C80063FB002205210F2004F04EFB0F2004F0E0
:1013D8005BFB03B05DF804FB00100240814203DCB4
:1013E800824203DB00B270470846704710467047D8
:1013F800034B83FB0023A3EBE07000B200027047AD
:101408005655555530B583B0384B1C8B5B8B0191C5
:1014180091B18AB1DDED017AB8EE677A07EE902ACC
:10142800F8EEE77A02283DD003282DD0012808D00D
:101438002F4B00221A7002E02D4B00221A7003B0C5
:1014480030BDC7EE876ADFED2B7A66EEA77AB6EE77
:10145800007A77EE877A254B9A8A12B28821FDEEB8
:10146800E77A17EE900AFFF7B9FF0446FFF7C0FFC7
:101478004FF4E165204B1C80204B1D80204B1860E9
:101488001B4B01221A70DAE7184C608BE28A12B201
:10149800882100B2FFF7A2FF0546248B24B2FFF78C
:1014A800A7FFE7E737EEC77AC7EE276AF5EEC06A07
:1014B800F1EE10FA17D4DFED0F7A66EEA76AF6EEB2
:1014C800007A76EEA76A094CE28A12B28821FDEE0C
:1014D800E67A17EE900AFFF781FF0546248B24B2BF
:1014E800FFF786FFC6E7DFED076AE4E70C00002098
:1014F800781200200080D4460A000020080000204E
:10150800741200200000000008B5C84BD3ED077A1C
:10151800F8EE677ADFEDC66A67EEA67ADFEDC55AA0
:1015280087EEA56AB2EE0E7A26EE076AD3ED037A45
:10153800F8EE677A67EEA67AC7EEA56A66EE876A5E
:10154800BD4B1B78DBB2012B21D0DFEDBC7ABC4B45
:101558009B79DBB2012B1DD05AB2002A55D0023B31
:10156800DBB2012B54D8B14B93ED047AB8EE477A2D
:10157800DFEDAF5A27EE257A9FEDAE5AC7EE055A32
:1015880077EEE57ADFEDAF5A87EEA57A17E0DFED63
:10159800AE7ADCE7A54BD3ED047AF8EE677A9FEDD7
:1015A800A47A67EE877ADFEDA35A87EEA57ADFED96
:1015B800A77A77EEC77ADFEDA35A87EEA57A9E4B16
:1015C8001B78DBB2012B26D0DFED9C7A9C4B9B79F4
:1015D800DBB2012B22D05AB2B2B3023BDBB2012BF1
:1015E80035D8924BD3ED015AF8EE655A9FED905AD3
:1015F80065EE855ADFED8F4A85EEA45A77EEC55A17
:101608009FED905AC5EE857A23E09FED917AD6E753
:101618009FED8F7AD3E7DFED8C7AD7E7834BD3ED55
:10162800017AF8EE677ADFED825A67EEA57ADFED88
:10163800815A87EEA55ADFED855A75EEC55A9FED9A
:10164800815AC5EE857A04E0DFED817A01E0DFEDAD
:10165800807A804BD3ED005A36EE656AB0EEC65AF2
:10166800F0EE004AB4EEE45AF1EE10FA10DCF6EEB1
:10167800004AB4EEE45AF1EE10FA34DCDFED764AB3
:10168800B4EEE45AF1EE10FA30DDB0EE645A01E03F
:101698009FED725A26EE056A35EE866A6D4B83ED2C
:1016A800006A6F4B83ED006A6E4B93ED006A76EE2D
:1016B800C66AF0EEE65AB0EE005AF4EEC55AF1EEFC
:1016C80010FA16DCB6EE005AF4EEC55AF1EE10FA2E
:1016D8003ADC9FED615AF4EEC55AF1EE10FA36DDA8
:1016E800F0EE455A07E09FED605AD3E79FED675A41
:1016F800D0E7DFED5A5A66EEA56A76EE266A594BB0
:10170800C3ED006A594BC3ED006A594BD3ED006A2B
:1017180037EE667AB0EEC76AF0EE005AB4EEE56AC4
:10172800F1EE10FA16DCF6EE005AB4EEE56AF1EEC8
:1017380010FA3ADCDFED485AB4EEE56AF1EE10FA39
:1017480036DDB0EE656A07E0DFED475AD3E7DFED37
:101758004F5AD0E79FED416A27EE067A36EE877A30
:10176800434B83ED007A434B83ED007A424B93ED74
:10177800007A77EEC77AF0EEE76AB0EE006AF4EE28
:10178800C66AF1EE10FA16DCB6EE006AF4EEC66A26
:10179800F1EE10FA47DC9FED306AF4EEC66AF1EE1E
:1017A80010FA75DDF0EE466A07E09FED2F6AD3E781
:1017B8009FED366AD0E7DFED296A67EEA67A77EE05
:1017C800277A2D4BC3ED007A2C4BC3ED007A294BB9
:1017D800D3ED007AF0EEE77A9FED1F7AF4EEC77A40
:1017E800F1EE10FA01D500221A60244BD3ED007AED
:1017F800F0EEE77A9FED187AF4EEC77AF1EE10FA78
:1018080001D500221A6001F019FD1D4B83ED000A75
:1018180001F030FD1B4B83ED000A01F049FD1A4B26
:1018280083ED000A08BDDFED106AC6E7A8120020A4
:101838003333534000F07F4579120020D7A3D03FBF
:10184800C8120020295C0F3EB29DCF3F3333D33FEF
:1018580000000000E0120020CDCCCC3D3333333FF4
:1018680094120020DC1200209A99993E90120020D0
:10187800D81200208C120020D412002088120020D8
:1018880084120020801200207C1200208FC2F53CB8
:101898005FED026A91E700BF014B01221A80704791
:1018A800C812002019490023CB71194A1268D2F8CE
:1018B800980340F00300C2F89803D2F8980340F068
:1018C800C000C2F898038B718B80124A136088217C
:1018D800118391825183D1820F4A13600F4A13609A
:1018E8000F4A13600F4A13600F4A13600F4B104AD8
:1018F8005A604FF07E529A600E4B0F4A1A600F4B97
:101908000F4A1A600F4B104A1A607047C81200201D
:10191800F81200200C0000203800001034000010DD
:101928003000001024000010200000109C1200203D
:101938000000A040EC1200200000A042E8120020A5
:1019480000003842E41200209A99314138B5164A0D
:101958000023D37193711372144A1370144A1370CD
:10196800144A1360536093608824148394825483C8
:10197800D482114D2B68D3F8982342F00302C3F8A0
:101988009823D3F8982342F0C002C3F8982346F668
:101998004022C3F89C200BF0B3FE2B68C3F8A800C4
:1019A800C3F81C4238BD00BFC81200201600001042
:1019B800791200200C000020F81200201A4BD3EDF9
:1019C800007AF5EEC07AF1EE10FA0ED4174BDB79F7
:1019D8003BB1164B5B7A23B1144B1B889BB2032B8C
:1019E80006D0134B00221A707047DFED127AEDE72C
:1019F8000F4B1B78DBB2012B0AD09FED0F7AF4EE68
:101A0800C77AF1EE10FA02DB094B01221A7070470F
:101A18009FED0A7AF4EEC77AF1EE10FAF7D8044B84
:101A280000221A70704700BF88120020C8120020D8
:101A38007912002000000000CDCC4C4033333340F5
:101A48003B4BDB79B3B13A4B5B7A002B37D0394B40
:101A58001B78DBB2012B34D0354B9B79DBB2022BE0
:101A680031D0334B9B79DBB2032B01D0C02202E08B
:101A7800402200E000222E4BDB79DBB22E490978A8
:101A88008B4222D0C02A3AD0402A41D02B4B196829
:101A9800D1F8983343F0C003C1F89833244BD87970
:101AA80025490870587A264908709979254B197084
:101AB800204B1978244B1970244B1A607047002268
:101AC800D9E7C022D7E74022D5E7194B5B7ADBB2CA
:101AD8001B4909788B42D5D1154B9B79DBB2194943
:101AE80009788B42CED1184B1978124B1B78DBB290
:101AF8009942C7D1154B1B689342C3D1DEE70F4B00
:101B08001968D1F8943343F0C003C1F89433C5E79A
:101B18000A4B1B68D3F8941341F04001C3F894139F
:101B2800D3F8981341F08001C3F89813B6E700BFC3
:101B3800C81200207912002007000020F8120020A7
:101B480006000020050000200400002000000020FE
:101B580008B5FFF7FBFE044B9B889BB213B9024BF9
:101B680001221A8008BD00BFC812002008B5FFF77F
:101B7800EDFE0E4A138801339BB21380C82B0BD994
:101B88001346C8221A800A4B9B889BB223B9084B7C
:101B98005B7ADBB2012B00D008BD0023034A138017
:101BA800034A02211180034A1370F5E762120020EC
:101BB800C8120020981200207B4B1B78012B61D0A3
:101BC800022B7DD003B17047784AD371784A1268E6
:101BD800D2F8981341F00301C2F89813D2F8981379
:101BE80041F0C001C2F89813724A88219182D182CB
:101BF80071490B6071490B6071490B6071490B6049
:101C080071490B6071490B8071490B8071490B80D8
:101C18005360714BD3ED016AF2EE0E7A86EEA77A25
:101C28009FED6E6AC7EE067ADFED6D6A67EEA67AFB
:101C3800FDEEE77AC2ED027AD3ED027A9FED697A7A
:101C480067EE877A9FED687A37EE677AC7EE067A8D
:101C580067EEA67AFDEEE77AC2ED037AD368B3F5AC
:101C6800805F03DB134640F6FF72DA60514BDB6896
:101C7800002B03DB4C4B01221A7070474D4B00229E
:101C8800DA60F7E7514A138801339BB21380052BBA
:101C980099D900231380474A88211183918251835F
:101CA800D18245490B6045490B6045490B60454960
:101CB8000B6045490B6053603B4B02221A7070471A
:101CC8003A4BDB79EBB93C4A13603C4A13603C4A17
:101CD80013603C4A13603C4A1360354B1B6846F658
:101CE8004022C3F89C20C3F81C22D3F8942342F066
:101CF800C002C3F89423D3F8942342F00302C3F834
:101D080094232A4B0122DA712A4B5A689B689A421B
:101D18000ADA284B5A6804325A605A689B689A4211
:101D280002DD244B9A685A60294B1A88013292B214
:101D38001A8028490B8801339BB20B801D49888A79
:101D4800C2EB021212FA80F212B28A82CA8AC3EB7A
:101D5800031313FA82F31BB2CB828B8A9BB246F22F
:101D6800E032934200D98A82124BDB8A9BB244F25A
:101D78001052934201D90F4BDA820E4B9B8A1BB249
:101D880046F2E03293427FF41EAF0A4BDB8A1BB265
:101D980044F2105293427FF416AF044B03221A8088
:101DA800014B00221A700EE798120020C81200207A
:101DB800F81200200C000020380000103400001039
:101DC80030000010240000102000001060120020D5
:101DD8005E1200205C1200209C1200203333534016
:101DE80000F07F45295C0F3E3333D33F3C4BD3EDA6
:101DF800027AF8EE677A9FED3B6A67EE867ADFED46
:101E08003A6A87EEA67AF2EE0E7A27EE277AD3EDB3
:101E1800007AF8EE677A67EE867A87EEA66ADFEDD3
:101E2800337A77EEC67A9FED326AC7EE866AF1EEAC
:101E3800047AF4EEE76AF1EE10FA1EDDF6EE007AA7
:101E4800B4EEE77AF1EE10FA17D52A4A0023D371D7
:101E5800294B1B68D3F8941341F00301C3F894137A
:101E6800D3F8941341F0C001C3F8941393889BB23C
:101E780043F020039380042313801E4B9B8813F0A8
:101E8800200F2CD01D4A136801331360B3F5C87FA7
:101E980025DD134600221A60194B1B780A2B14D92A
:101EA800174B0B221A70134B0022DA71124B1B6866
:101EB800D3F8942342F00302C3F89423D3F894236D
:101EC80042F0C002C3F89423704701330C4A1370E0
:101ED800084A93889BB223F020039BB293807047F3
:101EE800A81200203333534000F07F453333D33FEB
:101EF800295C0F3EC8120020F8120020581200205A
:101F0800561200201E4BD3ED027AF8EE677A9FED49
:101F18001D7A67EE877ADFED1C6A87EEA67AF2EE05
:101F28000E7A67EE277A194B93ED007AB4EEE77ACA
:101F3800F1EE10FA20D8164A138801339BB21380A9
:101F4800022B1CD900231380124AD371124B1B6831
:101F5800D3F8981341F00301C3F89813D3F89813F2
:101F680041F0C001C3F8981393889BB243F008036B
:101F78009380042313807047054B00221A80704712
:101F8800A81200203333534000F07F45E8120020A8
:101F980054120020C8120020F81200203C4BD3ED48
:101FA800007AF8EE677A9FED3B7A67EE877ADFED85
:101FB8003A6A87EEA67ADFED397A77EEC77ADFEDEF
:101FC800386A87EEA67A374BD3ED007AF4EEC77AF3
:101FD800F1EE10FA04D8344B1B889BB2032B2ED099
:101FE800324B00221A80304B9B8813F0100F4ED0D2
:101FF8002F4A138801339BB21380B3F5C87F46D9A3
:10200800134600221A802B4A138801339BB213808F
:102018000A2B35D913460B221A80234B0022DA717A
:10202800254B1B68D3F8982342F00302C3F8982382
:10203800D3F8982342F0C002C3F8982370471B4A8C
:10204800138801339BB213800A2BCCD90023138049
:10205800154AD371184B1B68D3F8981341F0030144
:10206800C3F89813D3F8981341F0C001C3F8981334
:1020780093889BB243F01003938004231380B2E744
:10208800094A93889BB223F010039BB29380704750
:10209800A81200203333534000F07F453333D33F39
:1020A800295C0F3EE4120020C812002052120020C2
:1020B800501200204E120020F812002010B50446DD
:1020C80002F0A4FB2CB1042C0CD95F2C0BD95F2493
:1020D80009E00023184A1370184A1360184A126856
:1020E800D3631BE00524144B1B7833B9124B012230
:1020F8001A7000F59673114A1360104B1B681B1A6F
:10210800002B0CDC04EB840462000D4BDB68B3EBA2
:10211800440F00D313460A4A1268D36310BD084B14
:10212800DB6840F2B532934201D940F2B633044A33
:102138001268D363F2E700BF401200203C1200206F
:10214800BC14002008B5424BD3ED007A414BD3EDC7
:10215800006A9FED417AF4EEC77AF1EE10FA4DDD90
:102168009FED3E7AF4EEC77AF1EE10FA46D59FED70
:102178003A7AF4EEC76AF1EE10FA3FDD9FED377A4E
:10218800F4EEC76AF1EE10FA38D5354B93ED007AC4
:10219800B4EEE77AF1EE10FA07D9314B93ED007AF5
:1021A800B4EEE67AF1EE10FA2CD82E4B1B78092BF8
:1021B80002D801332B4A13702A4B1B78092B20D9DC
:1021C800294B01221A800022DA71284A1268D2F8B3
:1021D800981341F00301C2F89813D2F8981341F00C
:1021E800C001C2F898139A8892B242F040029A80CD
:1021F80004221A805F20FFF761FF02E0194B0022DA
:102208001A7008BD174B00221A70174B9B8813F0E1
:10221800400FD1D0124B93ED007AB1EE046A37EE3D
:10222800467AB4EEE77AF1EE10FAC5DBD3ED007A20
:1022380077EEC67AF4EEE67AF1EE10FABCDB0A4ADB
:1022480093889BB223F040039BB29380B4E700BF0E
:102258008412002080120020000020C200001643D3
:10226800EC1200204D120020C8120020F8120020A5
:1022780010EE103A0360704730B58DB001220BA9FB
:102288000020FEF7E4FD9DF82C300BB90DB030BDF1
:102298000020FEF7C3FD00248DF81440264D95ED6F
:1022A800010A6846FFF7E4FF95ED020A01A8FFF767
:1022B800DFFF224B93ED000A02A8FFF7D9FF204B5E
:1022C80093ED000A03A8FFF7D3FF1E4B93ED000A16
:1022D80004A8FFF7CDFF234626E0581C03F130027F
:1022E8006A4412F8304C03F13101694401F81C4C7E
:1022F80012F82C4C03F13501694401F81C4C12F812
:10230800284C03F13901694401F81C4C12F8244C9B
:1023180003F13D01694401F81C4C12F8202C4133AB
:102328006B4403F81C2CC3B2032BD6D9152205A97C
:102338000020FEF74FFDA9E79C120020EC120020B8
:10234800E4120020E8120020324B93ED007AF7EEF9
:10235800007AB4EE677AF1EE10FA00D0704730B523
:102368008DB00020FEF75AFD00248DF81840294D45
:1023780095ED010A01A8FFF77BFF95ED020A02A877
:10238800FFF776FF244B93ED000A03A8FFF770FFD1
:10239800224B93ED000A04A8FFF76AFF204B93ED48
:1023A800000A05A8FFF764FF234626E0581C03F13E
:1023B80030026A4412F82C4C03F13101694401F8E7
:1023C800184C12F8284C03F13501694401F8184CEF
:1023D80012F8244C03F13901694401F8184C12F839
:1023E800204C03F13D01694401F8184C12F81C2CEB
:1023F80041336B4403F8182CC3B2032BD6D91522EA
:1024080006A90020FEF7E6FC024B00221A600DB078
:1024180030BD00BF9C120020EC120020E412002006
:10242800E8120020036800EE103A704700B52DED61
:10243800048B8BB014220DEB02010120FEF707FD7F
:10244800002325E003F128020DEB020111F8142CFA
:1024580001F8182C03F12C026A4412F8142C01F824
:102468001C2C03F130026A4412F8142C01F8202CB9
:1024780003F134026A4412F8142C01F8242C03F1F5
:1024880038026A4412F8142C01F8282C0133DBB204
:10249800032BD7D904A8FFF7C5FFF0EE408A03A89D
:1024A800FFF7C0FFB0EE408A02A8FFF7BBFFF0EECF
:1024B800409A01A8FFF7B6FFB0EE409A6846FFF7CA
:1024C800B1FFF0EE407AF4EE688AF1EE10FA0ED120
:1024D800F5EEC08AF1EE10FA09DD9FED327AF4EEDE
:1024E800C78AF1EE10FA02D82F4BC3ED018AB4EE79
:1024F800488AF1EE10FA0ED1B5EEC08AF1EE10FA64
:1025080009DB9FED2A7AB4EEC78AF1EE10FA02D8F9
:10251800254B83ED028AF4EE699AF1EE10FA10D198
:10252800B2EE047AF4EEC79AF1EE10FA09DB9FEDE9
:10253800207AF4EEC79AF1EE10FA02D81D4BC3EDDB
:10254800009AB4EE499AF1EE10FA10D19FED1A7A7A
:10255800B4EEC79AF1EE10FA09DB9FED147AB4EEE7
:10256800C79AF1EE10FA02D8144B83ED009AF4EEF4
:10257800677AF1EE10FA10D1B7EE007AF4EEC77A66
:10258800F1EE10FA09DB9FED077AF4EEC77AF1EE67
:1025980010FA02D80A4BC3ED007A0BB0BDEC048BDD
:1025A8005DF804FB0000C8429C120020000048426D
:1025B80000001643EC120020CDCCCC3DE4120020E4
:1025C800E812002030B589B00024039404940594DF
:1025D80006940794174BDA6C42F02002DA64DA6C3E
:1025E80002F020020092009ADA6C42F00102DA64EA
:1025F800DA6C02F001020192019ADA6C42F00202EE
:10260800DA64DB6C03F002030293029B0A4D224654
:1026180043F62101284603F037FD43F621030393CF
:10262800012304930594069403A9284603F03CFC6F
:1026380009B030BD001002400004004802680E4B8B
:102648009A4200D0704700B583B003F528431A6E4C
:1026580042F080621A661B6E03F080630193019B4F
:1026680000220121442003F0FFF9442003F00CFA72
:1026780003B05DF804FB00BF0068014070B588B086
:1026880000230393049305930693079302681A4B58
:102698009A4201D008B070BD03F52843DA6C42F0C5
:1026A8000202DA64DA6C02F002020192019ADA6C30
:1026B80042F00102DA64DB6C03F001030293029B2F
:1026C8004FF44043039302260496032506950D24F0
:1026D800079403A9094803F0E7FB4FF440730393F9
:1026E8000496002305930695079403A94FF090409C
:1026F80003F0DAFBCEE700BF0068014000040048A1
:1027080010B5BAB00024389439943494359436947A
:1027180037942D942E942F9430943194329433948A
:102728006022214615A80AF007FE12941394149407
:10273800242221460DEB02000AF0FEFD202221464C
:1027480001A80AF0F9FDA548A54B03604460846020
:1027580003F0D2FE002840F002810C219F4803F0CC
:1027680037FF002840F0FE800A219C4803F069FFEB
:10277800002840F0FA804FF4803338934FF4006318
:10278800399338AA0121954803F096FF002840F0B4
:10279800EF8000220121914804F0C7F8002840F09A
:1027A800EA8046F640233493002135913691082378
:1027B800379334AA894803F066FF002840F0DE808A
:1027C80000212D912F91309133912DAA834804F047
:1027D800B7F9002840F0D5801023159300211691F1
:1027E80017911891012319931A911B911C911D910E
:1027F8001E914FF000631F93209121914FF00053D9
:102808002293239124914FF0004325934FF4807332
:102818002693279129912A912B912C9115AA6F48DB
:1028280004F048F9002840F0AF800023159327935F
:1028380015AA0321694804F03DF9002840F0A78053
:1028480043F22053129312AB01220021634804F093
:10285800E5F9002840F09E8012AB042200215F4871
:1028680004F0DCF9002840F0988045F2E4731293F4
:102878004FF4805313930021149112AB0822574848
:1028880004F0CCF9002840F08B80002109916423E2
:102898000A930B914FF400420C924FF480420D9230
:1028A8000E930F914FF0004310934FF08043119314
:1028B80009AA4A4804F060F9002874D109AA03213A
:1028C800464804F059F9002870D1002101910423E9
:1028D80002930823039304910591069107910891A7
:1028E80001AB01223D4804F07AFA002861D101AB1E
:1028F80040220321394804F072FA00285CD10021F3
:102908000291039101AB0222344804F068FA0028CE
:1029180055D101AB80220321304804F060FA002829
:1029280050D134AA03212D4803F0ADFE00284CD124
:102938002DAA0321294804F003F9002848D14FF4AF
:102948008873129312AB01220321244804F066F91C
:10295800002840D12148FFF791FE3AB010BD00F0A1
:10296800B1F8FAE600F0AEF8FEE600F0ABF802E7E0
:1029780000F0A8F80DE700F0A5F812E700F0A2F8BB
:102988001EE700F09FF827E700F09CF84DE700F0FD
:1029980099F855E700F096F85EE700F093F864E7D9
:1029A80000F090F871E700F08DF887E700F08AF8FA
:1029B8008BE700F087F89AE700F084F89FE700F0CB
:1029C80081F8A6E700F07EF8ABE700F07BF8AFE708
:1029D80000F078F8B3E700F075F8BBE7F8120020CC
:1029E8000068014008B50848084B036003234360AA
:1029F8004FF47A73C360836004F027FA00B908BD06
:102A080000F060F8FBE700BFF4130020003000403E
:102A180010B504460268234B9A4208D02268224B1C
:102A28009A421AD02268214B9A4237D010BD204AC8
:102A380013889BB201339BB213801E4A13889BB242
:102A480001339BB213801C4A13889BB201339BB29B
:102A580013801A4804F02FFAE0E70AF045FEFFF762
:102A6800C5F9FFF76FFBFFF74DFAFFF797FAFEF787
:102A7800A5FF0AF03DFE0AF03FFEFEF7E1FF01F078
:102A880029FC0F4A13780133DBB21370032BC9D921
:102A9800134600221A7001F0DFFBC3E7FEF734FD8E
:102AA800C4E700BF0010004000140040004401408B
:102AB8000A1400200814002006140020F413002033
:102AC8000414002072B6FEE700B595B03822002144
:102AD80006A80AF031FC00200190029003900490AF
:102AE800059005F003FA292306934FF480330793E2
:102AF80001230B930C9302230D9303220E920522BC
:102B08000F9244221092119308221292139306A84E
:102B180005F0A6FA90B90F2301930323029300232B
:102B280003930493059304210DEB010005F04EFD7A
:102B380030B905F071FE15B05DF804FBFFF7C2FF70
:102B4800FFF7C0FF08B501F045FEFFF7BDFFFFF72F
:102B580039FDFEF701FCFEF79DF9FEF7B1FAFFF724
:102B6800CFFD00F0CBF800F00BFD01F091FC01F077
:102B7800C3FCFEF711FAFEF753FA09F03BFE00F02A
:102B880001FC00F029FC00F051FCFFF72BFF344B4F
:102B980000221A800821334806F092FF5F20FFF7D1
:102BA8008DFA314806F078FC304806F075FC30485C
:102BB80006F072FC00F05AF900F06EF8FEF772FEAB
:102BC800FFF75AFBFFF732FC01F0E8FA0122202157
:102BD800284803F059FA642001F01EFE264C7F2194
:102BE800204602F0B5FD7F21244802F0B1FD7F2187
:102BF800234802F0ADFD7F21224802F0A9FD0422FE
:102C08002149204602F098FC204C4FF40031204620
:102C180004F001F94FF48011204604F0FCF8226812
:102C2800D2F88C3043F01003C2F88C3001E001F088
:102C380051FB174B1B889BB2312BF8D9144B002240
:102C48001A8000F023F9134B1B889BB2B3F5FA7F67
:102C5800EDD3104B00221A80FFF776FBE7E700BFA1
:102C6800C8120020BC1400205415002008150020AC
:102C78007014002000040048D011002064110020C6
:102C8800F81000208C100020F0120020F81200200C
:102C9800061400200A14002000230C4A13600C4A72
:102CA80013600C4A13600C4A13600C4A13600C4AF8
:102CB80013600C4A13600C4A13600C4A13600C4AE8
:102CC80013700C4A13600C4A1370704738000010D8
:102CD8003400001030000010240000102000001004
:102CE8001C000010180000102C0000102800001014
:102CF80016000010100000100C00001008B5104855
:102D0800104B03604FF482734360002383604FF4D9
:102D1800E062C260036143614FF40072826118226D
:102D2800C2610362436283620722C26203630823AB
:102D3800436306F054F800B908BDFFF7C3FEFBE78C
:102D48000C1400200030014000B589B00023039323
:102D580004930593069307930268144B9A4202D092
:102D680009B05DF804FB03F560431A6E42F4805223
:102D78001A661A6E02F480520192019ADA6C42F0D5
:102D88000102DA64DB6C03F001030293029BE02387
:102D9800039302230493032306930523079303A9AC
:102DA8004FF0904003F080F8DAE700BF00300140B0
:102DB8001348854600F064F912481349134A002362
:102DC80002E0D458C4500433C4188C42F9D3104AD2
:102DD800104C002301E013600432A242FBD30E48DA
:102DE8000E490F4A002302E0D458C4500433C418D3
:102DF8008C42F9D30AF0A8FAFFF7A4FEFEE7000018
:102E0800000002200000002074040020A8D7000859
:102E180008100020E47C002078040020081000201E
:102E28001CDC0008FEE7B0FBF1F000F00100704781
:102E380010B582B001900C4C9DF804204FF400614D
:102E4800204603F021F99DF805204FF480512046D3
:102E580003F01AF99DF806204FF40051204603F0BC
:102E680013F902B010BD00BF0004004800B583B0DC
:102E780000238DF8043001228DF805208DF80630E6
:102E88000198FFF7D5FF03B05DF804FB30B589B0B2
:102E980001F0BCFC04464FF4FA71FFF7C4FF054685
:102EA80064212046FFF7BFFF324B9B889BB26BB96A
:102EB800304B1B889BB2042B08D02E4B1B889BB22F
:102EC800032B4BD8DFE803F00E1A333E8DF80400CD
:102ED80000238DF805308DF806300198FFF7A8FF1C
:102EE80009B030BD00238DF8083001228DF8092083
:102EF8008DF80A300298FFF79BFFF1E71D4B5B7ACC
:102F080053B100238DF818308DF819008DF81A3058
:102F18000698FFF78DFFE3E700238DF81C308DF846
:102F28001D508DF81E300798FFF782FFD8E7002361
:102F38008DF80C308DF80D008DF80E000398FFF712
:102F480077FFCDE700238DF810308DF8113001237D
:102F58008DF812300498FFF76BFFC1E78DF8140065
:102F680000238DF815308DF816300598FFF760FFAF
:102F7800B6E700BFC812002000B583B00B4B1A6E2D
:102F880042F001021A661A6E02F001020092009ADB
:102F98009A6D42F080529A659B6D03F080530193BD
:102FA800019B05F029F803B05DF804FB001002400E
:102FB80008B505F03BFCFEE7FEE7FEE7FEE7FEE7A7
:102FC80070477047704708B501F014FC08BD000051
:102FD80008B5024802F005FF08BD00BF2C1000200C
:102FE80008B5024802F0FDFE08BD00BF905B002056
:102FF80008B5024802F0F5FE08BD00BF305B0020AE
:1030080008B5024802F0EDFE08BD00BF505C002084
:1030180008B5024802F0E5FE08BD00BFF05B0020DD
:1030280008B5024806F0BAFF08BD00BF445D00209D
:1030380008B5024806F0B2FF08BD00BFB05C00202A
:1030480008B5024804F009FD08BD00BFD07400208F
:1030580008B5024806F06EFA08BD00BF70140020DB
:1030680008B5024806F066FA08BD00BF54150020EE
:1030780008B5024806F05EFA08BD00BF0815002032
:10308800034AD2F8883043F47003C2F88830704796
:1030980000ED00E020EE800AF7EE007A77EEE00A15
:1030A800D0ED007A60EEA70A30EE200A80ED000A23
:1030B800704700000000000040F6FE73984202D9F5
:1030C8009FED490A70472DE9D0430C46C0F57F6053
:1030D8000F3007EE900AF8EE677A17EE900AFDF7C0
:1030E800FBF935A3D3E90023FDF74EFA34A3D3E95E
:1030F8000023FDF773FBFDF759FCFDF7EDF980465A
:10310800894631A3D3E90023FDF73EFA06460F4668
:1031180042464B4628A1D1E90001FDF77DF8024659
:103128000B4630463946FDF759FBFDF73FFC00EEEC
:10313800100AF2EE047A80EE270A0AF0A3F910EEDC
:10314800100AFDF7C9F922A3D3E90023FDF746FBCE
:1031580021A3D3E90023FDF761F802460B460020BE
:103168002249FDF73BFBFDF721FCFDF7B5F91CA350
:10317800D3E90023FDF750F8FDF718FC00EE100A1C
:10318800DFED197AB4EEE70AF1EE10FA09D4DFEDB3
:10319800187AB4EEE70AF1EE10FA04DD9FED140A8E
:1031A80001E09FED110A2046DFED120AFFF772FFDA
:1031B800BDE8D083AFF300806666666666660A403F
:1031C8000000000000FEAF403333333333331B407D
:1031D800000000000068AA40000000E0E1796B3FB1
:1031E8006666666666127140000020C20000F03F05
:1031F8000000F042CDCCCC3D70B5D8B10C460646A7
:10320800D1B102F0FFF8054610B10025284670BD7F
:103218000221304601F090FC40B9304601F038FDFB
:103228002060304602F072FA0125EFE7304602F0DE
:103238006DFAEBE70025E9E70025E7E700B583B07D
:1032480001A90948FFF7D8FF28B9084B93ED000AF0
:1032580003B05DF804FB06490198FFF72DFF034B07
:1032680083ED000AF4E700BF641100204400002049
:103278004000002000B583B001A90948FFF7BCFF52
:1032880028B9084B93ED000A03B05DF804FB064922
:103298000198FFF711FF034B83ED000AF4E700BF25
:1032A800F81000203C00002038000020000000003A
:1032B80070B52DED028B82B001A92B48FFF79CFF5A
:1032C80030B92A4B93ED000A02B0BDEC028B70BDF9
:1032D800274EB6F8CA309BB2B6F8A82092B29B1A0D
:1032E80007EE903AF8EEE77A9FED227A87EE278A82
:1032F800DDED017AF8EE677A17EE900AFDF7ECF843
:1033080017A3D3E90023FDF73FF904460D46B6F8A5
:10331800A80080B2FDF7CEF802460B4620462946A3
:10332800FCF77AFF04460D4618EE100AFDF7D4F8AC
:1033380022462B46FDF728F900220F4BFCF76EFFBB
:10334800FDF734FB00EE100A0C48DFED0D0AFFF71D
:10335800A1FE064B83ED000AB6E700BFAFF300807D
:10336800999999999999F13F8C100020340000207F
:103378000075FF1F0000C84200003E4030000020DA
:10338800CDCCCC3D00B585B00023019302930393C7
:103398000F48104A0260A9224260836040F2E73376
:1033A800C3608023836106F02FFA50B9002301938C
:1033B800039301A9064806F041FC28B905B05DF859
:1033C80004FBFFF77FFBF1E7FFF77CFBF6E700BFA5
:1033D800541500200010004000B585B0002301936B
:1033E800029303930F48104A0260A9224260836047
:1033F80041F28733C3608023836106F005FA50B930
:1034080000230193039301A9064806F017FC28B985
:1034180005B05DF804FBFFF755FBF1E7FFF752FB3A
:10342800F6E700BF081500200014004008B50A4858
:103438000A4B0360A92343600023836042F20F72A2
:10344800C260036143618023836106F0DDF900B93E
:1034580008BDFFF737FBFBE770140020004401406C
:1034680000B585B00368224A934208D0214A9342A6
:1034780018D0214A934228D005B05DF804FB1F4BB1
:103488009A6D42F010029A659B6D03F01003019348
:10349800019B00220321362002F0E6FA362002F0D2
:1034A800F3FAE9E7154B9A6D42F020029A659B6D95
:1034B80003F020030293029B00220221372002F02E
:1034C800D3FA372002F0E0FAD6E70C4B1A6E42F432
:1034D80000321A661B6E03F400330393039B002229
:1034E8000321192002F0C0FA192002F0CDFAC3E72F
:1034F8000010004000140040004401400010024049
:103508000268094B9A4200D0704782B003F55C43C9
:103518001A6E42F400521A661B6E03F400530193AC
:10352800019B02B0704700BF0034014000B587B06E
:1035380000230193029303930493059302680E4BAF
:103548009A4202D007B05DF804FB03F55C43DA6CDD
:1035580042F00202DA64DB6C03F002030093009B82
:103568004FF400730193022302930A23059301A9E0
:10357800024802F099FCE5E70034014000040048E5
:1035880010B598B000241594169417940E940F94BF
:10359800109411941294139414943422214601A87F
:1035A80009F0CAFE29482A4B0360A92343608460B6
:1035B80040F2E733C360046144618023836106F00D
:1035C80053F9002836D1002315931693179315A99C
:1035D8001E4806F033FB00282FD160230E934FF4CA
:1035E800FA730F9300231093119312931393149368
:1035F80008220EA9154806F0B7F908BB0023019365
:1036080002930393049305934FF400520692079391
:10361800089309934FF000720A920B930C930D9341
:1036280001A90A4806F060FB68B90848FFF77EFF61
:1036380018B010BDFFF746FAC5E7FFF743FACCE725
:10364800FFF740FADAE7FFF73DFAEEE7BC1400208F
:10365800003401400020704710B50446FFF7FAFF18
:10366800A04214BF0020012010BD000010B5044680
:10367800FFF7F2FF50B1022C0AD841F20E4303FBC8
:1036880004F000F61800034B184410BD0020FCE7B6
:103698000020FAE7EC160020B0F5803F01D280B296
:1036A80070474FF6FF707047B5EEC00AF1EE10FA9A
:1036B8000FD908B5DFED087A20EE270AF6EE007A72
:1036C80030EE270AFCEEC07A17EE900AFFF7E4FF07
:1036D80008BD0020704700BF00007A44B5EEC00A5C
:1036E800F1EE10FA11DBDFED107A20EE270AF6EE84
:1036F800007A30EE270AFDEEC07A17EE900A00280D
:1037080010DB08B5FFF7C8FF08BDDFED077A20EE2C
:10371800270AF6EE007A30EE670AFDEEC07A17EE59
:10372800900AECE7002070470000C842094B1B884C
:103738009BB2032B09D8DFE803F0020A0406012034
:10374800704704207047082070470F2070470220F8
:10375800704700BFC8120020084B9B79DBB2022BD0
:1037680007D0032B07D0012B01D000207047012080
:103778007047022070470320704700BFC81200201E
:10378800034B1878C0B2013818BF0120704700BF3A
:1037980016000010064B9B79DBB2012B03D0054BBA
:1037A800588B80B27047034B188B80B2704700BFAC
:1037B800C81200200C00002008B50D4B1B68002B18
:1037C80013DD0B4BD3ED007AF8EEE77A9FED097A1B
:1037D80067EE877AB2EE0E7A67EE877A9FED060A71
:1037E80087EE800AFFF760FF08BD0020FCE700BFF6
:1037F8000C0000203333534000F07F4508B5034BDD
:1038080093ED020AFFF750FF08BD00BF9C1200208D
:1038180008B50E4BD3ED007AF5EEC07AF1EE10FA4A
:1038280009DC0B4BD3ED007AF5EEC07AF1EE10FA15
:1038380006DC002003E093ED000AFFF735FF08BD22
:1038480093ED000AFFF730FFF9E700BF8812002068
:103858008C120020014BB3F808087047EC160020C2
:10386800014BB3F808087047EC1600201B4AD2ED4C
:10387800016AF2EE0E7A86EEA77A9FED196AC7EE14
:10388800067ADFED186A67EEA67AFDEEE77A164B40
:10389800C3ED027AD2ED027A9FED147A67EE877A49
:1038A8009FED137A37EE677AC7EE067A67EEA67A47
:1038B800FDEEE77AC3ED037ADB68B3F5805F03DBDF
:1038C800094B40F6FF72DA60074BDB68002B00DB20
:1038D8007047054B0022DA60FAE700BF9C1200200F
:1038E8003333534000F07F450C000020295C0F3E25
:1038F8003333D33F10B52DED028B654B93ED008A22
:10390800644BD3ED007AF4EEC87AF1EE10FA01DDDB
:1039180093ED008A604B93ED000AFFF7C5FE5F4BFD
:1039280018805F4B93ED000AFFF7BEFE5D4B1880D1
:103938005D4B93ED000AFFF7B7FE5C4B18805C4BBC
:1039480093ED000AFFF7B0FE5A4B18805A4B93EDDF
:10395800000AFFF7C3FE594B18804D4B93ED000A40
:10396800FFF7BCFE564B18804A4B93ED000AFFF751
:10397800B5FE544B1880544C94ED010AFFF794FEA1
:10398800524B188094ED020AFFF78EFE504B1880B8
:10399800FFF7F6FE4F4B18804F4B5B7A002B75D024
:1039A80001224E4B1A804C4B9A884D4B1A80FFF7D8
:1039B800BDFE4C4B1880FFF7CFFE4B4B18804B4C8D
:1039C800A069FFF769FE4A4B18802069FFF764FE7B
:1039D800484B1880A068FFF75FFE474B18802068A7
:1039E800FFF75AFE454B1880B0EE480AFFF776FEFF
:1039F800434B1880434B93ED000AFFF76FFE424B91
:103A08001880294B93ED000AFFF74EFE3F4B1880B4
:103A18003F4B93ED000AFFF747FE3E4B1880244BBF
:103A280093ED000AFFF740FE3B4B18803B4B93EDAC
:103A3800000AFFF739FE3A4B1880FFF7ABFE394B07
:103A48001880394B1C68D4F89C00FFF725FE374BCB
:103A58001880D4F81C02FFF71FFE354B1880FFF7BB
:103A6800F9FE344B1880FFF7FBFE334B1880FFF745
:103A7800CFFE324B1880FFF7C1FE314B1880FFF79D
:103A88009BFE304B1880BDEC028B10BD002288E7EE
:103A9800841200208012002094120020DE150020DD
:103AA8008C120020DC15002090120020DA1500206E
:103AB80088120020D81500207C120020D61500207E
:103AC800D4150020D21500209C120020D01500200B
:103AD800CE150020CC150020C8120020CA150020E1
:103AE800C8150020C6150020C4150020A812002003
:103AF800C2150020C0150020BE150020BC150020EE
:103B0800BA150020EC120020B8150020B6150020C8
:103B1800E8120020B4150020B2150020E41200209D
:103B2800B0150020AE150020F8120020AC150020BA
:103B3800AA150020A8150020A6150020A41500200D
:103B4800A2150020A015002080B1072910D90278FD
:103B5800AA2A01D0002070474278552A01D00020B7
:103B680070470379902B05D00020704700207047DC
:103B7800002070470120704788B1094A92F8072849
:103B88006AB10178064A1278914208D100F580534B
:103B9800B3F80C341BB9024B002283F8072870478E
:103BA800EC160020054BD3F8BC322BB1D3F8140225
:103BB800B0FA80F04009704701207047E05D0020AE
:103BC80080B310B5044600F5805393F80D346BB1FB
:103BD800037823B9144AD2F88820202A07D0012B69
:103BE8000BD0022B14D02046FFF7C6FF10BD00F5FE
:103BF8008053002283F80D24F5E70C4AD2F8882078
:103C0800202AEED104F58053002283F80D24EAE738
:103C1800FFF7C8FF0028E6D004F58053002283F898
:103C28000D24E0E7704700BF445D0020B05C002031
:103C380008B500F0EBFD5030014BC3F8140808BD7F
:103C4800EC16002010B5054BD3F8144800F0DEFD43
:103C5800201A0028D4BF0020012010BDEC16002037
:103C680010B5112009F010FA044668B1614B1B88A1
:103C780007EE903AF8EE677ADFED5F6A87EEA67A8C
:103C88005E4B83ED017A0124122009F0FDF968B139
:103C98005B4B1B8807EE903AF8EE677ADFED566AC1
:103CA80087EEA67A554B83ED027A01241E2009F08F
:103CB800EBF9D0B1534B1B8807EE903AF8EE677AD0
:103CC800DFED516A87EEA67AF2EE047AB4EEE77A6F
:103CD800F1EE10FA09DBDFED4D7AB4EEE77AF1EE9A
:103CE80010FA02D84A4B83ED007A202009F0CCF96B
:103CF800D0B1484B1B8807EE903AF8EE677ADFEDB3
:103D08003E6A87EEA67AF7EE007AB4EEE77AF1EE2D
:103D180010FA09DBDFED3C7AB4EEE77AF1EE10FA3F
:103D280002D83D4B83ED007A222009F0ADF9D0B1DD
:103D38003A4B1B8807EE903AF8EE677ADFED2E6A69
:103D480087EEA67ADFED367AB4EEE77AF1EE10FA6E
:103D580009DBDFED347AB4EEE77AF1EE10FA02D837
:103D6800314B83ED007AE4B9152009F08DF938B1AB
:103D78002E4B1B88E3B101222D4B5A725B7ACBB1D3
:103D8800272009F081F9002833D02A4B1B885A1EB6
:103D980092B240F2B5318A4217D8312B17D8322364
:103DA80015E0164B4FF07E521A60FFF75FFDDBE718
:103DB8000022E1E7FDF7CAFD1D4B1B889BB2042BCF
:103DC800DED01B4B01221A80DAE740F2B6331A48DC
:103DD800A0FB0320194C012284F80628A4F808380F
:103DE800144A1380C008FEF769F900F00FFDC4F803
:103DF8000C0810BDD015002000007A449C12002049
:103E0800CE150020B81500200000C8420000164357
:103E1800EC120020B4150020E8120020B015002094
:103E2800CDCCCC3D00004842E4120020CA15002049
:103E3800C8120020A6150020CDCCCCCCEC16002052
:103E480008B5FFF70DFFFFF755FD08BD10B504468F
:103E58004FF4806206F034FE38B9D4F8803023B1CC
:103E68001A68136823F00403136010BD70B50E467A
:103E780015461C46B3F5806F01D94FF480642B8832
:103E8800A3420AD3A34211D8B4F5806F1ED0B4F56B
:103E9800806F00D300242C8070BDFFF7C9FE2888EE
:103EA800211A89B2304408F0C9FFF0E7FFF7C0FED5
:103EB8002888C0F5806189B2304408F0BFFF002C23
:103EC800E9D02146304608F0B9FFE0E7FFF7B0FE39
:103ED8002888C0F5806189B2304408F0AFFFD6E782
:103EE80008B50020FFF7B8FB78B1124BD3F8803043
:103EF8005BB11B685B689BB2C3F580630E4A9BB2DB
:103F0800A2F601010020FFF7B1FF0120FFF7A4FB93
:103F180078B10A4BD3F880305BB11B685B689BB201
:103F2800C3F58063064A9BB2A2F203410120FFF762
:103F38009DFF08BD445D0020EE1E0020B05C0020FF
:103F4800F01E002000286DD070B5144605460029E3
:103F58006AD0002A6AD0B2F5806F69D800F580531C
:103F680093F80D3443B1037823B9334AD2F8882043
:103F7800202A22D0012B26D005F5805393F80D3442
:103F8800002B57D16E1C2246304609F003FA2B78D5
:103F980023B3012B34D005F58053012283F80D2477
:103FA8002146304608F088FC002840D005F58053AB
:103FB800002283F80D24022039E000F58053002206
:103FC80083F80D24D8E71D4BD3F88830202BD3D1A4
:103FD80005F58053002283F80D24CDE705F58053BD
:103FE800012283F80D2422463146134805F01CFFB0
:103FF800E8B105F58053002283F80D24022016E06D
:1040080005F58053012283F80D24224631460B48DA
:1040180005F00AFF58B105F58053002283F80D24F6
:10402800022004E001207047012000E0012070BD5B
:104038000120FCE70220FAE7445D0020B05C002084
:10404800C8B338B5044600F5805393F80C3403B967
:1040580038BD00F5805393F80A5405EB4521490013
:1040680001F58061014405EB452300EB4303B3F8F8
:1040780002280231FFF766FF0028E9D105EB452544
:1040880004EB45050023A5F8023804F5805292F8A0
:104098000A340133DBB282F80A34032B03D91346FE
:1040A800002283F80A2404F5805494F80C34013B68
:1040B80084F80C34CCE7704770B110B50446FFF7AC
:1040C8007FFD2046FFF7BCFF04F58054B4F80C04CC
:1040D800B0FA80F0400910BD00207047002852D087
:1040E8002DE9F8430E461446054600294DD0002A0E
:1040F8004DD0B2F5806F4DD811463046FFF724FDFC
:10410800074618B1244B012283F807282246314676
:104118002846FFF717FFD8B305F5805393F80C34FA
:10412800032B29D805F5805999F80B844FEA4827BD
:1041380008EB4820400000F58060284422463146BC
:10414800023009F027F9474405EB4707A7F802486A
:1041580099F80B340133DBB289F80B34032B02D9FD
:10416800002289F80B2405F5805595F80C340133A5
:1041780085F80C3400200BE01FB1074B002283F8B0
:104188000728022004E001207047012000E00120F8
:10419800BDE8F8830120FBE7EC16002010B5244C9D
:1041A80044F244420021204609F0C6F8FFF752FACB
:1041B8002070012384F8063840F2B633A4F8083892
:1041C80000F024FBC4F80C08002307E0184A41F269
:1041D8000E4101FB032282F818380133022BF5D96E
:1041E800FFF788FB2021134809F062F800211248E4
:1041F80008F092FD0021114808F09EFD104808F0D3
:10420800BAFF0020FFF728FA38B90120FFF724FA8F
:1042180040B90C4B01221A7010BD0B490B48FFF72F
:1042280015FEF2E70A490B48FFF710FEF1E700BF59
:10423800EC1600204800002081430008493E000891
:10424800E0150020EB160020ED160020445D00204C
:10425800ED1A0020B05C0020014B01221A70704753
:10426800E916002038B5FFF745FB002400E00134CB
:10427800022C19D8164B41F20E4202FB043393F874
:104288001808FFF7E9F90028F1D041F20E4504FBC0
:1042980005F505F618050E4B1D442846FFF790FC5A
:1042A8002846FFF7CDFEE2E7094B1878FFF7DEF95D
:1042B800FFF702FF18B1064B93F8073803B138BD72
:1042C800FFF7C0FC0028FAD108F04CFDF7E700BF63
:1042D800EC16002038B51D4B1B7813B11C4B1B780E
:1042E80003B138BD1A4B01221A70FFF703FBFFF721
:1042F800F7FD002400E00134022C19D8154B41F2D7
:104308000E4202FB043393F81808FFF7A5F90028BA
:10431800F1D041F20E4504FB05F505F618050D4BE5
:104328001D442846FFF74CFC2846FFF789FEE2E7C4
:10433800094B1B781BB9064B00221A70D1E7064BB4
:1043480000221A70FFF78EFFF5E700BFEB1600207A
:10435800EA160020EC160020E916002038B50446BD
:104368000D46044B1878FFF781F92A462146FFF7D6
:10437800B5FE38BDEC16002008B5FFF7EFFF08BD05
:10438800B0B138B50C46054619B10220FFF764F9FB
:1043980000B938BD074B02221A70FFF749FCFFF736
:1043A800A9FA2146284608F049FDFFF7A3FAF0E7E5
:1043B800704700BFEC16002010B50446FFF756F909
:1043C80040B100F58053002183F80D14074B1B788A
:1043D800A34200D010BD00F5805292F80C34002B97
:1043E800F8D1024B83F80718F4E700BFEC16002059
:1043F800014B00221A707047E81600207047000031
:1044080008B5144B984203D0134B984210D008BDFE
:104418000020FFF7D1FF0020104BA3F80208FFF798
:104428001BF90028F3D00E490A48FFF70FFDEEE705
:104438000120FFF7C1FF094B0022A3F8042801203F
:10444800FFF70AF90028E2D006490348FFF7FEFC07
:10445800DDE700BF445D0020B05C0020EC160020C2
:10446800ED160020ED1A002008B5074B984203D03E
:10447800064B984204D008BD0020FFF79DFFFAE7DD
:104488000120FFF799FFF6E7445D0020B05C0020AB
:1044980008B51748174B03604FF4612343600023A6
:1044A8008360C36003610C2242618361C36103625C
:1044B8004362836206F079FA70B900210C4806F06D
:1044C8006DFB60B900210A4806F08DFB50B9084819
:1044D80006F045FB48B908BDFEF7F4FAEDE7FEF72C
:1044E800F1FAEFE7FEF7EEFAF1E7FEF7EBFAF2E79B
:1044F800445D00200038014008B51748174B036099
:104508004FF46123436000238360C36003610C227E
:1045180042618361C36103624362836206F045FAC4
:1045280070B900210C4806F039FB60B900210A482F
:1045380006F059FB50B9084806F011FB48B908BD08
:10454800FEF7C0FAEDE7FEF7BDFAEFE7FEF7BAFAB5
:10455800F1E7FEF7B7FAF2E7B05C0020004400404C
:10456800F0B5A1B0044600211B911C911D911E912C
:104578001F91542206A808F0DFFE2368754A93426B
:1045880004D0754A934268D021B0F0BD0123069348
:1045980006A804F05BF9002856D1704B1A6E42F455
:1045A80080421A661A6E02F480420192019ADA6C0D
:1045B80042F00202DA64DB6C03F002030293029B0E
:1045C800C0231B9302231C9300251D951E950723CA
:1045D8001F931BA9624801F067FC6248624B0360A5
:1045E800182343608560C560802303614561856148
:1045F8002023C3614FF40053036201F0C1FA30BBBA
:10460800584BC4F880309C625848594B03601923B2
:104618004360102383600023C360802202614361EA
:104628008361C3614FF40053036201F0A9FA88B9AA
:104638004E4BE3679C6200220521252001F014FA05
:10464800252001F021FA9FE7FEF73CFAA5E7FEF7DF
:1046580039FAD5E7FEF736FAEAE70223069306A801
:1046680004F0F4F800286BD13C4B9A6D42F4003208
:104678009A659A6D02F400320392039ADA6C42F05A
:104688000102DA64DA6C02F001020492049ADA6C2C
:1046980042F00202DA64DB6C03F002030593059B27
:1046A8004FF400431B9302271C9700251D951E9568
:1046B80007261F961BA94FF0904001F0F5FB082331
:1046C8001B931C971D951E951F961BA9244801F046
:1046D800EBFB2848284B03601A2343608560C560BC
:1046E80080230361456185612023C3614FF4005332
:1046F800036201F045FA30BB1E4BC4F880309C625F
:104708001E481F4B03601B23436010238360002354
:10471800C3608022026143618361C3614FF4005327
:10472800036201F02DFA88B9144BE3679C620022FA
:104738000521262001F098F9262001F0A5F923E7A4
:10474800FEF7C0F990E7FEF7BDF9D5E7FEF7BAF92D
:10475800EAE700BF00380140004400400010024072
:1047680000040048505C002044000240F05B002038
:1047780058000240905B00201C000240305B002083
:1047880030000240104B1B680BB90120704710B570
:1047980004464FF47A70B0FBF3F30C4A1068B0FB90
:1047A800F3F001F075F968B90F2C01D901200AE07E
:1047B800002221464FF0FF3001F056F9044B1C60EF
:1047C800002000E0012010BDC80100202C000020BE
:1047D800CC01002010B5032001F034F90F20FFF7B9
:1047E800D1FF10B10124204610BD0446FEF7C4FBDA
:1047F800F9E70000034A1368034909680B4413608A
:10480800704700BFD85D0020C8010020014B186820
:10481800704700BFD85D002038B50446FFF7F6FFA3
:104828000546B4F1FF3F02D0044B1B681C44FFF758
:10483800EDFF401BA042FAD338BD00BFC8010020DD
:1048480010B430300B0A9B0003F00C03C45801F07D
:104858001F014FF01F0C0CFA01FC24EA0C0CC2F3E8
:1048680084628A404CEA0202C2505DF8044B7047E9
:1048780010B414304B0E9B0003F00403C458C1F36A
:1048880004514FF0070C0CFA01FC24EA0C0C8A4086
:104898004CEA0202C2505DF8044B704730B583B051
:1048A80000230193002800F032810446C36D13B33E
:1048B80023689A6812F0005F05D09A6822F02042B7
:1048C80022F03F029A602268936813F0805F1FD13C
:1048D800936823F0104323F03F0343F08053936021
:1048E8008C4B1B689B098C4AA2FB03239B09013351
:1048F8005B00019309E0FCF727FC0023236684F89A
:104908005830D5E7019B013B0193019B002BF9D15E
:104918002268936813F0805F3DD1E36D43F0100384
:10492800E365236E43F0010323660120936813F0C7
:10493800040300D00123E16D11F0100F40F0E08076
:10494800002B40F0DD80E36D23F4817343F0020314
:10495800E365936813F0010F3ED1B2F1A04F1CD06C
:104968006E4B9A4219D06E4B996811F0010100D034
:1049780001216C4B9B6813F0010300D001230B430A
:104988006949896811F0010100D001210B430CBF6E
:104998000123002312E00020C8E74FF0A0439968E4
:1049A80011F0010100D001215C4B9B6813F0010359
:1049B80000D001230B430CBF0123002363B1B2F1E4
:1049C800A04F6CD0554B9A4267D0584963688A68A3
:1049D80022F47C1213438B60627FE36B43EA423319
:1049E800E2681343A268134394F8242043EA02437D
:1049F800012A56D0E26A22B102F47872216B0A4386
:104A080013432168CD684A4A2A401A43CA6022687B
:104A1800136923F04063616B0B4313612268936849
:104A280013F0080300D0012343BB237F94F8381008
:104A3800490041EA8331D36823F4804323F0020319
:104A48000B43D3602369002B30D02268136943F4E9
:104A5800803313612268D2F8C03023F47F5323F0E7
:104A68003F0321690B43C2F8C03094F84030012B52
:104A78002BD02268136923F0010313616369012BAA
:104A880035D02268136B23F00F031363E36D23F013
:104A9800030343F00103E36537E0264996E7254918
:104AA80094E7A26A013A43EA4243A3E722681369FA
:104AB80023F4803313612268D2F8C03023F47F5383
:104AC80023F03F03C2F8C030CFE721680B6923F415
:104AD800FF6323F00403626CA56C2A43E56C2A4348
:104AE800256D2A43134343F001030B61C6E7216890
:104AF8000B6B23F00F03226A013A13430B63C5E7DC
:104B0800E36D43F01003E365012003B030BD0120DD
:104B1800FBE700BF2C000020632D3E05000100507C
:104B28000004005000050050000600500007005027
:104B38000740F0FF000300502DE9F04104460E46FF
:104B48000368B3F1A04F21D04E4A93421BD04E4A7E
:104B5800976807F01F07A569082D1ED0092F05D8EB
:104B680040F22122FA4012F0010F11D1B3F1A04F07
:104B78003AD0444A934235D0434B9B6813F4604F74
:104B880034D1042509E002F50072E1E73F4ADFE786
:104B9800DB6813F0010F1FD10425FFF737FE8046AD
:104BA80023681A682A4227D1B6F1FF3FF8D0FFF7E9
:104BB8002DFEA0EB0800B04201D8002EF0D12368EA
:104BC8001B682B42ECD1E36D43F00403E36500233B
:104BD80084F85830032050E0E36D43F02003E36588
:104BE80001204AE0294BC8E7284BC6E7E36D43F0AC
:104BF8002003E365012040E0E26D42F40072E265C3
:104C0800DA6812F4406F11D1627F7AB91A6812F02B
:104C1800080F0BD0E26D22F48072E265E26D12F4A7
:104C2800805F03D1E26D42F00102E265154A9342CA
:104C380013D002F5806293420CD01A4693420FD0EB
:104C4800092F05D840F22121F94011F0010F07D1B1
:104C5800D26806E0A2F58072F0E74FF0A042EDE7D7
:104C6800DA68082D06D012F4804F08D10C221A6099
:104C7800002002E008221A600020BDE8F081002030
:104C8800FBE700BF00010050000700500003005080
:104C98000368186C70477047704708B5806AFFF75B
:104CA800FBFF08BD704708B50346806AC26D12F065
:104CB800500F30D1C36D43F40073C36503681A689D
:104CC80012F0080F14D0DA6812F4406F20D1DB68B4
:104CD80013F4005F1CD1C36D23F48073C365C36DE7
:104CE80013F4805F14D1C36D43F00103C3650FE073
:104CF800DB6813F0020F0BD1C36D23F48073C36517
:104D0800C36D13F4805F03D1C36D43F00103C36522
:104D1800FFF7C1FF08BDC26D12F0100F04D1426D3C
:104D2800526B18469047F5E7FFF7BCFFF2E708B566
:104D3800806AC36D43F04003C365036E43F0040308
:104D48000366FFF7AFFF08BDF0B583B000230193FA
:104D580090F85830012B00F0488204460D46012394
:104D680080F858300068836813F0040F09D0E36DA9
:104D780043F02003E3650120002384F8583003B092
:104D8800F0BD0A684968FFF75BFD2068836813F087
:104D9800040300D00123866816F0080600D0012617
:104DA800002B3ED1002E3CD1AA68B2F1004F78D03A
:104DB8002968FFF75DFD2268536923F000435361BA
:104DC80069692268D368C3F3C1035B009940286905
:104DD800042873D0603252F82070AB4B3B402F68E8
:104DE80007F0F84C41EA0C010B4343F0004342F84A
:104DF800203023682869AA69603353F8201021F00D
:104E080080710A4343F82020236829692A7F012AF0
:104E180051D0603353F8212022F00072324343F816
:104E280021202268936813F0010F16D12B68E868D7
:104E3800D2F8B010C3F3120621EA060100F01806F2
:104E48009248F0400340C3F312030B43C2F8B0305A
:104E5800EA688F4B9A4200F099802B688D4A13427A
:104E680000F0B9812268B2F1A04F00F050818A4960
:104E78008A4200F049818949896801F0E070884DCB
:104E8800AB4200F04681874DAB4200F04281864D2F
:104E9800AB4200F07181854DAB4200F08781002064
:104EA8006AE700222968FFF7E3FC2268536943F0A8
:104EB8000043536184E74FF00076AAE7136E116E42
:104EC800C1F384612B68C3F3120080BBC3F384630E
:104ED800994234D021684B6E4A6EC2F384622B68C3
:104EE800C3F3120080BBC3F384639A4234D02168B1
:104EF8008B6E8A6EC2F384622B68C3F3120080BB88
:104F0800C3F384639A4234D02168CB6ECA6EC2F36D
:104F180084622B68C3F3120080BBC3F384639A4294
:104F28007FF47FAFCB6E23F00043CB6679E793FA2B
:104F3800A3F313B1B3FA83F3CAE72023C8E7136EC8
:104F480023F000431366C5E793FAA3F313B1B3FA4A
:104F580083F3CAE72023C8E74B6E23F000434B6670
:104F6800C5E793FAA3F313B1B3FA83F3CAE720238F
:104F7800C8E78B6E23F000438B66C5E793FAA3F36B
:104F880013B1B3FA83F3CAE72023C8E720682B6874
:104F9800C3F3120626BB9A0E013202F01F02092A39
:104FA8008CBF00220122002A52D046BB990E013143
:104FB800890601F0F84176BB9F0E013707F01F07FD
:104FC8000122BA401143AEBB9B0E013303F01F030D
:104FD80003EB43031B051943AA68FFF749FC3CE7A9
:104FE80093FAA3F24AB1B2FA82F2013202F01F0236
:104FF800092A8CBF00220122D5E72022F5E793FA7F
:10500800A3F131B1B1FA81F10131890601F0F8411A
:10501800D1E72021F8E793FAA3F24AB1B2FA82F273
:10502800013202F01F024FF0010C0CFA02F2C9E73C
:105038002022F5E793FAA3F343B1B3FA83F30133DC
:1050480003F01F0303EB43031B05C4E72023F6E724
:1050580076BB990E0131890601F0F841A6BB9F0E77
:10506800013707F01F070122BA401143DEBB9B0E30
:10507800013303F01F0303EB43031E3B1B0543F0FF
:1050880000731943A8E700BF00F0FF03FFFF070004
:1050980000007F4000000880000100500007005019
:1050A800000021C31000C090000052C7000084CB4C
:1050B80093FAA3F131B1B1FA81F10131890601F016
:1050C800F841CBE72021F8E793FAA3F24AB1B2FA04
:1050D80082F2013202F01F024FF0010C0CFA02F2C8
:1050E800C3E72022F5E793FAA3F35BB1B3FA83F39E
:1050F800013303F01F0303EB43031E3B1B0543F07F
:105108000073BEE72023F3E701F50071B4E63849E0
:10511800B2E611F4000F7FF4BAAEB2F1A04F04D09A
:10512800344B9A4201D0002026E6B2F1A04F19D0A4
:10513800314B9A4214D0314A40F40000936823F06E
:10514800E073184390602E4B1B689B092D4AA2FB05
:1051580003239B09013303EB43039B00019306E000
:10516800234AE9E7224AE7E7019B013B0193019BB8
:10517800002BF9D10020FFE511F0807F7FF48BAE82
:105188001D4B9A4229D003F580639A4227D0B2F189
:10519800A04F09D0194940F080738A6822F0E07264
:1051A80013438B600020E7E51149F4E711F4800F01
:1051B80017D1114B9A4216D0B2F1A04F09D00F491E
:1051C80040F480038A6822F0E07213438B60002069
:1051D800D2E50749F4E70020CEE50020CCE5002021
:1051E800CAE50020C8E50020C6E50220C7E500BFE3
:1051F8000003005000060050000100500007005056
:105208002C000020632D3E0570B5044603689A689B
:1052180012F0040200D00122986810F0080000D0B3
:1052280001200AB900286DD0DA6812F0007F04D096
:10523800A08B40F2011290424ED0022912D023686E
:105248009A6812F0040F0BD09A6812F0020F07D177
:105258009A6822F0004222F03F0242F010029A605F
:10526800012947D023689A6812F0080F0BD09A6872
:1052780012F0020F07D19A6822F0004222F03F0292
:1052880042F020029A60022936D0032936D10C2533
:10529800FFF7BCFA064623689B682B4230D0FFF71D
:1052A800B5FA801B0528F6D923689B682B42F2D0F3
:1052B800E36D43F01003E365236E43F001032366B7
:1052C80001201EE0E36D43F01003E365236E43F015
:1052D80001032366012014E00022196811F0400F31
:1052E80004D109498A42EDD80132F6E740221A6012
:1052F8000121A4E70425CBE70825C9E70425C7E76A
:10530800002070BD0020FCE7FFFF3FA330B583B04D
:105318000023019303689A6812F0010F63D10446D1
:105328009968324A114220D19A6822F0004222F04C
:105338003F0242F001029A600368B3F1A04F20D007
:105348002B4A93421BD02B4B9B6813F4000F20D0A1
:10535800294B1B689B09294AA2FB03239B0901339C
:1053680003EB43039B00019310E0C36D43F010036C
:10537800C365036E43F001030366012034E0204B4C
:10538800E2E71F4BE0E7019B013B0193019B002BE8
:10539800F9D1FFF73BFA054623681A6812F0010FA6
:1053A8001FD19A6812F0010F07D19A6822F00042C3
:1053B80022F03F0242F001029A60FFF727FA431BEE
:1053C800022BE9D923681B6813F0010FE4D1E36DC0
:1053D80043F01003E365236E43F0010323660120C5
:1053E80002E0002000E0002003B030BD3F00008054
:1053F80000010050000700502C000020632D3E05DE
:105408000003005038B504460368B3F1A04F60D0DC
:10541800464A93425AD0464A956805F01F059B684C
:1054280013F0040F7DD194F85830012B7BD0012361
:1054380084F858302046FFF769FF00286DD1E36DE6
:1054480023F4706323F0010343F48073E365236856
:10545800364A934242D002F5806293423BD01A46C4
:10546800934200D01DB9E26D22F48012E265E26D2C
:1054780012F4805F35D0226E22F0060222661C22CA
:105488001A60002384F858302368284A93422ED0A3
:1054980002F58062934227D01A4693422AD0092DFA
:1054A80005D840F22121E94011F0010F22D1E36D26
:1054B80043F48013E365D36813F0007F32D0E36DC3
:1054C80023F4405343F48053E3652BE002F5007264
:1054D800A2E7184AA0E7A2F58072C1E74FF0A04200
:1054E800BEE700222266CAE7A2F58072D5E74FF030
:1054F800A042D2E7DA6812F0007F05D0E26D22F40C
:10550800405242F48052E2659A6822F0004222F04A
:105518003F0242F004029A6004E0002384F8583005
:1055280000E0022038BD0220FCE700BF0001005067
:1055380000070050000300502DE9F04104460F46D3
:1055480090460068B0F1A04F24D0444B98421ED03A
:10555800434B9E6806F01F06856815F0040F77D147
:1055680094F85830012B76D0012384F858303D4BFD
:10557800984211D0092E05D840F22123F34013F0A8
:10558800010F09D1002384F85830012061E003F5A8
:105598000073DEE7344BDCE72046FFF7B7FE002850
:1055A80052D1E36D23F4706323F0010343F4807355
:1055B800E3652368294A934240D002F5806293420A
:1055C80039D01A46934200D01EB9E36D23F48013F4
:1055D800E365E36D13F4805F33D0236E23F0060395
:1055E8002366636D214ADA62636D214A1A63636D2B
:1055F800204A5A6323681C221A60002384F8583012
:105608002268536843F0100353602268D36843F05C
:105618000103D360216843463A464031606D00F08B
:105628001DFB2268936823F0004323F03F0343F0F7
:10563800040393600DE0A2F58072C3E74FF0A04227
:10564800C0E700232366CCE7002384F8583000E045
:105658000220BDE8F0810220FBE700BF00010050F6
:10566800000700500006005000030050AF4C00082F
:10567800A34C0008374D000838B504460268936803
:1056880013F0020300D00123916811F0010F39D003
:10569800002B39D1936803F00D03012B09D0E36D7A
:1056A80043F01003E365236E43F0010323660120F2
:1056B80029E0936823F0004323F03F0343F00203FB
:1056C8009360236803221A60FFF7A0F80546236851
:1056D8009B6813F0010F13D0FFF798F8401B0228BE
:1056E800F5D923689B6813F0010FF0D0E36D43F000
:1056F8001003E365236E43F001032366012002E0F3
:10570800002000E0002038BD0020FCE790F8583069
:10571800012B1AD010B50446012380F85830032114
:10572800FFF772FD18B1002384F8583010BD2046E9
:10573800FFF7A2FF0028F6D1E36D23F4885323F086
:10574800010343F00103E365EDE702207047000021
:1057580030B583B00023019390F85830012B41D025
:1057680004460D46012380F85830FFF785FF80BBBB
:10577800E36D23F4885323F0020343F00203E36547
:105788002268936823F0404323F03F0305F08045E7
:105798002B4343F00043936023689B68002B06DB90
:1057A800E36D23F0030343F00103E36515E0019B78
:1057B80001330193019A0C4B9A42EDD9E36D23F022
:1057C800120343F01003E365002384F858300120E6
:1057D80006E0E36D43F01003E365002384F85830D6
:1057E80003B030BD0220FBE701DE040090F858202A
:1057F800012A00F0D68010B49DB00346012280F83B
:1058080058200022189219920068B0F1A04F47D092
:10581800654A904247D000220192019A002A46D058
:10582800926812F0040200D00122846814F0040F78
:1058380040F0A780002A40F0A480B0F1A04F42D0E9
:105848005A4A90423CD05A4A086800285CD090686E
:1058580020F460404C6893F838C044EA4C34204344
:1058680090601868B0F1A04F2FD0504CA0422CD0B7
:105878004D48846814F0010400D001244D48806824
:1058880010F0010000D0012020434B4CA46814F014
:10589800010400D0012420430CBF0120002025E092
:1058A800424A0192B9E702F580720192B5E7DA6DD2
:1058B80042F02002DA65002283F85820012068E0CF
:1058C80002F50072C0E73D4ABEE74FF0A040846889
:1058D80014F0010400D001243448806810F001005D
:1058E80000D0012020430CBF01200020002854D004
:1058F800906820F4716020F00F000C6889682143DB
:1059080008439060002041E0916821F46041916073
:105918001968B1F1A04F1AD02448814217D0224902
:10592800886810F0010000D001202249896811F030
:10593800010100D0012101431F48806810F00100D7
:1059480000D0012001430CBF0121002110E04FF0DD
:10595800A041886810F0010000D00120134989682F
:1059680011F0010100D0012101430CBF01210021E8
:10597800A9B1916821F4716121F00F0191600020B3
:1059880004E0DA6D42F02002DA650120002283F893
:1059980058201DB05DF8044B70470020F6E7002042
:1059A800F4E70220704700BF0004005000010050D7
:1059B800000700500005005000060050000300508A
:1059C800002807DB00F01F02400901239340024A28
:1059D80042F82030704700BF00E100E0002808DBF3
:1059E8000901C9B200F1604000F5614080F8001378
:1059F800704700F00F000901C9B2014B19547047F4
:105A080014ED00E000B500F00700C0F1070CBCF190
:105A1800040F28BF4FF0040C031D062B0FD9C31E1B
:105A28004FF0FF3E0EFA0CF021EA000199400EFA01
:105A380003FE22EA0E0241EA02005DF804FB00239D
:105A4800EEE70000074AD36823F4E0631B041B0C4D
:105A5800000200F4E060034343F0BF6343F4003303
:105A6800D360704700ED00E010B50446054BD868D8
:105A7800C0F30220FFF7C6FF01462046FFF7AEFF3E
:105A880010BD00BF00ED00E008B5FFF799FF08BDA5
:105A98000138B0F1807F0BD24FF0E0235861054AFE
:105AA800F02182F823100020986107221A617047BC
:105AB8000120704700ED00E030B4C46C056D6560EE
:105AC800446D14B1846DC56D6560446C04F01F0CA1
