:020000040800F2
:1000000000000220A92A0008A92C0008B12C000831
:10001000B32C0008B52C0008B72C00080000000025
:10002000000000000000000000000000B92C0008E3
:10003000BB2C000800000000BD2C0008BF2C0008ED
:100040001D2B00081D2B00081D2B00081D2B000870
:100050001D2B00081D2B00081D2B00081D2B000860
:100060001D2B00081D2B00081D2B0008C92C0008A3
:10007000D92C0008E92C0008F92C0008092D0008EB
:100080001D2B00081D2B00081D2B00081D2B000830
:10009000392D00081D2B00081D2B00081D2B000802
:1000A0001D2B0008492D00081D2B00081D2B0008E2
:1000B0001D2B00081D2B00081D2B00081D2B000800
:1000C0001D2B00081D2B00081D2B00081D2B0008F0
:1000D0001D2B0008192D0008292D00081D2B0008D4
:1000E0001D2B00081D2B00081D2B00081D2B0008D0
:1000F0001D2B00081D2B00081D2B00081D2B0008C0
:100100001D2B00081D2B00081D2B00081D2B0008AF
:100110001D2B00081D2B0008592D0008692D000813
:100120001D2B00081D2B00081D2B00081D2B00088F
:100130001D2B00081D2B00081D2B00081D2B00087F
:100140001D2B00081D2B00081D2B00081D2B00086F
:10015000792D00081D2B00081D2B00081D2B000801
:100160001D2B00081D2B00081D2B00081D2B00084F
:100170001D2B00081D2B00081D2B00081D2B00083F
:100180001D2B00081D2B00081D2B00081D2B00082F
:100190001D2B0008000000001D2B00081D2B00086F
:1001A0001D2B00081D2B00081D2B00081D2B00080F
:1001B0001D2B00081D2B00081D2B00081D2B0008FF
:1001C0001D2B00081D2B00081D2B00081D2B0008EF
:0801D0001D2B00081D2B000887
:1001D80010B5054C237833B9044B13B10448AFF379
:1001E80000800123237010BD800E00200000000055
:1001F80058D4000808B5034B1BB103490348AFF3B3
:10020800008008BD00000000840E002058D40008BB
:1002180081F0004102E000BF83F0004330B54FEAAF
:1002280041044FEA430594EA050F08BF90EA020F1C
:100238001FBF54EA000C55EA020C7FEA645C7FEAAF
:10024800655C00F0E2804FEA5454D4EB5555B8BFD2
:100258006D420CDD2C4480EA020281EA030382EA43
:10026800000083EA010180EA020281EA0303362DD5
:1002780088BF30BD11F0004F4FEA01314FF4801CA8
:100288004CEA113102D0404261EB410113F0004FBA
:100298004FEA03334CEA133302D0524263EB430371
:1002A80094EA050F00F0A780A4F10104D5F1200E0F
:1002B8000DDB02FA0EFC22FA05F2801841F100016A
:1002C80003FA0EF2801843FA05F359410EE0A5F13E
:1002D80020050EF1200E012A03FA0EFC28BF4CF06F
:1002E800020C43FA05F3C01851EBE37101F0004525
:1002F80007D54FF0000EDCF1000C7EEB00006EEB32
:100308000101B1F5801F1BD3B1F5001F0CD34908BB
:100318005FEA30004FEA3C0C04F101044FEA445212
:1003280012F5800F80F09A80BCF1004F08BF5FEA99
:10033800500C50F1000041EB045141EA050130BD79
:100348005FEA4C0C404141EB0101013C28BFB1F58B
:10035800801FE9D291F0000F04BF01460020B1FAD6
:1003680081F308BF2033A3F10B03B3F120020CDAA9
:100378000C3208DD02F1140CC2F10C0201FA0CF087
:1003880021FA02F10CE002F11402D8BFC2F1200CEC
:1003980001FA02F120FA0CFCDCBF41EA0C019040A2
:1003A800E41AA2BF01EB0451294330BD6FEA0404EB
:1003B8001F3C1CDA0C340EDC04F11404C4F12002D6
:1003C80020FA04F001FA02F340EA030021FA04F3E8
:1003D80045EA030130BDC4F10C04C4F1200220FA3F
:1003E80002F001FA04F340EA0300294630BD21FA7D
:1003F80004F0294630BD94F0000F83F4801306BF43
:1004080081F480110134013D4EE77FEA645C18BF36
:100418007FEA655C29D094EA050F08BF90EA020FCD
:1004280005D054EA000C04BF1946104630BD91EAC5
:10043800030F1EBF0021002030BD5FEA545C05D1C8
:100448004000494128BF41F0004130BD14F5800407
:100458003CBF01F5801130BD01F0004545F0FE417B
:1004680041F470014FF0000030BD7FEA645C1ABFB0
:10047800194610467FEA655C1CBF0B46024650EAE7
:10048800013406BF52EA033591EA030F41F4002113
:1004980030BD00BF90F0000F04BF0021704730B599
:1004A8004FF4806404F132044FF000054FF000016E
:1004B80050E700BF90F0000F04BF0021704730B52F
:1004C8004FF4806404F1320410F0004548BF404204
:1004D8004FF000013EE700BF42004FEAE2014FEA59
:1004E80031014FEA02701FBF12F07F4393F07F4F34
:1004F80081F06051704732F07F4208BF704793F037
:100508007F4F04BF41F40021704730B54FF4607449
:1005180001F0004521F000411CE700BF50EA01024C
:1005280008BF704730B54FF000050AE050EA0102F5
:1005380008BF704730B511F0004502D5404261EB65
:1005480041014FF4806404F132045FEA915C3FF4A6
:10055800D8AE4FF003025FEADC0C18BF03325FEA43
:10056800DC0C18BF033202EBDC02C2F1200300FAF4
:1005780003FC20FA02F001FA03FE40EA0E0021FA19
:1005880002F11444BDE600BF70B54FF0FF0C4CF407
:10059800E06C1CEA11541DBF1CEA135594EA0C0FB9
:1005A80095EA0C0F00F0DEF82C4481EA030621EAF4
:1005B8004C5123EA4C5350EA013518BF52EA03352F
:1005C80041F4801143F4801338D0A0FB02CE4FF0E1
:1005D8000005E1FB02E506F00042E0FB03E54FF011
:1005E8000006E1FB03569CF0000F18BF4EF0010E09
:1005F800A4F1FF04B6F5007F64F5407404D25FEA05
:100608004E0E6D4146EB060642EAC62141EA5551B7
:100618004FEAC52040EA5E504FEACE2EB4F1FD0CF9
:1006280088BFBCF5E06F1ED8BEF1004F08BF5FEA77
:10063800500E50F1000041EB045170BD06F0004629
:1006480046EA010140EA020081EA0301B4EB5C04D6
:10065800C2BFD4EB0C0541EA045170BD41F48011CE
:100668004FF0000E013C00F3AB8014F1360FDEBFF3
:10067800002001F0004170BDC4F10004203C35DACF
:100688000C341BDC04F11404C4F1200500FA05F352
:1006980020FA04F001FA05F240EA020001F00042F3
:1006A80021F0004110EBD37021FA04F642EB060169
:1006B8005EEA430E08BF20EAD37070BDC4F10C0493
:1006C800C4F1200500FA04F320FA05F001FA04F257
:1006D80040EA020001F0004110EBD37041F1000143
:1006E8005EEA430E08BF20EAD37070BDC4F120054E
:1006F80000FA05F24EEA020E20FA04F301FA05F2B6
:1007080043EA020321FA04F001F0004121FA04F25D
:1007180020EA020000EBD3705EEA430E08BF20EA2D
:10072800D37070BD94F0000F0FD101F00046400067
:1007380041EB010111F4801F08BF013CF7D041EAE9
:10074800060195F0000F18BF704703F000465200ED
:1007580043EB030313F4801F08BF013DF7D043EABE
:100768000603704794EA0C0F0CEA135518BF95EA74
:100778000C0F0CD050EA410618BF52EA4306D1D1FB
:1007880081EA030101F000414FF0000070BD50EA1A
:10079800410606BF1046194652EA430619D094EAA4
:1007A8000C0F02D150EA013613D195EA0C0F05D18E
:1007B80052EA03361CBF104619460AD181EA0301E2
:1007C80001F0004141F0FE4141F470014FF000009A
:1007D80070BD41F0FE4141F4780170BD70B54FF035
:1007E800FF0C4CF4E06C1CEA11541DBF1CEA1355B5
:1007F80094EA0C0F95EA0C0F00F0A7F8A4EB050497
:1008080081EA030E52EA03354FEA013100F088808D
:100818004FEA03334FF0805545EA131343EA126356
:100828004FEA022245EA111545EA10654FEA00260B
:100838000EF000419D4208BF964244F1FD0404F5C4
:10084800407402D25B084FEA3202B61A65EB030520
:100858005B084FEA32024FF480104FF4002CB6EBDD
:10086800020E75EB030E22BFB61A754640EA0C005D
:100878005B084FEA3202B6EB020E75EB030E22BF9D
:10088800B61A754640EA5C005B084FEA3202B6EBDE
:10089800020E75EB030E22BFB61A754640EA9C009D
:1008A8005B084FEA3202B6EB020E75EB030E22BF6D
:1008B800B61A754640EADC0055EA060E18D04FEA2B
:1008C800051545EA16754FEA06164FEAC30343EACB
:1008D80052734FEAC2025FEA1C1CC0D111F4801F98
:1008E8000BD141EA00014FF000004FF0004CB6E791
:1008F80011F4801F04BF01430020B4F1FD0C88BF30
:10090800BCF5E06F3FF6AFAEB5EB030C04BFB6EB3A
:10091800020C5FEA500C50F1000041EB045170BD2D
:100928000EF0004E4EEA113114EB5C04C2BFD4EB5A
:100938000C0541EA045170BD41F480114FF0000EDE
:10094800013C90E645EA060E8DE60CEA135594EA5A
:100958000C0F08BF95EA0C0F3FF43BAF94EA0C0F5D
:100968000AD150EA01347FF434AF95EA0C0F7FF4D2
:1009780025AF104619462CE795EA0C0F06D152EA26
:1009880003353FF4FDAE1046194622E750EA41060A
:1009980018BF52EA43067FF4C5AE50EA41047FF41B
:1009A8000DAF52EA43057FF4EBAE12E74FEA41027E
:1009B800B2F1E04324BFB3F5001CDCF1FE5C0DD9B5
:1009C80001F0004C4FEAC0024CEA5070B2F1004FFF
:1009D80040EB830008BF20F00100704711F0804F02
:1009E80021D113F13872BCBF01F00040704741F4C7
:1009F80080114FEA5252C2F11802C2F1200C10FACB
:100A08000CF320FA02F018BF40F001004FEAC123AE
:100A18004FEAD32303FA0CFC40EA0C0023FA02F352
:100A28004FEA4303CCE77FEA625307D150EA013328
:100A38001EBF4FF0FE4040F44000704701F00040F8
:100A480040F0FE4040F40000704700BF53B94AB977
:100A5800002908BF00281CBF4FF0FF314FF0FF30BE
:100A680000F06AB9ADF1080C6DE904CE00F006F8A3
:100A7800DDF804E0DDE9022304B070472DE9F04712
:100A8800089D0C46002B4ED194468C458646B2FAFA
:100A980082F262D94AB1C2F12003914020FA03F3ED
:100AA8000CFA02FC194300FA02FE4FEA1C471FFA2F
:100AB8008CF6B1FBF7F44FEA1E4307FB141143EA27
:100AC800014304FB06F199420AD91CEB030304F124
:100AD800FF3080F01281994240F20F81023C63445A
:100AE800591A1FFA8EF3B1FBF7F007FB101143EA0E
:100AF800014300FB06F69E420AD91CEB030300F1F2
:100B0800FF3180F0FC809E4240F2F9806344023855
:100B18009B1B40EA044000211DB1D3400022C5E9D7
:100B28000032BDE8F0878B4205D90DB1C5E9000157
:100B380000210846F5E7B3FA83F1002946D1A3421C
:100B480002D39042C0F0F080861A64EB03030120C0
:100B5800002DE6D0C5E90063E3E7002A40F0908065
:100B6800A1EB0C044FEA1C481FFA8CF70121B4FBD7
:100B7800F8F64FEA1E4308FB164443EA044307FB12
:100B880006F0984208D91CEB030306F1FF3402D2A1
:100B9800984200F2CD8026461C1A1FFA8EF3B4FB49
:100BA800F8F008FB104443EA044300FB07F79F42B0
:100BB80008D91CEB030300F1FF3402D29F4200F274
:100BC800B0802046DB1B40EA0640A5E7C1F12006BD
:100BD8008B4022FA06F71F4320FA06FC04FA01F3B9
:100BE80043EA0C03F44000FA01F8380C4FEA1349C1
:100BF800B4FBF0FE1FFA87FC00FB1E4449EA0444DC
:100C08000EFB0CF9A14502FA01F20AD93C190EF1C2
:100C1800FF3A80F08480A14540F28180AEF1020E57
:100C28003C44A4EB09041FFA83F9B4FBF0F300FB7E
:100C3800134449EA044403FB0CFCA44507D93C19B6
:100C480003F1FF3067D2A44565D9023B3C4443EA2F
:100C58000E40A0FB0293A4EB0C049C42CE469C469B
:100C680051D34ED055B1B8EB0E0364EB0C0404FA23
:100C780006F6CB401E43CC40C5E90064002150E78E
:100C8800C2F1200320FA03F10CFA02FC24FA03F360
:100C980094400C434FEA1C4800FA02FE1FFA8CF7F6
:100CA800B3FBF8F008FB1031230C43EA014300FBC7
:100CB80007F1994208D91CEB030300F1FF362CD247
:100CC80099422AD9023863445B1AA4B2B3FBF8F1FB
:100CD80008FB113344EA034401FB07F3A34208D994
:100CE8001CEB040401F1FF3613D2A34211D90239D7
:100CF8006444E41A41EA004139E70446F0E608464C
:100D080006E7C845AED2B9EB020E63EB070C013813
:100D1800A8E73146EDE7034699E73046D4E7D646DB
:100D28007FE7634402384DE70646234608460FE747
:100D3800023E634430E700BF704700BF08B5002299
:100D48000121024805F028F808BD00BF000400484A
:100D580008B501221146024805F01EF808BD00BF7B
:100D68000004004800B587B08DF80F0000238DF807
:100D780017304FF0FF33009301230DF117020DF1E7
:100D88000F01044807F05FFF9DF8170007B05DF8F2
:100D980004FB00BF8412002008B5FFF7CFFF062030
:100DA800FFF7E0FFFFF7D4FF08BD000010B5FFF71D
:100DB800C5FF0520FFF7D6FF054CFF20FFF7D2FF40
:100DC80010F0010F01D0013CF7D1FFF7C1FF10BDB2
:100DD800A086010070B504460E461546FFF7E6FFEB
:100DE800FFF7DAFFFFF7AAFF0220FFF7BBFFC4F304
:100DF8000740FFF7B7FFC4F30720FFF7B3FFE0B2E0
:100E0800FFF7B0FF002404E0305DFFF7ABFF0134CB
:100E1800A4B2AC42F8D3FFF79BFF70BD10B50446EF
:100E2800FFF7C4FFFFF7B8FFFFF788FF2020FFF7A1
:100E380099FFC4F30740FFF795FFC4F30720FFF7B6
:100E480091FFE0B2FFF78EFFFFF782FF10BD70B58C
:100E580004460E461546FFF7A9FFFFF76FFF03206C
:100E6800FFF780FFC4F30740FFF77CFFC4F30720B8
:100E7800FFF778FFE0B2FFF775FF002404E0FF20DA
:100E8800FFF770FF30550134AC42F8D3FFF760FF2D
:100E980070BD000010B58CB0002409940A940B941E
:100EA8002022214601A80CF007F936484FF0A0434C
:100EB80003604FF4403343608460C46004610123DD
:100EC80043610422826104774477026280F82440F7
:100ED8004FF4D462C2624FF48062026380F8383003
:100EE8004FF48053C36380F8404003F05FFB002851
:100EF80035D10023099309A9224804F0FFFA0028F4
:100F080030D1214B019306230293012303937F23BE
:100F18000493042305930023069301A9194803F0B9
:100F28009BFD10BB194B01930C23029301A9154893
:100F380003F092FDE0B9164B01931223029301A925
:100F4800104803F089FDB0B9124B0193182302939E
:100F580001A90C4803F080FD80B90CB010BD01F068
:100F6800EDFBC6E701F0EAFBCBE701F0E7FBD9E7C9
:100F780001F0E4FBDFE701F0E1FBE5E701F0DEFB70
:100F8800EBE700BF481000200800900C1000C010CC
:100F9800020030040400600800B589B02022002156
:100FA80068460CF089F81B481B4B03604FF440332C
:100FB800436000238360C36003614361042282614C
:100FC800037743770122026280F82430C362036307
:100FD80080F83830C36380F8403003F0E7FA98B9F6
:100FE8000E4B009306230193052302937F2303935B
:100FF80004230493002305936946064803F02CFD57
:1010080028B909B05DF804FB01F098FBE8E701F0A6
:1010180095FBF6E7DC0F002000010050001060325D
:1010280010B58CB0002409940A940B942022214610
:1010380001A80CF041F81F481F4B03604FF44033E0
:1010480043608460C460046144610423836104775D
:1010580044770123036280F82440C462046380F863
:101068003840C46380F8404003F0A0FAC8B90023B0
:10107800099309A90F4804F041FAA8B90F4B019345
:1010880006230293052303937F23049304230593E4
:101098000023069301A9074803F0DEFC38B90CB019
:1010A80010BD01F04BFBE2E701F048FBE6E701F079
:1010B80045FBF4E7700F00200004005002003004E4
:1010C80000B589B02022002168460BF0F5FF1B48C7
:1010D8001B4B03604FF44033436000238360C360BD
:1010E800036143610422826103774377012202622C
:1010F80080F82430C362036380F83830C36380F813
:10110800403003F053FA98B90E4B0093062301932D
:10111800072302937F230393042304930023059357
:101128006946064803F098FC28B909B05DF804FB45
:1011380001F004FBE8E701F001FBF6E7040F0020EB
:10114800000600501000C09030B5A3B0044600213E
:101158001D911E911F9120912191542208A80BF0F6
:10116800ABFF2368B3F1A04F0CD0724A93425BD017
:10117800714A934200F08B80704A934200F0BA8023
:1011880023B030BD4FF4004308934FF00053199338
:1011980008A807F01BFA002835D1694A13680133FB
:1011A8001360012B32D0674BDA6C42F00102DA642B
:1011B800DB6C03F001030293029B0F231D930323AF
:1011C8001E9300251F951DA94FF0904004F0F4FCD4
:1011D8005D485E4B0360052343608560C5608023DE
:1011E80003614FF4807343614FF48063836120236C
:1011F800C3614FF40053036204F04AFB88B9524BB1
:1012080063659C62BCE701F099FAC6E74D4BDA6C5E
:1012180042F40052DA64DB6C03F400530193019B3F
:10122800C1E701F08BFAEAE74FF4004308934FF067
:101238000053199308A807F0C9F9D0B9404A1368B0
:1012480001331360012B17D03E4BDA6C42F00202D7
:10125800DA64DB6C03F002030493049B04231D93FC
:1012680003231E9300231F931DA9394804F0A4FCEF
:1012780086E701F063FAE1E7324BDA6C42F4005298
:10128800DA64DB6C03F400530393039BDCE74FF44D
:10129800803308934FF000431A9308A807F096F993
:1012A800D0B92C4A136801331360012B17D0254B92
:1012B800DA6C42F00202DA64DB6C03F00203069394
:1012C800069B02231D9303231E9300231F931DA92E
:1012D8001F4804F071FC53E701F030FAE1E7194BBD
:1012E800DA6C42F48042DA64DB6C03F480430593E1
:1012F800059BDCE74FF4803308934FF000431A93C3
:1013080008A807F063F988B9124A13680133136013
:10131800012B7FF435AF0B4BDA6C42F48042DA6470
:10132800DB6C03F480430793079B29E701F006FA77
:10133800EAE700BF0001005000040050000600501A
:10134800A00E002000100240A40E00200800024059
:10135800000400489C0E002000B583B01E4B9A6C18
:1013680042F004029A649A6C02F004020092009A15
:101378009A6C42F001029A649B6C03F0010301939A
:10138800019B002205210B2004F0F6F90B2004F044
:1013980003FA002211460C2004F0EEF90C2004F0A8
:1013A800FBF9002205210D2004F0E6F90D2004F0D8
:1013B800F3F9002205210E2004F0DEF90E2004F0D6
:1013C800EBF9002205210F2004F0D6F90F2004F0D4
:1013D800E3F903B05DF804FB00100240814203DC2E
:1013E800824203DB00B270470846704710467047D8
:1013F800034B83FB0023A3EBE07000B200027047AD
:101408005655555530B583B0384B1C8B5B8B0191C5
:1014180091B18AB1DDED017AB8EE677A07EE902ACC
:10142800F8EEE77A02283DD003282DD0012808D00D
:101438002F4B00221A7002E02D4B00221A7003B0C5
:1014480030BDC7EE876ADFED2B7A66EEA77AB6EE77
:10145800007A77EE877A254B9A8A12B28821FDEEB8
:10146800E77A17EE900AFFF7B9FF0446FFF7C0FFC7
:101478004FF4E165204B1C80204B1D80204B1860E9
:101488001B4B01221A70DAE7184C608BE28A12B201
:10149800882100B2FFF7A2FF0546248B24B2FFF78C
:1014A800A7FFE7E737EEC77AC7EE276AF5EEC06A07
:1014B800F1EE10FA17D4DFED0F7A66EEA76AF6EEB2
:1014C800007A76EEA76A094CE28A12B28821FDEE0C
:1014D800E67A17EE900AFFF781FF0546248B24B2BF
:1014E800FFF786FFC6E7DFED076AE4E704000020A0
:1014F800F01000200080D4460200002000000020E8
:10150800EC1000200000000008B5934BD3ED077ADB
:10151800F8EE677ADFED914A67EEA47A9FED905A6C
:1015280087EE857AB2EE0E6A27EE067AD3ED036A65
:10153800F8EE666A66EEA46AC6EE857A67EE867A83
:10154800D3ED056AF8EE666A66EEA46A86EE856AE9
:10155800DFED845A75EEC66A9FED834A86EE846A8B
:10156800D3ED016AF8EE666A66EEA46AC6EE854AAD
:1015780075EEE45AC5EE846A7C4BD3ED005A37EE1B
:10158800657AB0EEC75AF0EE004AB4EEE45AF1EECE
:1015980010FA10DCF6EE004AB4EEE45AF1EE10FA56
:1015A80034DCDFED734AB4EEE45AF1EE10FA30DDC4
:1015B800B0EE645A01E09FED6F5A27EE057A35EEDA
:1015C800877A6A4B83ED007A6B4B83ED007A6B4B1D
:1015D80093ED007A77EEC77AF0EEE75AB0EE005A4C
:1015E800F4EEC55AF1EE10FA16DCB6EE005AF4EE37
:1015F800C55AF1EE10FA3ADC9FED5D5AF4EEC55A81
:10160800F1EE10FA36DDF0EE455A07E09FED5C5A30
:10161800D3E79FED5C5AD0E7DFED565A67EEA57A1F
:1016280077EE277A554BC3ED007A574BC3ED007A16
:10163800564B93ED007A76EE477AB0EEE76AF0EE15
:10164800005AB4EEE56AF1EE10FA16DCF6EE005A2E
:10165800B4EEE56AF1EE10FA3ADCDFED455AB4EE85
:10166800E56AF1EE10FA36DDB0EE656A07E0DFED07
:10167800445AD3E7DFED435AD0E79FED3E6A67EE61
:10168800867A77EE277A414BC3ED007A404BC3ED5B
:10169800007A404B93ED007A76EEC77AF0EEE76A6F
:1016A800B0EE006AF4EEC66AF1EE10FA16DCB6EE99
:1016B800006AF4EEC66AF1EE10FA47DC9FED2C6A78
:1016C800F4EEC66AF1EE10FA43DDF0EE466A07E082
:1016D8009FED2B6AD3E79FED2B6AD0E7DFED256AF4
:1016E80067EEA67A77EE277A2A4BC3ED007A2A4B63
:1016F800C3ED007A264BD3ED007AF0EEE77A9FED42
:10170800277AF4EEC77AF1EE10FA01D500221A60B2
:10171800214BD3ED007AF0EEE77A9FED207AF4EED4
:10172800C77AF1EE10FA01D500221A6001F00EFC1A
:101738001B4B83ED000A01F025FC1A4B83ED000AD0
:1017480001F03EFC184B83ED000A08BDDFED0C6A82
:10175800C6E7DFED0C6AC3E720110020E5D0524050
:1017680000F07F45E5D0D23F295C0F3E581100209C
:10177800CDCCCC3D3333333F0C1100205411002025
:101788009A99993E8FC2F53C08110020501100200B
:10179800041100204C110020001100200AD7233D1D
:1017A800FC100020F8100020F4100020014B01224A
:1017B8001A8070474011002070B5174D0024EC7155
:1017C800164E0321304605F0CAF9C021304605F00F
:1017D800C6F9AC71AC80124B1C6088221A839A82BD
:1017E8005A83DA820F4B1C600F4B1C600F4B1C6036
:1017F8000F4B1C600F4B1C600F4B104A5A604FF088
:101808007E529A600E4B0F4A1A600F4B0F4A1A60AD
:101818000F4B104A1A6070BD401100207011002053
:1018280004000020380000103400001030000010C0
:101838002400001020000010141100200000A04017
:10184800641100200000A04260110020000038420E
:101858005C1100209A99314138B5134B0022DA7196
:101868009A711A72114B1A70114B1A605A609A6069
:1018780088241C839C825C83DC820E4D03212846CD
:1018880005F06DF9C021284605F069F92B6846F680
:101898004022C3F89C2001F063F82B68C3F8A80025
:1018A800C3F81C4238BD00BF4011002014000010CE
:1018B800040000207011002008B5FFF7CDFF044B8D
:1018C8009B889BB213B9024B01221A8008BD00BF46
:1018D8004011002008B5FFF7BFFF0E4A13880133F7
:1018E8009BB21380C82B0BD91346C8221A800A4B07
:1018F8009B889BB223B9084B5B7ADBB2012B00D0E3
:1019080008BD0023034A1380034A02211180034AB9
:101918001370F5E7DA1000204011002010110020A4
:1019280038B5794B1B78012B5DD0022B79D003B1E8
:1019380038BD0024754BDC71754D0321284605F030
:101948000EF9C021284605F00AF9724B88229A82BE
:10195800DA82714A1460714A1460714A1460714ADB
:101968001460714A1460714A1480714A1480714A73
:1019780014805C60704AD2ED016AF2EE0E7A86EE4F
:10198800A77A9FED6E6AC7EE067ADFED6D6A67EE9D
:10199800A67AFDEEE77AC3ED027AD2ED027A9FEDE0
:1019A800697A67EE877A9FED687A37EE677AC7EECD
:1019B800067A67EEA67AFDEEE77AC3ED037ADB686E
:1019C800B3F5805F03DB534B40F6FF72DA60514B8F
:1019D800DB68002B03DB4C4B01221A70A8E74D4B48
:1019E8000022DA60F7E7514A138801339BB213806B
:1019F800052B9DD900231380464A882111839182A3
:101A08005183D18244490B6044490B6044490B60BF
:101A180044490B6044490B6053603B4B02221A70E7
:101A280086E73A4BDB79002B52D0384B0122DA712A
:101A3800384B5A689B689A420ADA364B5A6804321D
:101A48005A605A689B689A4202DD324B9A685A601B
:101A5800374B1A88013292B21A8036490B88013303
:101A68009BB20B802B49888AC2EB021212FA80F2D1
:101A780012B28A82CA8AC3EB031313FA82F31BB227
:101A8800CB828B8A9BB246F2E032934200D98A829B
:101A9800204BDB8A9BB244F21052934201D91D4B72
:101AA800DA821C4B9B8A1BB246F2E03293427FF4E7
:101AB8003FAF184BDB8A1BB244F2105293427FF4BB
:101AC80037AF124B03221A800F4B00221A702FE7F0
:101AD800114A1360114A1360114A1360114A1360C6
:101AE800114A13600A4C236846F64022C3F89C202A
:101AF800C3F81C22C021204605F015F80321204612
:101B080005F011F891E700BF1011002040110020E6
:101B1800701100200400002038000010340000106C
:101B2800300000102400001020000010D810002001
:101B3800D6100020D410002014110020E5D0524007
:101B480000F07F45295C0F3EE5D0D23F38B5384BD1
:101B5800D3ED027AF8EE677A9FED366A67EE867AF9
:101B6800DFED356A87EEA67AF2EE0E7A27EE277A4F
:101B7800D3ED007AF8EE677A67EE867A87EEA66A82
:101B8800DFED2E7A77EEC67A9FED2D6AC7EE866A6C
:101B9800F1EE047AF4EEE76AF1EE10FA06DDF6EEFD
:101BA800007AB4EEE77AF1EE10FA1DD4254B9B8843
:101BB80013F0200F17D0244A136801331360B3F5CC
:101BC800C87F10DD134600221A60204B1B780A2BB1
:101BD8001ED801331D4A13701A4A93889BB223F00A
:101BE80020039BB2938038BD164C0023E371184D37
:101BF8000321284604F097FFC021284604F093FFEC
:101C0800A3889BB243F02003A38004232380CDE75D
:101C18000E4B0B221A700B4B0022DA710C4C03216D
:101C2800204604F080FFC021204604F07CFFDAE75C
:101C380020110020E5D0524000F07F45E5D0D23F8A
:101C4800295C0F3E40110020D0100020CE1000204B
:101C58007011002038B51C4BD3ED027AF8EE677A84
:101C68009FED1A7A67EE877ADFED196A87EEA67A12
:101C7800F2EE0E7A67EE277A164B93ED007AB4EE01
:101C8800E77AF1EE10FA1BD8134A138801339BB296
:101C98001380022B17D900231380104CE371104DC9
:101CA8000321284604F05BFFC021284604F057FFB3
:101CB800A3889BB243F00803A3800423238002E097
:101CC800054B00221A8038BD20110020E5D0524073
:101CD80000F07F4560110020CC100020401100204A
:101CE8007011002038B5384BD3ED007AF8EE677ADA
:101CF8009FED367A67EE877ADFED356A87EEA67A4A
:101D0800DFED347A77EEC77ADFED336A87EEA67AAD
:101D1800324BD3ED007AF4EEC77AF1EE10FA04D81C
:101D28002F4B1B889BB2032B21D02E4B00221A80ED
:101D38002B4B9B8813F0100F18D02B4A13880133B4
:101D48009BB21380B3F5C87F10D9134600221A80BE
:101D5800264A138801339BB213800A2B23D8204AC2
:101D680093889BB223F010039BB2938038BD1D4A21
:101D7800138801339BB213800A2BD9D9002313800F
:101D8800174CE3711A4D0321284604F0E8FEC021E0
:101D9800284604F0E4FEA3889BB243F01003A38016
:101DA80004232380C4E713460B221A800C4B00221D
:101DB800DA710F4C0321204604F0D1FEC0212046E1
:101DC80004F0CDFED2E700BF20110020E5D052403C
:101DD80000F07F45E5D0D23F295C0F3E5C11002022
:101DE80040110020CA100020C8100020C610002092
:101DF8007011002010B5044602F090FB2CB1042CA1
:101E08000CD95F2C0BD95F2409E00023184A137002
:101E1800184A1360184A1268D3631BE00524144B50
:101E28001B7833B9124B01221A7000F59673114AC8
:101E38001360104B1B681B1A002B0CDC04EB84048A
:101E480062000D4BDB68B3EB440F00D313460A4A1C
:101E58001268D36310BD084BDB6840F2B532934279
:101E680001D940F2B633044A1268D363F2E700BFDF
:101E7800B8100020B41000203413002038B52DED20
:101E8800028B01F063F8B0EE408A01F07BF8154B45
:101E9800D3ED007AF4EEC87AF1EE10FA06D9D3ED54
:101EA800007AF4EEC07AF1EE10FA17D80E4C01233E
:101EB80023800023E3710D4D0321284604F04FFED3
:101EC800C021284604F04BFEA3889BB243F0400390
:101ED800A380042323805F20FFF78CFFBDEC028BD7
:101EE80038BD00BF6411002040110020701100208F
:101EF80010EE103A0360704730B58DB001220BA97F
:101F08000020FEF7A4FF9DF82C300BB90DB030BDB2
:101F18000020FEF783FF00248DF81440264D95ED30
:101F2800010A6846FFF7E4FF95ED020A01A8FFF7EA
:101F3800DFFF224B93ED000A02A8FFF7D9FF204BE1
:101F480093ED000A03A8FFF7D3FF1E4B93ED000A99
:101F580004A8FFF7CDFF234626E0581C03F1300202
:101F68006A4412F8304C03F13101694401F81C4C01
:101F780012F82C4C03F13501694401F81C4C12F895
:101F8800284C03F13901694401F81C4C12F8244C1F
:101F980003F13D01694401F81C4C12F8202C41332F
:101FA8006B4403F81C2CC3B2032BD6D9152205A900
:101FB8000020FEF70FFFA9E714110020641100208C
:101FC8005C11002060110020324B93ED007AF7EE8F
:101FD800007AB4EE677AF1EE10FA00D0704730B5A7
:101FE8008DB00020FEF71AFF00248DF81840294D07
:101FF80095ED010A01A8FFF77BFF95ED020A02A8FB
:10200800FFF776FF244B93ED000A03A8FFF770FF54
:10201800224B93ED000A04A8FFF76AFF204B93EDCB
:10202800000A05A8FFF764FF234626E0581C03F1C1
:1020380030026A4412F82C4C03F13101694401F86A
:10204800184C12F8284C03F13501694401F8184C72
:1020580012F8244C03F13901694401F8184C12F8BC
:10206800204C03F13D01694401F8184C12F81C2C6E
:1020780041336B4403F8182CC3B2032BD6D915226D
:1020880006A90020FEF7A6FE024B00221A600DB03A
:1020980030BD00BF14110020641100205C11002025
:1020A80060110020036800EE103A704700B52DED6E
:1020B800048B8BB014220DEB02010120FEF7C7FE42
:1020C800002325E003F128020DEB020111F8142C7E
:1020D80001F8182C03F12C026A4412F8142C01F8A8
:1020E8001C2C03F130026A4412F8142C01F8202C3D
:1020F80003F134026A4412F8142C01F8242C03F179
:1021080038026A4412F8142C01F8282C0133DBB287
:10211800032BD7D904A8FFF7C5FFF0EE408A03A820
:10212800FFF7C0FFB0EE408A02A8FFF7BBFFF0EE52
:10213800409A01A8FFF7B6FFB0EE409A6846FFF74D
:10214800B1FFF0EE407AF4EE688AF1EE10FA0ED1A3
:10215800F5EEC08AF1EE10FA09DD9FED327AF4EE61
:10216800C78AF1EE10FA02D82F4BC3ED018AB4EEFC
:10217800488AF1EE10FA0ED1B5EEC08AF1EE10FAE7
:1021880009DB9FED2A7AB4EEC78AF1EE10FA02D87D
:10219800254B83ED028AF4EE699AF1EE10FA10D11C
:1021A800B2EE047AF4EEC79AF1EE10FA09DB9FED6D
:1021B800207AF4EEC79AF1EE10FA02D81D4BC3ED5F
:1021C800009AB4EE499AF1EE10FA10D19FED1A7AFE
:1021D800B4EEC79AF1EE10FA09DB9FED147AB4EE6B
:1021E800C79AF1EE10FA02D8144B83ED009AF4EE78
:1021F800677AF1EE10FA10D1B7EE007AF4EEC77AEA
:10220800F1EE10FA09DB9FED077AF4EEC77AF1EEEA
:1022180010FA02D80A4BC3ED007A0BB0BDEC048B60
:102228005DF804FB0000C842141100200000484279
:102238000000164364110020CDCCCC3D5C11002079
:102248006011002030B589B00024039404940594EB
:1022580006940794174BDA6C42F02002DA64DA6CC1
:1022680002F020020092009ADA6C42F00102DA646D
:10227800DA6C02F001020192019ADA6C42F0020271
:10228800DA64DB6C03F002030293029B0A4D2246D8
:1022980043F62101284603F07FFD43F6210303930B
:1022A800012304930594069403A9284603F084FCAB
:1022B80009B030BD001002400004004802680E4B0F
:1022C8009A4200D0704700B583B003F528431A6ED0
:1022D80042F080621A661B6E03F080630193019BD3
:1022E80000220121442003F047FA442003F054FA65
:1022F80003B05DF804FB00BF0068014070B588B00A
:1023080000230393049305930693079302681A4BDB
:102318009A4201D008B070BD03F52843DA6C42F048
:102328000202DA64DA6C02F002020192019ADA6CB3
:1023380042F00102DA64DB6C03F001030293029BB2
:102348004FF44043039302260496032506950D2473
:10235800079403A9094803F02FFC4FF44073039333
:102368000496002305930695079403A94FF090401F
:1023780003F022FCCEE700BF0068014000040048DB
:1023880010B5BAB0002438943994349435943694FE
:1023980037942D942E942F9430943194329433940E
:1023A8006022214615A80AF087FE1294139414940B
:1023B800242221460DEB02000AF07EFE202221464F
:1023C80001A80AF079FEA548A54B03604460846023
:1023D80003F01AFF002840F002810C219F4803F007
:1023E8007FFF002840F0FE800A219C4803F0B1FFDF
:1023F800002840F0FA804FF4803338934FF400639C
:10240800399338AA0121954803F0DEFF002840F0EF
:10241800EF8000220121914804F00FF9002840F0D4
:10242800EA8046F6402334930021359136910823FB
:10243800379334AA894803F0AEFF002840F0DE80C5
:1024480000212D912F91309133912DAA834804F0CA
:10245800FFF9002840F0D58010231593002116912C
:1024680017911891012319931A911B911C911D9191
:102478001E914FF000631F93209121914FF000535C
:102488002293239124914FF0004325934FF48073B6
:102498002693279129912A912B912C9115AA6F485F
:1024A80004F090F9002840F0AF800023159327939B
:1024B80015AA0321694804F085F9002840F0A7808F
:1024C80043F22053129312AB01220021634804F017
:1024D8002DFA002840F09E8012AB042200215F48AC
:1024E80004F024FA002840F0988045F2E47312932F
:1024F8004FF4805313930021149112AB08225748CC
:1025080004F014FA002840F08B800021099164231C
:102518000A930B914FF400420C924FF480420D92B3
:102528000E930F914FF0004310934FF08043119397
:1025380009AA4A4804F0A8F9002874D109AA032175
:10254800464804F0A1F9002870D100210191042324
:10255800029308230393049105910691079108912A
:1025680001AB01223D4804F0C2FA002861D101AB59
:1025780040220321394804F0BAFA00285CD100212E
:102588000291039101AB0222344804F0B0FA00280A
:1025980055D101AB80220321304804F0A8FA002865
:1025A80050D134AA03212D4803F0F5FE00284CD160
:1025B8002DAA0321294804F04BF9002848D14FF4EB
:1025C8008873129312AB01220321244804F0AEF958
:1025D800002840D12148FFF791FE3AB010BD00F025
:1025E800ADF8FAE600F0AAF8FEE600F0A7F802E770
:1025F80000F0A4F80DE700F0A1F812E700F09EF84B
:102608001EE700F09BF827E700F098F84DE700F088
:1026180095F855E700F092F85EE700F08FF864E768
:1026280000F08CF871E700F089F887E700F086F889
:102638008BE700F083F89AE700F080F89FE700F056
:102648007DF8A6E700F07AF8ABE700F077F8AFE797
:1026580000F074F8B3E700F071F8BBE770110020E0
:102668000068014008B50848084B0360032343602D
:102678004FF47A73C360836004F0A7FA00B908BD09
:1026880000F05CF8FBE700BF6C120020003000404F
:1026980010B504460268214B9A4208D02268204BA4
:1026A8009A421AD022681F4B9A4233D010BD1E4A54
:1026B80013889BB201339BB213801C4A13889BB2C8
:1026C80001339BB213801A4A13889BB201339BB221
:1026D8001380184804F0AFFAE0E70AF0D1FEFFF7DC
:1026E80035FAFFF7CBFBFFF7B5FAFFF7FBFA0AF06D
:1026F800C3FE0AF0B9FE01F075FC0F4A13780133E6
:10270800DBB21370032BCDD9134600221A7001F0E7
:102718002BFCC7E7FEF7F8FEC8E700BF0010004033
:102728000014004000440140821200208012002062
:102738007E1200206C1200207C12002072B6FEE788
:1027480000B595B03822002106A80AF0B5FC002093
:102758000190029003900490059005F087FA2923D0
:1027680006934FF48033079301230B930C930223B2
:102778000D9303220E9205220F9244221092119378
:1027880008221292139306A805F02AFB90B90F238A
:1027980001930323029300230393049305930421D5
:1027A8000DEB010005F0D2FD30B905F0F5FE15B0CE
:1027B8005DF804FBFFF7C2FFFFF7C0FF08B501F0A3
:1027C80091FEFFF7BDFFFFF73DFDFEF7C5FDFEF7E4
:1027D80061FBFEF775FCFFF7D3FD00F007F900F089
:1027E80057FD01F0DDFC01F00FFDFEF7D5FBFEF70C
:1027F80017FC09F0BFFE00F04DFC00F075FC00F07E
:102808009DFCFFF72FFF344B00221A800821334824
:1028180007F016F85F20FFF7EDFA314806F0FCFCE8
:10282800304806F0F9FC304806F0F6FC00F096F95E
:1028380000F0AAF8FEF7C0FFFFF75EFBFFF736FCD3
:1028480001F034FB01222021284803F0A5FA642076
:1028580001F06AFE264C7F21204602F001FE7F210E
:10286800244802F0FDFD7F21234802F0F9FD7F2175
:10287800224802F0F5FD04222149204602F0E4FC3A
:10288800204C4FF40031204604F085F94FF48011B4
:10289800204604F080F92268D2F88C3043F0100307
:1028A800C2F88C3001E001F09DFB174B1B889BB2EE
:1028B800312BF8D9144B00221A8000F05FF9134B22
:1028C8001B889BB2B3F5FA7FEDD3104B00221A8018
:1028D800FFF77AFBE7E700BF401100203413002020
:1028E800CC13002080130020E812002000040048C8
:1028F80048100020DC0F0020700F0020040F00207B
:1029080068110020701100207E1200208212002021
:102918000230104B83FB00C2A2EBE072100283FB73
:1029280001C3A3EBE1731BB21B02B3EB022F00DA66
:102938000346094A12689A4201DD074A1360064BAA
:102948001B68834201DA044B1860034B1A68034B77
:102958001A60704756555555240000102000001085
:10296800084B188880B2B0F52A7F04D346F29873D2
:10297800984203D870474FF42A70704746F298700F
:10298800F8E700BF0C00001000230C4A13600C4A43
:1029980013600C4A13600C4A13600C4A13600C4A0B
:1029A80013600C4A13600C4A13600C4A13600C4AFB
:1029B80013700C4A13600C4A1370704738000010EB
:1029C8003400001030000010240000102000001017
:1029D8001C000010180000102C0000102800001027
:1029E80014000010100000100E00001008B5104868
:1029F800104B03604FF482734360002383604FF4ED
:102A0800E062C260036143614FF400728261182280
:102A1800C2610362436283620722C26203630823BE
:102A2800436306F09CF800B908BDFFF787FEFBE793
:102A3800841200200030014000B589B000230393C0
:102A480004930593069307930268144B9A4202D0A5
:102A580009B05DF804FB03F560431A6E42F4805236
:102A68001A661A6E02F480520192019ADA6C42F0E8
:102A78000102DA64DB6C03F001030293029BE0239A
:102A8800039302230493032306930523079303A9BF
:102A98004FF0904003F090F8DAE700BF00300140B3
:102AA8001348854600F076F912481349134A002363
:102AB80002E0D458C4500433C4188C42F9D3104AE5
:102AC800104C002301E013600432A242FBD30E48ED
:102AD8000E490F4A002302E0D458C4500433C418E6
:102AE8008C42F9D30AF0F0FAFFF768FEFEE700001F
:102AF80000000220000000206C04002028D50008F7
:102B0800800E00205C7B002070040020800E0020D6
:102B180094D90008FEE7B0FBF1F000F0010070471F
:102B280010B582B001900C4C9DF804204FF4006160
:102B3800204603F031F99DF805204FF480512046D6
:102B480003F02AF99DF806204FF40051204603F0BF
:102B580023F902B010BD00BF0004004800B583B0DF
:102B680000238DF8043001228DF805208DF80630F9
:102B78000198FFF7D5FF03B05DF804FB30B589B0C5
:102B880001F0CCFC04464FF4FA71FFF7C4FF054688
:102B980064212046FFF7BFFF324B9B889BB26BB97D
:102BA800304B1B889BB2042B08D02E4B1B889BB242
:102BB800032B4BD8DFE803F00E1A333E8DF80400E0
:102BC80000238DF805308DF806300198FFF7A8FF2F
:102BD80009B030BD00238DF8083001228DF8092096
:102BE8008DF80A300298FFF79BFFF1E71D4B5B7ADF
:102BF80053B100238DF818308DF819008DF81A306C
:102C08000698FFF78DFFE3E700238DF81C308DF859
:102C18001D508DF81E300798FFF782FFD8E7002374
:102C28008DF80C308DF80D008DF80E000398FFF725
:102C380077FFCDE700238DF810308DF81130012390
:102C48008DF812300498FFF76BFFC1E78DF8140078
:102C580000238DF815308DF816300598FFF760FFC2
:102C6800B6E700BF4011002000B583B00B4B1A6EC9
:102C780042F001021A661A6E02F001020092009AEE
:102C88009A6D42F080529A659B6D03F080530193D0
:102C9800019B05F071F803B05DF804FB00100240D9
:102CA80008B505F083FCFEE7FEE7FEE7FEE7FEE772
:102CB80070477047704708B501F024FC08BD000054
:102CC80008B5024802F015FF08BD00BFA40E002099
:102CD80008B5024802F00DFF08BD00BF085A0020E1
:102CE80008B5024802F005FF08BD00BFA85900203A
:102CF80008B5024802F0FDFE08BD00BFC85A002012
:102D080008B5024802F0F5FE08BD00BF685A002069
:102D180008B5024807F002F808BD00BFBC5B0020F8
:102D280008B5024806F0FAFF08BD00BF285B00207E
:102D380008B5024804F051FD08BD00BF48730020E3
:102D480008B5024806F0B6FA08BD00BFE812002030
:102D580008B5024806F0AEFA08BD00BFCC13002043
:102D680008B5024806F0A6FA08BD00BF8013002087
:102D780008B5074B1B68D3F88C2012F0100F00D150
:102D880008BD1022C3F888200AF072FBF8E700BFDC
:102D980070110020034AD2F8883043F47003C2F857
:102DA8008830704700ED00E020EE800AF7EE007AE8
:102DB80077EEE00AD0ED007A60EEA70A30EE200A3E
:102DC80080ED000A7047000040F6FE73984202D971
:102DD8009FED490A70472DE9D0430C46C0F57F6046
:102DE8000F3007EE900AF8EE677A17EE900AFDF7B3
:102DF80073FB35A3D3E90023FDF7C6FB34A3D3E95E
:102E08000023FDF7EBFCFDF7D1FDFDF765FB8046E0
:102E1800894631A3D3E90023FDF7B6FB06460F46E2
:102E280042464B4628A1D1E90001FDF7F5F90246D3
:102E38000B4630463946FDF7D1FCFDF7B7FD00EEED
:102E4800100AF2EE047A80EE270A0AF0DBF910EE97
:102E5800100AFDF741FB22A3D3E90023FDF7BEFCCE
:102E680021A3D3E90023FDF7D9F902460B46002038
:102E78002249FDF7B3FCFDF799FDFDF72DFB1CA3D7
:102E8800D3E90023FDF7C8F9FDF790FD00EE100A1D
:102E9800DFED197AB4EEE70AF1EE10FA09D4DFEDA6
:102EA800187AB4EEE70AF1EE10FA04DD9FED140A81
:102EB80001E09FED110A2046DFED120AFFF774FFCB
:102EC800BDE8D083AFF300806666666666660A4032
:102ED8000000000000FEAF403333333333331B4070
:102EE800000000000068AA40000000E0E1796B3FA4
:102EF8006666666666127140000020C20000F03FF8
:102F08000000F042CDCCCC3D70B5D8B10C46064699
:102F1800D1B102F0FFF8054610B10025284670BD72
:102F28000221304601F090FC40B9304601F038FDEE
:102F38002060304602F072FA0125EFE7304602F0D1
:102F48006DFAEBE70025E9E70025E7E700B583B070
:102F580001A90948FFF7D8FF28B9084B93ED000AE3
:102F680003B05DF804FB06490198FFF72DFF034BFA
:102F780083ED000AF4E700BFDC0F00203C000020CE
:102F88003800002000B583B001A90948FFF7BCFF4D
:102F980028B9084B93ED000A03B05DF804FB064915
:102FA8000198FFF711FF034B83ED000AF4E700BF18
:102FB800700F0020340000203000002000000000C6
:102FC80070B52DED028B82B001A92B48FFF79CFF4D
:102FD80030B92A4B93ED000A02B0BDEC028B70BDEC
:102FE800274EB6F8CA309BB2B6F8A82092B29B1A00
:102FF80007EE903AF8EEE77A9FED227A87EE278A75
:10300800DDED017AF8EE677A17EE900AFDF764FABB
:1030180017A3D3E90023FDF7B7FA04460D46B6F81F
:10302800A80080B2FDF746FA02460B46204629461C
:10303800FDF7F2F804460D4618EE100AFDF74CFAB3
:1030480022462B46FDF7A0FA00220F4BFDF7E6F8C3
:10305800FDF7ACFC00EE100A0C48DFED0D0AFFF797
:10306800A3FE064B83ED000AB6E700BFAFF300806E
:10307800999999999999F13F040F00202C00002003
:103088000075FF1F0000C84200003E4028000020D5
:10309800CDCCCC3D00B585B00023019302930393BA
:1030A8000F48104A0260A9224260836040F2E73369
:1030B800C3608023836106F067FA50B90023019347
:1030C800039301A9064806F079FC28B905B05DF814
:1030D80004FBFFF733FBF1E7FFF730FBF6E700BF30
:1030E800CC1300200010004000B585B000230193E8
:1030F800029303930F48104A0260A922426083603A
:1031080041F28733C3608023836106F03DFA50B9EA
:1031180000230193039301A9064806F04FFC28B940
:1031280005B05DF804FBFFF709FBF1E7FFF706FBC5
:10313800F6E700BF801300200014004008B50A48D5
:103148000A4B0360A92343600023836042F20F7295
:10315800C260036143618023836106F015FA00B9F8
:1031680008BDFFF7EBFAFBE7E81200200044014036
:1031780000B585B00368224A934208D0214A934299
:1031880018D0214A934228D005B05DF804FB1F4BA4
:103198009A6D42F010029A659B6D03F0100301933B
:1031A800019B00220321362002F0E6FA362002F0C5
:1031B800F3FAE9E7154B9A6D42F020029A659B6D88
:1031C80003F020030293029B00220221372002F021
:1031D800D3FA372002F0E0FAD6E70C4B1A6E42F425
:1031E80000321A661B6E03F400330393039B00221C
:1031F8000321192002F0C0FA192002F0CDFAC3E722
:10320800001000400014004000440140001002403B
:103218000268094B9A4200D0704782B003F55C43BC
:103228001A6E42F400521A661B6E03F4005301939F
:10323800019B02B0704700BF0034014000B587B061
:1032480000230193029303930493059302680E4BA2
:103258009A4202D007B05DF804FB03F55C43DA6CD0
:1032680042F00202DA64DB6C03F002030093009B75
:103278004FF400730193022302930A23059301A9D3
:10328800024802F099FCE5E70034014000040048D8
:1032980010B598B000241594169417940E940F94B2
:1032A800109411941294139414943422214601A872
:1032B80009F002FF29482A4B0360A9234360846070
:1032C80040F2E733C360046144618023836106F000
:1032D8008BF9002836D1002315931693179315A957
:1032E8001E4806F06BFB00282FD160230E934FF485
:1032F800FA730F930023109311931293139314935B
:1033080008220EA9154806F0EFF908BB002301931F
:1033180002930393049305934FF400520692079384
:10332800089309934FF000720A920B930C930D9334
:1033380001A90A4806F098FB68B90848FFF77EFF1C
:1033480018B010BDFFF7FAF9C5E7FFF7F7F9CCE7B2
:10335800FFF7F4F9DAE7FFF7F1F9EEE734130020A5
:10336800003401400020704710B50446FFF7FAFF0B
:10337800A04214BF0020012010BD000010B5044673
:10338800FFF7F2FF50B1022C0AD841F20E4303FBBB
:1033980004F000F61800034B184410BD0020FCE7A9
:1033A8000020FAE764150020B0F5803F01D280B212
:1033B80070474FF6FF707047B5EEC00AF1EE10FA8D
:1033C8000FD908B5DFED087A20EE270AF6EE007A65
:1033D80030EE270AFCEEC07A17EE900AFFF7E4FFFA
:1033E80008BD0020704700BF00007A44B5EEC00A4F
:1033F800F1EE10FA11DBDFED107A20EE270AF6EE77
:10340800007A30EE270AFDEEC07A17EE900A0028FF
:1034180010DB08B5FFF7C8FF08BDDFED077A20EE1F
:10342800270AF6EE007A30EE670AFDEEC07A17EE4C
:10343800900AECE7002070470000C842094B1B883F
:103448009BB2032B09D8DFE803F0020A0406012027
:10345800704704207047082070470F2070470220EB
:10346800704700BF40110020084B9B79DBB2022B4C
:1034780007D0032B07D0012B01D000207047012073
:103488007047022070470320704700BF401100209A
:10349800034B1878C0B2013818BF0120704700BF2D
:1034A80014000010064B9B79DBB2012B03D0054BAF
:1034B800588B80B27047034B188B80B2704700BF9F
:1034C800401100200400002008B50D4B1B68002B9C
:1034D80013DD0B4BD3ED007AF8EEE77A9FED097A0E
:1034E80067EE877AB2EE0E7A67EE877A9FED060A64
:1034F80087EE800AFFF760FF08BD0020FCE700BFE9
:1035080004000020E5D0524000F07F4508B5034B89
:1035180093ED020AFFF750FF08BD00BF1411002009
:1035280008B50E4BD3ED007AF5EEC07AF1EE10FA3D
:1035380009DC0B4BD3ED007AF5EEC07AF1EE10FA08
:1035480006DC002003E093ED000AFFF735FF08BD15
:1035580093ED000AFFF730FFF9E700BF00110020E4
:1035680004110020014BB3F80808704764150020C7
:10357800014BB3F808087047641500201B4AD2EDC8
:10358800016AF2EE0E7A86EEA77A9FED196AC7EE07
:10359800067ADFED186A67EEA67AFDEEE77A164B33
:1035A800C3ED027AD2ED027A9FED147A67EE877A3C
:1035B8009FED137A37EE677AC7EE067A67EEA67A3A
:1035C800FDEEE77AC3ED037ADB68B3F5805F03DBD2
:1035D800094B40F6FF72DA60074BDB68002B00DB13
:1035E8007047054B0022DA60FAE700BF141100208B
:1035F800E5D0524000F07F4504000020295C0F3ED2
:10360800E5D0D23F10B52DED028B654B93ED008AC6
:10361800644BD3ED007AF4EEC87AF1EE10FA01DDCE
:1036280093ED008A604B93ED000AFFF7C5FE5F4BF0
:1036380018805F4B93ED000AFFF7BEFE5D4B1880C4
:103648005D4B93ED000AFFF7B7FE5C4B18805C4BAF
:1036580093ED000AFFF7B0FE5A4B18805A4B93EDD2
:10366800000AFFF7C3FE594B18804D4B93ED000A33
:10367800FFF7BCFE564B18804A4B93ED000AFFF744
:10368800B5FE544B1880544C94ED010AFFF794FE94
:10369800524B188094ED020AFFF78EFE504B1880AB
:1036A800FFF7F6FE4F4B18804F4B5B7A002B75D017
:1036B80001224E4B1A804C4B9A884D4B1A80FFF7CB
:1036C800BDFE4C4B1880FFF7CFFE4B4B18804B4C80
:1036D800A069FFF769FE4A4B18802069FFF764FE6E
:1036E800484B1880A068FFF75FFE474B188020689A
:1036F800FFF75AFE454B1880B0EE480AFFF776FEF2
:10370800434B1880434B93ED000AFFF76FFE424B83
:103718001880294B93ED000AFFF74EFE3F4B1880A7
:103728003F4B93ED000AFFF747FE3E4B1880244BB2
:1037380093ED000AFFF740FE3B4B18803B4B93ED9F
:10374800000AFFF739FE3A4B1880FFF7ABFE394BFA
:103758001880394B1C68D4F89C00FFF725FE374BBE
:103768001880D4F81C02FFF71FFE354B1880FFF7AE
:10377800F9FE344B1880FFF7FBFE334B1880FFF738
:10378800CFFE324B1880FFF7C1FE314B1880FFF790
:103798009BFE304B1880BDEC028B10BD002288E7E1
:1037A800FC100020F81000200C11002056140020F6
:1037B8000411002054140020081100205214002085
:1037C8000011002050140020F41000204E14002096
:1037D8004C1400204A140020141100204814002022
:1037E80046140020441400204011002042140020F8
:1037F800401400203E1400203C140020201100201A
:103808003A14002038140020361400203414002004
:103818003214002064110020301400202E140020DF
:10382800601100202C1400202A1400205C110020B4
:1038380028140020261400207011002024140020D1
:1038480022140020201400201E1400201C14002024
:103858001A1400201814002080B1072910D9027802
:10386800AA2A01D0002070474278552A01D00020AA
:1038780070470379902B05D00020704700207047CF
:10388800002070470120704788B1094A92F807283C
:103898006AB10178064A1278914208D100F580533E
:1038A800B3F80C341BB9024B002283F80728704781
:1038B80064150020054BD3F8BC322BB1D3F81402A1
:1038C800B0FA80F04009704701207047585C00202A
:1038D80080B310B5044600F5805393F80D346BB1EE
:1038E800037823B9144AD2F88820202A07D0012B5C
:1038F8000BD0022B14D02046FFF7C6FF10BD00F5F1
:103908008053002283F80D24F5E70C4AD2F888206A
:10391800202AEED104F58053002283F80D24EAE72B
:10392800FFF7C8FF0028E6D004F58053002283F88B
:103938000D24E0E7704700BFBC5B0020285B002037
:1039480008B500F0EBFD5030014BC3F8140808BD72
:103958006415002010B5054BD3F8144800F0DEFDBF
:10396800201A0028D4BF0020012010BD64150020B3
:1039780010B5112009F048FA044668B1614B1B885C
:1039880007EE903AF8EE677ADFED5F6A87EEA67A7F
:103998005E4B83ED017A0124122009F035FA68B1F3
:1039A8005B4B1B8807EE903AF8EE677ADFED566AB4
:1039B80087EEA67A554B83ED027A01241E2009F082
:1039C80023FAD0B1534B1B8807EE903AF8EE677A8A
:1039D800DFED516A87EEA67AF2EE047AB4EEE77A62
:1039E800F1EE10FA09DBDFED4D7AB4EEE77AF1EE8D
:1039F80010FA02D84A4B83ED007A202009F004FA25
:103A0800D0B1484B1B8807EE903AF8EE677ADFEDA5
:103A18003E6A87EEA67AF7EE007AB4EEE77AF1EE20
:103A280010FA09DBDFED3C7AB4EEE77AF1EE10FA32
:103A380002D83D4B83ED007A222009F0E5F9D0B198
:103A48003A4B1B8807EE903AF8EE677ADFED2E6A5C
:103A580087EEA67ADFED367AB4EEE77AF1EE10FA61
:103A680009DBDFED347AB4EEE77AF1EE10FA02D82A
:103A7800314B83ED007AE4B9152009F0C5F938B166
:103A88002E4B1B88E3B101222D4B5A725B7ACBB1C6
:103A9800272009F0B9F9002833D02A4B1B885A1E71
:103AA80092B240F2B5318A4217D8312B17D8322357
:103AB80015E0164B4FF07E521A60FFF75FFDDBE70B
:103AC8000022E1E7FDF7C8FE1D4B1B889BB2042BC3
:103AD800DED01B4B01221A80DAE740F2B6331A48CF
:103AE800A0FB0320194C012284F80628A4F8083802
:103AF800144A1380C008FEF77DF900F00FFDC4F8E2
:103B08000C0810BD4814002000007A44141100204D
:103B180046140020301400200000C842000016435C
:103B2800641100202C1400206011002028140020AB
:103B3800CDCCCC3D000048425C110020421400204E
:103B4800401100201E140020CDCCCCCC64150020E0
:103B580008B5FFF70DFFFFF755FD08BD10B5044682
:103B68004FF4806206F06CFE38B9D4F8803023B187
:103B78001A68136823F00403136010BD70B50E466D
:103B880015461C46B3F5806F01D94FF480642B8825
:103B9800A3420AD3A34211D8B4F5806F1ED0B4F55E
:103BA800806F00D300242C8070BDFFF7C9FE2888E1
:103BB800211A89B2304409F001F8F0E7FFF7C0FE96
:103BC8002888C0F5806189B2304408F0F7FF002CDE
:103BD800E9D02146304608F0F1FFE0E7FFF7B0FEF4
:103BE8002888C0F5806189B2304408F0E7FFD6E73D
:103BF80008B50020FFF7B8FB78B1124BD3F8803036
:103C08005BB11B685B689BB2C3F580630E4A9BB2CD
:103C1800A2F601010020FFF7B1FF0120FFF7A4FB86
:103C280078B10A4BD3F880305BB11B685B689BB2F4
:103C3800C3F58063064A9BB2A2F203410120FFF755
:103C48009DFF08BDBC5B0020661D0020285B00208E
:103C5800681D002000286DD070B51446054600295F
:103C68006AD0002A6AD0B2F5806F69D800F580530F
:103C780093F80D3443B1037823B9334AD2F8882036
:103C8800202A22D0012B26D005F5805393F80D3435
:103C9800002B57D16E1C2246304609F03BFA2B7890
:103CA80023B3012B34D005F58053012283F80D246A
:103CB8002146304608F0C0FC002840D005F5805366
:103CC800002283F80D24022039E000F580530022F9
:103CD80083F80D24D8E71D4BD3F88830202BD3D197
:103CE80005F58053002283F80D24CDE705F58053B0
:103CF800012283F80D2422463146134805F054FF6B
:103D0800E8B105F58053002283F80D24022016E05F
:103D180005F58053012283F80D24224631460B48CD
:103D280005F042FF58B105F58053002283F80D24B1
:103D3800022004E001207047012000E0012070BD4E
:103D48000120FCE70220FAE7BC5B0020285B00208A
:103D5800C8B338B5044600F5805393F80C3403B95A
:103D680038BD00F5805393F80A5405EB4521490006
:103D780001F58061014405EB452300EB4303B3F8EB
:103D880002280231FFF766FF0028E9D105EB452537
:103D980004EB45050023A5F8023804F5805292F893
:103DA8000A340133DBB282F80A34032B03D91346F1
:103DB800002283F80A2404F5805494F80C34013B5B
:103DC80084F80C34CCE7704770B110B50446FFF79F
:103DD8007FFD2046FFF7BCFF04F58054B4F80C04BF
:103DE800B0FA80F0400910BD00207047002852D07A
:103DF8002DE9F8430E461446054600294DD0002A01
:103E08004DD0B2F5806F4DD811463046FFF724FDEE
:103E1800074618B1244B012283F807282246314669
:103E28002846FFF717FFD8B305F5805393F80C34ED
:103E3800032B29D805F5805999F80B844FEA4827B0
:103E480008EB4820400000F58060284422463146AF
:103E5800023009F05FF9474405EB4707A7F8024825
:103E680099F80B340133DBB289F80B34032B02D9F0
:103E7800002289F80B2405F5805595F80C34013398
:103E880085F80C3400200BE01FB1074B002283F8A3
:103E98000728022004E001207047012000E00120EB
:103EA800BDE8F8830120FBE76415002010B5244C19
:103EB80044F244420021204609F0FEF8FFF752FA86
:103EC8002070012384F8063840F2B633A4F8083885
:103ED80000F024FBC4F80C08002307E0184A41F25C
:103EE8000E4101FB032282F818380133022BF5D961
:103EF800FFF788FB2021134809F09AF8002112489F
:103F080008F0CAFD0021114808F0D6FD104808F055
:103F1800F2FF0020FFF728FA38B90120FFF724FA4A
:103F280040B90C4B01221A7010BD0B490B48FFF722
:103F380015FEF2E70A490B48FFF710FEF1E700BF4C
:103F4800641500204000002091400008593B0008FB
:103F5800581400206315002065150020BC5B002064
:103F680065190020285B0020014B01221A70704758
:103F78006115002038B5FFF745FB002400E0013447
:103F8800022C19D8164B41F20E4202FB043393F867
:103F98001808FFF7E9F90028F1D041F20E4504FBB3
:103FA80005F505F618050E4B1D442846FFF790FC4D
:103FB8002846FFF7CDFEE2E7094B1878FFF7DEF950
:103FC800FFF702FF18B1064B93F8073803B138BD65
:103FD800FFF7C0FC0028FAD108F084FDF7E700BF1E
:103FE8006415002038B51D4B1B7813B11C4B1B788A
:103FF80003B138BD1A4B01221A70FFF703FBFFF714
:10400800F7FD002400E00134022C19D8154B41F2C9
:104018000E4202FB043393F81808FFF7A5F90028AD
:10402800F1D041F20E4504FB05F505F618050D4BD8
:104038001D442846FFF74CFC2846FFF789FEE2E7B7
:10404800094B1B781BB9064B00221A70D1E7064BA7
:1040580000221A70FFF78EFFF5E700BF63150020F6
:1040680062150020641500206115002038B504464B
:104078000D46044B1878FFF781F92A462146FFF7C9
:10408800B5FE38BD6415002008B5FFF7EFFF08BD81
:10409800B0B138B50C46054619B10220FFF764F9EE
:1040A80000B938BD074B02221A70FFF749FCFFF729
:1040B800A9FA2146284608F081FDFFF7A3FAF0E7A0
:1040C800704700BF6415002010B50446FFF756F985
:1040D80040B100F58053002183F80D14074B1B787D
:1040E800A34200D010BD00F5805292F80C34002B8A
:1040F800F8D1024B83F80718F4E700BF64150020D5
:10410800014B00221A7070476015002070470000AC
:1041180008B5144B984203D0134B984210D008BDF1
:104128000020FFF7D1FF0020104BA3F80208FFF78B
:104138001BF90028F3D00E490A48FFF70FFDEEE7F8
:104148000120FFF7C1FF094B0022A3F80428012032
:10415800FFF70AF90028E2D006490348FFF7FEFCFA
:10416800DDE700BFBC5B0020285B00206415002051
:10417800651500206519002008B5074B984203D043
:10418800064B984204D008BD0020FFF79DFFFAE7D0
:104198000120FFF799FFF6E7BC5B0020285B0020B1
:1041A80008B51748174B03604FF461234360002399
:1041B8008360C36003610C2242618361C36103624F
:1041C8004362836206F0B1FA70B900210C4806F028
:1041D800A5FB60B900210A4806F0C5FB50B908489C
:1041E80006F07DFB48B908BDFEF7A8FAEDE7FEF733
:1041F800A5FAEFE7FEF7A2FAF1E7FEF79FFAF2E772
:10420800BC5B00200038014008B51748174B036015
:104218004FF46123436000238360C36003610C2271
:1042280042618361C36103624362836206F07DFA7F
:1042380070B900210C4806F071FB60B900210A48EA
:1042480006F091FB50B9084806F049FB48B908BD8B
:10425800FEF774FAEDE7FEF771FAEFE7FEF76EFA8C
:10426800F1E7FEF76BFAF2E7285B00200044004014
:10427800F0B5A1B0044600211B911C911D911E911F
:104288001F91542206A808F017FF2368754A934225
:1042980004D0754A934268D021B0F0BD012306933B
:1042A80006A804F093F9002856D1704B1A6E42F410
:1042B80080421A661A6E02F480420192019ADA6C00
:1042C80042F00202DA64DB6C03F002030293029B01
:1042D800C0231B9302231C9300251D951E950723BD
:1042E8001F931BA9624801F067FC6248624B036098
:1042F800182343608560C56080230361456185613B
:104308002023C3614FF40053036201F0C1FA30BBAC
:10431800584BC4F880309C625848594B03601923A5
:104328004360102383600023C360802202614361DD
:104338008361C3614FF40053036201F0A9FA88B99D
:104348004E4BE3679C6200220521252001F014FAF8
:10435800252001F021FA9FE7FEF7F0F9A5E7FEF71F
:10436800EDF9D5E7FEF7EAF9EAE70223069306A88E
:1043780004F02CF900286BD13C4B9A6D42F40032C2
:104388009A659A6D02F400320392039ADA6C42F04D
:104398000102DA64DA6C02F001020492049ADA6C1F
:1043A80042F00202DA64DB6C03F002030593059B1A
:1043B8004FF400431B9302271C9700251D951E955B
:1043C80007261F961BA94FF0904001F0F5FB082324
:1043D8001B931C971D951E951F961BA9244801F039
:1043E800EBFB2848284B03601A2343608560C560AF
:1043F80080230361456185612023C3614FF4005325
:10440800036201F045FA30BB1E4BC4F880309C6251
:104418001E481F4B03601B23436010238360002347
:10442800C3608022026143618361C3614FF400531A
:10443800036201F02DFA88B9144BE3679C620022ED
:104448000521262001F098F9262001F0A5F923E797
:10445800FEF774F990E7FEF771F9D5E7FEF76EF904
:10446800EAE700BF00380140004400400010024065
:1044780000040048C85A002044000240685A00203E
:1044880058000240085A00201C000240A859002089
:1044980030000240104B1B680BB90120704710B563
:1044A80004464FF47A70B0FBF3F30C4A1068B0FB83
:1044B800F3F001F075F968B90F2C01D901200AE071
:1044C800002221464FF0FF3001F056F9044B1C60E2
:1044D800002000E0012010BDC001002024000020C1
:1044E800C401002010B5032001F034F90F20FFF7B4
:1044F800D1FF10B10124204610BD0446FEF7B4FBDD
:10450800F9E70000034A1368034909680B4413607C
:10451800704700BF505C0020C0010020014B1868A4
:10452800704700BF505C002038B50446FFF7F6FF1F
:104538000546B4F1FF3F02D0044B1B681C44FFF74B
:10454800EDFF401BA042FAD338BD00BFC0010020D8
:1045580010B430300B0A9B0003F00C03C45801F070
:104568001F014FF01F0C0CFA01FC24EA0C0CC2F3DB
:1045780084628A404CEA0202C2505DF8044B7047DC
:1045880010B414304B0E9B0003F00403C458C1F35D
:1045980004514FF0070C0CFA01FC24EA0C0C8A4079
:1045A8004CEA0202C2505DF8044B704730B583B044
:1045B80000230193002800F032810446C36D13B331
:1045C80023689A6812F0005F05D09A6822F02042AA
:1045D80022F03F029A602268936813F0805F1FD12F
:1045E800936823F0104323F03F0343F08053936014
:1045F8008C4B1B689B098C4AA2FB03239B09013344
:104608005B00019309E0FCF79FFD0023236684F813
:104618005830D5E7019B013B0193019B002BF9D151
:104628002268936813F0805F3DD1E36D43F0100377
:10463800E365236E43F0010323660120936813F0BA
:10464800040300D00123E16D11F0100F40F0E08069
:10465800002B40F0DD80E36D23F4817343F0020307
:10466800E365936813F0010F3ED1B2F1A04F1CD05F
:104678006E4B9A4219D06E4B996811F0010100D027
:1046880001216C4B9B6813F0010300D001230B43FD
:104698006949896811F0010100D001210B430CBF61
:1046A8000123002312E00020C8E74FF0A0439968D7
:1046B80011F0010100D001215C4B9B6813F001034C
:1046C80000D001230B430CBF0123002363B1B2F1D7
:1046D800A04F6CD0554B9A4267D0584963688A6896
:1046E80022F47C1213438B60627FE36B43EA42330C
:1046F800E2681343A268134394F8242043EA024370
:10470800012A56D0E26A22B102F47872216B0A4378
:1047180013432168CD684A4A2A401A43CA6022686E
:10472800136923F04063616B0B431361226893683C
:1047380013F0080300D0012343BB237F94F83810FB
:10474800490041EA8331D36823F4804323F002030C
:104758000B43D3602369002B30D02268136943F4DC
:10476800803313612268D2F8C03023F47F5323F0DA
:104778003F0321690B43C2F8C03094F84030012B45
:104788002BD02268136923F0010313616369012B9D
:1047980035D02268136B23F00F031363E36D23F006
:1047A800030343F00103E36537E0264996E725490B
:1047B80094E7A26A013A43EA4243A3E722681369ED
:1047C80023F4803313612268D2F8C03023F47F5376
:1047D80023F03F03C2F8C030CFE721680B6923F408
:1047E800FF6323F00403626CA56C2A43E56C2A433B
:1047F800256D2A43134343F001030B61C6E7216883
:104808000B6B23F00F03226A013A13430B63C5E7CE
:10481800E36D43F01003E365012003B030BD0120D0
:10482800FBE700BF24000020632D3E050001005077
:10483800000400500005005000060050000700501A
:104848000740F0FF000300502DE9F04104460E46F2
:104858000368B3F1A04F21D04E4A93421BD04E4A71
:10486800976807F01F07A569082D1ED0092F05D8DE
:1048780040F22122FA4012F0010F11D1B3F1A04FFA
:104888003AD0444A934235D0434B9B6813F4604F67
:1048980034D1042509E002F50072E1E73F4ADFE779
:1048A800DB6813F0010F1FD10425FFF737FE8046A0
:1048B80023681A682A4227D1B6F1FF3FF8D0FFF7DC
:1048C8002DFEA0EB0800B04201D8002EF0D12368DD
:1048D8001B682B42ECD1E36D43F00403E36500232E
:1048E80084F85830032050E0E36D43F02003E3657B
:1048F80001204AE0294BC8E7284BC6E7E36D43F09F
:104908002003E365012040E0E26D42F40072E265B5
:10491800DA6812F4406F11D1627F7AB91A6812F01E
:10492800080F0BD0E26D22F48072E265E26D12F49A
:10493800805F03D1E26D42F00102E265154A9342BD
:1049480013D002F5806293420CD01A4693420FD0DE
:10495800092F05D840F22121F94011F0010F07D1A4
:10496800D26806E0A2F58072F0E74FF0A042EDE7CA
:10497800DA68082D06D012F4804F08D10C221A608C
:10498800002002E008221A600020BDE8F081002023
:10499800FBE700BF00010050000700500003005073
:1049A8000368186C70477047704708B5806AFFF74E
:1049B800FBFF08BD704708B50346806AC26D12F058
:1049C800500F30D1C36D43F40073C36503681A6890
:1049D80012F0080F14D0DA6812F4406F20D1DB68A7
:1049E80013F4005F1CD1C36D23F48073C365C36DDA
:1049F80013F4805F14D1C36D43F00103C3650FE066
:104A0800DB6813F0020F0BD1C36D23F48073C36509
:104A1800C36D13F4805F03D1C36D43F00103C36515
:104A2800FFF7C1FF08BDC26D12F0100F04D1426D2F
:104A3800526B18469047F5E7FFF7BCFFF2E708B559
:104A4800806AC36D43F04003C365036E43F00403FB
:104A58000366FFF7AFFF08BDF0B583B000230193ED
:104A680090F85830012B00F0488204460D46012387
:104A780080F858300068836813F0040F09D0E36D9C
:104A880043F02003E3650120002384F8583003B085
:104A9800F0BD0A684968FFF75BFD2068836813F07A
:104AA800040300D00123866816F0080600D001260A
:104AB800002B3ED1002E3CD1AA68B2F1004F78D02D
:104AC8002968FFF75DFD2268536923F000435361AD
:104AD80069692268D368C3F3C1035B0099402869F8
:104AE800042873D0603252F82070AB4B3B402F68DB
:104AF80007F0F84C41EA0C010B4343F0004342F83D
:104B0800203023682869AA69603353F8201021F0FF
:104B180080710A4343F82020236829692A7F012AE3
:104B280051D0603353F8212022F00072324343F809
:104B380021202268936813F0010F16D12B68E868CA
:104B4800D2F8B010C3F3120621EA060100F01806E5
:104B58009248F0400340C3F312030B43C2F8B0304D
:104B6800EA688F4B9A4200F099802B688D4A13426D
:104B780000F0B9812268B2F1A04F00F050818A4953
:104B88008A4200F049818949896801F0E070884DBE
:104B9800AB4200F04681874DAB4200F04281864D22
:104BA800AB4200F07181854DAB4200F08781002057
:104BB8006AE700222968FFF7E3FC2268536943F09B
:104BC8000043536184E74FF00076AAE7136E116E35
:104BD800C1F384612B68C3F3120080BBC3F3846301
:104BE800994234D021684B6E4A6EC2F384622B68B6
:104BF800C3F3120080BBC3F384639A4234D02168A4
:104C08008B6E8A6EC2F384622B68C3F3120080BB7A
:104C1800C3F384639A4234D02168CB6ECA6EC2F360
:104C280084622B68C3F3120080BBC3F384639A4287
:104C38007FF47FAFCB6E23F00043CB6679E793FA1E
:104C4800A3F313B1B3FA83F3CAE72023C8E7136EBB
:104C580023F000431366C5E793FAA3F313B1B3FA3D
:104C680083F3CAE72023C8E74B6E23F000434B6663
:104C7800C5E793FAA3F313B1B3FA83F3CAE7202382
:104C8800C8E78B6E23F000438B66C5E793FAA3F35E
:104C980013B1B3FA83F3CAE72023C8E720682B6867
:104CA800C3F3120626BB9A0E013202F01F02092A2C
:104CB8008CBF00220122002A52D046BB990E013136
:104CC800890601F0F84176BB9F0E013707F01F07F0
:104CD8000122BA401143AEBB9B0E013303F01F0300
:104CE80003EB43031B051943AA68FFF749FC3CE79C
:104CF80093FAA3F24AB1B2FA82F2013202F01F0229
:104D0800092A8CBF00220122D5E72022F5E793FA71
:104D1800A3F131B1B1FA81F10131890601F0F8410D
:104D2800D1E72021F8E793FAA3F24AB1B2FA82F266
:104D3800013202F01F024FF0010C0CFA02F2C9E72F
:104D48002022F5E793FAA3F343B1B3FA83F30133CF
:104D580003F01F0303EB43031B05C4E72023F6E717
:104D680076BB990E0131890601F0F841A6BB9F0E6A
:104D7800013707F01F070122BA401143DEBB9B0E23
:104D8800013303F01F0303EB43031E3B1B0543F0F2
:104D980000731943A8E700BF00F0FF03FFFF0700F7
:104DA80000007F400000088000010050000700500C
:104DB800000021C31000C090000052C7000084CB3F
:104DC80093FAA3F131B1B1FA81F10131890601F009
:104DD800F841CBE72021F8E793FAA3F24AB1B2FAF7
:104DE80082F2013202F01F024FF0010C0CFA02F2BB
:104DF800C3E72022F5E793FAA3F35BB1B3FA83F391
:104E0800013303F01F0303EB43031E3B1B0543F071
:104E18000073BEE72023F3E701F50071B4E63849D3
:104E2800B2E611F4000F7FF4BAAEB2F1A04F04D08D
:104E3800344B9A4201D0002026E6B2F1A04F19D097
:104E4800314B9A4214D0314A40F40000936823F061
:104E5800E073184390602E4B1B689B092D4AA2FBF8
:104E680003239B09013303EB43039B00019306E0F3
:104E7800234AE9E7224AE7E7019B013B0193019BAB
:104E8800002BF9D10020FFE511F0807F7FF48BAE75
:104E98001D4B9A4229D003F580639A4227D0B2F17C
:104EA800A04F09D0194940F080738A6822F0E07257
:104EB80013438B600020E7E51149F4E711F4800FF4
:104EC80017D1114B9A4216D0B2F1A04F09D00F4911
:104ED80040F480038A6822F0E07213438B6000205C
:104EE800D2E50749F4E70020CEE50020CCE5002014
:104EF800CAE50020C8E50020C6E50220C7E500BFD6
:104F08000003005000060050000100500007005048
:104F180024000020632D3E0570B5044603689A6896
:104F280012F0040200D00122986810F0080000D0A6
:104F380001200AB900286DD0DA6812F0007F04D089
:104F4800A08B40F2011290424ED0022912D0236861
:104F58009A6812F0040F0BD09A6812F0020F07D16A
:104F68009A6822F0004222F03F0242F010029A6052
:104F7800012947D023689A6812F0080F0BD09A6865
:104F880012F0020F07D19A6822F0004222F03F0285
:104F980042F020029A60022936D0032936D10C2526
:104FA800FFF7BCFA064623689B682B4230D0FFF710
:104FB800B5FA801B0528F6D923689B682B42F2D0E6
:104FC800E36D43F01003E365236E43F001032366AA
:104FD80001201EE0E36D43F01003E365236E43F008
:104FE80001032366012014E00022196811F0400F24
:104FF80004D109498A42EDD80132F6E740221A6005
:105008000121A4E70425CBE70825C9E70425C7E75C
:10501800002070BD0020FCE7FFFF3FA330B583B040
:105028000023019303689A6812F0010F63D10446C4
:105038009968324A114220D19A6822F0004222F03F
:105048003F0242F001029A600368B3F1A04F20D0FA
:105058002B4A93421BD02B4B9B6813F4000F20D094
:10506800294B1B689B09294AA2FB03239B0901338F
:1050780003EB43039B00019310E0C36D43F010035F
:10508800C365036E43F001030366012034E0204B3F
:10509800E2E71F4BE0E7019B013B0193019B002BDB
:1050A800F9D1FFF73BFA054623681A6812F0010F99
:1050B8001FD19A6812F0010F07D19A6822F00042B6
:1050C80022F03F0242F001029A60FFF727FA431BE1
:1050D800022BE9D923681B6813F0010FE4D1E36DB3
:1050E80043F01003E365236E43F0010323660120B8
:1050F80002E0002000E0002003B030BD3F00008047
:10510800000100500007005024000020632D3E05D8
:105118000003005038B504460368B3F1A04F60D0CF
:10512800464A93425AD0464A956805F01F059B683F
:1051380013F0040F7DD194F85830012B7BD0012354
:1051480084F858302046FFF769FF00286DD1E36DD9
:1051580023F4706323F0010343F48073E365236849
:10516800364A934242D002F5806293423BD01A46B7
:10517800934200D01DB9E26D22F48012E265E26D1F
:1051880012F4805F35D0226E22F0060222661C22BD
:105198001A60002384F858302368284A93422ED096
:1051A80002F58062934227D01A4693422AD0092DED
:1051B80005D840F22121E94011F0010F22D1E36D19
:1051C80043F48013E365D36813F0007F32D0E36DB6
:1051D80023F4405343F48053E3652BE002F5007257
:1051E800A2E7184AA0E7A2F58072C1E74FF0A042F3
:1051F800BEE700222266CAE7A2F58072D5E74FF023
:10520800A042D2E7DA6812F0007F05D0E26D22F4FE
:10521800405242F48052E2659A6822F0004222F03D
:105228003F0242F004029A6004E0002384F85830F8
:1052380000E0022038BD0220FCE700BF000100505A
:1052480000070050000300502DE9F04104460F46C6
:1052580090460068B0F1A04F24D0444B98421ED02D
:10526800434B9E6806F01F06856815F0040F77D13A
:1052780094F85830012B76D0012384F858303D4BF0
:10528800984211D0092E05D840F22123F34013F09B
:10529800010F09D1002384F85830012061E003F59B
:1052A8000073DEE7344BDCE72046FFF7B7FE002843
:1052B80052D1E36D23F4706323F0010343F4807348
:1052C800E3652368294A934240D002F580629342FD
:1052D80039D01A46934200D01EB9E36D23F48013E7
:1052E800E365E36D13F4805F33D0236E23F0060388
:1052F8002366636D214ADA62636D214A1A63636D1E
:10530800204A5A6323681C221A60002384F8583004
:105318002268536843F0100353602268D36843F04F
:105328000103D360216843463A464031606D00F07E
:105338001DFB2268936823F0004323F03F0343F0EA
:10534800040393600DE0A2F58072C3E74FF0A0421A
:10535800C0E700232366CCE7002384F8583000E038
:105368000220BDE8F0810220FBE700BF00010050E9
:10537800000700500006005000030050BF49000815
:10538800B3490008474A000838B5044602689368DC
:1053980013F0020300D00123916811F0010F39D0F6
:1053A800002B39D1936803F00D03012B09D0E36D6D
:1053B80043F01003E365236E43F0010323660120E5
:1053C80029E0936823F0004323F03F0343F00203EE
:1053D8009360236803221A60FFF7A0F80546236844
:1053E8009B6813F0010F13D0FFF798F8401B0228B1
:1053F800F5D923689B6813F0010FF0D0E36D43F0F3
:105408001003E365236E43F001032366012002E0E5
:10541800002000E0002038BD0020FCE790F858305C
:10542800012B1AD010B50446012380F85830032107
:10543800FFF772FD18B1002384F8583010BD2046DC
:10544800FFF7A2FF0028F6D1E36D23F4885323F079
:10545800010343F00103E365EDE702207047000014
:1054680030B583B00023019390F85830012B41D018
:1054780004460D46012380F85830FFF785FF80BBAE
:10548800E36D23F4885323F0020343F00203E3653A
:105498002268936823F0404323F03F0305F08045DA
:1054A8002B4343F00043936023689B68002B06DB83
:1054B800E36D23F0030343F00103E36515E0019B6B
:1054C80001330193019A0C4B9A42EDD9E36D23F015
:1054D800120343F01003E365002384F858300120D9
:1054E80006E0E36D43F01003E365002384F85830C9
:1054F80003B030BD0220FBE701DE040090F858201D
:10550800012A00F0D68010B49DB00346012280F82D
:1055180058200022189219920068B0F1A04F47D085
:10552800654A904247D000220192019A002A46D04B
:10553800926812F0040200D00122846814F0040F6B
:1055480040F0A780002A40F0A480B0F1A04F42D0DC
:105558005A4A90423CD05A4A086800285CD0906861
:1055680020F460404C6893F838C044EA4C34204337
:1055780090601868B0F1A04F2FD0504CA0422CD0AA
:105588004D48846814F0010400D001244D48806817
:1055980010F0010000D0012020434B4CA46814F007
:1055A800010400D0012420430CBF0120002025E085
:1055B800424A0192B9E702F580720192B5E7DA6DC5
:1055C80042F02002DA65002283F85820012068E0C2
:1055D80002F50072C0E73D4ABEE74FF0A04084687C
:1055E80014F0010400D001243448806810F0010050
:1055F80000D0012020430CBF01200020002854D0F7
:10560800906820F4716020F00F000C6889682143CD
:1056180008439060002041E0916821F46041916066
:105628001968B1F1A04F1AD02448814217D02249F5
:10563800886810F0010000D001202249896811F023
:10564800010100D0012101431F48806810F00100CA
:1056580000D0012001430CBF0121002110E04FF0D0
:10566800A041886810F0010000D001201349896822
:1056780011F0010100D0012101430CBF01210021DB
:10568800A9B1916821F4716121F00F0191600020A6
:1056980004E0DA6D42F02002DA650120002283F886
:1056A80058201DB05DF8044B70470020F6E7002035
:1056B800F4E70220704700BF0004005000010050CA
:1056C800000700500005005000060050000300507D
:1056D800002807DB00F01F02400901239340024A1B
:1056E80042F82030704700BF00E100E0002808DBE6
:1056F8000901C9B200F1604000F5614080F800136B
:10570800704700F00F000901C9B2014B19547047E6
:1057180014ED00E000B500F00700C0F1070CBCF183
:10572800040F28BF4FF0040C031D062B0FD9C31E0E
:105738004FF0FF3E0EFA0CF021EA000199400EFAF4
:1057480003FE22EA0E0241EA02005DF804FB002390
:10575800EEE70000074AD36823F4E0631B041B0C40
:10576800000200F4E060034343F0BF6343F40033F6
:10577800D360704700ED00E010B50446054BD868CB
:10578800C0F30220FFF7C6FF01462046FFF7AEFF31
:1057980010BD00BF00ED00E008B5FFF799FF08BD98
:1057A8000138B0F1807F0BD24FF0E0235861054AF1
:1057B800F02182F823100020986107221A617047AF
:1057C8000120704700ED00E030B4C46C056D6560E1
:1057D800446D14B1846DC56D6560446C04F01F0C94
:1057E800012404FA0CF4056C6C6004686360836837
:1057F800102B05D0036899600368DA6030BC7047E5
:1058080003689A600368D960F8E700000368104AE3
:10581800934214D8DBB2083B0E4AA2FB03231B09B0
:105828000D49426C22F003020A4482640B4AC264A6
:1058380003F01F03012202FA03F303657047DBB28A
:10584800083B044AA2FB03231B0908330449E8E781
:1058580007040240CDCCCCCC0008024080080240AE
:1058680020080240436803F07F03074A1A44920065
:105878004265064A8265013B03F01F03012202FAD2
:1058880003F3C365704700BF3F8200104009024020
:1058980000285DD010B5044601682E4B99423FD8C8
:1058A8002D4B0B442D4AA2FB03231B099B00436489
:1058B8002B4B0364022384F825300A6822F4FF4244
:1058C80022F07002A368E06803432069034360691B
:1058D8000343A0690343E0690343206A0343134376
:1058E8000B602046FFF792FFA368B3F5804F22D0E4
:1058F8006368A26C03F07F031360E36C226D5A6047
:105908006368013B032B19D900236365A365E3652D
:105918000020E063012384F8253084F8240010BDBA
:10592800104B0B440D4AA2FB03231B099B00436445
:105938000D4B0364BEE700236360D9E72046FFF7F9
:1059480091FF636D00221A60A36DE26D5A60DFE774
:105958000120704707040240F8FFFDBFCDCCCCCC36
:1059680000000240F8FBFDBF0004024038B50446C1
:1059780090F82400012841D0012084F8240094F8EC
:105988002500C0B2012804D0002384F82430022066
:1059980038BD022084F825000020E06325682868C7
:1059A80020F0010028602046FFF70EFF236BD3B1DB
:1059B8002268136843F00E031360A36C1A6812F48C
:1059C800803F03D01A6842F480721A60636D1BB17D
:1059D8001A6842F480721A602268136843F001035F
:1059E80013600020D4E72268136823F004031360CF
:1059F8002268136843F00A031360DEE70220C7E752
:105A08000346002834D090F82520D2B2022A09D0C3
:105A18000422C2630120012283F82520002283F892
:105A28002420704701680A6822F001020A600168B0
:105A38000A6822F00E020A60816C0A6822F48072F9
:105A48000A60426C02F01F01006C01228A40426029
:105A5800DA6C196D51605A6D42B1116821F4807188
:105A680011609A6DD96D51600020D4E70020D2E70B
:105A78000120704708B590F82530DBB2022B09D019
:105A88000423C363012380F82530002280F82420F2
:105A9800184608BD0268136823F001031360026802
:105AA800136823F00E031360826C136823F4807369
:105AB8001360436C03F01F02016C012393404B6099
:105AC800C36C026D5A60436D33B11A6822F4807258
