:020000040800F2
:100000000000022095240008F9200008FB200008C9
:10001000FD200008FF20000801210008000000006A
:1000200000000000000000000000000003210008A4
:100030000521000800000000072100080921000830
:10004000E5240008E5240008E5240008E52400086C
:10005000E5240008E5240008E5240008E52400085C
:10006000E5240008E5240008E52400081121000823
:10007000E5240008E5240008E5240008E52400083C
:10008000E5240008E524000821210008E5240008F3
:1000900039210008E5240008E5240008E5240008CB
:1000A000E5240008E5240008E5240008E52400080C
:1000B000E5240008E5240008E5240008E5240008FC
:1000C000E5240008E5240008E5240008E5240008EC
:1000D000E5240008E5240008E5240008E5240008DC
:1000E000E5240008E5240008E5240008E5240008CC
:1000F000E5240008E5240008E5240008E5240008BC
:10010000E5240008E5240008E5240008E5240008AB
:10011000E5240008E5240008E5240008E52400089B
:10012000E5240008E5240008E5240008E52400088B
:10013000E5240008E5240008E5240008E52400087B
:10014000E5240008E5240008E5240008E52400086B
:1001500049210008E5240008E5240008E5240008FA
:10016000E5240008E5240008E5240008E52400084B
:10017000E5240008E5240008E5240008E52400083B
:10018000E5240008E5240008E5240008E52400082B
:10019000E524000800000000E5240008E52400082C
:1001A000E5240008E5240008E5240008E52400080B
:1001B000E5240008E5240008E5240008E5240008FB
:1001C000E5240008E5240008E5240008E5240008EB
:0801D000E5240008E524000805
:1001D80010B5054C237833B9044B13B10448AFF379
:1001E80000800123237010BDCC0200200000000015
:1001F80078D1000808B5034B1BB103490348AFF396
:10020800008008BD00000000D002002078D100085E
:1002180081F0004102E000BF83F0004330B54FEAAF
:1002280041044FEA430594EA050F08BF90EA020F1C
:100238001FBF54EA000C55EA020C7FEA645C7FEAAF
:10024800655C00F0E2804FEA5454D4EB5555B8BFD2
:100258006D420CDD2C4480EA020281EA030382EA43
:10026800000083EA010180EA020281EA0303362DD5
:1002780088BF30BD11F0004F4FEA01314FF4801CA8
:100288004CEA113102D0404261EB410113F0004FBA
:100298004FEA03334CEA133302D0524263EB430371
:1002A80094EA050F00F0A780A4F10104D5F1200E0F
:1002B8000DDB02FA0EFC22FA05F2801841F100016A
:1002C80003FA0EF2801843FA05F359410EE0A5F13E
:1002D80020050EF1200E012A03FA0EFC28BF4CF06F
:1002E800020C43FA05F3C01851EBE37101F0004525
:1002F80007D54FF0000EDCF1000C7EEB00006EEB32
:100308000101B1F5801F1BD3B1F5001F0CD34908BB
:100318005FEA30004FEA3C0C04F101044FEA445212
:1003280012F5800F80F09A80BCF1004F08BF5FEA99
:10033800500C50F1000041EB045141EA050130BD79
:100348005FEA4C0C404141EB0101013C28BFB1F58B
:10035800801FE9D291F0000F04BF01460020B1FAD6
:1003680081F308BF2033A3F10B03B3F120020CDAA9
:100378000C3208DD02F1140CC2F10C0201FA0CF087
:1003880021FA02F10CE002F11402D8BFC2F1200CEC
:1003980001FA02F120FA0CFCDCBF41EA0C019040A2
:1003A800E41AA2BF01EB0451294330BD6FEA0404EB
:1003B8001F3C1CDA0C340EDC04F11404C4F12002D6
:1003C80020FA04F001FA02F340EA030021FA04F3E8
:1003D80045EA030130BDC4F10C04C4F1200220FA3F
:1003E80002F001FA04F340EA0300294630BD21FA7D
:1003F80004F0294630BD94F0000F83F4801306BF43
:1004080081F480110134013D4EE77FEA645C18BF36
:100418007FEA655C29D094EA050F08BF90EA020FCD
:1004280005D054EA000C04BF1946104630BD91EAC5
:10043800030F1EBF0021002030BD5FEA545C05D1C8
:100448004000494128BF41F0004130BD14F5800407
:100458003CBF01F5801130BD01F0004545F0FE417B
:1004680041F470014FF0000030BD7FEA645C1ABFB0
:10047800194610467FEA655C1CBF0B46024650EAE7
:10048800013406BF52EA033591EA030F41F4002113
:1004980030BD00BF90F0000F04BF0021704730B599
:1004A8004FF4806404F132044FF000054FF000016E
:1004B80050E700BF90F0000F04BF0021704730B52F
:1004C8004FF4806404F1320410F0004548BF404204
:1004D8004FF000013EE700BF42004FEAE2014FEA59
:1004E80031014FEA02701FBF12F07F4393F07F4F34
:1004F80081F06051704732F07F4208BF704793F037
:100508007F4F04BF41F40021704730B54FF4607449
:1005180001F0004521F000411CE700BF50EA01024C
:1005280008BF704730B54FF000050AE050EA0102F5
:1005380008BF704730B511F0004502D5404261EB65
:1005480041014FF4806404F132045FEA915C3FF4A6
:10055800D8AE4FF003025FEADC0C18BF03325FEA43
:10056800DC0C18BF033202EBDC02C2F1200300FAF4
:1005780003FC20FA02F001FA03FE40EA0E0021FA19
:1005880002F11444BDE600BF70B54FF0FF0C4CF407
:10059800E06C1CEA11541DBF1CEA135594EA0C0FB9
:1005A80095EA0C0F00F0DEF82C4481EA030621EAF4
:1005B8004C5123EA4C5350EA013518BF52EA03352F
:1005C80041F4801143F4801338D0A0FB02CE4FF0E1
:1005D8000005E1FB02E506F00042E0FB03E54FF011
:1005E8000006E1FB03569CF0000F18BF4EF0010E09
:1005F800A4F1FF04B6F5007F64F5407404D25FEA05
:100608004E0E6D4146EB060642EAC62141EA5551B7
:100618004FEAC52040EA5E504FEACE2EB4F1FD0CF9
:1006280088BFBCF5E06F1ED8BEF1004F08BF5FEA77
:10063800500E50F1000041EB045170BD06F0004629
:1006480046EA010140EA020081EA0301B4EB5C04D6
:10065800C2BFD4EB0C0541EA045170BD41F48011CE
:100668004FF0000E013C00F3AB8014F1360FDEBFF3
:10067800002001F0004170BDC4F10004203C35DACF
:100688000C341BDC04F11404C4F1200500FA05F352
:1006980020FA04F001FA05F240EA020001F00042F3
:1006A80021F0004110EBD37021FA04F642EB060169
:1006B8005EEA430E08BF20EAD37070BDC4F10C0493
:1006C800C4F1200500FA04F320FA05F001FA04F257
:1006D80040EA020001F0004110EBD37041F1000143
:1006E8005EEA430E08BF20EAD37070BDC4F120054E
:1006F80000FA05F24EEA020E20FA04F301FA05F2B6
:1007080043EA020321FA04F001F0004121FA04F25D
:1007180020EA020000EBD3705EEA430E08BF20EA2D
:10072800D37070BD94F0000F0FD101F00046400067
:1007380041EB010111F4801F08BF013CF7D041EAE9
:10074800060195F0000F18BF704703F000465200ED
:1007580043EB030313F4801F08BF013DF7D043EABE
:100768000603704794EA0C0F0CEA135518BF95EA74
:100778000C0F0CD050EA410618BF52EA4306D1D1FB
:1007880081EA030101F000414FF0000070BD50EA1A
:10079800410606BF1046194652EA430619D094EAA4
:1007A8000C0F02D150EA013613D195EA0C0F05D18E
:1007B80052EA03361CBF104619460AD181EA0301E2
:1007C80001F0004141F0FE4141F470014FF000009A
:1007D80070BD41F0FE4141F4780170BD70B54FF035
:1007E800FF0C4CF4E06C1CEA11541DBF1CEA1355B5
:1007F80094EA0C0F95EA0C0F00F0A7F8A4EB050497
:1008080081EA030E52EA03354FEA013100F088808D
:100818004FEA03334FF0805545EA131343EA126356
:100828004FEA022245EA111545EA10654FEA00260B
:100838000EF000419D4208BF964244F1FD0404F5C4
:10084800407402D25B084FEA3202B61A65EB030520
:100858005B084FEA32024FF480104FF4002CB6EBDD
:10086800020E75EB030E22BFB61A754640EA0C005D
:100878005B084FEA3202B6EB020E75EB030E22BF9D
:10088800B61A754640EA5C005B084FEA3202B6EBDE
:10089800020E75EB030E22BFB61A754640EA9C009D
:1008A8005B084FEA3202B6EB020E75EB030E22BF6D
:1008B800B61A754640EADC0055EA060E18D04FEA2B
:1008C800051545EA16754FEA06164FEAC30343EACB
:1008D80052734FEAC2025FEA1C1CC0D111F4801F98
:1008E8000BD141EA00014FF000004FF0004CB6E791
:1008F80011F4801F04BF01430020B4F1FD0C88BF30
:10090800BCF5E06F3FF6AFAEB5EB030C04BFB6EB3A
:10091800020C5FEA500C50F1000041EB045170BD2D
:100928000EF0004E4EEA113114EB5C04C2BFD4EB5A
:100938000C0541EA045170BD41F480114FF0000EDE
:10094800013C90E645EA060E8DE60CEA135594EA5A
:100958000C0F08BF95EA0C0F3FF43BAF94EA0C0F5D
:100968000AD150EA01347FF434AF95EA0C0F7FF4D2
:1009780025AF104619462CE795EA0C0F06D152EA26
:1009880003353FF4FDAE1046194622E750EA41060A
:1009980018BF52EA43067FF4C5AE50EA41047FF41B
:1009A8000DAF52EA43057FF4EBAE12E74FEA41027E
:1009B800B2F1E04324BFB3F5001CDCF1FE5C0DD9B5
:1009C80001F0004C4FEAC0024CEA5070B2F1004FFF
:1009D80040EB830008BF20F00100704711F0804F02
:1009E80021D113F13872BCBF01F00040704741F4C7
:1009F80080114FEA5252C2F11802C2F1200C10FACB
:100A08000CF320FA02F018BF40F001004FEAC123AE
:100A18004FEAD32303FA0CFC40EA0C0023FA02F352
:100A28004FEA4303CCE77FEA625307D150EA013328
:100A38001EBF4FF0FE4040F44000704701F00040F8
:100A480040F0FE4040F40000704700BF80F00040D6
:100A580002E000BF81F0004142001FBF5FEA41038E
:100A680092EA030F7FEA226C7FEA236C6AD04FEA8E
:100A78001262D2EB1363C1BFD218414048404140D3
:100A8800B8BF5B42192B88BF704710F0004F40F485
:100A9800000020F07F4018BF404211F0004F41F4A1
:100AA800000121F07F4118BF494292EA030F3FD06D
:100AB800A2F1010241FA03FC10EB0C00C3F1200380
:100AC80001FA03F100F0004302D5494260EB40000F
:100AD800B0F5000F13D3B0F1807F06D340084FEA7A
:100AE800310102F10102FE2A51D2B1F1004F40EB6F
:100AF800C25008BF20F0010040EA030070474900D7
:100B080040EB0000013A28BFB0F5000FEDD2B0FA73
:100B180080FCACF1080CB2EB0C0200FA0CF0AABF96
:100B280000EBC25052421843BCBFD0401843704734
:100B380092F0000F81F4000106BF80F4000001323A
:100B4800013BB5E74FEA41037FEA226C18BF7FEA11
:100B5800236C21D092EA030F04D092F0000F08BF53
:100B68000846704790EA010F1CBF0020704712F03A
:100B78007F4F04D1400028BF40F00040704712F179
:100B880000723CBF00F50000704700F0004343F0DE
:100B9800FE4040F4000070477FEA226216BF084614
:100BA8007FEA23630146420206BF5FEA412390EAD7
:100BB800010F40F4800070474FF0000304E000BFCD
:100BC80010F0004348BF40425FEA000C08BF70477E
:100BD80043F0964301464FF000001CE050EA010242
:100BE80008BF70474FF000030AE000BF50EA010257
:100BF80008BF704711F0004302D5404261EB410144
:100C08005FEA010C02BF84460146002043F0B64368
:100C180008BFA3F18053A3F50003BCFA8CF2083A8D
:100C2800A3EBC25310DB01FA02FC634400FA02FC96
:100C3800C2F12002BCF1004F20FA02F243EB02009D
:100C480008BF20F00100704702F1200201FA02FCFF
:100C5800C2F1200250EA4C0021FA02F243EB0200F2
:100C680008BF20EADC7070474FF0FF0C1CEAD05236
:100C78001EBF1CEAD15392EA0C0F93EA0C0F6FD0F7
:100C88001A4480EA010C400218BF5FEA41211ED0D5
:100C98004FF0006343EA501043EA5111A0FB0131C1
:100CA8000CF00040B1F5000F3EBF490041EAD37196
:100CB8005B0040EA010062F17F02FD2A1DD8B3F112
:100CC800004F40EBC25008BF20F00100704790F081
:100CD800000F0CF0004C08BF49024CEA502040EAD3
:100CE80051207F3AC2BFD2F1FF0340EAC250704799
:100CF80040F400004FF00003013A5DDC12F1190FD7
:100D0800DCBF00F000407047C2F10002410021FA48
:100D180002F1C2F1200200FA02FC5FEA310040F160
:100D2800000053EA4C0308BF20EADC70704792F0D9
:100D3800000F00F0004C02BF400010F4000F013A11
:100D4800F9D040EA0C0093F0000F01F0004C02BF0C
:100D5800490011F4000F013BF9D041EA0C018FE77B
:100D68000CEAD15392EA0C0F18BF93EA0C0F0AD081
:100D780030F0004C18BF31F0004CD8D180EA0100A7
:100D880000F00040704790F0000F17BF90F0004F40
:100D9800084691F0000F91F0004F14D092EA0C0F22
:100DA80001D142020FD193EA0C0F03D14B0218BFB5
:100DB800084608D180EA010000F0004040F0FE40FB
:100DC80040F40000704740F0FE4040F44000704797
:100DD8004FF0FF0C1CEAD0521EBF1CEAD15392EA16
:100DE8000C0F93EA0C0F69D0A2EB030280EA010C06
:100DF80049024FEA402037D04FF0805343EA11119F
:100E080043EA10130CF000408B4238BF5B0042F1FC
:100E18007D024FF4000C8B4224BF5B1A40EA0C00A1
:100E2800B3EB510F24BFA3EB510340EA5C00B3EBD3
:100E3800910F24BFA3EB910340EA9C00B3EBD10FC1
:100E480024BFA3EBD10340EADC001B0118BF5FEA13
:100E58001C1CE0D1FD2A3FF650AF8B4240EBC2503C
:100E680008BF20F0010070470CF0004C4CEA5020FD
:100E78007F32C2BFD2F1FF0340EAC250704740F44C
:100E880000004FF00003013A37E792F0000F00F03E
:100E9800004C02BF400010F4000F013AF9D040EABC
:100EA8000C0093F0000F01F0004C02BF490011F450
:100EB800000F013BF9D041EA0C0195E70CEAD15348
:100EC80092EA0C0F08D142027FF47DAF93EA0C0F2F
:100ED8007FF470AF084676E793EA0C0F04D14B0213
:100EE8003FF44CAF08466EE730F0004C18BF31F0C5
:100EF800004CCAD130F000427FF45CAF31F00043BF
:100F08007FF43CAF5FE700BF4FF0FF3C06E000BF57
:100F18004FF0010C02E000BF4FF0010C4DF804CD7A
:100F28004FEA40024FEA41037FEA226C18BF7FEA8A
:100F3800236C11D001B052EA530C18BF90EA010F8C
:100F480058BFB2EB030088BFC81738BF6FEAE1701B
:100F580018BF40F0010070477FEA226C02D15FEAB7
:100F6800402C05D17FEA236CE4D15FEA412CE1D023
:100F78005DF8040B704700BF844608466146FFE7EA
:100F88000FB5FFF7C9FF002848BF10F1000F0FBDCC
:100F98004DF808EDFFF7F4FF0CBF012000205DF8C5
:100FA80008FB00BF4DF808EDFFF7EAFF34BF01204A
:100FB80000205DF808FB00BF4DF808EDFFF7E0FFE3
:100FC80094BF012000205DF808FB00BF4DF808ED34
:100FD800FFF7D2FF94BF012000205DF808FB00BF97
:100FE8004DF808EDFFF7C8FF34BF012000205DF879
:100FF80008FB00BF4FEA4002B2F1FE4F0FD34FF09B
:101008009E03B3EB12620DD94FEA002343F000436D
:1010180010F0004F23FA02F018BF404270474FF01B
:101028000000704712F1610F01D1420205D110F0A2
:10103800004008BF6FF0004070474FF00000704755
:1010480042000ED2B2F1FE4F0BD34FF09E03B3EB2A
:10105800126209D44FEA002343F0004323FA02F056
:1010680070474FF00000704712F1610F01D1420242
:1010780002D14FF0FF3070474FF00000704700BFBB
:1010880053B94AB9002908BF00281CBF4FF0FF31E7
:101098004FF0FF3000F06AB9ADF1080C6DE904CEED
:1010A80000F006F8DDF804E0DDE9022304B070473B
:1010B8002DE9F047089D0C46002B4ED194468C45EF
:1010C8008646B2FA82F262D94AB1C2F1200391404F
:1010D80020FA03F30CFA02FC194300FA02FE4FEA65
:1010E8001C471FFA8CF6B1FBF7F44FEA1E4307FBC7
:1010F800141143EA014304FB06F199420AD91CEB97
:10110800030304F1FF3080F01281994240F20F810D
:10111800023C6344591A1FFA8EF3B1FBF7F007FB40
:10112800101143EA014300FB06F69E420AD91CEB64
:10113800030300F1FF3180F0FC809E4240F2F98009
:10114800634402389B1B40EA044000211DB1D34090
:101158000022C5E90032BDE8F0878B4205D90DB100
:10116800C5E9000100210846F5E7B3FA83F1002933
:1011780046D1A34202D39042C0F0F080861A64EBB5
:1011880003030120002DE6D0C5E90063E3E7002A48
:1011980040F09080A1EB0C044FEA1C481FFA8CF732
:1011A8000121B4FBF8F64FEA1E4308FB164443EA54
:1011B800044307FB06F0984208D91CEB030306F129
:1011C800FF3402D2984200F2CD8026461C1A1FFA3C
:1011D8008EF3B4FBF8F008FB104443EA044300FB29
:1011E80007F79F4208D91CEB030300F1FF3402D232
:1011F8009F4200F2B0802046DB1B40EA0640A5E78C
:10120800C1F120068B4022FA06F71F4320FA06FC9C
:1012180004FA01F343EA0C03F44000FA01F8380C2D
:101228004FEA1349B4FBF0FE1FFA87FC00FB1E448B
:1012380049EA04440EFB0CF9A14502FA01F20AD965
:101248003C190EF1FF3A80F08480A14540F281807C
:10125800AEF1020E3C44A4EB09041FFA83F9B4FB77
:10126800F0F300FB134449EA044403FB0CFCA445D7
:1012780007D93C1903F1FF3067D2A44565D9023B71
:101288003C4443EA0E40A0FB0293A4EB0C049C42AE
:10129800CE469C4651D34ED055B1B8EB0E0364EB05
:1012A8000C0404FA06F6CB401E43CC40C5E90064A2
:1012B800002150E7C2F1200320FA03F10CFA02FCE6
:1012C80024FA03F394400C434FEA1C4800FA02FE48
:1012D8001FFA8CF7B3FBF8F008FB1031230C43EA34
:1012E800014300FB07F1994208D91CEB030300F105
:1012F800FF362CD299422AD9023863445B1AA4B229
:10130800B3FBF8F108FB113344EA034401FB07F38C
:10131800A34208D91CEB040401F1FF3613D2A342FF
:1013280011D902396444E41A41EA004139E7044614
:10133800F0E6084606E7C845AED2B9EB020E63EB05
:10134800070C0138A8E73146EDE7034699E7304630
:10135800D4E7D6467FE7634402384DE7064623467E
:1013680008460FE7023E634430E700BF704700BFFE
:101378004FEA40024FEA41037FEA226C02D15FEA5A
:10138800402C08D17FEA236C02D15FEA412C02D1BC
:101398004FF0000070474FF00100704730B59BB028
:1013A800002417941894199420252A4621460FA83A
:1013B8000BF0DEFC3C22214668460BF0D9FC504875
:1013C8004FF0A04303604FF4403343608460C4602F
:1013D800046101234361082282610477447704226F
:1013E800026280F824404FF4D461C1624FF48061F6
:1013F800016380F838304FF48051C16380F8403081
:1014080042648564C464036501F0E0F800285FD194
:101418000023179317A93A4802F038FD00285AD13B
:10142800384B0F9306231093002311937F221292B7
:101438000422139214930FA9314801F093FC002859
:101448004CD1314B0F930C2310930FA92C4801F06A
:1014580089FC002845D12D4B0F93122310930FA917
:10146800274801F07FFC00283ED1294B0F93182311
:1014780010930FA9224801F075FC002837D1214BA1
:10148800009309230193012302937F2303930423E9
:10149800049300230593022208928DF824308DF8D6
:1014A80025308DF826300A930B938DF83030694635
:1014B800134802F0DDF9E8B9144B009340F20F131A
:1014C800019369460E4802F0D3F9B0B91BB030BD9C
:1014D80000F0E6FC9CE700F0E3FCA1E700F0E0FC8C
:1014E800AFE700F0DDFCB6E700F0DAFCBDE700F09E
:1014F800D7FCC4E700F0D4FCDEE700F0D1FCE5E758
:101508009804002002003004040060080800900CD1
:101518001000C01000B589B02022002168460BF0E9
:1015280027FC1E481E4B03604FF4403343600023E2
:101538008360C36003614361042282610377437758
:101548000122026280F82430C362036380F83830D5
:10155800C36380F840201C21416480218164C364F6
:10156800026501F033F898B90E4B009306230193F6
:10157800052302937F2303930423049300230593F5
:101588006946064801F0EEFB28B909B05DF804FB8E
:1015980000F086FCE8E700F083FCF6E72C04002066
:1015A800000100500010603210B58CB0002409947E
:1015B8000A940B942022214601A80BF0D9FB22485B
:1015C800224B03604FF4403343608460C46004617D
:1015D800446104238361047744770123036280F81C
:1015E8002440C462046380F83840C46380F8403003
:1015F8001C22426480228264C464036500F0E6FF12
:10160800C8B90023099309A90F4802F03FFCA8B9FB
:101618000F4B019306230293052303937F2304931F
:10162800042305930023069301A9074801F09AFBB8
:1016380038B90CB010BD00F033FCE2E700F030FC24
:10164800E6E700F02DFCF4E7C0030020000400509A
:101658000200300400B589B02022002168460BF052
:1016680087FB1E481E4B03604FF440334360002342
:101678008360C36003614361042282610377437717
:101688000122026280F82430C362036380F8383094
:10169800C36380F840201421416460218164C364DD
:1016A800026500F093FF98B90E4B0093062301934F
:1016B800072302937F2303930423049300230593B2
:1016C8006946064801F04EFB28B909B05DF804FBED
:1016D80000F0E6FBE8E700F0E3FBF6E75403002040
:1016E800000600501000C09030B5A3B00446002199
:1016F8001D911E911F9120912191542208A80BF051
:1017080037FB2368B3F1A04F0CD07A4A934263D0D9
:10171800794A934200F09B80784A934200F0CA804D
:1017280023B030BD4FF4004308934FF00053199392
:1017380008A805F067FD00283DD1714A13680133F8
:101748001360012B3AD06F4BDA6C42F00102DA6475
:10175800DB6C03F001030293029B0F231D93032309
:101768001E9300251F951DA94FF0904002F076FEAC
:101778006548664B0360052343608560C560802328
:1017880003614FF4807343614FF4806383612023C6
:10179800C3614FF40053036202F046FDC8B95A4BC7
:1017A80063659C6200221146122002F0ABFC1220F5
:1017B80002F0B8FCB4E700F073FBBEE7514BDA6CFB
:1017C80042F40052DA64DB6C03F400530193019B8A
:1017D800B9E700F065FBE2E74FF4004308934FF0E8
:1017E8000053199308A805F00DFD10BB444A13686F
:1017F80001331360012B1FD0424BDA6C42F0020216
:10180800DA64DB6C03F002030493049B04231D9346
:1018180003231E9300241F941DA93D4802F01EFEB9
:1018280022462146122002F06DFC122002F07AFCBA
:1018380076E700F035FBD9E7324BDA6C42F4005218
:10184800DA64DB6C03F400530393039BD4E74FF48F
:10185800803308934FF000431A9308A805F0D2FC90
:10186800D0B92C4A136801331360012B17D0254BCC
:10187800DA6C42F00202DA64DB6C03F002030693CE
:10188800069B02231D9303231E9300231F931DA968
:101898001F4802F0E3FD43E700F002FBE1E7194BC4
:1018A800DA6C42F48042DA64DB6C03F4804305931B
:1018B800059BDCE74FF4803308934FF000431A93FD
:1018C80008A805F09FFC88B9124A13680133136011
:1018D800012B7FF425AF0B4BDA6C42F48042DA64BB
:1018E800DB6C03F480430793079B19E700F0D8FAF1
:1018F800EAE700BF00010050000400500006005055
:10190800F002002000100240F4020020080002400B
:1019180000040048EC020020A0B138B50446036872
:10192800B3F1A04F00D038BD092101F081FF054671
:1019380040F20F11204601F07BFFA9B280B20AF0F5
:10194800C3F9F0E77047000070B500F00DFE254BB5
:101958001B68C31A632B00D870BD224B186022483D
:1019680001F05EFD80B10024204801F059FDD0B19E
:1019780000251F4801F054FD20B30026B2B2A9B2D9
:10198800A0B20AF0B3F9E7E70221174800F06CFFAC
:1019980020B10024144801F0C7FEE5E7124801F021
:1019A8000FF80446F6E70221104800F05DFF20B169
:1019B80000250E4801F0B8FEDBE70C4801F000F8FE
:1019C8000546F6E702210A4800F04EFF20B100263E
:1019D800074801F0A9FED1E7054800F0F1FF0646E7
:1019E800F6E700BFE8020020C00300202C04002016
:1019F8005403002000B583B00E4B9A6C42F00402E9
:101A08009A649A6C02F004020092009A9A6C42F06E
:101A180001029A649B6C03F001030193019B00226D
:101A280011460B2002F06EFB0B2002F07BFB03B08B
:101A38005DF804FB0010024030B589B0002403941F
:101A480004940594069407941A4BDA6C42F0200229
:101A5800DA64DA6C02F020020092009ADA6C42F042
:101A68000102DA64DA6C02F001020192019ADA6C7E
:101A780042F00202DA64DB6C03F002030293029B79
:101A88000D4D224643F60101284602F0DBFD0122F6
:101A98002021284602F0D6FD43F6210303930123B3
:101AA80004930594069403A9284602F0D7FC09B0CC
:101AB80030BD00BF001002400004004802680E4B11
:101AC8009A4200D0704700B583B003F528431A6ED8
:101AD80042F080621A661B6E03F080630193019BDB
:101AE80000221146442002F00DFB442002F01AFBAC
:101AF80003B05DF804FB00BF0068014070B588B012
:101B080000230393049305930693079302681A4BE3
:101B18009A4201D008B070BD03F52843DA6C42F050
:101B28000202DA64DA6C02F002020192019ADA6CBB
:101B380042F00102DA64DB6C03F001030293029BBA
:101B48004FF44043039302260496032506950D247B
:101B5800079403A9094802F081FC4FF440730393EA
:101B68000496002305930695079403A94FF0904027
:101B780002F074FCCEE700BF006801400004004892
:101B880010B5BAB000243894399434943594369406
:101B980037942D942E942F94309431943294339416
:101BA8006022214615A80BF0E3F8129413941494BC
:101BB800242221460DEB02000BF0DAF82022214600
:101BC80001A80BF0D5F8AE48AE4B036044608460C2
:101BD80002F070FF002840F01A810C21A84802F09A
:101BE800D5FF002840F016810A21A54803F007F820
:101BF800002840F012814FF4803338934FF400638B
:101C0800399338AA01219E4803F034F8002840F09F
:101C18000781002201219A4803F065F9002840F065
:101C280002814FF48053399338AA0221944803F073
:101C380021F8002840F0FA8014220221904803F08D
:101C480052F9002840F0F58046F6402334930021ED
:101C5800359136910823379334AA894802F0F1FF69
:101C6800002840F0E98000212D912F913091339187
:101C78002DAA834803F042FA002840F0E0801023A0
:101C880015930021169117911891012319931A9110
:101C98001B911C911D911E914FF000631F93209181
:101CA80021914FF000532293239124914FF0004348
:101CB80025934FF480732693279129912A912B918C
:101CC8002C9115AA6E4803F0D3F9002840F0BA8089
:101CD80000231593279315AA0321694803F0C8F92F
:101CE800002840F0B28043F22053129312AB012235
:101CF8000021634803F070FA002840F0A98041F6FB
:101D08009023129312AB042200215D4803F064FA79
:101D1800002840F0A08045F2E47312934FF48053FA
:101D280013930021149112AB0822554803F054FA7A
:101D3800002840F093800021099164230A930B91B5
:101D48004FF400420C924FF480420D920E930F9183
:101D58004FF0004310934FF08043119309AA48486D
:101D680003F0E8F900287CD109AA0321444803F0CC
:101D7800E1F9002878D10021019104230293082376
:101D880003930491059106910791089101AB0122F3
:101D98003B4803F002FB002869D101AB4022032134
:101DA800374803F0FAFA002864D108230293042381
:101DB80003936B4402220021314803F0EEFA002815
:101DC8005BD101AB802203212D4803F0E6FA0028FD
:101DD8005AD134AA03212A4802F033FF002856D1E9
:101DE8002DAA0321264803F089F9002852D14FF47F
:101DF8008873129312AB01220321214803F0ECF9F6
:101E080000284AD11E48FFF779FE3AB010BD00F00D
:101E180047F8E2E600F044F8E6E600F041F8EAE6C2
:101E280000F03EF8F5E600F03BF8FAE600F038F886
:101E380002E700F035F807E700F032F813E700F0A2
:101E48002FF81CE700F02CF842E700F029F84AE7E1
:101E580000F026F853E700F023F85CE700F020F8DC
:101E680069E700F01DF87FE700F01AF883E700F053
:101E780017F892E700F014F897E700F011F8A0E7D8
:101E8800040500200068014000F00AF8A1E700F00E
:101E980007F8A5E700F004F8A9E700F001F8B1E7B2
:101EA80072B6FEE700B595B03822002106A80AF000
:101EB8005FFF00200190029003900490059004F0C9
:101EC8000BFD212306934FF48033079301230C93D2
:101ED80002230D9303220E9205220F9244221092A0
:101EE800119308221292139306A804F0AFFD80B94B
:101EF8000F23019303230293002303930493059371
:101F080004210DEB010005F057F820B915B05DF874
:101F180004FBFFF7C5FFFFF7C3FF000008B500F09B
:101F280007FBFFF7BFFF09F01FFEFFF785FDFFF76F
:101F380061FDFFF733FAFFF78DFBFFF721FE00F095
:101F480061F800F049F900F0B1F900F0E3F9FFF7A2
:101F5800E1FAFFF729FB08F0D3FB09F089FE0AF044
:101F6800CFFD08F021FF7F21204801F013FC08B1C4
:101F7800FFF796FF7F211E4801F00CFC08B1FFF720
:101F88008FFF7F211B4801F005FC08B1FFF788FF90
:101F98007F21194801F0FEFB08B1FFF781FF0422F9
:101FA8001649124801F0D6FAE0B9104B5B6D23B11F
:101FB8001A68136823F0060313604FF49011104851
:101FC80003F03DFA80B90E4B1A68D2F88C3043F012
:101FD8001003C2F88C30FFF7B7FC09F0D9FD08F000
:101FE80013FFF8E7FFF75CFFFFF75AFF980400209C
:101FF8002C040020C003002054030020DC2600200D
:102008000405002008B51048104B03604FF4827394
:102018004360002383604FF4E062C2600361436160
:102028004FF4007282611822C261036243628362C4
:102038000722C26203630823436305F0ACFB00B9BF
:1020480008BDFFF72DFFFBE7000600200030014028
:1020580000B589B00023039304930593069307936F
:102068000268144B9A4202D009B05DF804FB03F5EC
:1020780060431A6E42F480521A661A6E02F4805255
:102088000192019ADA6C42F00102DA64DB6C03F027
:1020980001030293029BE023039302230493032387
:1020A80006930523079303A94FF0904002F0D6F951
:1020B800DAE700BF0030014000B583B00B4B1A6E61
:1020C80042F001021A661A6E02F001020092009AAA
:1020D8009A6D42F080529A659B6D03F0805301938C
:1020E800019B04F07FFC03B05DF804FB0010024084
:1020F800FEE7FEE7FEE7FEE7FEE77047704770473A
:1021080008B500F025FA08BD08B5024802F044F900
:1021180008BD00BFF402002008B5034800F05CFCCD
:10212800024800F059FC08BD980400202C04002047
:1021380008B5024804F087F908BD00BFD01E00208A
:1021480008B50021024803F0A4FB0AF0F1FD08BD20
:1021580004050020704700000268094B9A4200D02D
:10216800704782B003F55C431A6E42F400521A6657
:102178001B6E03F400530193019B02B0704700BF2C
:102188000034014000B587B0002301930293039304
:102198000493059302680E4B9A4202D007B05DF88B
:1021A80004FB03F55C43DA6C42F00202DA64DB6C90
:1021B80003F002030093009B4FF400730193022382
:1021C80002930A23059301A9024802F047F9E5E7BB
:1021D800003401400004004810B598B0002415945C
:1021E800169417940E940F941094119412941394B7
:1021F80014943422214601A80AF0BAFD29482A4B32
:10220800036005234360846040F2E733C3600461E0
:1022180044618023836105F08FFE002836D10023B6
:1022280015931693179315A91E4805F0A3FF0028C8
:102238002FD160230E934FF4FA730F93002310935A
:10224800119312931393149308220EA9154805F0BD
:10225800F3FE08BB002301930293039304930593B1
:102268004FF4005206920793089309934FF00072B7
:102278000A920B930C930D9301A90A4805F0D0FF1D
:1022880068B90848FFF77EFF18B010BDFFF708FED1
:10229800C5E7FFF705FECCE7FFF702FEDAE7FFF731
:1022A800FFFDEEE7640600200034014008B517483A
:1022B800174B03604FF46123436000238360C360BE
:1022C80003610C2242618361C361036243628362DA
:1022D80006F072FB70B900210C4806F0E6FB60B905
:1022E80000210A4806F006FC50B9084806F0BEFB73
:1022F80048B908BDFFF7D4FDEDE7FFF7D1FDEFE7DB
:10230800FFF7CEFDF1E7FFF7CBFDF2E7440700202A
:102318000038014008B51748174B03604FF4612394
:10232800436000238360C36003610C2242618361C0
:10233800C36103624362836206F03EFB70B9002109
:102348000C4806F0B2FB60B900210A4806F0D2FB3F
:1023580050B9084806F08AFB48B908BDFFF7A0FD48
:10236800EDE7FFF79DFDEFE7FFF79AFDF1E7FFF7D0
:1023780097FDF2E7B00600200044004070B5A0B019
:10238800044600211B911C911D911E911F915422FE
:1023980006A80AF0EDFC2368384A934204D0384A6C
:1023A80093422BD020B070BD0123069306A804F0F9
:1023B80029FF00BB334B1A6E42F480421A661A6E2C
:1023C80002F480420192019ADA6C42F00202DA6465
:1023D800DB6C03F002030293029BC0231B930223CE
:1023E8001C9300231D931E9307231F931BA92648A4
:1023F80002F034F8D6E7FFF753FDDBE70223069334
:1024080006A804F0FFFE002835D11E4B9A6D42F451
:1024180000329A659A6D02F400320392039ADA6CDC
:1024280042F00102DA64DA6C02F001020492049AC2
:10243800DA6C42F00202DA64DB6C03F00203059303
:10244800059B4FF400431B9302261C9600241D9401
:102458001E9407251F951BA94FF0904001F0FEFF21
:1024680008231B931C961D941E941F951BA90648B0
:1024780001F0F4FF96E7FFF713FDC6E700380140C7
:102488000044004000100240000400480D48854602
:10249800FFF760FE0C480D490D4A002302E0D458AE
:1024A800C4500433C4188C42F9D30A4A0A4C002396
:1024B80001E013600432A242FBD30AF067FCFFF785
:1024C8002DFDFEE70000022000000020CC020020C5
:1024D800B4D20008CC020020602A0020FEE70000E9
:1024E800104B1B680BB90120704710B504464FF418
:1024F8007A70B0FBF3F30C4A1068B0FBF3F001F00C
:1025080015FE68B90F2C01D901200AE000222146E6
:102518004FF0FF3001F0F6FD044B1C60002000E096
:10252800012010BD04000020000000200800002049
:1025380010B5032001F0D4FD0F20FFF7D1FF10B133
:102548000124204610BD0446FFF7B6FDF9E7000058
:10255800034A1368034909680B441360704700BFB6
:10256800D807002004000020014B1868704700BFFE
:10257800D807002010B430300B0A9B0003F00C037E
:10258800C45801F01F014FF01F0C0CFA01FC24EA9B
:102598000C0CC2F384628A404CEA0202C25010BC9E
:1025A800704710B414304B0E9B0003F00403C4585A
:1025B800C1F304514FF0070C0CFA01FC24EA0C0C8F
:1025C8008A404CEA0202C25010BC704730B583B052
:1025D80000230193002800F032810446C36D13B331
:1025E80023689A6812F0005F05D09A6822F02042AA
:1025F80022F03F029A602268936813F0805F1FD12F
:10260800936823F0104323F03F0343F08053936013
:102618008C4B1B689B098C4AA2FB03239B09013343
:102628005B00019309E0FFF75FF80023236684F855
:102638005830D5E7019B013B0193019B002BF9D151
:102648002268936813F0805F3DD1E36D43F0100377
:10265800E365236E43F0010323660120936813F0BA
:10266800040300D00123E16D11F0100F40F0E08069
:10267800002B40F0DD80E36D23F4817343F0020307
:10268800E365936813F0010F3ED1B2F1A04F1CD05F
:102698006E4B9A4219D06E4B996811F0010100D027
:1026A80001216C4B9B6813F0010300D001230B43FD
:1026B8006949896811F0010100D001210B430CBF61
:1026C8000123002312E00020C8E74FF0A0439968D7
:1026D80011F0010100D001215C4B9B6813F001034C
:1026E80000D001230B430CBF0123002363B1B2F1D7
:1026F800A04F6CD0554B9A4267D0584963688A6896
:1027080022F47C1213438B60627FE36B43EA42330B
:10271800E2681343A268134394F8242043EA02436F
:10272800012A56D0E26A22B102F47872216B0A4378
:1027380013432168CD684A4A2A401A43CA6022686E
:10274800136923F04063616B0B431361226893683C
:1027580013F0080300D0012343BB237F94F83810FB
:10276800490041EA8331D36823F4804323F002030C
:102778000B43D3602369002B30D02268136943F4DC
:10278800803313612268D2F8C03023F47F5323F0DA
:102798003F0321690B43C2F8C03094F84030012B45
:1027A8002BD02268136923F0010313616369012B9D
:1027B80035D02268136B23F00F031363E36D23F006
:1027C800030343F00103E36537E0264996E725490B
:1027D80094E7A26A013A43EA4243A3E722681369ED
:1027E80023F4803313612268D2F8C03023F47F5376
:1027F80023F03F03C2F8C030CFE721680B6923F408
:10280800FF6323F00403626CA56C2A43E56C2A433A
:10281800256D2A43134343F001030B61C6E7216882
:102828000B6B23F00F03226A013A13430B63C5E7CE
:10283800E36D43F01003E365012003B030BD0120D0
:10284800FBE700BF00000020632D3E05000100509B
:10285800000400500005005000060050000700501A
:102868000740F0FF000300502DE9F04104460E46F2
:102878000368B3F1A04F21D04E4A93421BD04E4A71
:10288800976807F01F07A569082D1ED0092F05D8DE
:1028980040F22122FA4012F0010F11D1B3F1A04FFA
:1028A8003AD0444A934235D0434B9B6813F4604F67
:1028B80034D1042509E002F50072E1E73F4ADFE779
:1028C800DB6813F0010F1FD10425FFF74DFE80468A
:1028D80023681A682A4227D1B6F1FF3FF8D0FFF7DC
:1028E80043FEA0EB0800B04201D8002EF0D12368C7
:1028F8001B682B42ECD1E36D43F00403E36500232E
:1029080084F85830032050E0E36D43F02003E3657A
:1029180001204AE0294BC8E7284BC6E7E36D43F09E
:102928002003E365012040E0E26D42F40072E265B5
:10293800DA6812F4406F11D1627F7AB91A6812F01E
:10294800080F0BD0E26D22F48072E265E26D12F49A
:10295800805F03D1E26D42F00102E265154A9342BD
:1029680013D002F5806293420CD01A4693420FD0DE
:10297800092F05D840F22121F94011F0010F07D1A4
:10298800D26806E0A2F58072F0E74FF0A042EDE7CA
:10299800DA68082D06D012F4804F08D10C221A608C
:1029A800002002E008221A600020BDE8F081002023
:1029B800FBE700BF00010050000700500003005073
:1029C8000368186C70477047704708B5806AFFF74E
:1029D800FBFF08BD70477047F8B5044603681E68DA
:1029E8005F68B3F1A04F49D0984A934244D0984BBE
:1029F8009D6805F01F0516F0020F10D017F0020FA2
:102A08000DD0E36D13F0100F03D1E36D43F40063B1
:102A1800E365204600F02BFF236802221A6016F0B7
:102A2800040F02D017F0040F05D116F0080F58D084
:102A380017F0080F55D0E36D13F0100F03D1E36DB5
:102A480043F40073E3652368DA6812F4406F42D1F7
:102A58007E4A934217D002F58062934210D01A46FC
:102A6800934213D0092D05D840F22121E94011F0F5
:102A7800010F0BD1D2680AE0764BB9E7754BB7E77F
:102A8800A2F58072ECE74FF0A042E9E7DA6812F4A9
:102A9800005F20D11A6812F0080F1CD09A6812F053
:102AA800040F10D15A6822F00C025A60E36D23F427
:102AB8008073E365E36D13F4805F0CD1E36D43F03D
:102AC8000103E36507E0E36D43F01003E365236E5C
:102AD80043F0010323662046FFF775FF23680C22A5
:102AE8001A6016F0200F02D017F0200F05D116F04B
:102AF800400F63D017F0400F60D0E36D13F0100F54
:102B080003D1E36D43F40053E3652368DA6C12F4F0
:102B1800C07F16D10121DA6812F4406F13D1012069
:102B28004A4A934214D002F5806293420DD01A4665
:102B3800934210D07DB1062D0DD0072D0BD0D26851
:102B48000AE00021E7E70020EAE7A2F58072EFE754
:102B58004FF0A042ECE7DA6851B312F0007F03D0DF
:102B680030B312F4005F23D1196811F0400F1FD061
:102B780012F4001F1CD19A6812F0080F10D15A687D
:102B880022F060025A60E36D23F48053E365E36D3D
:102B980013F4807F0CD1E36D43F00103E36507E094
:102BA800E36D43F01003E365236E43F001032366EE
:102BB8002046FEF7B1FE236860221A6016F0800FE7
:102BC80002D017F0800F36D116F4807F02D017F4A8
:102BD800807F41D116F4007F02D017F4007F47D1DF
:102BE80016F0100F20D017F0100F1DD0E36B6BB14B
:102BF800002D4DD02368B3F1A04F47D0134A93421C
:102C080042D0134B9B6813F4604F0AD0E36D43F432
:102C18008063E365236E43F0020323662046FFF7D3
:102C2800DAFE236810221A6016F4806F02D017F4B7
:102C3800806F33D1F8BDE36D43F48033E3652046FC
:102C4800FFF7C8FE236880221A60BDE70001005024
:102C58000007005000030050E36D43F40033E365C0
:102C6800204600F002FE23684FF480721A60B1E734
:102C7800E36D43F48023E365204600F0F7FD236805
:102C88004FF400721A60ABE70C4BBBE70B4BB9E78C
:102C98002368DB6813F0010FC3D0B7E7E36D43F493
:102CA8008043E365236E43F00803236623684FF4EB
:102CB80080621A60204600F0D7FDBBE70003005091
:102CC80008B50346806AC26D12F0500F30D1C36D4B
:102CD80043F40073C36503681A6812F0080F14D030
:102CE800DA6812F4406F20D1DB6813F4005F1CD15E
:102CF800C36D23F48073C365C36D13F4805F14D16F
:102D0800C36D43F00103C3650FE0DB6813F0020FE6
:102D18000BD1C36D23F48073C365C36D13F4805F57
:102D280003D1C36D43F00103C365FFF74CFE08BD33
:102D3800C26D12F0100F04D1426D526B18469047C5
:102D4800F5E7FFF748FEF2E708B5806AC36D43F080
:102D58004003C365036E43F004030366FFF73BFEBD
:102D680008BD0000F0B583B00023019390F85830F7
:102D7800012B00F0488204460D46012380F85830A4
:102D88000068836813F0040F09D0E36D43F0200353
:102D9800E3650120002384F8583003B0F0BD0A68C9
:102DA8004968FFF7E7FB2068836813F0040300D045
:102DB8000123866816F0080600D00126002B3ED1B4
:102DC800002E3CD1AA68B2F1004F78D02968FFF7ED
:102DD800E8FB2268536923F000435361696922685C
:102DE800D368C3F3C1035B0099402869042873D0F2
:102DF800603252F82070AB4B3B402F6807F0F84C1C
:102E080041EA0C010B4343F0004342F820302368A9
:102E18002869AA69603353F8201021F080710A43A9
:102E280043F82020236829692A7F012A51D060337A
:102E380053F8212022F00072324343F821202268FF
:102E4800936813F0010F16D12B68E868D2F8B01018
:102E5800C3F3120621EA060100F018069248F04072
:102E68000340C3F312030B43C2F8B030EA688F4B38
:102E78009A4200F099802B688D4A134200F0B9817C
:102E88002268B2F1A04F00F050818A498A4200F0CE
:102E980049818949896801F0E070884DAB4200F0AA
:102EA8004681874DAB4200F04281864DAB4200F02F
:102EB8007181854DAB4200F0878100206AE70022CE
:102EC8002968FFF76EFB2268536943F0004353619A
:102ED80084E74FF00076AAE7136E116EC1F38461A0
:102EE8002B68C3F3120080BBC3F38463994234D0C8
:102EF80021684B6E4A6EC2F384622B68C3F31200DA
:102F080080BBC3F384639A4234D021688B6E8A6E87
:102F1800C2F384622B68C3F3120080BBC3F38463DB
:102F28009A4234D02168CB6ECA6EC2F384622B6891
:102F3800C3F3120080BBC3F384639A427FF47FAF6C
:102F4800CB6E23F00043CB6679E793FAA3F313B172
:102F5800B3FA83F3CAE72023C8E7136E23F00043CC
:102F68001366C5E793FAA3F313B1B3FA83F3CAE779
:102F78002023C8E74B6E23F000434B66C5E793FA5E
:102F8800A3F313B1B3FA83F3CAE72023C8E78B6E20
:102F980023F000438B66C5E793FAA3F313B1B3FAA2
:102FA80083F3CAE72023C8E720682B68C3F3120617
:102FB80026BB9A0E013202F01F02092A8CBF00229A
:102FC8000122002A52D046BB990E0131890601F030
:102FD800F84176BB9F0E013707F01F070122BA4060
:102FE8001143AEBB9B0E013303F01F0303EB4303F6
:102FF8001B051943AA68FFF7D4FA3CE793FAA3F232
:103008004AB1B2FA82F2013202F01F02092A8CBFD9
:1030180000220122D5E72022F5E793FAA3F131B186
:10302800B1FA81F10131890601F0F841D1E7202197
:10303800F8E793FAA3F24AB1B2FA82F2013202F047
:103048001F024FF0010C0CFA02F2C9E72022F5E743
:1030580093FAA3F343B1B3FA83F3013303F01F03E5
:1030680003EB43031B05C4E72023F6E776BB990E61
:103078000131890601F0F841A6BB9F0E013707F020
:103088001F070122BA401143DEBB9B0E013303F038
:103098001F0303EB43031E3B1B0543F00073194357
:1030A800A8E700BF00F0FF03FFFF070000007F4014
:1030B800000008800001005000070050000021C3F4
:1030C8001000C090000052C7000084CB93FAA3F10F
:1030D80031B1B1FA81F10131890601F0F841CBE74C
:1030E8002021F8E793FAA3F24AB1B2FA82F2013248
:1030F80002F01F024FF0010C0CFA02F2C3E7202283
:10310800F5E793FAA3F35BB1B3FA83F3013303F062
:103118001F0303EB43031E3B1B0543F00073BEE78D
:103128002023F3E701F50071B4E63849B2E611F45B
:10313800000F7FF4BAAEB2F1A04F04D0344B9A42DC
:1031480001D0002026E6B2F1A04F19D0314B9A42A7
:1031580014D0314A40F40000936823F0E073184318
:1031680090602E4B1B689B092D4AA2FB03239B09E9
:10317800013303EB43039B00019306E0234AE9E78D
:10318800224AE7E7019B013B0193019B002BF9D100
:103198000020FFE511F0807F7FF48BAE1D4B9A4233
:1031A80029D003F580639A4227D0B2F1A04F09D005
:1031B800194940F080738A6822F0E07213438B60EB
:1031C8000020E7E51149F4E711F4800F17D1114BFE
:1031D8009A4216D0B2F1A04F09D00F4940F48003AB
:1031E8008A6822F0E07213438B600020D2E5074919
:1031F800F4E70020CEE50020CCE50020CAE5002059
:10320800C8E50020C6E50220C7E500BF000300505E
:103218000006005000010050000700500000002088
:10322800632D3E0570B5044603689A6812F00402DF
:1032380000D00122986810F0080000D001200AB9D7
:1032480000286DD0DA6812F0007F04D0A08B40F21D
:10325800011290424ED0022912D023689A6812F0C7
:10326800040F0BD09A6812F0020F07D19A6822F067
:10327800004222F03F0242F010029A60012947D032
:1032880023689A6812F0080F0BD09A6812F0020FA0
:1032980007D19A6822F0004222F03F0242F0200251
:1032A8009A60022936D0032936D10C25FFF75CF93C
:1032B800064623689B682B4230D0FFF755F9801BE0
:1032C8000528F6D923689B682B42F2D0E36D43F0BA
:1032D8001003E365236E43F00103236601201EE01B
:1032E800E36D43F01003E365236E43F001032366A7
:1032F800012014E00022196811F0400F04D1094997
:103308008A42EDD80132F6E740221A600121A4E78B
:103318000425CBE70825C9E70425C7E7002070BDC9
:103328000020FCE7FFFF3FA330B583B000230193E3
:1033380003689A6812F0010F63D104469968324A0B
:10334800114220D19A6822F0004222F03F0242F056
:1033580001029A600368B3F1A04F20D02B4A934230
:103368001BD02B4B9B6813F4000F20D0294B1B68F4
:103378009B09294AA2FB03239B09013303EB43035F
:103388009B00019310E0C36D43F01003C365036E07
:1033980043F001030366012034E0204BE2E71F4BB2
:1033A800E0E7019B013B0193019B002BF9D1FFF75B
:1033B800DBF8054623681A6812F0010F1FD19A68D6
:1033C80012F0010F07D19A6822F0004222F03F0262
:1033D80042F001029A60FFF7C7F8431B022BE9D9B4
:1033E80023681B6813F0010FE4D1E36D43F0100369
:1033F800E365236E43F001032366012002E0002009
:1034080000E0002003B030BD3F0000800001005004
:103418000007005000000020632D3E050003005007
:1034280038B504460368B3F1A04F60D0464A9342CA
:103438005AD0464A956805F01F059B6813F0040F9B
:103448007DD194F85830012B7BD0012384F8583073
:103458002046FFF769FF00286DD1E36D23F4706300
:1034680023F0010343F48073E3652368364A9342EB
:1034780042D002F5806293423BD01A46934200D074
:103488001DB9E26D22F48012E265E26D12F4805FEC
:1034980035D0226E22F0060222661C221A60002312
:1034A80084F858302368284A93422ED002F5806267
:1034B800934227D01A4693422AD0092D05D840F2C4
:1034C8002121E94011F0010F22D1E36D43F480136B
:1034D800E365D36813F0007F32D0E36D23F44053E3
:1034E80043F48053E3652BE002F50072A2E7184A23
:1034F800A0E7A2F58072C1E74FF0A042BEE7002224
:103508002266CAE7A2F58072D5E74FF0A042D2E75B
:10351800DA6812F0007F05D0E26D22F4405242F4DE
:103528008052E2659A6822F0004222F03F0242F09F
:1035380004029A6004E0002384F8583000E0022076
:1035480038BD0220FCE700BF000100500007005012
:10355800000300502DE9F04104460F4690460068EC
:10356800B0F1A04F24D0444B98421ED0434B9E68E4
:1035780006F01F06856815F0040F77D194F85830C7
:10358800012B76D0012384F858303D4B984211D056
:10359800092E05D840F22123F34013F0010F09D179
:1035A800002384F85830012061E003F50073DEE75A
:1035B800344BDCE72046FFF7B7FE002852D1E36D15
:1035C80023F4706323F0010343F48073E3652368F5
:1035D800294A934240D002F58062934239D01A4674
:1035E800934200D01EB9E36D23F48013E365E36DC5
:1035F80013F4805F33D0236E23F006032366636DD4
:10360800214ADA62636D214A1A63636D204A5A635C
:1036180023681C221A60002384F8583022685368F3
:1036280043F0100353602268D36843F00103D3606A
:10363800216843463A464031606D00F063FE2268D7
:10364800936823F0004323F03F0343F0040393609F
:103658000DE0A2F58072C3E74FF0A042C0E7002357
:103668002366CCE7002384F8583000E00220BDE848
:10367800F0810220FBE700BF000100500007005066
:103688000006005000030050C92C0008D329000888
:10369800512D000838B504460268936813F00203F8
:1036A80000D00123916811F0010F39D0002B39D1D6
:1036B800936803F00D03012B09D0E36D43F0100369
:1036C800E365236E43F001032366012029E0936834
:1036D80023F0004323F03F0343F002039360236881
:1036E80003221A60FEF740FF054623689B6813F023
:1036F800010F13D0FEF738FF401B0228F5D92368C5
:103708009B6813F0010FF0D0E36D43F01003E365FD
:10371800236E43F001032366012002E0002000E04D
:10372800002038BD0020FCE790F85830012B1AD053
:1037380010B50446012380F858300321FFF772FDC5
:1037480018B1002384F8583010BD2046FFF7A2FFB7
:103758000028F6D1E36D23F4885323F0010343F0E6
:103768000103E365EDE70220704710B414304B0EF7
:103778009B0003F00403C458C1F304514FF0070C35
:103788000CFA01FC24EA0C0C8A404CEA0202C250F2
:1037980010BC704730B583B00023019390F85830BF
:1037A800012B41D004460D46012380F85830FFF71D
:1037B80071FF80BBE36D23F4885323F0020343F0C9
:1037C8000203E3652268936823F0404323F03F0334
:1037D80005F080452B4343F00043936023689B68C2
:1037E800002B06DBE36D23F0030343F00103E365DD
:1037F80015E0019B01330193019A0C4B9A42EDD9D4
:10380800E36D23F0120343F01003E365002384F80B
:103818005830012006E0E36D43F01003E365002310
:1038280084F8583003B030BD0220FBE701DE040005
:1038380040F2152399420FD040F21B33994207D02A
:1038480040F20F1399420BD00368D3F880007047F9
:103858000368D3F88C0070470368D3F88800704772
:103868000368D3F884007047704770477047704703
:10387800F0B583B000230193426990F85830012BCA
:1038880000F0F68204460D46012380F85830AAB1AC
:103898000B6A012B12D0826E002A40F0B980836631
:1038A800002343668B6A002B00F0AF800A6A013A56
:1038B80003F07C031A43CB6A1A43AAE06B68092B0E
:1038C80000F0838023689A6812F0080F10D195F8E9
:1038D8002520002A40F0BB80DA6822F4401295F8CF
:1038E800260095F82410090541EA40510A43DA6098
:1038F8002268936813F0040300D00123976817F037
:10390800080700D00127002B40F04081002F40F02D
:103918008081AB6A1BB1EB6A002B40F0A78095F859
:103928002530012B00F09C80D36823F00073D3600E
:10393800002695F83030012B00F0A7802268136923
:1039480023F002031361AA68B2F1004F00F0A980C6
:1039580029682068FFF709FF2268536923F00043AC
:1039680053616A692168CB68C3F3C1035B009A405D
:10397800D5F810C0BCF1040F00F0A180603151F8F7
:103988002C00A54B0340286800F0F840024313437D
:1039980043F0004341F82C3023682869AA69603352
:1039A80053F8201021F080710A4343F8202023683F
:1039B80028692A7F012A7FD0603353F8202022F01B
:1039C80000723A4343F82020E1E0AA6ABAB12B68B2
:1039D8009B0E5B0203F4785302F07C021343EA6AFD
:1039E80013432168CA6C22F07B4222F46F0222F44E
:1039F8003F4222F0FF021A43CA64636662E72B68FB
:103A08009B0E5B0203F47853EBE70A6A013A00E085
:103A180000222B68C3F38463696801F01F018B409F
:103A28001343A16E0139A166626E134363660029D0
:103A38007FF448AF2168CA6C22F07B4222F46F02FF
:103A480022F43F4222F0FF021343CB643AE7DA68DC
:103A580022F4401295F8261042EA4152DA6047E70C
:103A6800D36843F00073D360002662E795F82560B9
:103A7800012E05D0D36823F00073D360002658E7E1
:103A8800E36D43F02003E36553E721680B6923F4F2
:103A9800FF736A6BA86B0243134343F002030B6185
:103AA80051E7002229682068FFF75FFE2268536902
:103AB80043F00043536154E74FF000777CE70B6E07
:103AC8000A6EC2F384622B68C3F3120078BBC3F397
:103AD80084639A4233D021684B6E4A6EC2F3846283
:103AE8002B68C3F3120078BBC3F384639A4233D0C4
:103AF80021688B6E8A6EC2F384622B68C3F312004E
:103B080078BBC3F384639A4233D02168CB6ECA6E04
:103B1800C2F384622B68C3F3120078BBC3F38463D7
:103B28009A4234D1CB6E23F00043CB662FE093FA50
:103B3800A3F313B1B3FA83F3CBE72023C9E70B6EE2
:103B480023F000430B66C6E793FAA3F313B1B3FA65
:103B580083F3CBE72023C9E74B6E23F000434B6682
:103B6800C6E793FAA3F313B1B3FA83F3CBE72023A1
:103B7800C9E78B6E23F000438B66C6E793FAA3F37D
:103B880013B1B3FA83F3CBE72023C9E700262168F2
:103B98008B6813F0010F15D12B68E868D1F8B020B5
:103BA800C3F3120722EA070200F018071B48F8407F
:103BB8000340C3F312031343C1F8B030EA68184B4B
:103BC8009A423DD02B68174A13421CD02268B2F1A2
:103BD800A04F00F0E78014498A4200F0E0801349C2
:103BE800896801F0E070124DAB4200F0DD80114DA4
:103BF800AB4200F0D980104DAB4200F006810F4D6A
:103C0800AB4200F01E81002384F85830304603B0E0
:103C1800F0BD0026BBE700BF00F0FF03FFFF070071
:103C280000007F400000088000010050000700509D
:103C3800000021C31000C090000052C7000084CBD0
:103C480020682B68C3F312073FBB9A0E013202F0BB
:103C58001F02092A8CBF00220122002A55D05FBB0F
:103C6800990E0131890601F0F8418FBB4FEA936C38
:103C78000CF1010C0CF01F0C012202FA0CF211439A
:103C8800AFBB9B0E013303F01F0303EB43031B057C
:103C98001943AA68FFF769FD94E793FAA3F24AB1BA
:103CA800B2FA82F2013202F01F02092A8CBF002206
:103CB8000122D2E72022F5E793FAA3F131B1B1FA54
:103CC80081F10131890601F0F841CEE72021F8E7BA
:103CD80093FAA3F24AB1B2FA82F2013202F01F0259
:103CE8004FF0010C0CFA02F2C9E72022F5E793FA2B
:103CF800A3F343B1B3FA83F3013303F01F0303EBD8
:103D080043031B05C4E72023F6E7E7B9990E013101
:103D1800890601F0F84117BB4FEA936C0CF1010CCE
:103D28000CF01F0C012202FA0CF2114337BB9B0E58
:103D3800013303F01F0303EB43031E3B1B0543F052
:103D480000731943A5E793FAA3F131B1B1FA81F1F0
:103D58000131890601F0F841DDE72021F8E793FAFF
:103D6800A3F24AB1B2FA82F2013202F01F024FF016
:103D7800010C0CFA02F2D8E72022F5E793FAA3F334
:103D88005BB1B3FA83F3013303F01F0303EB43037F
:103D98001E3B1B0543F00073D3E72023F3E701F52F
:103DA80000711DE733491BE711F4000F7FF423AFBF
:103DB800B2F1A04F03D0304B9A427FF424AFB2F156
:103DC800A04F20D02D4B9A421BD02D4A40F4000022
:103DD800936823F0E073184390602A4B1B689B0993
:103DE800294AA2FB03239B0903EB43039B001833D7
:103DF8000193019B002B3FF406AF019B013B01930C
:103E0800F7E71C4AE2E71B4AE0E711F0807F7FF4FE
:103E1800F6AE1A4B9A423FF4F6AE03F580639A4227
:103E28003FF4F1AEB2F1A04F08D0154A40F08070CF
:103E3800936823F0E07318439060E4E602F540725B
:103E4800F4E711F4800F7FF4DEAE0C4B9A423FF496
:103E5800DAAEB2F1A04F08D0094A40F48000936866
:103E680023F0E07318439060CDE602F54072F4E762
:103E78000226CBE600030050000600500001005067
:103E88000007005000000020632D3E0590F85820E0
:103E9800012A00F0D58010B49DB00346012280F8B5
:103EA80058200022189219920068B0F1A04F47D00C
:103EB800644A904247D000220192019A002A46D0D3
:103EC800926812F0040200D00122846814F0040FF2
:103ED80040F0A780002A40F0A480B0F1A04F42D063
:103EE800594A90423CD0594A086800285CD09068EA
:103EF80020F460404C6893F838C044EA4C342043BE
:103F080090601868B0F1A04F2FD04F4CA0422CD031
:103F18004C48846814F0010400D001244C4880689F
:103F280010F0010000D0012020434A4CA46814F08E
:103F3800010400D0012420430CBF0120002025E00B
:103F4800414A0192B9E702F580720192B5E7DA6D4C
:103F580042F02002DA65002283F85820012068E048
:103F680002F50072C0E73C4ABEE74FF0A040846803
:103F780014F0010400D001243348806810F00100D7
:103F880000D0012020430CBF01200020002853D07E
:103F9800906820F4716020F00F000C688968214354
:103FA80008439060002041E0916821F460419160ED
:103FB8001968B1F1A04F1AD02348814217D021497E
:103FC800886810F0010000D001202149896811F0AB
:103FD800010100D0012101431E48806810F0010052
:103FE80000D0012001430CBF0121002110E04FF057
:103FF800A041886810F0010000D0012012498968AA
:1040080011F0010100D0012101430CBF0121002161
:10401800A1B1916821F4716121F00F019160002034
:1040280004E0DA6D42F02002DA650120002283F80C
:1040380058201DB010BC70470020F7E70020F5E7B6
:104048000220704700040050000100500007005093
:10405800000500500006005000030050002807DB50
:1040680000F01F02400901239340024A42F8203021
:10407800704700BF00E100E0002808DB0901C9B271
:1040880000F1604000F5614080F80013704700F0CF
:104098000F000901C9B2014B1954704714ED00E033
:1040A80000B500F00700C0F1070CBCF1040F28BFF1
:1040B8004FF0040C031D062B0FD9C31E4FF0FF3E13
:1040C8000EFA0CF021EA000199400EFA03FE22EAEA
:1040D8000E0241EA02005DF804FB0023EEE700004F
:1040E800074AD36823F4E0631B041B0C000200F4A6
:1040F800E060034343F0BF6343F40033D360704789
:1041080000ED00E010B50446054BD868C0F3022066
:10411800FFF7C6FF01462046FFF7AEFF10BD00BF00
:1041280000ED00E008B5FFF799FF08BD0138B0F1D0
:10413800807F0BD24FF0E0235861054AF02182F8C6
:1041480023100020986107221A61704701207047E8
:1041580000ED00E010B4C46CD0F850C0C4F804C03E
:10416800446D24B1846DD0F85CC0C4F804C0446CBC
:1041780004F01F0C012404FA0CF4D0F840C0CCF869
:104188000440046863608368102B05D00368996055
:104198000368DA6010BC704703689A600368D960E6
:1041A800F8E700000368104A934214D8DBB2083BD2
:1041B8000E4AA2FB03231B090D49426C22F003029D
:1041C8000A4482640B4AC26403F01F03012202FA04
:1041D80003F303657047DBB2083B044AA2FB0323E1
:1041E8001B0908330449E8E707040240CDCCCCCCCE
:1041F800000802408008024020080240436803F09B
:104208007F03074A1A4492004265064A8265013BC9
:1042180003F01F03012202FA03F3C365704700BFCE
:104228003F8200104009024000285DD010B50446C6
:1042380001682E4B99423FD82D4B0B442D4AA2FBC7
:1042480003231B099B0043642B4B0364022384F85C
:1042580025300A6822F4FF4222F07002A368E06861
:1042680003432069034360690343A0690343E0698A
:104278000343206A034313430B602046FFF792FF72
:10428800A368B3F5804F22D06368A26C03F07F0364
:104298001360E36C226D5A606368013B032B19D9E4
:1042A80000236365A365E3650020E063012384F8C8
:1042B800253084F8240010BD104B0B440D4AA2FB96
:1042C80003231B099B0043640D4B0364BEE70023D3
:1042D8006360D9E72046FFF791FF636D00221A60FB
:1042E800A36DE26D5A60DFE70120704707040240C2
:1042F800F8FFFDBFCDCCCCCC00000240F8FBFDBFE1
:104308000004024038B5044690F82400012841D042
:10431800012084F8240094F82500C0B2012804D0B4
:10432800002384F82430022038BD022084F82500B8
:104338000020E0632568286820F0010028602046F6
:10434800FFF708FF236BD3B12268136843F00E030D
:104358001360A36C1A6812F4803F03D01A6842F401
:1043680080721A60636D1BB11A6842F480721A6019
:104378002268136843F0010313600020D4E7226821
:10438800136823F0040313602268136843F00A03D8
:104398001360DEE70220C7E738B5036C19680468C4
:1043A8002568436C03F01F0304229A400A4215D083
:1043B80015F0040F12D0236813F0200F03D12368DF
:1043C80023F004032360436C03F01F02016C0423F1
:1043D80093404B60036B03B1984738BD02229A4063
:1043E8000A421CD015F0020F19D0236813F0200FD1
:1043F80006D1236823F00A032360012380F82530BF
:10440800436C03F01F02016C022393404B600023AE
:1044180080F82430C36A002BDFD09847DDE70822F4
:1044280002FA03F30B42D8D015F0080FD5D0236851
:1044380023F00E032360436C03F01F03016C012279
:1044480002FA03F34B60C26380F82520002380F84A
:104458002430436B002BC0D09847BEE770B582B0BC
:10446800002369E085685E000324B44025EA04055A
:10447800CC68B4402C438460456825EA0C054C6838
:10448800C4F300149C402C43446066E08C68012C03
:1044980068D176E0DD08083550F8254003F0070CB0
:1044A8004FEA8C0C4FF00F0E0EFA0CFE24EA0E0E9B
:1044B8000C6904FA0CF444EA0E0440F8254065E05F
:1044C800052400E0002404FA0EF42C430CF1020C3D
:1044D800584D45F82C40584CA568D44325EA0206A7
:1044E800D1F804C01CF4801F01D042EA0506524DE1
:1044F800AE60ED6804EA0506D1F804C01CF4001F9C
:1045080001D042EA05064C4DEE606D6804EA0506E6
:10451800D1F804C01CF4003F01D042EA0506464D1C
:104528006E602D682C404E6816F4803F01D042EA38
:104538000504414A146001330A6832FA03F476D05C
:104548004FF0010C0CFA03FC1CEA0202F3D04C6891
:1045580004F00304013C012C84D94C6804F00304E2
:10456800032C93D0C4684FEA430E4FF0030C0CFAA7
:104578000EFC24EA0C0C8C6804FA0EF444EA0C04D1
:10458800C4604C6804F00304022C83D004684FEA2A
:10459800430E4FF0030C0CFA0EFC24EA0C0C4C688A
:1045A80004F0030404FA0EF444EA0C0404604C68B2
:1045B80014F4403FBFD0214C256E45F00105256617
:1045C800246E04F001040194019C4FEA930C0CF151
:1045D8000205184C54F8255003F0030E4FEA8E0ECE
:1045E8000F2404FA0EF425EA0405B0F1904F3FF4C5
:1045F80069AF134CA04212D004F58064A04210D0D9
:1046080004F58064A0420ED004F58064A0420CD06A
:1046180004F58064A0423FF453AF062453E7012415
:1046280051E702244FE703244DE704244BE702B087
:1046380070BD00BF000001400004014000100240AE
:10464800000400480AB1816170478162704710B464
:104658000468226822F007028B68134323F01803CA
:10466800CA681A43226003680A685A6103684A687C
:104678009A6110BC704730B5046801F1010C4FEA2B
:10468800CC1C54F80C3023F0070E936843EA0E0351
:1046980023F01803D5682B4344F80C3003681468DA
:1046A80003EBC113C3F894400368526803EBC113CA
:1046B800C3F8982030BD70B404682368D4F8A053B8
:1046C80023F020034E69334323F0C002202E09D083
:1046D8008E69022E06D0032E29D0042E2AD023F06C
:1046E800E00201E042F0200222F40062CB691343A9
:1046F80023F480620B6A134323F0C0624B6A1343AE
:1047080023F000628B6A134323F04043CA6A43EAEA
:10471800820323F000534A6B1A4325F480350B6B50
:104728001D4322600368C3F8A05370BC704742F071
:104738004002D9E742F08002D6E7F0B505684B1C85
:10474800DB01EC5824F07044EC500668F35806EB93
:10475800C114D4F8E870D4F8E440D6F8A05323F094
:10476800200C536943EA0C0C202B09D09369022BC7
:1047780006D0032B63D0042B66D02CF4D07C03E046
:104788002CF4C07C4CF0200C2CF4006CD36943EA68
:104798000C0323F48063D2F820C04CEA030C2CF0FD
:1047A800C06C536A43EA0C0323F0006C936A43EA33
:1047B8000C0323F0704CD36A43EA0C0323F4003350
:1047C800D2F834C0BCF1005F43D023F04003D2F8E4
:1047D80038C04CEA030323F48023D2F858E04EEAA9
:1047E800030E2EF0FC7E2EF4803E136D43EA0E0E6F
:1047F80027F03F07D36B03F03F033B4323F000430D
:10480800176C3B43BCF1000F03D124F48074576C40
:104818003C43976CB7F5606F1ED0B7F5F05F1BD0BF
:1048280024F4F0543C4324F48044D76C3C43576D43
:1048380005291AD8DFE801F01430363C42482CF438
:10484800807C4CF0800C9FE72CF0800C4CF4807C32
:104858009AE743F40033B8E7BCF1400FE3D1DFE750
:1048680025F40035126B45EA42054A1CD20146F888
:1048780002E0026802EBC112C2F8E830036803EBF9
:10488800C113C3F8E440036803EBC113C3F8D47041
:104898000368C3F8A053F0BD25F48025126B45EAE0
:1048A8008205E2E725F40025126B45EAC205DCE73C
:1048B80025F48015126B45EA0215D6E725F4001594
:1048C800126B45EA4215D0E725F48005126B45EADC
:1048D8008215CAE710B4006800EBC113D3F8EC30B6
:1048E80023F01003146843EA041323F48013546874
:1048F80044EA030C2CF4803CD36843EA0C0323F409
:10490800003C936843EA0C039469012C05D000EB42
:10491800C110C0F8EC3010BC704723F00403D2F883
:1049280010C04CEA030C2CF0020C536943EA0C0348
:1049380023F001032343EAE7F0B4076807EBC11447
:10494800D4F8E460D4F8B850402A52D035D8012AB7
:104958004FD0002A5ED0202A5ED8022A5ED3023ABF
:10496800012404FA02F2324C224230D144F2040407
:1049780022423ED10022FE24944026EA04061C6806
:10498800944044EA060CDC68944044EA0C041E692E
:1049980006FA02FC4CEA040C5C69944044EA0C0CEC
:1049A8009C69944044EA0C04082E39D0036803EB50
:1049B800C113C3F8E440F0BC7047B2F5007F06D0DD
:1049C80012D9B2F5806F14D0B2F5006F20D15A68B1
:1049D80007EBC117C7F8C42002689C6802EBC11234
:1049E800C2F8C8401022C6E7802AF0D0B2F5807F0E
:1049F8000CD15A6807EBC117C7F8BC2002689C683D
:104A080002EBC112C2F8C0400022B4E70022B2E7AC
:104A18000022B0E70022AEE70022ACE70022AAE7B6
:104A280015F0022FC2D1DB6993401C43BEE700BFDB
:104A38004100004006293CD8DFE801F00C141C2492
:104A48002C3404000268D2F8843343F00103C2F81E
:104A5800843370470268D2F8843343F00203C2F803
:104A6800843370470268D2F8843343F00403C2F8F1
:104A7800843370470268D2F8843343F00803C2F8DD
:104A8800843370470268D2F8843343F01003C2F8C5
:104A9800843370470268D2F8843343F02003C2F8A5
:104AA800843370470268D2F8843343F04003C2F875
:104AB80084337047002864D010B582B004460223BE
:104AC80080F8DD300023C0F8E030C0F8E430C0F8EA
:104AD800E830C0F8EC30C0F8F030C0F8F430C0F876
:104AE800F830836813F0010F12D00268264B9A42FF
:104AF80025D021680A6822F44042236903F4404320
:104B0800134323F44053626902F440521A430A6083
:104B18002046FCF7D3FFA36813F0020F08D02168E2
:104B28000A6822F44072E36803F4407313430B608D
:104B3800012384F8DD30002384F8DC301CE003F521
:104B480028431A6E42F080621A661B6E03F0806377
:104B58000193019BCDE7C3EBC30204EB8202002162
:104B68009161D161116251629162C3EBC30204EB9E
:104B7800820211630133DBB2062BECD9002002B0AC
:104B880010BD0120704700BF0068014090F8DC307C
:104B9800012B32D0012380F8DC30022380F8DD308D
:104BA800B1F1FF3F1AD00268D2F8CC3343F00203C8
:104BB800C2F8CC330268D2F8CC3323F00C030B4391
:104BC800C2F8CC330268D2F8CC3343F00103C2F800
:104BD800CC33012380F8DD30002070470268D2F81A
:104BE800CC3323F00203C2F8CC330268D2F8CC33BA
:104BF80043F00103C2F8CC33EBE70220704770B5ED
:104C080004460D46FDF7B0FC06462368D3F8883302
:104C180013F4803F0ED1B5F1FF3FF6D0FDF7A4FCA9
:104C2800801BA84201D8002DEFD1072384F8DD307E
:104C3800032005E0012384F8DD30002084F8DC003F
:104C480070BD10B5044690F8DD00C0B202280BD044
:104C5800022384F8DD30062907D02046FFF70BFD34
:104C6800012384F8DD30002010BD11462046FFF7EF
:104C7800EEFCF5E7034690F8DD00C0B2022800F02C
:104C8800318193F8DC00012800F0288170B50120FB
:104C980083F8DC00022083F8DD001868D0F8805320
:104CA800D0F8FC4320292AD8002900F00C8101F112
:104CB800FF3CBCF11F0F00F20681DFE81CF0630027
:104CC8007F0004018C00040104010401990004011F
:104CD800040104010401040104010401A600040103
:104CE8000401040104010401040104010401040194
:104CF800040104010401040104010401B900B1F52F
:104D0800807F00F0C9801DD9B1F5007F40F0DB80BD
:104D180024F4E00416684FEA061C0CF4E00C4CEA94
:104D28000404D0F8F86326F0F846C0F8F8631E6863
:104D3800D6F8F8035268920602F0F8420243C6F821
:104D4800F82328E0402900F08D80802940F0BB80BE
:104D580024F4E04416684FEA161C0CF4E04C4CEAC4
:104D68000404D0F8F86326F4F816C0F8F8631E684F
:104D7800D6F8F8035268120402F4F8120243C6F88F
:104D8800F82308E025F4E025166806F4E026354304
:104D98005268C0F8BC2393F8DD20D2B2072A00F08D
:104DA8009F800F2900F296801A68C2F8805301226A
:104DB80083F8DD20002083F8DC0070BD25F4601541
:104DC80016684FEAC60C0CF4601C4CEA05055268DC
:104DD800C0F8C023DFE725F0E07516684FEA861CA7
:104DE8000CF0E07C4CEA05055268C0F8C423D2E711
:104DF80025F0606516684FEA462C0CF0606C4CEAAA
:104E080005055268C0F8C823C5E7568866F302044A
:104E1800D0F8F86326F01F06C0F8F8631E68D6F8C5
:104E2800F803526802F01F020243C6F8F823B2E7FB
:104E380024F0700416684FEA163C0CF0700C4CEA2B
:104E48000404D0F8F86326F47876C0F8F8631E688E
:104E5800D6F8F8035268520102F478720243C6F891
:104E6800F82398E724F4E06416684FEA162C0CF44B
:104E7800E06C4CEA0404D0F8F86326F4F846C0F86D
:104E8800F8631E68D6F8F8035268920202F4F842F2
:104E98000243C6F8F8237EE724F4E024166806F4F3
:104EA800E0263443D0F8F86326F07876C0F8F86343
:104EB8001E68D6F8F8035268520502F07872024369
:104EC800C6F8F82367E7072283F8DD20002283F875
:104ED800DC2060E71A68C2F8FC4368E702207047E4
:104EE80001206AE77047034690F8DD00C0B2022847
:104EF80000F0BD8093F8DC00012800F0B5800120A7
:104F080083F8DC00022083F8DD00202918D8002966
:104F180000F0A38001391F2900F29F80DFE801F02B
:104F2800344A9D569D9D9D629D9D9D9D9D9D9D6E16
:104F38009D9D9D9D9D9D9D9D9D9D9D9D9D9D9D7ABC
:104F4800B1F5807F7DD00FD9B1F5007F40F0858025
:104F58001868D0F8041421F0F851120602F0F8523B
:104F68000A43C0F8042419E040295ED0802974D18E
:104F78001868D0F8041421F4F831120302F4F83256
:104F88000A43C0F8042409E01868D0F8001421F096
:104F98001F0102F01F020A43C0F8002493F8DD2025
:104FA800D2B2072A62D0012283F8DD20002083F8DC
:104FB800DC0070471868D0F8001421F4F8619201F9
:104FC80002F4F8620A43C0F80024E7E71868D0F84A
:104FD800001421F4F831120302F4F8320A43C0F83D
:104FE8000024DBE71868D0F8001421F4F8019204D3
:104FF80002F4F8020A43C0F80024CFE71868D0F892
:10500800001421F0F851120602F0F8520A43C0F8D1
:105018000024C3E71868D0F8041421F01F0102F037
:105028001F020A43C0F80424B8E71868D0F804142B
:1050380021F4F861920102F4F8620A43C0F80424EA
:10504800ACE71868D0F8041421F4F801920402F4CB
:10505800F8020A43C0F80424A0E7072283F8DD20F9
:10506800002283F8DC2099E702207047012070476E
:1050780070B5044690F8DD00C0B2022836D00D465F
:10508800164694F8DC30012B36D0012384F8DC3046
:10509800022384F8DD30062929D02046FFF74DFB8E
:1050A8003268C5EBC50304EB83031A6272685A625F
:1050B800B2689A62F268DA6232691A63294620464F
:1050C800FFF7B8FC062D0BD0F36A4BB922680135FF
:1050D800ED01535923F40073F16D43EA4123535111
:1050E800012384F8DD30002084F8DC0070BD11460F
:1050F8002046FFF7E0FAD3E70220F7E738B5044681
:1051080090F8DD00C0B2022811D094F8DC30012BF1
:105118000ED0012584F8DC50022384F8DD302046C7
:10512800FFF7D8FB84F8DD50002084F8DC0038BD98
:105138000220FCE7034690F8DD00C0B2022846D002
:1051480093F8DC00012840D010B54FF0010E83F829
:10515800DCE0022083F8DD00106800F4E0545068B9
:10516800C0F308000443906800F400700443106919
:1051780000F480400443D06800F40040044314481D
:10518800D2F814C000EA0C4C4CEA040C906900F008
:10519800007040EA0C0C106A00F0804040EA0C0CE9
:1051A800D06900F0004040EA0C001A6802EBC11117
:1051B800D1F8B840074A22400243C1F8B82083F822
:1051C800DDE0002083F8DC0010BD02207047704746
:1051D8000000FF010020003C844690F8DD00C0B2CA
:1051E800022800F0D9809CF8DC00012800F0D0806B
:1051F80030B401208CF8DC0002208CF8DD00062990
:1052080009D0013A072A00F2BC80DFE802F02E43F9
:10521800BA7ABABABA82013A072A1FD8DFE802F086
:10522800040F1E141E1E1E19DCF800201B68D36113
:105238009CF8DD30DBB2072B24D1012028E0DCF814
:1052480000201B685362F3E7DCF800201B689362B8
:10525800EEE7DCF800201B68D362E9E707238CF847
:10526800DD3000238CF8DC30E2E7DCF800201B6836
:1052780002EBC112C2F89C309CF8DD30DBB2072B80
:1052880000F0888001238CF8DD3000208CF8DC00E9
:1052980030BC7047DCF80020186802EBC112C2F875
:1052A800A4005A6822B3DCF800404A1CD201A05876
:1052B80020F44050A050DCF80040A0585D68284316
:1052C800A0505A68B2F5005F0AD0B2F5405FD3D15A
:1052D800DCF800209B6802EBC112C2F8A830CBE7CB
:1052E800DCF800209B6802EBC112C2F89C30C3E7CF
:1052F800DCF800200131C901535823F440535350BE
:10530800BAE7DCF800201B6802EBC112C2F8A8302B
:10531800B2E7DCF80020186802EBC112C2F8AC0052
:105328005A682AB3DCF800404A1CD201A05820F47D
:105338004040A050DCF80040A0585D6840EA850075
:10534800A0505A68B2F5005F0AD0B2F5405F93D119
:10535800DCF800209B6802EBC112C2F8A8308BE78A
:10536800DCF800209B6802EBC112C2F89C3083E78E
:10537800DCF800200131C901535823F4404353504D
:105388007AE707238CF8DD3000238CF8DC3073E7EC
:105398000220704701207BE7704738B5044690F833
:1053A800DD00C0B2022811D094F8DC0001280ED02C
:1053B800012584F8DC50022084F8DD002046FFF740
:1053C800BBFA84F8DD50002084F8DC0038BD0220E8
:1053D800FCE790F8DC30012B14D010B4012280F8DF
:1053E800DC20022380F8DD300468D4F894330B43C2
:1053F800C4F8943380F8DD20002380F8DC301846A8
:1054080010BC70470220704790F8DC30012B14D094
:1054180010B4012280F8DC20022380F8DD30046813
:10542800D4F898330B43C4F8983380F8DD20002370
:1054380080F8DC30184610BC70470220704790F89E
:10544800DC30012B12D010B4012280F8DC200223BA
:1054580080F8DD30046823680B43236080F8DD2082
:10546800002380F8DC30184610BC704702207047D3
:10547800704770477047704770477047704770B5FE
:1054880005460368D3F88843D3F8906314F0010FF6
:1054980002D016F0010F24D114F0020F02D016F03A
:1054A800020F24D114F0040F02D016F0040F26D1F5
:1054B80014F0080F02D016F0080F28D114F0100FBE
:1054C80002D016F0100F2AD114F0400F02D016F0B7
:1054D800400F2CD114F0200F02D016F0200F2ED13F
:1054E80070BD0122C3F88C23FFF7C2FFD4E72B68F5
:1054F8000222C3F88C232846FFF7BBFFD2E72B68AC
:105508000422C3F88C232846FFF7B4FFD0E72B68A2
:105518000822C3F88C232846FFF7ADFFCEE72B6897
:105528001022C3F88C232846FFF7A6FFCCE72B6888
:105538004022C3F88C232846FFF79FFFCAE72B6851
:105548002022C3F88C232846FFF798FFC8E7704746
:10555800704770477047704770477047704770478B
:105568002DE9F04105460368D3F88873D3F8908392
:105578005C68DE6817F4803F02D018F4803F31D1B0
:1055880017F4003F02D018F4003F38D114F0010F8F
:1055980002D016F0010F3BD114F0020F02D016F022
:1055A800020F3DD114F0040F02D016F0040F3FD1C2
:1055B80014F0080F02D016F0080F41D114F0100FA4
:1055C80002D016F0100F43D114F0200F02D016F0BD
:1055D800200F45D114F0400F02D016F0400F46D1ED
:1055E800BDE8F0814FF48032C3F88C23012380F8A2
:1055F800DD30002380F8DC30FFF7A9FFC0E72B6817
:105608004FF40032C3F88C232846FFF7A1FFBDE70B
:105618002B6801229A6006212846FFF79DFFBBE709
:105628002B6802229A6006212846FFF796FFB9E701
:105638002B6804229A6006212846FFF78FFFB7E7F8
:105648002B6808229A6006212846FFF788FFB5E7ED
:105658002B6810229A6006212846FFF77CFFB3E7E3
:105668002B6820229A602846FFF773FFB2E72B6861
:1056780040229A6006212846FFF76CFFB0E7704782
:105688007047704770477047704770477047F8B564
:1056980006460D4602684B1C02EBC3135C6802EB1E
:1056A800C113D3F88C7014F0010F02D017F0010F5A
:1056B80052D114F0020F02D017F0020F53D114F098
:1056C800040F02D017F0040F58D114F0080F02D0BD
:1056D80017F0080F5DD114F0100F02D017F0100F5B
:1056E80062D114F0400F02D017F0400F67D114F0C8
:1056F800800F02D017F0800F6CD114F4807F02D095
:1057080017F4807F71D114F4007F02D017F4007F62
:1057180077D114F4806F02D017F4806F7DD114F420
:10572800006F03D017F4006F40F0838014F4805F9B
:1057380003D017F4805F40F0888014F4005F03D032
:1057480017F4005F40F08D8014F4804F03D017F4F5
:10575800804F40F09280F8BD1A460123C2F8883085
:10576800FFF7FAFEA5E7336803EBC5130222C3F877
:10577800882029463046FFF7F0FEA0E7336803EBA0
:10578800C5130422C3F8882029463046FFF7E6FEF1
:105798009BE7336803EBC5130822C3F88820294622
:1057A8003046FFF7DCFE96E7336803EBC51310229B
:1057B800C3F8882029463046FFF7CDFE91E73368C5
:1057C80003EBC5134022C3F8882029463046FFF76B
:1057D800C1FE8CE7336803EBC5138022C3F8882029
:1057E80029463046FFF74BFF87E7336803EBC513BD
:1057F8004FF48072C3F8882029463046FFF740FFEF
:1058080081E7336803EBC5134FF40072C3F88820AF
:1058180029463046FFF737FF7BE7336803EBC513AC
:105828004FF48062C3F8882029463046FFF72CFFE2
:1058380075E7336803EBC5134FF40062C3F888209B
:1058480029463046FFF721FF70E7336803EBC5139D
:105858004FF48052C3F8882029463046FFF716FFD8
:105868006BE7336803EBC5134FF40052C3F8882085
:1058780029463046FFF706FF66E7336803EBC51392
:105888004FF48042C3F8882029463046FFF7F9FED6
:1058980061E708B5FF2904D0062905D0FFF7F7FE10
:1058A80008BDFFF7ECFDFBE7FFF75AFEF8E738B550
:1058B80012F4804F43D00468B4F8503091F800C017
:1058C8004FEACC0E1EFA83F32344B3F80244C4F320
:1058D80009048B69A34228D31B1B8B618B697BB995
:1058E800056835F82C309BB223F4804323F070030D
:1058F80083F4005343F4004343F0800325F82C302D
:1059080012F0400F0ED002680D7832F825309BB2A5
:1059180023F4E04323F0700343F4004343F0C0034F
:1059280022F8253024B9204638BD00238B61D5E7FD
:1059380023460A894969006803F0F9FFF3E7046818
:10594800B4F8503091F800C04FEACC0E1EFA83F339
:105958002344B3F80644C4F309048B69A3422FD344
:105968001B1B8B618B697BB9056835F82C309BB2A2
:1059780023F4804323F0700383F4005343F400437B
:1059880043F0800325F82C3012F0400F0FD1026845
:1059980091F800C032F82C309BB223F4E04323F096
:1059A800700343F4004343F0C00322F82C30002C6A
:1059B800B9D023464A894969006803F0B8FFB2E7BD
:1059C80000238B61CEE7002856D010B5044690F826
:1059D80091323BB1032384F89132206803F0B8F880
:1059E800002315E080F8903204F0BCFFF2E703EBE7
:1059F800830204EBC2020121517413740021D17493
:105A080011625162013303EB8302D200A150DBB271
:105A180020799842EBD8002316E003EB830204EBCD
:105A2800C202002182F8511182F8503182F85311D4
:105A3800C2F86011C2F8641103EB830204EBC202DE
:105A4800C2F868110133DBB29842E6D8234653F80E
:105A5800040B93E8060003F085F800232373012361
:105A680084F89132A37A012B01D0002010BD204682
:105A780000F01BFF0020F9E70120704790F89032F2
:105A8800012B0ED010B50446012380F8903200682F
:105A980003F055F8206803F067FC002084F89002B2
:105AA80010BD0220704770B505460C46164612F028
:105AB800400F00F020810268B2F8503009784FEAB0
:105AC800C10C1CFA83F31344B3F80224C2F309028D
