:020000040800F2
:100000000000022061280008612A0008692A00080F
:100010006B2A00086D2A00086F2A00080000000003
:10002000000000000000000000000000712A00082D
:10003000732A000800000000752A0008772A0008CB
:10004000D5280008D5280008D5280008D52800089C
:10005000D5280008D5280008D5280008D52800088C
:10006000D5280008D5280008D5280008812A0008CE
:10007000912A0008A12A0008B12A0008C12A000814
:10008000D5280008D5280008D5280008D52800085C
:10009000D12A0008D5280008D5280008D52800084E
:1000A000D5280008E12A0008D5280008D52800082E
:1000B000D5280008D5280008D5280008D52800082C
:1000C000D5280008D5280008D5280008D52800081C
:1000D000D5280008D5280008D5280008D52800080C
:1000E000D5280008D5280008D5280008D5280008FC
:1000F000D5280008D5280008D5280008D5280008EC
:10010000D5280008D5280008D5280008D5280008DB
:10011000D5280008D5280008F12A0008012B00087E
:10012000D5280008D5280008D5280008D5280008BB
:10013000D5280008D5280008D5280008D5280008AB
:10014000D5280008D5280008D5280008D52800089B
:10015000112B0008D5280008D5280008D52800084C
:10016000D5280008D5280008D5280008D52800087B
:10017000D5280008D5280008D5280008D52800086B
:10018000D5280008D5280008D5280008D52800085B
:10019000D528000800000000D5280008D528000850
:1001A000D5280008D5280008D5280008D52800083B
:1001B000D5280008D5280008D5280008D52800082B
:1001C000D5280008D5280008D5280008D52800081B
:0801D000D5280008D52800081D
:1001D80010B5054C237833B9044B13B10448AFF379
:1001E80000800123237010BD100C002000000000C7
:1001F80028CB000808B5034B1BB103490348AFF3EC
:10020800008008BD00000000140C002028CB000866
:1002180081F0004102E000BF83F0004330B54FEAAF
:1002280041044FEA430594EA050F08BF90EA020F1C
:100238001FBF54EA000C55EA020C7FEA645C7FEAAF
:10024800655C00F0E2804FEA5454D4EB5555B8BFD2
:100258006D420CDD2C4480EA020281EA030382EA43
:10026800000083EA010180EA020281EA0303362DD5
:1002780088BF30BD11F0004F4FEA01314FF4801CA8
:100288004CEA113102D0404261EB410113F0004FBA
:100298004FEA03334CEA133302D0524263EB430371
:1002A80094EA050F00F0A780A4F10104D5F1200E0F
:1002B8000DDB02FA0EFC22FA05F2801841F100016A
:1002C80003FA0EF2801843FA05F359410EE0A5F13E
:1002D80020050EF1200E012A03FA0EFC28BF4CF06F
:1002E800020C43FA05F3C01851EBE37101F0004525
:1002F80007D54FF0000EDCF1000C7EEB00006EEB32
:100308000101B1F5801F1BD3B1F5001F0CD34908BB
:100318005FEA30004FEA3C0C04F101044FEA445212
:1003280012F5800F80F09A80BCF1004F08BF5FEA99
:10033800500C50F1000041EB045141EA050130BD79
:100348005FEA4C0C404141EB0101013C28BFB1F58B
:10035800801FE9D291F0000F04BF01460020B1FAD6
:1003680081F308BF2033A3F10B03B3F120020CDAA9
:100378000C3208DD02F1140CC2F10C0201FA0CF087
:1003880021FA02F10CE002F11402D8BFC2F1200CEC
:1003980001FA02F120FA0CFCDCBF41EA0C019040A2
:1003A800E41AA2BF01EB0451294330BD6FEA0404EB
:1003B8001F3C1CDA0C340EDC04F11404C4F12002D6
:1003C80020FA04F001FA02F340EA030021FA04F3E8
:1003D80045EA030130BDC4F10C04C4F1200220FA3F
:1003E80002F001FA04F340EA0300294630BD21FA7D
:1003F80004F0294630BD94F0000F83F4801306BF43
:1004080081F480110134013D4EE77FEA645C18BF36
:100418007FEA655C29D094EA050F08BF90EA020FCD
:1004280005D054EA000C04BF1946104630BD91EAC5
:10043800030F1EBF0021002030BD5FEA545C05D1C8
:100448004000494128BF41F0004130BD14F5800407
:100458003CBF01F5801130BD01F0004545F0FE417B
:1004680041F470014FF0000030BD7FEA645C1ABFB0
:10047800194610467FEA655C1CBF0B46024650EAE7
:10048800013406BF52EA033591EA030F41F4002113
:1004980030BD00BF90F0000F04BF0021704730B599
:1004A8004FF4806404F132044FF000054FF000016E
:1004B80050E700BF90F0000F04BF0021704730B52F
:1004C8004FF4806404F1320410F0004548BF404204
:1004D8004FF000013EE700BF42004FEAE2014FEA59
:1004E80031014FEA02701FBF12F07F4393F07F4F34
:1004F80081F06051704732F07F4208BF704793F037
:100508007F4F04BF41F40021704730B54FF4607449
:1005180001F0004521F000411CE700BF50EA01024C
:1005280008BF704730B54FF000050AE050EA0102F5
:1005380008BF704730B511F0004502D5404261EB65
:1005480041014FF4806404F132045FEA915C3FF4A6
:10055800D8AE4FF003025FEADC0C18BF03325FEA43
:10056800DC0C18BF033202EBDC02C2F1200300FAF4
:1005780003FC20FA02F001FA03FE40EA0E0021FA19
:1005880002F11444BDE600BF70B54FF0FF0C4CF407
:10059800E06C1CEA11541DBF1CEA135594EA0C0FB9
:1005A80095EA0C0F00F0DEF82C4481EA030621EAF4
:1005B8004C5123EA4C5350EA013518BF52EA03352F
:1005C80041F4801143F4801338D0A0FB02CE4FF0E1
:1005D8000005E1FB02E506F00042E0FB03E54FF011
:1005E8000006E1FB03569CF0000F18BF4EF0010E09
:1005F800A4F1FF04B6F5007F64F5407404D25FEA05
:100608004E0E6D4146EB060642EAC62141EA5551B7
:100618004FEAC52040EA5E504FEACE2EB4F1FD0CF9
:1006280088BFBCF5E06F1ED8BEF1004F08BF5FEA77
:10063800500E50F1000041EB045170BD06F0004629
:1006480046EA010140EA020081EA0301B4EB5C04D6
:10065800C2BFD4EB0C0541EA045170BD41F48011CE
:100668004FF0000E013C00F3AB8014F1360FDEBFF3
:10067800002001F0004170BDC4F10004203C35DACF
:100688000C341BDC04F11404C4F1200500FA05F352
:1006980020FA04F001FA05F240EA020001F00042F3
:1006A80021F0004110EBD37021FA04F642EB060169
:1006B8005EEA430E08BF20EAD37070BDC4F10C0493
:1006C800C4F1200500FA04F320FA05F001FA04F257
:1006D80040EA020001F0004110EBD37041F1000143
:1006E8005EEA430E08BF20EAD37070BDC4F120054E
:1006F80000FA05F24EEA020E20FA04F301FA05F2B6
:1007080043EA020321FA04F001F0004121FA04F25D
:1007180020EA020000EBD3705EEA430E08BF20EA2D
:10072800D37070BD94F0000F0FD101F00046400067
:1007380041EB010111F4801F08BF013CF7D041EAE9
:10074800060195F0000F18BF704703F000465200ED
:1007580043EB030313F4801F08BF013DF7D043EABE
:100768000603704794EA0C0F0CEA135518BF95EA74
:100778000C0F0CD050EA410618BF52EA4306D1D1FB
:1007880081EA030101F000414FF0000070BD50EA1A
:10079800410606BF1046194652EA430619D094EAA4
:1007A8000C0F02D150EA013613D195EA0C0F05D18E
:1007B80052EA03361CBF104619460AD181EA0301E2
:1007C80001F0004141F0FE4141F470014FF000009A
:1007D80070BD41F0FE4141F4780170BD70B54FF035
:1007E800FF0C4CF4E06C1CEA11541DBF1CEA1355B5
:1007F80094EA0C0F95EA0C0F00F0A7F8A4EB050497
:1008080081EA030E52EA03354FEA013100F088808D
:100818004FEA03334FF0805545EA131343EA126356
:100828004FEA022245EA111545EA10654FEA00260B
:100838000EF000419D4208BF964244F1FD0404F5C4
:10084800407402D25B084FEA3202B61A65EB030520
:100858005B084FEA32024FF480104FF4002CB6EBDD
:10086800020E75EB030E22BFB61A754640EA0C005D
:100878005B084FEA3202B6EB020E75EB030E22BF9D
:10088800B61A754640EA5C005B084FEA3202B6EBDE
:10089800020E75EB030E22BFB61A754640EA9C009D
:1008A8005B084FEA3202B6EB020E75EB030E22BF6D
:1008B800B61A754640EADC0055EA060E18D04FEA2B
:1008C800051545EA16754FEA06164FEAC30343EACB
:1008D80052734FEAC2025FEA1C1CC0D111F4801F98
:1008E8000BD141EA00014FF000004FF0004CB6E791
:1008F80011F4801F04BF01430020B4F1FD0C88BF30
:10090800BCF5E06F3FF6AFAEB5EB030C04BFB6EB3A
:10091800020C5FEA500C50F1000041EB045170BD2D
:100928000EF0004E4EEA113114EB5C04C2BFD4EB5A
:100938000C0541EA045170BD41F480114FF0000EDE
:10094800013C90E645EA060E8DE60CEA135594EA5A
:100958000C0F08BF95EA0C0F3FF43BAF94EA0C0F5D
:100968000AD150EA01347FF434AF95EA0C0F7FF4D2
:1009780025AF104619462CE795EA0C0F06D152EA26
:1009880003353FF4FDAE1046194622E750EA41060A
:1009980018BF52EA43067FF4C5AE50EA41047FF41B
:1009A8000DAF52EA43057FF4EBAE12E74FEA41027E
:1009B800B2F1E04324BFB3F5001CDCF1FE5C0DD9B5
:1009C80001F0004C4FEAC0024CEA5070B2F1004FFF
:1009D80040EB830008BF20F00100704711F0804F02
:1009E80021D113F13872BCBF01F00040704741F4C7
:1009F80080114FEA5252C2F11802C2F1200C10FACB
:100A08000CF320FA02F018BF40F001004FEAC123AE
:100A18004FEAD32303FA0CFC40EA0C0023FA02F352
:100A28004FEA4303CCE77FEA625307D150EA013328
:100A38001EBF4FF0FE4040F44000704701F00040F8
:100A480040F0FE4040F40000704700BF53B94AB977
:100A5800002908BF00281CBF4FF0FF314FF0FF30BE
:100A680000F06AB9ADF1080C6DE904CE00F006F8A3
:100A7800DDF804E0DDE9022304B070472DE9F04712
:100A8800089D0C46002B4ED194468C458646B2FAFA
:100A980082F262D94AB1C2F12003914020FA03F3ED
:100AA8000CFA02FC194300FA02FE4FEA1C471FFA2F
:100AB8008CF6B1FBF7F44FEA1E4307FB141143EA27
:100AC800014304FB06F199420AD91CEB030304F124
:100AD800FF3080F01281994240F20F81023C63445A
:100AE800591A1FFA8EF3B1FBF7F007FB101143EA0E
:100AF800014300FB06F69E420AD91CEB030300F1F2
:100B0800FF3180F0FC809E4240F2F9806344023855
:100B18009B1B40EA044000211DB1D3400022C5E9D7
:100B28000032BDE8F0878B4205D90DB1C5E9000157
:100B380000210846F5E7B3FA83F1002946D1A3421C
:100B480002D39042C0F0F080861A64EB03030120C0
:100B5800002DE6D0C5E90063E3E7002A40F0908065
:100B6800A1EB0C044FEA1C481FFA8CF70121B4FBD7
:100B7800F8F64FEA1E4308FB164443EA044307FB12
:100B880006F0984208D91CEB030306F1FF3402D2A1
:100B9800984200F2CD8026461C1A1FFA8EF3B4FB49
:100BA800F8F008FB104443EA044300FB07F79F42B0
:100BB80008D91CEB030300F1FF3402D29F4200F274
:100BC800B0802046DB1B40EA0640A5E7C1F12006BD
:100BD8008B4022FA06F71F4320FA06FC04FA01F3B9
:100BE80043EA0C03F44000FA01F8380C4FEA1349C1
:100BF800B4FBF0FE1FFA87FC00FB1E4449EA0444DC
:100C08000EFB0CF9A14502FA01F20AD93C190EF1C2
:100C1800FF3A80F08480A14540F28180AEF1020E57
:100C28003C44A4EB09041FFA83F9B4FBF0F300FB7E
:100C3800134449EA044403FB0CFCA44507D93C19B6
:100C480003F1FF3067D2A44565D9023B3C4443EA2F
:100C58000E40A0FB0293A4EB0C049C42CE469C469B
:100C680051D34ED055B1B8EB0E0364EB0C0404FA23
:100C780006F6CB401E43CC40C5E90064002150E78E
:100C8800C2F1200320FA03F10CFA02FC24FA03F360
:100C980094400C434FEA1C4800FA02FE1FFA8CF7F6
:100CA800B3FBF8F008FB1031230C43EA014300FBC7
:100CB80007F1994208D91CEB030300F1FF362CD247
:100CC80099422AD9023863445B1AA4B2B3FBF8F1FB
:100CD80008FB113344EA034401FB07F3A34208D994
:100CE8001CEB040401F1FF3613D2A34211D90239D7
:100CF8006444E41A41EA004139E70446F0E608464C
:100D080006E7C845AED2B9EB020E63EB070C013813
:100D1800A8E73146EDE7034699E73046D4E7D646DB
:100D28007FE7634402384DE70646234608460FE747
:100D3800023E634430E700BF704700BF08B5002299
:100D48000121024804F054FB08BD00BF000400481C
:100D580008B501221146024804F04AFB08BD00BF4D
:100D68000004004800B587B08DF80F0000238DF807
:100D780017304FF0FF33009301230DF117020DF1E7
:100D88000F01044807F0A9FC9DF8170007B05DF8AB
:100D980004FB00BF0C10002008B5FFF7CFFF0620AA
:100DA800FFF7E0FFFFF7D4FF08BD000010B5FFF71D
:100DB800C5FF0520FFF7D6FF054CFF20FFF7D2FF40
:100DC80010F0010F01D0013CF7D1FFF7C1FF10BDB2
:100DD800A086010070B504460E461546FFF7E6FFEB
:100DE800FFF7DAFFFFF7AAFF0220FFF7BBFFC4F304
:100DF8000740FFF7B7FFC4F30720FFF7B3FFE0B2E0
:100E0800FFF7B0FF002404E0305DFFF7ABFF0134CB
:100E1800A4B2AC42F8D3FFF79BFF70BD10B50446EF
:100E2800FFF7C4FFFFF7B8FFFFF788FF2020FFF7A1
:100E380099FFC4F30740FFF795FFC4F30720FFF7B6
:100E480091FFE0B2FFF78EFFFFF782FF10BD70B58C
:100E580004460E461546FFF7A9FFFFF76FFF03206C
:100E6800FFF780FFC4F30740FFF77CFFC4F30720B8
:100E7800FFF778FFE0B2FFF775FF002404E0FF20DA
:100E8800FFF770FF30550134AC42F8D3FFF760FF2D
:100E980070BD000010B58CB0002409940A940B941E
:100EA8002022214601A80BF06FFC36484FF0A043E2
:100EB80003604FF4403343608460C46004610123DD
:100EC80043610422826104774477026280F82440F7
:100ED8004FF4D462C2624FF48062026380F8383003
:100EE8004FF48053C36380F8404003F055F800285E
:100EF80035D10023099309A9224803F0A5FE00284B
:100F080030D1214B019306230293002303937F22C0
:100F180004920422059206930DEB0201194803F08E
:100F2800E5F910BB194B01930C23029301A915484D
:100F380003F0DCF9E0B9164B01931223029301A9DF
:100F4800104803F0D3F9B0B9124B01931823029358
:100F580001A90C4803F0CAF980B90CB010BD01F022
:100F680007FBC6E701F004FBCBE701F001FBD9E77B
:100F780001F0FEFADFE701F0FBFAE5E701F0F8FA25
:100F8800EBE700BFD80D0020020030040400600821
:100F98000800900C1000C01000B589B02022002174
:100FA80068460BF0F1FB1B481B4B03604FF44033C2
:100FB800436000238360C36003614361042282614C
:100FC800037743770122026280F82430C362036307
:100FD80080F83830C36380F8403002F0DDFF98B9FC
:100FE8000E4B009306230193052302937F2303935B
:100FF80004230493002305936946064803F076F911
:1010080028B909B05DF804FB01F0B2FAE8E701F08D
:10101800AFFAF6E76C0D00200001005000106032B6
:1010280010B58CB0002409940A940B942022214610
:1010380001A80BF0A9FB1F481F4B03604FF4403376
:1010480043608460C460046144610423836104775D
:1010580044770123036280F82440C462046380F863
:101068003840C46380F8404002F096FFC8B90023B6
:10107800099309A90F4803F0E7FDA8B90F4B01939D
:1010880006230293052303937F23049304230593E4
:101098000023069301A9074803F028F938B90CB0D2
:1010A80010BD01F065FAE2E701F062FAE6E701F047
:1010B8005FFAF4E7000D002000040050020030043D
:1010C80000B589B02022002168460BF05DFB1B4863
:1010D8001B4B03604FF44033436000238360C360BD
:1010E800036143610422826103774377012202622C
:1010F80080F82430C362036380F83830C36380F813
:10110800403002F049FF98B90E4B00930623019333
:10111800072302937F230393042304930023059357
:101128006946064803F0E2F828B909B05DF804FBFF
:1011380001F01EFAE8E701F01BFAF6E7940C00202C
:10114800000600501000C09030B5A3B0044600213E
:101158001D911E911F9120912191542208A80BF0F6
:1011680013FB2368B3F1A04F0CD0724A93425BD0B3
:10117800714A934200F08B80704A934200F0BA8023
:1011880023B030BD4FF4004308934FF00053199338
:1011980008A806F065FF002835D1694A13680133AD
:1011A8001360012B32D0674BDA6C42F00102DA642B
:1011B800DB6C03F001030293029B0F231D930323AF
:1011C8001E9300251F951DA94FF0904004F020F8AC
:1011D8005D485E4B0360052343608560C5608023DE
:1011E80003614FF4807343614FF48063836120236C
:1011F800C3614FF40053036203F0F0FE88B9524B09
:1012080063659C62BCE701F0B3F9C6E74D4BDA6C45
:1012180042F40052DA64DB6C03F400530193019B3F
:10122800C1E701F0A5F9EAE74FF4004308934FF04E
:101238000053199308A806F013FFD0B9404A136861
:1012480001331360012B17D03E4BDA6C42F00202D7
:10125800DA64DB6C03F002030493049B04231D93FC
:1012680003231E9300231F931DA9394803F0D0FFC1
:1012780086E701F07DF9E1E7324BDA6C42F400527F
:10128800DA64DB6C03F400530393039BDCE74FF44D
:10129800803308934FF000431A9308A806F0E0FE45
:1012A800D0B92C4A136801331360012B17D0254B92
:1012B800DA6C42F00202DA64DB6C03F00203069394
:1012C800069B02231D9303231E9300231F931DA92E
:1012D8001F4803F09DFF53E701F04AF9E1E7194B76
:1012E800DA6C42F48042DA64DB6C03F480430593E1
:1012F800059BDCE74FF4803308934FF000431A93C3
:1013080008A806F0ADFE88B9124A136801331360C5
:10131800012B7FF435AF0B4BDA6C42F48042DA6470
:10132800DB6C03F480430793079B29E701F020F95E
:10133800EAE700BF0001005000040050000600501A
:10134800300C002000100240340C0020080002403D
:10135800000400482C0C002000B583B01E4B9A6C8A
:1013680042F004029A649A6C02F004020092009A15
:101378009A6C42F001029A649B6C03F0010301939A
:10138800019B002205210B2003F09CFD0B2003F09C
:10139800A9FD002211460C2003F094FD0C2003F057
:1013A800A1FD002205210D2003F08CFD0D2003F086
:1013B80099FD002205210E2003F084FD0E2003F084
:1013C80091FD002205210F2003F07CFD0F2003F082
:1013D80089FD03B05DF804FB00100240814203DC84
:1013E800824203DB00B270470846704710467047D8
:1013F800034B83FB0023A3EBE07000B200027047AD
:101408005655555530B583B0404B1C8B5B8B0191BD
:1014180099B1002A11DDDDED017AB8EE677A07EEA1
:10142800902AF8EEE77A02284BD003282DD001281D
:1014380008D0374B00221A7002E0354B00221A7090
:1014480003B030BDC7EE876ADFED327A66EEA77A61
:10145800B6EE007A77EE877A2C4B9A8A12B28821F8
:10146800FDEEE77A17EE900AFFF7B8FF0446FFF79C
:10147800BFFF4FF4E165284B1C80284B1D80284B8B
:101488001860234B01221A70DAE737EE277AC7EE85
:10149800876ADFED207A66EEA77AB6EE007A77EEF5
:1014A800877A1A4CE28A12B28821FDEEE77A17EEA3
:1014B800900AFFF793FF0546248B24B2FFF798FFA5
:1014C800D9E737EEC77AC7EE276AF5EEC06AF1EEBC
:1014D80010FA17D4DFED0F7A66EEA76AF6EE007AF7
:1014E80076EEA76A094CE28A12B28821FDEEE67A06
:1014F80017EE900AFFF772FF0546248B24B2FFF718
:1015080077FFB8E7DFED076AE4E700BF04000020D3
:10151800880E00200080D446020000200000002031
:10152800840E00200000000008B5344BD3ED077A84
:10153800F8EE677A9FED326A67EE867ADFED316AF8
:1015480087EEA67AF2EE0E4A67EE247A2E4AC2EDAC
:10155800007AD3ED057AF8EE677A67EE867AC7EEF9
:10156800A65A9FED2A7A77EE657A9FED295AC7EE3B
:10157800855A284AC2ED005AD3ED037AF8EE677A05
:1015880067EE867AC7EEA65A65EEA47A2249C1EDBF
:10159800007AD3ED017AF8EE677A67EE867A87EEFD
:1015A800A66A37EE467AC7EE057A1C4BC3ED007A79
:1015B800D2ED007AF5EEC07AF1EE10FA17D4174B97
:1015C800D3ED007AF5EEC07AF1EE10FA13D401F0FB
:1015D80059FB134B83ED000A01F062FB114B83EDBD
:1015E800000A01F06DFB104B83ED000A08BD13469D
:1015F80000221A60E3E700221A60E8E7B80E00202C
:101608005AF5514000F07F45A40E00203333D33FF4
:10161800295C0F3E9C0E0020A00E0020980E002092
:10162800940E0020900E00208C0E0020014B012209
:101638001A807047D80E002070B5174D0024EC7141
:10164800164E0321304604F0B6FDC021304604F0A2
:10165800B2FDAC71AC80124B1C6088221A839A824E
:101668005A83DA820F4B1C600F4B1C600F4B1C60B7
:101678000F4B1C600F4B1C600F4B104A5A604FF009
:101688007E529A600E4B0F4A1A600F4B0F4A1A602F
:101698000F4B104A1A6070BDD80E0020F80E0020BB
:1016A8000400002028000010240000102000001072
:1016B8001400001010000010AC0E00200000A04024
:1016C800EC0E00200000A042E80E0020000034428A
:1016D800E40E00200000204138B5124B0022DA71D8
:1016E8009A711A72104B1A70104B1A605A609A60ED
:1016F80088241C839C825C83DC820D4D0321284650
:1017080004F059FDC021284604F055FD2B6846F623
:101718004022C3F89C2043F22052C3F8A820C3F803
:101728001C4238BDD80E0020040000100400002020
:10173800F80E002008B5FFF7CFFF044B9B889BB23B
:1017480013B9024B01221A8008BD00BFD80E002031
:1017580008B5FFF7C1FF104A138801339BB2138005
:10176800C82B0BD91346C8221A800C4B9B889BB2F6
:1017780023B90A4B5B7ADBB2012B00D008BD0023EA
:10178800054A1380064A1360064A1360034A022179
:101798001180054A1370F1E7700E0020D80E002062
:1017A8006C0E0020680E0020A80E002038B5674B8C
:1017B8001B78012B46D0022B65D003B138BD00241D
:1017C800634BDC71634D0321284604F0F4FCC0210F
:1017D800284604F0F0FC604B88229A82DA825F4A3D
:1017E80014605F4A14605F4A14605F4A14605F4A7D
:1017F80014605F4AD2ED016AF2EE0E7A86EEA77A9D
:101808009FED5C6AC7EE067ADFED5B6A67EEA67A43
:10181800FDEEE77AC3ED027A92ED027ADFED577AB0
:1018280027EE277ADFED567A37EE277AC7EE067A63
:1018380067EEA67AFDEEE77AC3ED037A434B012201
:101848001A70BBE74F4A138801339BB21380052BEC
:10185800B4D900224B4B1A803F4B882119839982B7
:101868005983D9823D490A603D490A603D490A6069
:101878003D490A603D490A609A6852105A60334BE4
:1018880002221A709AE7324BDB79002B42D0304B98
:101898000122DA713C4B1A88013292B21A803B4914
:1018A8000B8801339BB20B802B49888AC2EB02124A
:1018B80012FA80F212B28A82CA8AC3EB031313FAAD
:1018C80082F31BB2CB828B8A9BB246F2E032934200
:1018D80000D98A82204BDB8A9BB244F21052934291
:1018E80001D91D4BDA821C4B9B8A1BB246F2E032AF
:1018F80093427FF463AF184BDB8A1BB244F2105259
:1019080093427FF45BAF124B03221A800F4B0022E5
:101918001A7053E7114A1360114A1360114A136091
:10192800114A1360114A13600A4C236846F6402294
:10193800C3F89C20C3F81C22C021204604F01FFCD9
:101948000321204604F01BFCA1E700BFA80E0020DD
:10195800D80E0020F80E00200400002028000010F7
:1019680024000010200000101400001010000010C7
:10197800AC0E00205AF5514000F07F45295C0F3E1F
:101988003333D33F640E0020620E0020600E002027
:1019980038B5384BD3ED027AF8EE677ADFED365A70
:1019A80067EEA57A9FED356A87EE867AF2EE0E7AB3
:1019B80067EE276AD3ED007AF8EE677A67EEA57AC4
:1019C80087EE867ADFED2E7A77EE677A9FED2D6ABD
:1019D80087EE867AF2EE047AB4EEE77AF1EE10FA40
:1019E80006DDF6EE007AF4EEE76AF1EE10FA1DD4A1
:1019F800254B9B8813F0200F17D0244A1368013316
:101A08001360B3F5C87F10DD134600221A60204B1F
:101A18001B780A2B1ED801331D4A13701A4A938863
:101A28009BB223F020039BB2938038BD164C002351
:101A3800E371184D0321284604F0A1FBC021284674
:101A480004F09DFBA3889BB243F02003A3800423EA
:101A58002380CDE70E4B0B221A700B4B0022DA7154
:101A68000C4C0321204604F08AFBC021204604F0D8
:101A780086FBDAE7B80E00205AF5514000F07F45A2
:101A88003333D33F295C0F3ED80E00205C0E002074
:101A98005A0E0020F80E002038B51C4BD3ED027A00
:101AA800F8EE677A9FED1A7A67EE877ADFED196AA2
:101AB80087EEA67AF2EE0E7A67EE277A164B93ED4A
:101AC800007AB4EEE77AF1EE10FA1BD8134A1388BD
:101AD80001339BB21380022B17D900231380104CBB
:101AE800E371104D0321284604F065FBC021284608
:101AF80004F061FBA3889BB243F00803A38004238E
:101B0800238002E0054B00221A8038BDB80E002061
:101B18005AF5514000F07F45E80E0020580E00208D
:101B2800D80E0020F80E002038B5384BD3ED007AD7
:101B3800F8EE677A9FED367A67EE877ADFED356AD9
:101B480087EEA67ADFED347A77EE677ADFED336ACF
:101B580087EEA67A324BD3ED007AF4EEC77AF1EE2F
:101B680010FA04D82F4B1B889BB2032B21D02E4B85
:101B780000221A802B4B9B8813F0100F18D02B4A89
:101B8800138801339BB21380B3F5C87F10D913466D
:101B980000221A80264A138801339BB213800A2B2D
:101BA80023D8204A93889BB223F010039BB29380DA
:101BB80038BD1D4A138801339BB213800A2BD9D92B
:101BC80000231380174CE3711A4D0321284604F0B3
:101BD800F2FAC021284604F0EEFAA3889BB243F03B
:101BE8001003A38004232380C4E713460B221A8022
:101BF8000C4B0022DA710F4C0321204604F0DBFA6B
:101C0800C021204604F0D7FAD2E700BFB80E002062
:101C18005AF5514000F07F453333D33F295C0F3EDE
:101C2800E40E0020D80E0020560E0020540E00208E
:101C3800520E0020F80E002038B52DED028B01F071
:101C480021F8B0EE408A01F02BF8134BD3ED007A5F
:101C5800F4EEC87AF1EE10FA06D9D3ED007AF4EE74
:101C6800C07AF1EE10FA14D80C4C0123238000231B
:101C7800E3710B4D0321284604F09DFAC021284644
:101C880004F099FAA3889BB243F04003A38004238D
:101C98002380BDEC028B38BDEC0E0020D80E00204E
:101CA800F80E002010B5044602F02EF9642C09D86D
:101CB8004CB90023194A1370194A1360194A12685B
:101CC800D3631EE06424222C00D82324134B1B78F2
:101CD80033B9124B01221A7000F59673104A13603B
:101CE8000F4B1B681B1A002B0CDC04EB84046200EE
:101CF8000C4BDB68B3EB440F00D31346094A126858
:101D0800D36310BD074BDB68B3F57A7F01D34FF47B
:101D18007A73044A1268D363F3E700BF480E0020C1
:101D2800440E0020C010002010EE103A03607047E7
:101D380030B58DB001220BA90020FFF788F89DF877
:101D48002C300BB90DB030BD0020FFF767F8002428
:101D58008DF81440264D95ED010A6846FFF7E4FF1B
:101D680095ED020A01A8FFF7DFFF224B93ED000A69
:101D780002A8FFF7D9FF204B93ED000A03A8FFF74D
:101D8800D3FF1E4B93ED000A04A8FFF7CDFF2346AF
:101D980026E0581C03F130026A4412F8304C03F173
:101DA8003101694401F81C4C12F82C4C03F135013F
:101DB800694401F81C4C12F8284C03F139016944B4
:101DC80001F81C4C12F8244C03F13D01694401F858
:101DD8001C4C12F8202C41336B4403F81C2CC3B262
:101DE800032BD6D9152205A90020FEF7F3FFA9E792
:101DF800AC0E0020EC0E0020E40E0020E80E0020BF
:101E0800324B93ED007AF7EE007AB4EE677AF1EE92
:101E180010FA00D0704730B58DB00020FEF7FEFFF5
:101E280000248DF81840294D95ED010A01A8FFF707
:101E38007BFF95ED020A02A8FFF776FF244B93ED8E
:101E4800000A03A8FFF770FF224B93ED000A04A8CD
:101E5800FFF76AFF204B93ED000A05A8FFF764FF20
:101E6800234626E0581C03F130026A4412F82C4C31
:101E780003F13101694401F8184C12F8284C03F1B8
:101E88003501694401F8184C12F8244C03F1390162
:101E9800694401F8184C12F8204C03F13D016944DB
:101EA80001F8184C12F81C2C41336B4403F8182C19
:101EB800C3B2032BD6D9152206A90020FEF78AFF44
:101EC800024B00221A600DB030BD00BFAC0E0020DE
:101ED800EC0E0020E40E0020E80E0020036800EE5F
:101EE800103A704700B52DED048B8BB014220DEB22
:101EF80002010120FEF7ABFF002325E003F12802D1
:101F08000DEB020111F8142C01F8182C03F12C0226
:101F18006A4412F8142C01F81C2C03F130026A44AC
:101F280012F8142C01F8202C03F134026A4412F838
:101F3800142C01F8242C03F138026A4412F8142CEA
:101F480001F8282C0133DBB2032BD7D904A8FFF7FB
:101F5800C5FFF0EE408A03A8FFF7C0FFB0EE408A45
:101F680002A8FFF7BBFFF0EE409A01A8FFF7B6FF03
:101F7800B0EE409A6846FFF7B1FFF0EE407AF4EE13
:101F8800688AF1EE10FA0ED1F5EEC08AF1EE10FA79
:101F980009DD9FED327AF4EEC78AF1EE10FA02D825
:101FA8002F4BC3ED018AB4EE488AF1EE10FA0ED138
:101FB800B5EEC08AF1EE10FA09DB9FED2A7AB4EE8D
:101FC800C78AF1EE10FA02D8254B83ED028AF4EEA7
:101FD800699AF1EE10FA10D1B2EE047AF4EEC79ACB
:101FE800F1EE10FA09DB9FED207AF4EEC79AF1EED4
:101FF80010FA02D81D4BC3ED009AB4EE499AF1EEDF
:1020080010FA10D19FED1A7AB4EEC79AF1EE10FAD1
:1020180009DB9FED147AB4EEC79AF1EE10FA02D8F4
:10202800144B83ED009AF4EE677AF1EE10FA10D1B2
:10203800B7EE007AF4EEC77AF1EE10FA09DB9FEDFD
:10204800077AF4EEC77AF1EE10FA02D80A4BC3ED1C
:10205800007A0BB0BDEC048B5DF804FB0000C842AD
:10206800AC0E00200000484200001643EC0E002091
:10207800CDCCCC3DE40E0020E80E002030B589B070
:10208800002403940494059406940794174BDA6C7F
:1020980042F02002DA64DA6C02F020020092009A20
:1020A800DA6C42F00102DA64DA6C02F001020192A1
:1020B800019ADA6C42F00202DA64DB6C03F0020384
:1020C8000293029B0A4D224643F62101284603F05B
:1020D8008FF943F62103039301230493059406948F
:1020E80003A9284603F094F809B030BD0010024057
:1020F8000004004802680E4B9A4200D0704700B5B1
:1021080083B003F528431A6E42F080621A661B6E8C
:1021180003F080630193019B00220121442002F017
:10212800D1FE442002F0DEFE03B05DF804FB00BFE0
:102138000068014070B588B00023039304930593A9
:102148000693079302681A4B9A4201D008B070BDF3
:1021580003F52843DA6C42F00202DA64DA6C02F022
:1021680002020192019ADA6C42F00102DA64DB6C35
:1021780003F001030293029B4FF4404303930226AA
:102188000496032506950D24079403A9094803F02E
:102198003FF84FF440730393049600230593069584
:1021A800079403A94FF0904003F032F8CEE700BF40
:1021B800006801400004004810B5BAB00024389403
:1021C800399434943594369437942D942E942F94CE
:1021D80030943194329433946022214615A80AF041
:1021E800D3FA129413941494242221460DEB02007E
:1021F8000AF0CAFA2022214601A80AF0C5FAA54821
:10220800A54B03604460846003F02AFB002840F07B
:1022180002810C219F4803F08FFB002840F0FE80CC
:102228000A219C4803F0C1FB002840F0FA804FF4D3
:10223800803338934FF40063399338AA01219548C5
:1022480003F0EEFB002840F0EF80002201219148C6
:1022580003F01FFD002840F0EA8046F6402334933F
:102268000021359136910823379334AA894803F021
:10227800BEFB002840F0DE8000212D912F91309187
:1022880033912DAA834803F00FFE002840F0D58033
:102298001023159300211691179118910123199372
:1022A8001A911B911C911D911E914FF000631F9371
:1022B800209121914FF000532293239124914FF0C4
:1022C800004325934FF480732693279129912A91EF
:1022D8002B912C9115AA6F4803F0A0FD002840F01F
:1022E800AF8000231593279315AA0321694803F0AB
:1022F80095FD002840F0A78043F22053129312ABBB
:1023080001220021634803F03DFE002840F09E8032
:1023180012AB042200215F4803F034FE002840F08D
:10232800988045F2E47312934FF48053139300217D
:10233800149112AB0822574803F024FE002840F0FD
:102348008B800021099164230A930B914FF400427A
:102358000C924FF480420D920E930F914FF0004370
:1023680010934FF08043119309AA4A4803F0B8FD2F
:10237800002874D109AA0321464803F0B1FD0028BA
:1023880070D100210191042302930823039304913F
:10239800059106910791089101AB01223D4803F090
:1023A800D2FE002861D101AB40220321394803F055
:1023B800CAFE00285CD100210291039101AB0222E0
:1023C800344803F0C0FE002855D101AB8022032118
:1023D800304803F0B8FE002850D134AA03212D4814
:1023E80003F005FB00284CD12DAA0321294803F04E
:1023F8005BFD002848D14FF48873129312AB012279
:102408000321244803F0BEFD002840D12148FFF7EE
:1024180091FE3AB010BD00F0ABF8FAE600F0A8F86B
:10242800FEE600F0A5F802E700F0A2F80DE700F0DC
:102438009FF812E700F09CF81EE700F099F827E7EC
:1024480000F096F84DE700F093F855E700F090F8A3
:102458005EE700F08DF864E700F08AF871E700F0B5
:1024680087F887E700F084F88BE700F081F89AE7AF
:1024780000F07EF89FE700F07BF8A6E700F078F818
:10248800ABE700F075F8AFE700F072F8B3E700F0DB
:102498006FF8BBE7F80E00200068014008B508484F
:1024A800084B0360032343604FF47A73C36083606F
:1024B80004F0D6F800B908BD00F05AF8FBE700BFF1
:1024C800F40F00200030004010B504460268204B8D
:1024D8009A4208D022681F4B9A421AD022681E4B93
:1024E8009A4231D010BD1D4A13889BB201339BB26A
:1024F80013801B4A13889BB201339BB21380194A7D
:1025080013889BB201339BB21380174804F0DEF89E
:10251800E0E70AF019FBFFF73BFAFFF78DFBFFF73F
:10252800BBFAFFF701FB0AF013FB0AF009FB0F4A9D
:1025380013780133DBB21370032BCFD91346002273
:102548001A7001F08DFAC9E7FEF7EEFFCAE700BF7F
:102558000010004000140040004401400A10002010
:102568000810002006100020F40F0020041000209E
:1025780072B6FEE700B595B03822002106A80AF029
:1025880003F900200190029003900490059005F053
:10259800B7F8292306934FF48033079301230B934D
:1025A8000C9302230D9303220E9205220F924422CC
:1025B8001092119308221292139306A805F05AF963
:1025C80090B90F23019303230293002303930493E9
:1025D800059304210DEB010005F002FC30B905F06C
:1025E80025FD15B05DF804FBFFF7C2FFFFF7C0FF3C
:1025F80008B501F06DFCFFF7BDFFFFF73FFDFEF7E3
:10260800ABFEFEF747FCFEF75BFDFFF7D5FD00F0DC
:10261800C9F800F0ABFC01F0C9FA01F0FBFAFEF7CB
:10262800BBFCFEF7FDFC09F023FB00F09FFB00F06C
:10263800C7FB00F0EFFBFFF731FF374B00221A8092
:102648000821364806F046FE6420FFF72BFB344885
:1026580006F02CFB334806F029FB334806F026FB2E
:1026680000F076F8FEF7E8FFFFF762FBFFF73AFCA9
:1026780001F05CF9012220212C4802F0B9FE642007
:1026880001F048FC2A4E7F21304602F08FFA294D8E
:102698007F21284602F08AFA274C7F21204602F043
:1026A80085FA04222549304602F096F9284602F0B8
:1026B800F9F8234802F0F6F8204602F0F3F8214C26
:1026C8004FF40031204603F092FD4FF4801120466C
:1026D80003F08DFD2268D2F88C3043F01003C2F865
:1026E8008C3000F017F901E001F076F9164B1B88E1
:1026F8009BB2312BF8D9144B00221A8000F01AF93A
:10270800124B1B889BB2B3F5FA7FEDD30F4B002217
:102718001A80FFF775FBE7E7D80E0020C0100020ED
:10272800581100200C1100207410002000040048EB
:10273800D80D00206C0D0020940C0020F00E002015
:10274800000D0020F80E0020061000200A100020BE
:1027580000230A4A13600A4A13600A4A13600A4AA5
:1027680013600A4A13600A4A13600A4A13600A4A45
:1027780013600A4A13600A4A137070472800001051
:102788002400001020000010140000101000001099
:102798000C000010080000101C00001018000010A9
:1027A8000400001008B51048104B03604FF4827302
:1027B8004360002383604FF4E062C26003614361B9
:1027C8004FF4007282611822C2610362436283621D
:1027D8000722C26203630823436305F00AFF00B9B6
:1027E80008BDFFF7C5FEFBE70C10002000300140D4
:1027F80000B589B0002303930493059306930793C8
:102808000268144B9A4202D009B05DF804FB03F544
:1028180060431A6E42F480521A661A6E02F48052AD
:102828000192019ADA6C42F00102DA64DB6C03F07F
:1028380001030293029BE0230393022304930323DF
:1028480006930523079303A94FF0904002F0E0FC9C
:10285800DAE700BF003001401348854600F05EF912
:1028680012481349134A002302E0D458C4500433D1
:10287800C4188C42F9D3104A104C002301E01360AD
:102888000432A242FBD30E480E490F4A002302E04D
:10289800D458C4500433C4188C42F9D309F07CFFCF
:1028A800FFF7A6FEFEE7000000000220000000205F
:1028B80054040020F8CB0008100C0020F43A002043
:1028C80058040020100C00204CD00008FEE7B0FB94
:1028D800F1F000F00100704710B582B001900C4C87
:1028E8009DF804204FF40061204602F081FD9DF818
:1028F80005204FF48051204602F07AFD9DF806200D
:102908004FF40051204602F073FD02B010BD00BF25
:102918000004004800B583B000238DF8043001227C
:102928008DF805208DF806300198FFF7D5FF03B024
:102938005DF804FB30B589B001F0E6FA04464FF4BF
:10294800FA71FFF7C4FF054664212046FFF7BFFF71
:10295800324B9B889BB26BB9304B1B889BB2042BC4
:1029680008D02E4B1B889BB2032B4BD8DFE803F013
:102978000E1A333E8DF8040000238DF805308DF8CB
:1029880006300198FFF7A8FF09B030BD00238DF885
:10299800083001228DF809208DF80A300298FFF7D7
:1029A8009BFFF1E71D4B5B7A53B100238DF818307C
:1029B8008DF819008DF81A300698FFF78DFFE3E7B8
:1029C80000238DF81C308DF81D508DF81E300798A7
:1029D800FFF782FFD8E700238DF80C308DF80D0043
:1029E8008DF80E000398FFF777FFCDE700238DF8E9
:1029F80010308DF8113001238DF812300498FFF74C
:102A08006BFFC1E78DF8140000238DF815308DF8A1
:102A180016300598FFF760FFB6E700BFD80E002014
:102A280000B583B00B4B1A6E42F001021A661A6E9B
:102A380002F001020092009A9A6D42F080529A6563
:102A48009B6D03F080530193019B04F0DFFE03B0FC
:102A58005DF804FB0010024008B505F0F1FAFEE746
:102A6800FEE7FEE7FEE7FEE770477047704708B5E8
:102A780001F03EFA08BD000008B5024802F066FB06
:102A880008BD00BF340C002008B5024802F05EFB08
:102A980008BD00BFA01A002008B5024802F056FB86
:102AA80008BD00BF401A002008B5024802F04EFBDE
:102AB80008BD00BF601B002008B5024802F046FBB5
:102AC80008BD00BF001B002008B5024804F0D0FB79
:102AD80008BD00BFE033002008B5024806F034F90D
:102AE80008BD00BF7410002008B5024806F02CF994
:102AF80008BD00BF5811002008B5024806F024F9A7
:102B080008BD00BF0C11002008B50AF015F8002117
:102B1800014803F097FD08BDF80E0020034AD2F8DB
:102B2800883043F47003C2F88830704700ED00E045
:102B380020EE800AF7EE007A77EEE00A044BD3ED38
:102B4800007A60EEA70A30EE200A83ED000A70478B
:102B58007010002000000000F8B540F6FE7398429F
:102B680002D99FED450AF8BDC0F57F600F3007EE2A
:102B7800900AF8EE677A17EE900AFDF7ADFC32A3DB
:102B8800D3E90023FDF700FD31A3D3E90023FDF7C6
:102B980025FEFDF70BFFFDF79FFC06460F462EA30B
:102BA800D3E90023FDF7F0FC04460D4632463B46C8
:102BB80025A1D1E90001FDF72FFB02460B4620466F
:102BC8002946FDF70BFEFDF7F1FE00EE100AF2EEC6
:102BD800047A80EE270A09F07DFE10EE100AFDF750
:102BE8007BFC1FA3D3E90023FDF7F8FD1EA3D3E95F
:102BF8000023FDF713FB02460B4600201F49FDF793
:102C0800EDFDFDF7D3FEFDF767FC19A3D3E900231B
:102C1800FDF702FBFDF7CAFE00EE100ADFED167A9B
:102C2800B4EEE70AF1EE10FA09D4DFED157AB4EE46
:102C3800E70AF1EE10FA96DD9FED110A93E79FED92
:102C48000E0A90E7AFF300806666666666660A401D
:102C58000000000000FEAF403333333333331B40F2
:102C6800000000000068AA40000000E0E1796B3F26
:102C78006666666666127140000020C20000F03F7A
:102C88000000F04210B5054C204601F00BFE20462E
:102C980001F0D0FAFFF760FF10BD00BF6C0D0020F7
:102CA80010B5054C204601F0FDFD204601F0C2FAA2
:102CB800FFF752FF10BD00BF000D0020000000000C
:102CC8002DE9F041244E304601F0ECFDDFF8988004
:102CD800B8F8CA309BB2B8F8A82092B29B1A07EE8F
:102CE800903AF8EEE77A9FED1D7AC7EE277A17EE4D
:102CF800900AFDF7F1FB04460D46304601F09AFABA
:102D0800FDF7C8FB12A3D3E90023FDF73DFC0646F7
:102D18000F46B8F8A80080B2FDF7CCFB02460B4678
:102D280030463946FDF778FA02460B4620462946D2
:102D3800FDF72AFC00220A4BFDF770FAFDF736FE74
:102D4800DFED080A00EE100AFFF7F2FEBDE8F08199
:102D5800999999999999F13F940C00200000C842DB
:102D680000003E40CDCCCC3D0075FF1F00B585B0BE
:102D780000230193029303930F48104A0260A9228B
:102D88004260836040F2E733C3608023836106F0CA
:102D980045F950B900230193039301A9064806F0A9
:102DA80057FB28B905B05DF804FBFFF7E1FBF1E735
:102DB800FFF7DEFBF6E700BF5811002000100040C7
:102DC80000B585B000230193029303930F48104A7E
:102DD8000260A9224260836041F28733C360802386
:102DE800836106F01BF950B900230193039301A9ED
:102DF800064806F02DFB28B905B05DF804FBFFF77F
:102E0800B7FBF1E7FFF7B4FBF6E700BF0C110020B2
:102E18000014004008B50A480A4B0360A923436020
:102E28000023836042F20F72C26003614361802312
:102E3800836106F0F3F800B908BDFFF799FBFBE7DB
:102E4800741000200044014000B585B00368224A90
:102E5800934208D0214A934218D0214A934228D05D
:102E680005B05DF804FB1F4B9A6D42F010029A659D
:102E78009B6D03F010030193019B00220321362070
:102E880002F020F8362002F02DF8E9E7154B9A6D8C
:102E980042F020029A659B6D03F020030293029B87
:102EA80000220221372002F00DF8372002F01AF82C
:102EB800D6E70C4B1A6E42F400321A661B6E03F406
:102EC80000330393039B00220321192001F0FAFF2A
:102ED800192002F007F8C3E7001000400014004072
:102EE80000440140001002400268094B9A4200D099
:102EF800704782B003F55C431A6E42F400521A66BA
:102F08001B6E03F400530193019B02B0704700BF8E
:102F18000034014000B587B0002301930293039366
:102F28000493059302680F4B9A4202D007B05DF8EC
:102F380004FB03F55C43DA6C42F00202DA64DB6CF2
:102F480003F002030093009B4FF4007301930223E4
:102F58000293032304930A23059301A9024802F06C
:102F680057F9E3E7003401400004004810B598B071
:102F780000241594169417940E940F941094119499
:102F88001294139414943422214601A809F0FCFBEE
:102F980029482A4B036005234360846040F2E733E5
:102FA800C360046144618023836106F067F80028E8
:102FB80036D1002315931693179315A91E4806F0CA
:102FC80047FA00282FD160230E934FF4FA730F931A
:102FD80000231093119312931393149308220EA9AC
:102FE800154806F0CBF808BB00230193029303931E
:102FF800049305934FF4005206920793089309939C
:103008004FF000720A920B930C930D9301A90A4892
:1030180006F074FA68B90848FFF77CFF18B010BDCD
:10302800FFF7A6FAC5E7FFF7A3FACCE7FFF7A0FA80
:10303800DAE7FFF79DFAEEE7C01000200034014000
:103048000220704710B50446FFF7FAFFA04214BFEC
:103058000020012010BD000010B50446FFF7F2FF64
:1030680058B1022C0BD84FF4067303FB04F000F59B
:103078000470044B1844043010BD0020FCE7002005
:10308800FAE700BFE4110020B0F5803F01D280B21A
:1030980070474FF6FF707047B5EEC00AF1EE10FAB0
:1030A8000FD908B5DFED087A20EE270AF6EE007A88
:1030B80030EE270AFCEEC07A17EE900AFFF7E4FF1D
:1030C80008BD0020704700BF00007A44B5EEC00A72
:1030D800F1EE10FA11DBDFED107A20EE270AF6EE9A
:1030E800007A30EE270AFDEEC07A17EE900A002823
:1030F80010DB08B5FFF7C8FF08BDDFED077A20EE43
:10310800270AF6EE007A30EE670AFDEEC07A17EE6F
:10311800900AECE7002070470000C842094B1B8862
:103128009BB2032B09D8DFE803F0020A040601204A
:10313800704704207047082070470F20704702200E
:10314800704700BFD80E0020084B9B79DBB2022BDA
:1031580007D0032B07D0012B01D000207047012096
:103168007047022070470320704700BFD80E002028
:10317800034B1878C0B2013818BF0120704700BF50
:1031880004000010064B9B79DBB2012B03D0054BE2
:10319800588B80B27047034B188B80B2704700BFC2
:1031A800D80E00200400002008B50D4B1B68002B2A
:1031B80013DD0B4BD3ED007AF8EEE77A9FED097A31
:1031C80067EE877AB2EE0E7A67EE877A9FED060A87
:1031D80087EE800AFFF760FF08BD0020FCE700BF0C
:1031E800040000205AF5514000F07F4508B5034B14
:1031F80093ED020AFFF750FF08BD00BFAC0E002098
:1032080008B50E4BD3ED007AF5EEC07AF1EE10FA60
:1032180009DC0B4BD3ED007AF5EEC07AF1EE10FA2B
:1032280006DC002003E093ED000AFFF735FF08BD38
:1032380093ED000AFFF730FFF9E700BF980E002072
:103248009C0E0020044B1B68D86BB0F57A7F01D91F
:103258004FF47A7080B27047C0100020014BB3F869
:1032680008027047E4110020134AD2ED016AF2EE19
:103278000E7A86EEA77A9FED116AC7EE067ADFED21
:10328800106A67EEA67AFDEEE77A0E4BC3ED027A76
:1032980092ED027ADFED0C7A27EE277ADFED0B7AD2
:1032A80037EE277AC7EE067A67EEA67AFDEEE77A5A
:1032B800C3ED037A704700BFAC0E00205AF55140A9
:1032C80000F07F4504000020295C0F3E3333D33FD4
:1032D80010B52DED028B654B93ED008A644BD3ED51
:1032E800007AF4EEC87AF1EE10FA01DD93ED008A67
:1032F800604B93ED000AFFF7CFFE5F4B18805F4BE2
:1033080093ED000AFFF7C8FE5D4B18805D4B93ED07
:10331800000AFFF7C1FE5C4B18805C4B93ED000A76
:10332800FFF7BAFE5A4B18805A4B93ED000AFFF785
:10333800CDFE594B18804D4B93ED000AFFF7C6FEA2
:10334800564B18804A4B93ED000AFFF7BFFE544BCB
:103358001880544C94ED010AFFF79EFE524B1880DA
:1033680094ED020AFFF798FE504B1880FFF700FF14
:103378004F4B18804F4B5B7A002B75D001224E4B78
:103388001A804C4B9A884D4B1A80FFF7C7FE4C4B5E
:103398001880FFF7D9FE4B4B18804B4CA069FFF7FC
:1033A80073FE4A4B18802069FFF76EFE484B188061
:1033B800A068FFF769FE474B18802068FFF764FE96
:1033C800454B1880B0EE480AFFF780FE434B188043
:1033D800434B93ED000AFFF779FE424B1880294BC7
:1033E80093ED000AFFF758FE3F4B18803F4B93EDD3
:1033F800000AFFF751FE3E4B1880244B93ED000A5C
:10340800FFF74AFE3B4B18803B4B93ED000AFFF752
:1034180043FE3A4B1880FFF7B5FE394B1880394BFD
:103428001C68D4F89C00FFF72FFE374B1880D4F89F
:103438001C02FFF729FE354B1880FFF703FF344BBA
:103448001880FFF70BFF334B1880FFF7D9FE324B7C
:103458001880FFF7CBFE314B1880FFF7A5FE304BE5
:103468001880BDEC028B10BD002288E7940E002066
:10347800900E0020A40E0020E21100209C0E0020D7
:10348800E0110020A00E0020DE110020980E002080
:10349800DC1100208C0E0020DA110020D811002049
:1034A800D6110020AC0E0020D4110020D21100202B
:1034B800D0110020D80E0020CE110020CC11002001
:1034C800CA110020C8110020B80E0020C611002023
:1034D800C4110020C2110020C0110020BE1100201C
:1034E800EC0E0020BC110020BA110020E80E0020CC
:1034F800B8110020B6110020E40E0020B4110020FD
:10350800B2110020F80E0020B0110020AE110020EA
:10351800AC110020AA110020A8110020A61100203B
:10352800A4110020054BD3F8BC322BB1D3F81402F8
:10353800B0FA80F04009704701207047F01C002065
:1035480020B310B5044690F8163253B1037823B966
:103558000F4AD2F88820202A04D0012B05D0022B4C
:103568000CD010BD80F81632FBE70A4AD2F8882042
:10357800202AF4D1002384F81632F2E7FFF7D2FFAD
:103588000028EED0002384F81632EAE7704700BF1F
:10359800541C0020C01B002038B54C4B1B8807EE7C
:1035A800103AB8EE477ADFED4A7AC7EE274A494B18
:1035B8001B8807EE103AB8EE477A87EE275A464B33
:1035C8001B8807EE103AB8EE477ADFED446AC7EE7B
:1035D800265A434B1B8807EE103AB8EE477AC7EED7
:1035E800276A404B1B8807EE103AB8EE477A87EEF9
:1035F800276A3D4B1C88B4F57A7F01D94FF47A7459
:103608003A4BC3ED014A83ED025AF2EE047AF4EE26
:10361800E75AF1EE10FA09DBDFED357AF4EEE75AF6
:10362800F1EE10FA02D8334BC3ED005AF7EE007AE8
:10363800F4EEE76AF1EE10FA09DBDFED287AF4EE32
:10364800E76AF1EE10FA02D82B4BC3ED006ADFED02
:103658002B7AB4EEE76AF1EE10FA09DBDFED287A8F
:10366800B4EEE76AF1EE10FA02D8264B83ED006A51
:103678001E4B4FF07E521A60FFF7F6FD224B1B8857
:10368800BBB10122214B5A725B7AA3B1204D0123B1
:1036980085F80632A5F8084203F1CC33A3FB0430C1
:1036A800C0F3CF00FEF7FEFA00F02EFCC5F80C02BE
:1036B80038BD0022E6E7FEF70FF8144B1B889BB2D3
:1036C800042BE3D0114B01221A80DFE7D41100202C
:1036D80000007A44D2110020BC1100200000C8422A
:1036E800B8110020B4110020AA110020AC0E00204F
:1036F80000001643EC0E0020E80E0020CDCCCC3D97
:1037080000004842E40E0020CE110020D80E002010
:10371800E411002008B5FFF73FFFFFF7D9FD08BD0A
:1037280010B504464FF4807206F00CFC38B9D4F892
:10373800803023B11A68136823F00403136010BDA6
:1037480070B50E4615461C46B3F5807F01D94FF477
:1037580080742888A04209D3A0420DD8B4F5807F90
:1037680017D0FF2C00D900242C8070BD211A89B2F3
:10377800304408F09FFDF4E7C0F5807189B2304409
:1037880008F098FD002CEFD02146304608F092FD55
:10379800E7E7C0F5807189B2304408F08BFDE0E7B7
:1037A80008B50020FFF74EFC78B1124BD3F88030F3
:1037B8005BB11B685B689BB2C3F580730E4A9BB212
:1037C800A2F201210020FFF7BBFF0120FFF73AFC1E
:1037D80078B10A4BD3F880305BB11B685B689BB249
:1037E800C3F58073064A9BB2A2F203110120FFF7CA
:1037F800A7FF08BD541C0020E6130020C01B0020B2
:10380800E813002000284AD070B514460546002960
:1038180047D0002A47D0B2F5857F46D290F81632B5
:1038280043B1037823B9264AD2F88820202A16D033
:10383800012B17D095F81632CBBB6E1C22463046AA
:1038480008F0D0FF2B78B3B1012B1ED021463046AB
:1038580008F06EFA88BB012385F8163224E080F858
:103868001632E7E7174BD3F88830202BE2D1002334
:1038780085F81632DEE722463146114805F0DEFEAD
:10388800B8B9012385F816320EE0224631460D48B4
:1038980005F0D4FE78B9012385F8163204E001203A
:1038A8007047012000E0012070BD0120FCE70220E4
:1038B800FAE70220F8E70220F6E70220F4E700BF63
:1038C800541C0020C01B002078B110B50446B0F885
:1038D800142202B910BD00F58571FFF793FF002887
:1038E800F8D10023A4F81432F4E77047B8B170B5E2
:1038F8000D4614460646A1B1AAB1B2F5857F01D39B
:10390800012011E0FFF77EFF70B12246294606F537
:10391800857008F067FFA6F81442002004E0012033
:103928007047012000E0012070BD000010B5224C56
:1039380040F65C020021204608F026FFFFF780FBD6
:103948002070012384F806324FF47A73A4F8083201
:1039580000F0DAFAC4F80C02002307E0164A4FF424
:10396800067101FB032282F814320133022BF5D9C8
:103978006420FEF797F9FFF7ABFC20210F4808F009
:10398800BFFE00210E4808F003FC00210D4808F096
:103998000FFC0020FFF756FB20B90120FFF752FB70
:1039A80028B910BD08490948FFF7BAFEF5E70849E4
:1039B8000848FFF7B5FEF4E7E411002028000020CE
:1039C800D53A00081D370008E5110020541C0020D6
:1039D800E5120020C01B002038B500F095FA044617
:1039E800FFF776FCFFF7DCFE1B4B93F806322BB192
:1039F800194BD3F80C32E31A312B01D800240CE010
:103A0800154DB5F80802154BA3FB0030C008FEF7AA
:103A180049F9C5F80C42F1E70134022C1AD80E4BCB
:103A28004FF4067202FB043393F81402FFF70AFB03
:103A38000028F1D04FF4067504FB05F505F504756B
:103A4800054B1D4404352846FFF77AFD2846FFF745
:103A58003BFFE1E738BD00BFE4110020CDCCCCCC62
:103A680038B5FFF735FC002400E00134022C1AD8E1
:103A78000E4B4FF4067202FB043393F81402FFF75F
:103A8800E1FA0028F1D04FF4067504FB05F505F5B9
:103A98000475064B1D4404352846FFF751FD28469A
:103AA800FFF712FFE1E708F099FB38BDE4110020A9
:103AB80038B504460D46044B1878FFF7CDFA2A4668
:103AC8002146FFF713FF38BDE411002008B5FFF7C2
:103AD800EFFF08BDA0B138B50C46054619B1022064
:103AE800FFF7B0FA00B938BD064B02221A70FFF78B
:103AF800EFFB2146284608F0DDFBFFF7E9FBF2E77C
:103B0800704700BFE411002008B5FFF7A5FA10B10F
:103B1800002280F8162208BD7047000008B5144B33
:103B2800984203D0134B984210D008BD0020FFF7ED
:103B3800EBFF0020104BA3F80202FFF783FA0028DE
:103B4800F3D00E490A48FFF7EBFDEEE70120FFF737
:103B5800DBFF094B0022A3F804220120FFF772FAC9
:103B68000028E2D006490348FFF7DAFDDDE700BF89
:103B7800541C0020C01B0020E4110020E511002087
:103B8800E512002008B5074B984203D0064B98422F
:103B980004D008BD0020FFF7B7FFFAE70120FFF7C0
:103BA800B3FFF6E7541C0020C01B002008B51748D7
:103BB800174B03604FF46123436000238360C360A5
:103BC80003610C2242618361C361036243628362C1
:103BD80006F02DF970B900210C4806F01EFA60B9FC
:103BE80000210A4806F03EFA50B9084806F0F6F9EE
:103BF80048B908BDFEF7BCFCEDE7FEF7B9FCEFE7F6
:103C0800FEF7B6FCF1E7FEF7B3FCF2E7541C002020
:103C18000038014008B51748174B03604FF461237B
:103C2800436000238360C36003610C2242618361A7
:103C3800C36103624362836206F0F9F870B9002138
:103C48000C4806F0EAF960B900210A4806F00AFAB9
:103C580050B9084806F0C2F948B908BDFEF788FC13
:103C6800EDE7FEF785FCEFE7FEF782FCF1E7FEF7EC
:103C78007FFCF2E7C01B002000440040F0B5A1B073
:103C8800044600211B911C911D911E911F915422E5
:103C980006A808F079FD23686D4A934204D06D4A5E
:103CA800934260D021B0F0BD0123069306A804F02A
:103CB800D7F900284ED1684B1A6E42F480421A6632
:103CC8001A6E02F480420192019ADA6C42F0020202
:103CD800DA64DB6C03F002030293029BC0231B939C
:103CE80002231C9300251D951E9507231F931BA9CE
:103CF8005A4801F08DFA5A485A4B0360182343601A
:103D08008560C56080230361456185612023C361A7
:103D18004FF40053036201F061F9F0B9504BC4F855
:103D280080309C625048514B036019234360102334
:103D380083600023C3608022026143618361C361A1
:103D48004FF40053036201F049F948B9464BE36761
:103D58009C62A7E7FEF70CFCADE7FEF709FCDDE780
:103D6800FEF706FCF2E70223069306A804F078F9AA
:103D7800002863D1384B9A6D42F400329A659A6DE7
:103D880002F400320392039ADA6C42F00102DA6418
:103D9800DA6C02F001020492049ADA6C42F0020230
:103DA800DA64DB6C03F002030593059B4FF40043D0
:103DB8001B9302271C9700251D951E9507261F9605
:103DC8001BA94FF0904001F023FA08231B931C977E
:103DD8001D951E951F961BA9204801F019FA244825
:103DE800244B03601A2343608560C5608023036108
:103DF800456185612023C3614FF40053036201F0DC
:103E0800EDF8F0B91A4BC4F880309C621A481B4B85
:103E180003601B234360102383600023C360802258
:103E2800026143618361C3614FF40053036201F08F
:103E3800D5F848B9104BE3679C6233E7FEF798FB67
:103E480098E7FEF795FBDDE7FEF792FBF2E700BF88
:103E580000380140004400400010024000040048BF
:103E6800601B002044000240001B00205800024054
:103E7800A01A00201C000240401A00203000024016
:103E8800104B1B680BB90120704710B504464FF45E
:103E98007A70B0FBF3F30C4A1068B0FBF3F001F052
:103EA80025F868B90F2C01D901200AE00022214623
:103EB8004FF0FF3001F006F8044B1C60002000E0D2
:103EC800012010BDA801002024000020AC01002022
:103ED80010B5032000F0E4FF0F20FFF7D1FF10B169
:103EE8000124204610BD0446FEF79AFDF9E70000BC
:103EF800034A1368034909680B441360704700BFFD
:103F0800E81C0020A8010020014B1868704700BF7A
:103F1800E81C002038B50446FFF7F6FF0546B4F163
:103F2800FF3F02D0044B1B681C44FFF7EDFF401B0A
:103F3800A042FAD338BD00BFA801002010B4303029
:103F48000B0A9B0003F00C03C45801F01F014FF04B
:103F58001F0C0CFA01FC24EA0C0CC2F384628A40A0
:103F68004CEA0202C2505DF8044B704710B414309A
:103F78004B0E9B0003F00403C458C1F304514FF0E7
:103F8800070C0CFA01FC24EA0C0C8A404CEA0202E9
:103F9800C2505DF8044B704730B583B000230193DD
:103FA800002800F032810446C36D13B323689A6871
:103FB80012F0005F05D09A6822F0204222F03F02FA
:103FC8009A602268936813F0805F1FD1936823F08A
:103FD800104323F03F0343F0805393608C4B1B68DE
:103FE8009B098C4AA2FB03239B0901335B000193C5
:103FF80009E0FDF7A9F80023236684F85830D5E7CF
:10400800019B013B0193019B002BF9D12268936826
:1040180013F0805F3DD1E36D43F01003E365236E39
:1040280043F0010323660120936813F0040300D0D2
:104038000123E16D11F0100F40F0E080002B40F0FB
:10404800DD80E36D23F4817343F00203E365936835
:1040580013F0010F3ED1B2F1A04F1CD06E4B9A4223
:1040680019D06E4B996811F0010100D001216C4BF9
:104078009B6813F0010300D001230B436949896849
:1040880011F0010100D001210B430CBF01230023D3
:1040980012E00020C8E74FF0A043996811F0010131
:1040A80000D001215C4B9B6813F0010300D0012371
:1040B8000B430CBF0123002363B1B2F1A04F6CD0B6
:1040C800554B9A4267D0584963688A6822F47C1233
:1040D80013438B60627FE36B43EA4233E268134326
:1040E800A268134394F8242043EA0243012A56D0D5
:1040F800E26A22B102F47872216B0A431343216801
:10410800CD684A4A2A401A43CA602268136923F0D4
:104118004063616B0B4313612268936813F00803D3
:1041280000D0012343BB237F94F83810490041EAAB
:104138008331D36823F4804323F002030B43D36015
:104148002369002B30D02268136943F4803313614C
:104158002268D2F8C03023F47F5323F03F0321694B
:104168000B43C2F8C03094F84030012B2BD02268A2
:10417800136923F0010313616369012B35D02268A9
:10418800136B23F00F031363E36D23F0030343F072
:104198000103E36537E0264996E7254994E7A26AD3
:1041A800013A43EA4243A3E72268136923F48033C0
:1041B80013612268D2F8C03023F47F5323F03F0301
:1041C800C2F8C030CFE721680B6923F4FF6323F0FE
:1041D8000403626CA56C2A43E56C2A43256D2A43C7
:1041E800134343F001030B61C6E721680B6B23F00F
:1041F8000F03226A013A13430B63C5E7E36D43F0EB
:104208001003E365012003B030BD0120FBE700BFC8
:1042180024000020632D3E050001005000040050DA
:104228000005005000060050000700500740F0FF4E
:10423800000300500368186C70477047704708B552
:10424800806AFFF7FBFF08BD704708B50346806A20
:10425800C26D12F0500F30D1C36D43F40073C365C3
:1042680003681A6812F0080F14D0DA6812F4406F65
:1042780020D1DB6813F4005F1CD1C36D23F4807375
:10428800C365C36D13F4805F14D1C36D43F001039C
:10429800C3650FE0DB6813F0020F0BD1C36D23F485
:1042A8008073C365C36D13F4805F03D1C36D43F09E
:1042B8000103C365FFF7C1FF08BDC26D12F0100FFF
:1042C80004D1426D526B18469047F5E7FFF7BCFFE3
:1042D800F2E708B5806AC36D43F04003C365036E17
:1042E80043F004030366FFF7AFFF08BDF0B583B0E2
:1042F8000023019390F85830012B00F048820446BF
:104308000D46012380F858300068836813F0040FC5
:1043180009D0E36D43F02003E3650120002384F80E
:10432800583003B0F0BD0A684968FFF707FE2068F7
:10433800836813F0040300D00123866816F008068A
:1043480000D00126002B3ED1002E3CD1AA68B2F144
:10435800004F78D02968FFF709FE2268536923F0D7
:104368000043536169692268D368C3F3C1035B00E2
:1043780099402869042873D0603252F82070AB4BFA
:104388003B402F6807F0F84C41EA0C010B4343F01F
:10439800004342F8203023682869AA69603353F83B
:1043A800201021F080710A4343F8202023682969EE
:1043B8002A7F012A51D0603353F8212022F000725D
:1043C800324343F821202268936813F0010F16D175
:1043D8002B68E868D2F8B010C3F3120621EA060188
:1043E80000F018069248F0400340C3F312030B4351
:1043F800C2F8B030EA688F4B9A4200F099802B6877
:104408008D4A134200F0B9812268B2F1A04F00F042
:1044180050818A498A4200F049818949896801F0B6
:10442800E070884DAB4200F04681874DAB4200F00A
:104438004281864DAB4200F07181854DAB4200F060
:10444800878100206AE700222968FFF78FFD22682C
:10445800536943F00043536184E74FF00076AAE7BD
:10446800136E116EC1F384612B68C3F3120080BB15
:10447800C3F38463994234D021684B6E4A6EC2F309
:1044880084622B68C3F3120080BBC3F384639A422F
:1044980034D021688B6E8A6EC2F384622B68C3F3B2
:1044A800120080BBC3F384639A4234D02168CB6E78
:1044B800CA6EC2F384622B68C3F3120080BBC3F3D5
:1044C80084639A427FF47FAFCB6E23F00043CB66C0
:1044D80079E793FAA3F313B1B3FA83F3CAE7202376
:1044E800C8E7136E23F000431366C5E793FAA3F3F6
:1044F80013B1B3FA83F3CAE72023C8E74B6E23F05E
:1045080000434B66C5E793FAA3F313B1B3FA83F3F9
:10451800CAE72023C8E78B6E23F000438B66C5E704
:1045280093FAA3F313B1B3FA83F3CAE72023C8E7D6
:1045380020682B68C3F3120626BB9A0E013202F0DC
:104548001F02092A8CBF00220122002A52D046BB32
:10455800990E0131890601F0F84176BB9F0E0137AB
:1045680007F01F070122BA401143AEBB9B0E01336F
:1045780003F01F0303EB43031B051943AA68FFF766
:10458800F5FC3CE793FAA3F24AB1B2FA82F201329F
:1045980002F01F02092A8CBF00220122D5E720223F
:1045A800F5E793FAA3F131B1B1FA81F10131890646
:1045B80001F0F841D1E72021F8E793FAA3F24AB1D4
:1045C800B2FA82F2013202F01F024FF0010C0CFA2B
:1045D80002F2C9E72022F5E793FAA3F343B1B3FA4D
:1045E80083F3013303F01F0303EB43031B05C4E705
:1045F8002023F6E776BB990E0131890601F0F841D0
:10460800A6BB9F0E013707F01F070122BA401143CE
:10461800DEBB9B0E013303F01F0303EB43031E3B7A
:104628001B0543F000731943A8E700BF00F0FF0320
:10463800FFFF070000007F400000088000010050D5
:1046480000070050000021C31000C090000052C7AE
:10465800000084CB93FAA3F131B1B1FA81F10131B1
:10466800890601F0F841CBE72021F8E793FAA3F295
:104678004AB1B2FA82F2013202F01F024FF0010C85
:104688000CFA02F2C3E72022F5E793FAA3F35BB131
:10469800B3FA83F3013303F01F0303EB43031E3B19
:1046A8001B0543F00073BEE72023F3E701F5007113
:1046B800B4E63849B2E611F4000F7FF4BAAEB2F1AD
:1046C800A04F04D0344B9A4201D0002026E6B2F124
:1046D800A04F19D0314B9A4214D0314A40F400000F
:1046E800936823F0E073184390602E4B1B689B0976
:1046F8002D4AA2FB03239B09013303EB43039B00D1
:10470800019306E0234AE9E7224AE7E7019B013BD8
:104718000193019B002BF9D10020FFE511F0807F68
:104728007FF48BAE1D4B9A4229D003F580639A42E1
:1047380027D0B2F1A04F09D0194940F080738A6898
:1047480022F0E07213438B600020E7E51149F4E79B
:1047580011F4800F17D1114B9A4216D0B2F1A04F25
:1047680009D00F4940F480038A6822F0E0721343AD
:104778008B600020D2E50749F4E70020CEE5002051
:10478800CCE50020CAE50020C8E50020C6E50220E7
:10479800C7E500BF000300500006005000010050AC
:1047A8000007005024000020632D3E0530B583B07B
:1047B8000023019303689A6812F0010F63D104463D
:1047C8009968324A114220D19A6822F0004222F0B8
:1047D8003F0242F001029A600368B3F1A04F20D073
:1047E8002B4A93421BD02B4B9B6813F4000F20D00D
:1047F800294B1B689B09294AA2FB03239B09013308
:1048080003EB43039B00019310E0C36D43F01003D7
:10481800C365036E43F001030366012034E0204BB7
:10482800E2E71F4BE0E7019B013B0193019B002B53
:10483800F9D1FFF769FB054623681A6812F0010FE2
:104848001FD19A6812F0010F07D19A6822F000422E
:1048580022F03F0242F001029A60FFF755FB431B2A
:10486800022BE9D923681B6813F0010FE4D1E36D2B
:1048780043F01003E365236E43F001032366012030
:1048880002E0002000E0002003B030BD3F000080BF
:10489800000100500007005024000020632D3E0551
:1048A8000003005038B504460368B3F1A04F60D048
:1048B800464A93425AD0464A956805F01F059B68B8
:1048C80013F0040F7DD194F85830012B7BD00123CD
:1048D80084F858302046FFF769FF00286DD1E36D52
:1048E80023F4706323F0010343F48073E3652368C2
:1048F800364A934242D002F5806293423BD01A4630
:10490800934200D01DB9E26D22F48012E265E26D97
:1049180012F4805F35D0226E22F0060222661C2235
:104928001A60002384F858302368284A93422ED00E
:1049380002F58062934227D01A4693422AD0092D65
:1049480005D840F22121E94011F0010F22D1E36D91
:1049580043F48013E365D36813F0007F32D0E36D2E
:1049680023F4405343F48053E3652BE002F50072CF
:10497800A2E7184AA0E7A2F58072C1E74FF0A0426B
:10498800BEE700222266CAE7A2F58072D5E74FF09B
:10499800A042D2E7DA6812F0007F05D0E26D22F477
:1049A800405242F48052E2659A6822F0004222F0B6
:1049B8003F0242F004029A6004E0002384F8583071
:1049C80000E0022038BD0220FCE700BF00010050D3
:1049D80000070050000300502DE9F04104460F463F
:1049E80090460068B0F1A04F24D0444B98421ED0A6
:1049F800434B9E6806F01F06856815F0040F77D1B3
:104A080094F85830012B76D0012384F858303D4B68
:104A1800984211D0092E05D840F22123F34013F013
:104A2800010F09D1002384F85830012061E003F513
:104A38000073DEE7344BDCE72046FFF7B7FE0028BB
:104A480052D1E36D23F4706323F0010343F48073C0
:104A5800E3652368294A934240D002F58062934275
:104A680039D01A46934200D01EB9E36D23F480135F
:104A7800E365E36D13F4805F33D0236E23F0060300
:104A88002366636D214ADA62636D214A1A63636D96
:104A9800204A5A6323681C221A60002384F858307D
:104AA8002268536843F0100353602268D36843F0C8
:104AB8000103D360216843463A464031606D00F0F7
:104AC800FBFA2268936823F0004323F03F0343F086
:104AD800040393600DE0A2F58072C3E74FF0A04293
:104AE800C0E700232366CCE7002384F8583000E0B1
:104AF8000220BDE8F0810220FBE700BF0001005062
:104B08000007005000060050000300505342000800
:104B180047420008DB42000838B50446026893683B
:104B280013F0020300D00123916811F0010F39D06E
:104B3800002B39D1936803F00D03012B09D0E36DE5
:104B480043F01003E365236E43F00103236601205D
:104B580029E0936823F0004323F03F0343F0020366
:104B68009360236803221A60FFF7CEF9054623688D
:104B78009B6813F0010F13D0FFF7C6F9401B0228FA
:104B8800F5D923689B6813F0010FF0D0E36D43F06B
:104B98001003E365236E43F001032366012002E05E
:104BA800002000E0002038BD0020FCE730B583B0CD
:104BB8000023019390F85830012B41D004460D464C
:104BC800012380F85830FFF7A7FF80BBE36D23F47B
:104BD800885323F0020343F00203E36522689368D5
:104BE80023F0404323F03F0305F080452B4343F077
:104BF8000043936023689B68002B06DBE36D23F07A
:104C0800030343F00103E36515E0019B01330193BE
:104C1800019A0C4B9A42EDD9E36D23F0120343F04D
:104C28001003E365002384F85830012006E0E36DA3
:104C380043F01003E365002384F8583003B030BD17
:104C48000220FBE701DE040090F85820012A00F05A
:104C5800D68010B49DB00346012280F85820002267
:104C6800189219920068B0F1A04F47D0654A904257
:104C780047D000220192019A002A46D0926812F089
:104C8800040200D00122846814F0040F40F0A780C9
:104C9800002A40F0A480B0F1A04F42D05A4A904276
:104CA8003CD05A4A086800285CD0906820F46040DC
:104CB8004C6893F838C044EA4C3420439060186834
:104CC800B0F1A04F2FD0504CA0422CD04D48846852
:104CD80014F0010400D001244D48806810F0010050
:104CE80000D0012020434B4CA46814F0010400D0EC
:104CF800012420430CBF0120002025E0424A0192F4
:104D0800B9E702F580720192B5E7DA6D42F0200248
:104D1800DA65002283F85820012068E002F5007265
:104D2800C0E73D4ABEE74FF0A040846814F0010494
:104D380000D001243448806810F0010000D0012020
:104D480020430CBF01200020002854D0906820F494
:104D5800716020F00F000C68896821430843906057
:104D6800002041E0916821F4604191601968B1F137
:104D7800A04F1AD02448814217D02249886810F0E1
:104D8800010000D001202249896811F0010100D0FA
:104D9800012101431F48806810F0010000D0012064
:104DA80001430CBF0121002110E04FF0A0418868A9
:104DB80010F0010000D001201349896811F00101A9
:104DC80000D0012101430CBF01210021A9B1916844
:104DD80021F4716121F00F019160002004E0DA6D87
:104DE80042F02002DA650120002283F858201DB025
:104DF8005DF8044B70470020F6E70020F4E7022036
:104E0800704700BF00040050000100500007005028
:104E1800000500500006005000030050002807DB82
:104E280000F01F02400901239340024A42F8203053
:104E3800704700BF00E100E0002808DB0901C9B2A3
:104E480000F1604000F5614080F80013704700F001
:104E58000F000901C9B2014B1954704714ED00E065
:104E680000B500F00700C0F1070CBCF1040F28BF23
:104E78004FF0040C031D062B0FD9C31E4FF0FF3E45
:104E88000EFA0CF021EA000199400EFA03FE22EA1C
:104E98000E0241EA02005DF804FB0023EEE7000081
:104EA800074AD36823F4E0631B041B0C000200F4D8
:104EB800E060034343F0BF6343F40033D3607047BB
:104EC80000ED00E010B50446054BD868C0F3022099
:104ED800FFF7C6FF01462046FFF7AEFF10BD00BF33
:104EE80000ED00E008B5FFF799FF08BD0138B0F103
:104EF800807F0BD24FF0E0235861054AF02182F8F9
:104F080023100020986107221A617047012070471A
:104F180000ED00E030B4C46C056D6560446D14B1FB
:104F2800846DC56D6560446C04F01F0C012404FA9F
:104F38000CF4056C6C60046863608368102B05D002
:104F4800036899600368DA6030BC704703689A6048
:104F58000368D960F8E700000368104A934214D840
:104F6800DBB2083B0E4AA2FB03231B090D49426C26
:104F780022F003020A4482640B4AC26403F01F034E
:104F8800012202FA03F303657047DBB2083B044AC7
:104F9800A2FB03231B0908330449E8E7070402407E
:104FA800CDCCCCCC0008024080080240200802404A
:104FB800436803F07F03074A1A4492004265064A91
:104FC8008265013B03F01F03012202FA03F3C36564
:104FD800704700BF3F8200104009024000285DD0A2
:104FE80010B5044601682E4B99423FD82D4B0B440F
:104FF8002D4AA2FB03231B099B0043642B4B03642C
:10500800022384F825300A6822F4FF4222F0700255
:10501800A368E06803432069034360690343A06908
:105028000343E0690343206A034313430B602046AC
:10503800FFF792FFA368B3F5804F22D06368A26C94
:1050480003F07F031360E36C226D5A606368013BD1
:10505800032B19D900236365A365E3650020E0638A
:10506800012384F8253084F8240010BD104B0B442C
:105078000D4AA2FB03231B099B0043640D4B0364E9
:10508800BEE700236360D9E72046FFF791FF636D11
:1050980000221A60A36DE26D5A60DFE701207047B5
:1050A80007040240F8FFFDBFCDCCCCCC0000024085
:1050B800F8FBFDBF0004024038B5044690F8240010
:1050C800012841D0012084F8240094F82500C0B2BA
:1050D800012804D0002384F82430022038BD02209F
:1050E80084F825000020E0632568286820F0010086
:1050F80028602046FFF70EFF236BD3B122681368A0
:1051080043F00E031360A36C1A6812F4803F03D0B7
:105118001A6842F480721A60636D1BB11A6842F40F
:1051280080721A602268136843F00103136000203C
:10513800D4E72268136823F0040313602268136815
:1051480043F00A031360DEE70220C7E738B5036CB3
:10515800196804682568436C03F01F0304229A4009
:105168000A4215D015F0040F12D0236813F0200F4F
:1051780003D1236823F004032360436C03F01F0268
:10518800016C042393404B60036B03B1984738BD0F
:1051980002229A400A421CD015F0020F19D0236847
:1051A80013F0200F06D1236823F00A03236001239C
:1051B80080F82530436C03F01F02016C02239340F2
:1051C8004B60002380F82430C36A002BDFD0984757
:1051D800DDE7082202FA03F30B42D8D015F0080FD6
:1051E800D5D0236823F00E032360436C03F01F031C
:1051F800016C012202FA03F34B60C26380F8252098
:10520800002380F82430436B002BC0D09847BEE7BA
:10521800F0B583B0002366E085685E000324B440DF
:1052280025EA0405CC68B4402C438460456825EA27
:105238000C054C68C4F300149C402C43446063E0A4
:105248008C68012C65D173E0DD08083550F82540DD
:1052580003F0070C4FEA8C0C4FF00F0E0EFA0CFE01
:1052680024EA0E0E0C6904FA0CF444EA0E0440F821
:10527800254062E0052400E0002404FA0EF42C43E3
:105288000CF1020C564D45F82C40564CA568D443F9
:1052980025EA02064F6817F4801F01D042EA050686
:1052A800504DAE60ED6804EA05064F6817F4001F1C
:1052B80001D042EA05064B4DEE606D6804EA05062A
:1052C8004F6817F4003F01D042EA0506454D6E606D
:1052D8002D682C404E6816F4803F01D042EA050440
:1052E800404A146001330A6832FA03F476D04FF06A
:1052F800010C0CFA03FC1CEA0202F3D04C6804F01F
:105308000304013C012C87D94C6804F00304032CE6
:1053180096D0C4684FEA430E4FF0030C0CFA0EFC0B
:1053280024EA0C0C8C6804FA0EF444EA0C04C460F9
:105338004C6804F00304022C86D004684FEA430E3C
:105348004FF0030C0CFA0EFC24EA0C0C4C6804F029
:10535800030404FA0EF444EA0C0404604C6814F4E0
:10536800403FBFD0204C256E45F001052566246ED0
:1053780004F001040194019C4FEA930C0CF102051E
:10538800174C54F8255003F0030E4FEA8E0E0F24E5
:1053980004FA0EF425EA0405B0F1904F3FF46CAF1F
:1053A800124CA04212D004F58064A04210D004F53B
:1053B8008064A0420ED004F58064A0420CD004F5AD
:1053C8008064A0423FF456AF062456E7012454E710
:1053D800022452E7032450E704244EE703B0F0BD4B
:1053E8000000014000040140001002400004004891
:1053F8000AB1816170478162704710B404682268FD
:1054080022F007028B68134323F01803CA681A4373
:10541800226003680A685A6103684A689A615DF8FD
:10542800044B704730B5046801F1010C4FEACC1CFD
:1054380054F80C3023F0070E936843EA0E0323F068
:105448001803D5682B4344F80C300368146803EB41
:10545800C113C3F894400368526803EBC113C3F83F
:10546800982030BD70B404682368D4F8A05323F0A2
:1054780020034E69334323F0C002202E09D08E69E1
:10548800022E06D0032E29D0042E2AD023F0E002C3
:1054980001E042F0200222F40062CB69134323F4B6
:1054A80080620B6A134323F0C0624B6A134323F0F4
:1054B80000628B6A134323F04043CA6A43EA8203BB
:1054C80023F000534A6B1A4325F480350B6B1D43B8
:1054D80022600368C3F8A05370BC704742F04002D2
:1054E800D9E742F08002D6E72DE9F04105684B1C68
:1054F800DB01EC5824F07044EC500668F35806EBD6
:10550800C114D4F8E880D4F8E440D6F8A05323F0C6
:10551800200C536943EA0C0C202B09D09369022B09
:1055280006D0032B60D0042B63D02CF4D07C03E08E
:105538002CF4C07C4CF0200C2CF4006CD36943EAAA
:105548000C0323F48063176A47EA030C2CF0C06C41
:10555800536A43EA0C0323F0006C936A43EA0C0392
:1055680023F0704CD36A43EA0C0323F40033576BDF
:10557800B7F1005F42D023F04003D2F838C04CEABC
:10558800030323F48023976D47EA030E2EF0FC7E75
:105598002EF4803E136D43EA0E0E28F03F07D36BBE
:1055A80003F03F033B4323F00043176C3B43BCF13C
:1055B800000F03D124F48074576C3C43976CB7F503
:1055C800606F1ED0B7F5F05F1BD024F4F0543C4355
:1055D80024F48044D76C3C43576D05291AD8DFE87A
:1055E80001F01431373D43492CF4807C4CF0800C99
:1055F800A2E72CF0800C4CF4807C9DE743F4003348
:10560800B9E7BCF1400FE3D1DFE725F40035126BB1
:1056180045EA42054A1CD20146F802E0026802EB5C
:10562800C112C2F8E830036803EBC113C3F8E440C1
:10563800036803EBC113C3F8D4700368C3F8A0531D
:10564800BDE8F08125F48025126B45EA8205E1E783
:1056580025F40025126B45EAC205DBE725F4801521
:10566800126B45EA0215D5E725F40015126B45EAD9
:105678004215CFE725F48005126B45EA8215C9E784
:1056880030B4006800EBC113D3F8EC3023F01003FA
:10569800146843EA041323F48013546844EA030C9F
:1056A8002CF4803CD36843EA0C0323F4003C936851
:1056B80043EA0C039469012C05D000EBC110C0F833
:1056C800EC3030BC704723F00403156945EA030C3D
:1056D8002CF0020C536943EA0C0323F00103234323
:1056E800EBE70000F0B4076807EBC114D4F8E460F6
:1056F800D4F8B850402A52D035D8012A4FD0002AC1
:105708005ED0202A5ED8022A5ED3023A012404FA27
:1057180002F2324C224230D144F2040422423ED1F9
:105728000022FE24944026EA04061C68944044EAB9
:10573800060CDC68944044EA0C041E6906FA02FC74
:105748004CEA040C5C69944044EA0C0C9C69944053
:1057580044EA0C04082E39D0036803EBC113C3F8DC
:10576800E440F0BC7047B2F5007F06D012D9B2F51C
:10577800806F14D0B2F5006F20D15A6807EBC117BB
:10578800C7F8C42002689C6802EBC112C2F8C8407E
:105798001022C6E7802AF0D0B2F5807F0CD15A6873
:1057A80007EBC117C7F8BC2002689C6802EBC1125E
:1057B800C2F8C0400022B4E70022B2E70022B0E7F6
:1057C8000022AEE70022ACE70022AAE715F0022F7C
:1057D800C2D1DB6993401C43BEE700BF41000040D3
:1057E80006293CD8DFE801F00C141C242C340400F2
:1057F8000268D2F8843343F00103C2F88433704757
:105808000268D2F8843343F00203C2F88433704745
:105818000268D2F8843343F00403C2F88433704733
:105828000268D2F8843343F00803C2F8843370471F
:105838000268D2F8843343F01003C2F88433704707
:105848000268D2F8843343F02003C2F884337047E7
:105858000268D2F8843343F04003C2F884337047B7
:10586800002864D010B582B00446022380F8DD30E9
:105878000023C0F8E030C0F8E430C0F8E830C0F8E1
:10588800EC30C0F8F030C0F8F430C0F8F830836875
:1058980013F0010F12D00268264B9A4225D02168D6
:1058A8000A6822F44042236903F44043134323F473
:1058B8004053626902F440521A430A602046FCF7DA
:1058C80019FCA36813F0020F08D021680A6822F4B3
:1058D8004072E36803F4407313430B60012384F8B8
:1058E800DD30002384F8DC301CE003F528431A6E11
:1058F80042F080621A661B6E03F080630193019B7D
:10590800CDE7C3EBC30204EB820200219161D161B0
:10591800116251629162C3EBC30204EB820211630C
:105928000133DBB2062BECD9002002B010BD0120F8
:10593800704700BF0068014090F8DC30012B32D07E
:10594800012380F8DC30022380F8DD30B1F1FF3F1D
:105958001AD00268D2F8CC3343F00203C2F8CC3331
:105968000268D2F8CC3323F00C030B43C2F8CC33D3
:105978000268D2F8CC3343F00103C2F8CC330123D8
:1059880080F8DD30002070470268D2F8CC3323F06D
:105998000203C2F8CC330268D2F8CC3343F00103D7
:1059A800C2F8CC33EBE70220704770B504460D46C9
:1059B800FEF7AAFA06462368D3F8883313F4803F23
:1059C8000ED1B5F1FF3FF6D0FEF79EFA801BA84234
:1059D80001D8002DEFD1072384F8DD30032005E03E
:1059E800012384F8DD30002084F8DC0070BD10B598
:1059F800044690F8DD00C0B202280BD0022384F8D8
:105A0800DD30062907D02046FFF70CFD012384F876
:105A1800DD30002010BD11462046FFF7EEFCF5E70B
:105A2800034690F8DD00C0B2022800F0318193F8F7
:105A3800DC00012800F0288170B5012083F8DC0023
:105A4800022083F8DD001868D0F88053D0F8FC43B2
:105A580020292AD8002900F00C8101F1FF3CBCF173
:105A68001F0F00F20681DFE81CF063007F000401CD
:105A78008C000401040104019900040104010401DB
:105A88000401040104010401A60004010401040145
:105A980004010401040104010401040104010401D6
:105AA8000401040104010401B900B1F5807F00F08C
:105AB800C9801DD9B1F5007F40F0DB8024F4E004F3
:105AC80016684FEA061C0CF4E00C4CEA0404D0F803
